{
  "_format": "hh-sol-artifact-1",
  "contractName": "OmSbToken",
  "sourceName": "contracts/OmSbToken.sol",
  "abi": [
    {
      "inputs": [],
      "stateMutability": "nonpayable",
      "type": "constructor"
    },
    {
      "anonymous": false,
      "inputs": [
        {
          "indexed": true,
          "internalType": "address",
          "name": "owner",
          "type": "address"
        },
        {
          "indexed": true,
          "internalType": "address",
          "name": "approved",
          "type": "address"
        },
        {
          "indexed": true,
          "internalType": "uint256",
          "name": "tokenId",
          "type": "uint256"
        }
      ],
      "name": "Approval",
      "type": "event"
    },
    {
      "anonymous": false,
      "inputs": [
        {
          "indexed": true,
          "internalType": "address",
          "name": "owner",
          "type": "address"
        },
        {
          "indexed": true,
          "internalType": "address",
          "name": "operator",
          "type": "address"
        },
        {
          "indexed": false,
          "internalType": "bool",
          "name": "approved",
          "type": "bool"
        }
      ],
      "name": "ApprovalForAll",
      "type": "event"
    },
    {
      "anonymous": false,
      "inputs": [
        {
          "indexed": true,
          "internalType": "address",
          "name": "delegator",
          "type": "address"
        },
        {
          "indexed": true,
          "internalType": "address",
          "name": "fromDelegate",
          "type": "address"
        },
        {
          "indexed": true,
          "internalType": "address",
          "name": "toDelegate",
          "type": "address"
        }
      ],
      "name": "DelegateChanged",
      "type": "event"
    },
    {
      "anonymous": false,
      "inputs": [
        {
          "indexed": true,
          "internalType": "address",
          "name": "delegate",
          "type": "address"
        },
        {
          "indexed": false,
          "internalType": "uint256",
          "name": "previousBalance",
          "type": "uint256"
        },
        {
          "indexed": false,
          "internalType": "uint256",
          "name": "newBalance",
          "type": "uint256"
        }
      ],
      "name": "DelegateVotesChanged",
      "type": "event"
    },
    {
      "anonymous": false,
      "inputs": [
        {
          "indexed": true,
          "internalType": "address",
          "name": "previousOwner",
          "type": "address"
        },
        {
          "indexed": true,
          "internalType": "address",
          "name": "newOwner",
          "type": "address"
        }
      ],
      "name": "OwnershipTransferred",
      "type": "event"
    },
    {
      "anonymous": false,
      "inputs": [
        {
          "indexed": true,
          "internalType": "address",
          "name": "from",
          "type": "address"
        },
        {
          "indexed": true,
          "internalType": "address",
          "name": "to",
          "type": "address"
        },
        {
          "indexed": true,
          "internalType": "uint256",
          "name": "tokenId",
          "type": "uint256"
        }
      ],
      "name": "Transfer",
      "type": "event"
    },
    {
      "inputs": [],
      "name": "DOMAIN_SEPARATOR",
      "outputs": [
        {
          "internalType": "bytes32",
          "name": "",
          "type": "bytes32"
        }
      ],
      "stateMutability": "view",
      "type": "function"
    },
    {
      "inputs": [
        {
          "internalType": "address",
          "name": "to",
          "type": "address"
        },
        {
          "internalType": "uint256",
          "name": "tokenId",
          "type": "uint256"
        }
      ],
      "name": "approve",
      "outputs": [],
      "stateMutability": "nonpayable",
      "type": "function"
    },
    {
      "inputs": [
        {
          "internalType": "address",
          "name": "owner",
          "type": "address"
        }
      ],
      "name": "balanceOf",
      "outputs": [
        {
          "internalType": "uint256",
          "name": "",
          "type": "uint256"
        }
      ],
      "stateMutability": "view",
      "type": "function"
    },
    {
      "inputs": [
        {
          "internalType": "address",
          "name": "delegatee",
          "type": "address"
        }
      ],
      "name": "delegate",
      "outputs": [],
      "stateMutability": "nonpayable",
      "type": "function"
    },
    {
      "inputs": [
        {
          "internalType": "address",
          "name": "delegatee",
          "type": "address"
        },
        {
          "internalType": "uint256",
          "name": "nonce",
          "type": "uint256"
        },
        {
          "internalType": "uint256",
          "name": "expiry",
          "type": "uint256"
        },
        {
          "internalType": "uint8",
          "name": "v",
          "type": "uint8"
        },
        {
          "internalType": "bytes32",
          "name": "r",
          "type": "bytes32"
        },
        {
          "internalType": "bytes32",
          "name": "s",
          "type": "bytes32"
        }
      ],
      "name": "delegateBySig",
      "outputs": [],
      "stateMutability": "nonpayable",
      "type": "function"
    },
    {
      "inputs": [
        {
          "internalType": "address",
          "name": "account",
          "type": "address"
        }
      ],
      "name": "delegates",
      "outputs": [
        {
          "internalType": "address",
          "name": "",
          "type": "address"
        }
      ],
      "stateMutability": "view",
      "type": "function"
    },
    {
      "inputs": [
        {
          "internalType": "uint256",
          "name": "tokenId",
          "type": "uint256"
        }
      ],
      "name": "getApproved",
      "outputs": [
        {
          "internalType": "address",
          "name": "",
          "type": "address"
        }
      ],
      "stateMutability": "view",
      "type": "function"
    },
    {
      "inputs": [
        {
          "internalType": "uint256",
          "name": "blockNumber",
          "type": "uint256"
        }
      ],
      "name": "getPastTotalSupply",
      "outputs": [
        {
          "internalType": "uint256",
          "name": "",
          "type": "uint256"
        }
      ],
      "stateMutability": "view",
      "type": "function"
    },
    {
      "inputs": [
        {
          "internalType": "address",
          "name": "account",
          "type": "address"
        },
        {
          "internalType": "uint256",
          "name": "blockNumber",
          "type": "uint256"
        }
      ],
      "name": "getPastVotes",
      "outputs": [
        {
          "internalType": "uint256",
          "name": "",
          "type": "uint256"
        }
      ],
      "stateMutability": "view",
      "type": "function"
    },
    {
      "inputs": [
        {
          "internalType": "address",
          "name": "account",
          "type": "address"
        }
      ],
      "name": "getVotes",
      "outputs": [
        {
          "internalType": "uint256",
          "name": "",
          "type": "uint256"
        }
      ],
      "stateMutability": "view",
      "type": "function"
    },
    {
      "inputs": [
        {
          "internalType": "address",
          "name": "",
          "type": "address"
        }
      ],
      "name": "haveId",
      "outputs": [
        {
          "internalType": "bool",
          "name": "",
          "type": "bool"
        }
      ],
      "stateMutability": "view",
      "type": "function"
    },
    {
      "inputs": [
        {
          "internalType": "address",
          "name": "",
          "type": "address"
        }
      ],
      "name": "identityData",
      "outputs": [
        {
          "internalType": "string",
          "name": "",
          "type": "string"
        }
      ],
      "stateMutability": "view",
      "type": "function"
    },
    {
      "inputs": [
        {
          "internalType": "address",
          "name": "owner",
          "type": "address"
        },
        {
          "internalType": "address",
          "name": "operator",
          "type": "address"
        }
      ],
      "name": "isApprovedForAll",
      "outputs": [
        {
          "internalType": "bool",
          "name": "",
          "type": "bool"
        }
      ],
      "stateMutability": "view",
      "type": "function"
    },
    {
      "inputs": [],
      "name": "name",
      "outputs": [
        {
          "internalType": "string",
          "name": "",
          "type": "string"
        }
      ],
      "stateMutability": "view",
      "type": "function"
    },
    {
      "inputs": [
        {
          "internalType": "address",
          "name": "owner",
          "type": "address"
        }
      ],
      "name": "nonces",
      "outputs": [
        {
          "internalType": "uint256",
          "name": "",
          "type": "uint256"
        }
      ],
      "stateMutability": "view",
      "type": "function"
    },
    {
      "inputs": [],
      "name": "owner",
      "outputs": [
        {
          "internalType": "address",
          "name": "",
          "type": "address"
        }
      ],
      "stateMutability": "view",
      "type": "function"
    },
    {
      "inputs": [
        {
          "internalType": "uint256",
          "name": "tokenId",
          "type": "uint256"
        }
      ],
      "name": "ownerOf",
      "outputs": [
        {
          "internalType": "address",
          "name": "",
          "type": "address"
        }
      ],
      "stateMutability": "view",
      "type": "function"
    },
    {
      "inputs": [],
      "name": "renounceOwnership",
      "outputs": [],
      "stateMutability": "nonpayable",
      "type": "function"
    },
    {
      "inputs": [
        {
          "internalType": "address",
          "name": "to",
          "type": "address"
        },
        {
          "internalType": "string",
          "name": "_identityData",
          "type": "string"
        }
      ],
      "name": "safeMint",
      "outputs": [],
      "stateMutability": "nonpayable",
      "type": "function"
    },
    {
      "inputs": [
        {
          "internalType": "address",
          "name": "from",
          "type": "address"
        },
        {
          "internalType": "address",
          "name": "to",
          "type": "address"
        },
        {
          "internalType": "uint256",
          "name": "tokenId",
          "type": "uint256"
        }
      ],
      "name": "safeTransferFrom",
      "outputs": [],
      "stateMutability": "nonpayable",
      "type": "function"
    },
    {
      "inputs": [
        {
          "internalType": "address",
          "name": "from",
          "type": "address"
        },
        {
          "internalType": "address",
          "name": "to",
          "type": "address"
        },
        {
          "internalType": "uint256",
          "name": "tokenId",
          "type": "uint256"
        },
        {
          "internalType": "bytes",
          "name": "data",
          "type": "bytes"
        }
      ],
      "name": "safeTransferFrom",
      "outputs": [],
      "stateMutability": "nonpayable",
      "type": "function"
    },
    {
      "inputs": [
        {
          "internalType": "address",
          "name": "operator",
          "type": "address"
        },
        {
          "internalType": "bool",
          "name": "approved",
          "type": "bool"
        }
      ],
      "name": "setApprovalForAll",
      "outputs": [],
      "stateMutability": "nonpayable",
      "type": "function"
    },
    {
      "inputs": [
        {
          "internalType": "bytes4",
          "name": "interfaceId",
          "type": "bytes4"
        }
      ],
      "name": "supportsInterface",
      "outputs": [
        {
          "internalType": "bool",
          "name": "",
          "type": "bool"
        }
      ],
      "stateMutability": "view",
      "type": "function"
    },
    {
      "inputs": [],
      "name": "symbol",
      "outputs": [
        {
          "internalType": "string",
          "name": "",
          "type": "string"
        }
      ],
      "stateMutability": "view",
      "type": "function"
    },
    {
      "inputs": [
        {
          "internalType": "uint256",
          "name": "tokenId",
          "type": "uint256"
        }
      ],
      "name": "tokenURI",
      "outputs": [
        {
          "internalType": "string",
          "name": "",
          "type": "string"
        }
      ],
      "stateMutability": "view",
      "type": "function"
    },
    {
      "inputs": [
        {
          "internalType": "address",
          "name": "from",
          "type": "address"
        },
        {
          "internalType": "address",
          "name": "to",
          "type": "address"
        },
        {
          "internalType": "uint256",
          "name": "tokenId",
          "type": "uint256"
        }
      ],
      "name": "transferFrom",
      "outputs": [],
      "stateMutability": "nonpayable",
      "type": "function"
    },
    {
      "inputs": [
        {
          "internalType": "address",
          "name": "newOwner",
          "type": "address"
        }
      ],
      "name": "transferOwnership",
      "outputs": [],
      "stateMutability": "nonpayable",
      "type": "function"
    }
  ],
  "bytecode": "0x6101406040523480156200001257600080fd5b506040518060400160405280600c81526020017f4f6d53624964656e7469747900000000000000000000000000000000000000008152506040518060400160405280600181526020017f31000000000000000000000000000000000000000000000000000000000000008152506040518060400160405280600c81526020017f4f6d53624964656e7469747900000000000000000000000000000000000000008152506040518060400160405280600381526020017f4f5349000000000000000000000000000000000000000000000000000000000081525081600090805190602001906200010392919062000304565b5080600190805190602001906200011c92919062000304565b5050506200013f62000133620001fa60201b60201c565b6200020260201b60201c565b60008280519060200120905060008280519060200120905060007f8b73c3c69bb8fe3d512ecc4cf759cc79239f7b179b0ffacaa9a75d522b39400f90508260e081815250508161010081815250504660a08181525050620001a8818484620002c860201b60201c565b608081815250503073ffffffffffffffffffffffffffffffffffffffff1660c08173ffffffffffffffffffffffffffffffffffffffff1660601b815250508061012081815250505050505050620004f1565b600033905090565b6000600660009054906101000a900473ffffffffffffffffffffffffffffffffffffffff16905081600660006101000a81548173ffffffffffffffffffffffffffffffffffffffff021916908373ffffffffffffffffffffffffffffffffffffffff1602179055508173ffffffffffffffffffffffffffffffffffffffff168173ffffffffffffffffffffffffffffffffffffffff167f8be0079c531659141344cd1fd0a4f28419497f9722a3daafe3b4186f6b6457e060405160405180910390a35050565b60008383834630604051602001620002e5959493929190620003e7565b6040516020818303038152906040528051906020012090509392505050565b82805462000312906200048c565b90600052602060002090601f01602090048101928262000336576000855562000382565b82601f106200035157805160ff191683800117855562000382565b8280016001018555821562000382579182015b828111156200038157825182559160200191906001019062000364565b5b50905062000391919062000395565b5090565b5b80821115620003b057600081600090555060010162000396565b5090565b620003bf8162000444565b82525050565b620003d08162000458565b82525050565b620003e18162000482565b82525050565b600060a082019050620003fe6000830188620003c5565b6200040d6020830187620003c5565b6200041c6040830186620003c5565b6200042b6060830185620003d6565b6200043a6080830184620003b4565b9695505050505050565b6000620004518262000462565b9050919050565b6000819050919050565b600073ffffffffffffffffffffffffffffffffffffffff82169050919050565b6000819050919050565b60006002820490506001821680620004a557607f821691505b60208210811415620004bc57620004bb620004c2565b5b50919050565b7f4e487b7100000000000000000000000000000000000000000000000000000000600052602260045260246000fd5b60805160a05160c05160601c60e0516101005161012051614a486200054460003960006117280152600061176a015260006117490152600061167e015260006116d4015260006116fd0152614a486000f3fe608060405234801561001057600080fd5b50600436106101a95760003560e01c80637ecebe00116100f9578063c3cda52011610097578063e985e9c511610071578063e985e9c5146104f0578063f2adfd5414610520578063f2fde38b14610550578063f49dbf971461056c576101a9565b8063c3cda52014610488578063c87b56dd146104a4578063d204c45e146104d4576101a9565b806395d89b41116100d357806395d89b41146104025780639ab24eb014610420578063a22cb46514610450578063b88d4fde1461046c576101a9565b80637ecebe00146103845780638da5cb5b146103b45780638e539e8c146103d2576101a9565b80633a46b1a8116101665780635c19a95c116101405780635c19a95c146102fe5780636352211e1461031a57806370a082311461034a578063715018a61461037a576101a9565b80633a46b1a81461028257806342842e0e146102b2578063587cde1e146102ce576101a9565b806301ffc9a7146101ae57806306fdde03146101de578063081812fc146101fc578063095ea7b31461022c57806323b872dd146102485780633644e51514610264575b600080fd5b6101c860048036038101906101c39190613593565b61059c565b6040516101d59190613b40565b60405180910390f35b6101e661067e565b6040516101f39190613c53565b60405180910390f35b610216600480360381019061021191906135e5565b610710565b6040516102239190613ad9565b60405180910390f35b610246600480360381019061024191906134ce565b610756565b005b610262600480360381019061025d9190613374565b61086e565b005b61026c6108ce565b6040516102799190613b5b565b60405180910390f35b61029c600480360381019061029791906134ce565b6108dd565b6040516102a99190613f75565b60405180910390f35b6102cc60048036038101906102c79190613374565b610938565b005b6102e860048036038101906102e3919061330f565b610958565b6040516102f59190613ad9565b60405180910390f35b6103186004803603810190610313919061330f565b6109c1565b005b610334600480360381019061032f91906135e5565b6109db565b6040516103419190613ad9565b60405180910390f35b610364600480360381019061035f919061330f565b610a8d565b6040516103719190613f75565b60405180910390f35b610382610b45565b005b61039e6004803603810190610399919061330f565b610b59565b6040516103ab9190613f75565b60405180910390f35b6103bc610ba9565b6040516103c99190613ad9565b60405180910390f35b6103ec60048036038101906103e791906135e5565b610bd3565b6040516103f99190613f75565b60405180910390f35b61040a610c32565b6040516104179190613c53565b60405180910390f35b61043a6004803603810190610435919061330f565b610cc4565b6040516104479190613f75565b60405180910390f35b61046a6004803603810190610465919061343e565b610d14565b005b610486600480360381019061048191906133c3565b610d2a565b005b6104a2600480360381019061049d919061350a565b610d8c565b005b6104be60048036038101906104b991906135e5565b610e90565b6040516104cb9190613c53565b60405180910390f35b6104ee60048036038101906104e9919061347a565b610ef8565b005b61050a60048036038101906105059190613338565b611030565b6040516105179190613b40565b60405180910390f35b61053a6004803603810190610535919061330f565b6110c4565b6040516105479190613b40565b60405180910390f35b61056a6004803603810190610565919061330f565b6110e4565b005b6105866004803603810190610581919061330f565b611168565b6040516105939190613c53565b60405180910390f35b60007f80ac58cd000000000000000000000000000000000000000000000000000000007bffffffffffffffffffffffffffffffffffffffffffffffffffffffff1916827bffffffffffffffffffffffffffffffffffffffffffffffffffffffff1916148061066757507f5b5e139f000000000000000000000000000000000000000000000000000000007bffffffffffffffffffffffffffffffffffffffffffffffffffffffff1916827bffffffffffffffffffffffffffffffffffffffffffffffffffffffff1916145b80610677575061067682611208565b5b9050919050565b60606000805461068d9061420b565b80601f01602080910402602001604051908101604052809291908181526020018280546106b99061420b565b80156107065780601f106106db57610100808354040283529160200191610706565b820191906000526020600020905b8154815290600101906020018083116106e957829003601f168201915b5050505050905090565b600061071b82611272565b6004600083815260200190815260200160002060009054906101000a900473ffffffffffffffffffffffffffffffffffffffff169050919050565b6000610761826109db565b90508073ffffffffffffffffffffffffffffffffffffffff168373ffffffffffffffffffffffffffffffffffffffff1614156107d2576040517f08c379a00000000000000000000000000000000000000000000000000000000081526004016107c990613f15565b60405180910390fd5b8073ffffffffffffffffffffffffffffffffffffffff166107f16112bd565b73ffffffffffffffffffffffffffffffffffffffff161480610820575061081f8161081a6112bd565b611030565b5b61085f576040517f08c379a000000000000000000000000000000000000000000000000000000000815260040161085690613e75565b60405180910390fd5b61086983836112c5565b505050565b61087f6108796112bd565b8261137e565b6108be576040517f08c379a00000000000000000000000000000000000000000000000000000000081526004016108b590613f55565b60405180910390fd5b6108c9838383611413565b505050565b60006108d861167a565b905090565b600061093082600860008673ffffffffffffffffffffffffffffffffffffffff1673ffffffffffffffffffffffffffffffffffffffff16815260200190815260200160002061179490919063ffffffff16565b905092915050565b61095383838360405180602001604052806000815250610d2a565b505050565b6000600760008373ffffffffffffffffffffffffffffffffffffffff1673ffffffffffffffffffffffffffffffffffffffff16815260200190815260200160002060009054906101000a900473ffffffffffffffffffffffffffffffffffffffff169050919050565b60006109cb6112bd565b90506109d78183611938565b5050565b6000806002600084815260200190815260200160002060009054906101000a900473ffffffffffffffffffffffffffffffffffffffff169050600073ffffffffffffffffffffffffffffffffffffffff168173ffffffffffffffffffffffffffffffffffffffff161415610a84576040517f08c379a0000000000000000000000000000000000000000000000000000000008152600401610a7b90613ef5565b60405180910390fd5b80915050919050565b60008073ffffffffffffffffffffffffffffffffffffffff168273ffffffffffffffffffffffffffffffffffffffff161415610afe576040517f08c379a0000000000000000000000000000000000000000000000000000000008152600401610af590613df5565b60405180910390fd5b600360008373ffffffffffffffffffffffffffffffffffffffff1673ffffffffffffffffffffffffffffffffffffffff168152602001908152602001600020549050919050565b610b4d611a4c565b610b576000611aca565b565b6000610ba2600a60008473ffffffffffffffffffffffffffffffffffffffff1673ffffffffffffffffffffffffffffffffffffffff168152602001908152602001600020611b90565b9050919050565b6000600660009054906101000a900473ffffffffffffffffffffffffffffffffffffffff16905090565b6000438210610c17576040517f08c379a0000000000000000000000000000000000000000000000000000000008152600401610c0e90613e35565b60405180910390fd5b610c2b82600961179490919063ffffffff16565b9050919050565b606060018054610c419061420b565b80601f0160208091040260200160405190810160405280929190818152602001828054610c6d9061420b565b8015610cba5780601f10610c8f57610100808354040283529160200191610cba565b820191906000526020600020905b815481529060010190602001808311610c9d57829003601f168201915b5050505050905090565b6000610d0d600860008473ffffffffffffffffffffffffffffffffffffffff1673ffffffffffffffffffffffffffffffffffffffff168152602001908152602001600020611b9e565b9050919050565b610d26610d1f6112bd565b8383611c5f565b5050565b610d3b610d356112bd565b8361137e565b610d7a576040517f08c379a0000000000000000000000000000000000000000000000000000000008152600401610d7190613f55565b60405180910390fd5b610d8684848484611dcc565b50505050565b83421115610dcf576040517f08c379a0000000000000000000000000000000000000000000000000000000008152600401610dc690613e15565b60405180910390fd5b6000610e31610e297fe48329057bfd03d55e49b547132e39cffd9c1820ad7b9d4c5307691425d15adf898989604051602001610e0e9493929190613b76565b60405160208183030381529060405280519060200120611e28565b858585611e42565b9050610e3c81611e6d565b8614610e7d576040517f08c379a0000000000000000000000000000000000000000000000000000000008152600401610e7490613cb5565b60405180910390fd5b610e878188611938565b50505050505050565b6060610e9b82611272565b6000610ea5611ecb565b90506000815111610ec55760405180602001604052806000815250610ef0565b80610ecf84611ee2565b604051602001610ee0929190613a7e565b6040516020818303038152906040525b915050919050565b610f00611a4c565b60001515600d60008473ffffffffffffffffffffffffffffffffffffffff1673ffffffffffffffffffffffffffffffffffffffff16815260200190815260200160002060009054906101000a900460ff16151514610f5d57600080fd5b6000610f69600b611b90565b9050610f75600b61208f565b81600c60008573ffffffffffffffffffffffffffffffffffffffff1673ffffffffffffffffffffffffffffffffffffffff1681526020019081526020016000209080519060200190610fc8929190613109565b506001600d60008573ffffffffffffffffffffffffffffffffffffffff1673ffffffffffffffffffffffffffffffffffffffff16815260200190815260200160002060006101000a81548160ff02191690831515021790555061102b83826120a5565b505050565b6000600560008473ffffffffffffffffffffffffffffffffffffffff1673ffffffffffffffffffffffffffffffffffffffff16815260200190815260200160002060008373ffffffffffffffffffffffffffffffffffffffff1673ffffffffffffffffffffffffffffffffffffffff16815260200190815260200160002060009054906101000a900460ff16905092915050565b600d6020528060005260406000206000915054906101000a900460ff1681565b6110ec611a4c565b600073ffffffffffffffffffffffffffffffffffffffff168173ffffffffffffffffffffffffffffffffffffffff16141561115c576040517f08c379a000000000000000000000000000000000000000000000000000000000815260040161115390613d15565b60405180910390fd5b61116581611aca565b50565b600c60205280600052604060002060009150905080546111879061420b565b80601f01602080910402602001604051908101604052809291908181526020018280546111b39061420b565b80156112005780601f106111d557610100808354040283529160200191611200565b820191906000526020600020905b8154815290600101906020018083116111e357829003601f168201915b505050505081565b60007f01ffc9a7000000000000000000000000000000000000000000000000000000007bffffffffffffffffffffffffffffffffffffffffffffffffffffffff1916827bffffffffffffffffffffffffffffffffffffffffffffffffffffffff1916149050919050565b61127b816120c3565b6112ba576040517f08c379a00000000000000000000000000000000000000000000000000000000081526004016112b190613ef5565b60405180910390fd5b50565b600033905090565b816004600083815260200190815260200160002060006101000a81548173ffffffffffffffffffffffffffffffffffffffff021916908373ffffffffffffffffffffffffffffffffffffffff160217905550808273ffffffffffffffffffffffffffffffffffffffff16611338836109db565b73ffffffffffffffffffffffffffffffffffffffff167f8c5be1e5ebec7d5bd14f71427d1e84f3dd0314c0f7b2291e5b200ac8c7c3b92560405160405180910390a45050565b60008061138a836109db565b90508073ffffffffffffffffffffffffffffffffffffffff168473ffffffffffffffffffffffffffffffffffffffff1614806113cc57506113cb8185611030565b5b8061140a57508373ffffffffffffffffffffffffffffffffffffffff166113f284610710565b73ffffffffffffffffffffffffffffffffffffffff16145b91505092915050565b8273ffffffffffffffffffffffffffffffffffffffff16611433826109db565b73ffffffffffffffffffffffffffffffffffffffff1614611489576040517f08c379a000000000000000000000000000000000000000000000000000000000815260040161148090613d35565b60405180910390fd5b600073ffffffffffffffffffffffffffffffffffffffff168273ffffffffffffffffffffffffffffffffffffffff1614156114f9576040517f08c379a00000000000000000000000000000000000000000000000000000000081526004016114f090613d75565b60405180910390fd5b61150483838361212f565b61150f6000826112c5565b6001600360008573ffffffffffffffffffffffffffffffffffffffff1673ffffffffffffffffffffffffffffffffffffffff168152602001908152602001600020600082825461155f919061410a565b925050819055506001600360008473ffffffffffffffffffffffffffffffffffffffff1673ffffffffffffffffffffffffffffffffffffffff16815260200190815260200160002060008282546115b69190614083565b92505081905550816002600083815260200190815260200160002060006101000a81548173ffffffffffffffffffffffffffffffffffffffff021916908373ffffffffffffffffffffffffffffffffffffffff160217905550808273ffffffffffffffffffffffffffffffffffffffff168473ffffffffffffffffffffffffffffffffffffffff167fddf252ad1be2c89b69c2b068fc378daa952ba7f163c4a11628f55a4df523b3ef60405160405180910390a46116758383836121ae565b505050565b60007f000000000000000000000000000000000000000000000000000000000000000073ffffffffffffffffffffffffffffffffffffffff163073ffffffffffffffffffffffffffffffffffffffff161480156116f657507f000000000000000000000000000000000000000000000000000000000000000046145b15611723577f00000000000000000000000000000000000000000000000000000000000000009050611791565b61178e7f00000000000000000000000000000000000000000000000000000000000000007f00000000000000000000000000000000000000000000000000000000000000007f00000000000000000000000000000000000000000000000000000000000000006121be565b90505b90565b60004382106117d8576040517f08c379a00000000000000000000000000000000000000000000000000000000081526004016117cf90613dd5565b60405180910390fd5b60008360000180549050905060005b818110156118825760006117fb82846121f8565b90508486600001828154811061183a577f4e487b7100000000000000000000000000000000000000000000000000000000600052603260045260246000fd5b9060005260206000200160000160009054906101000a900463ffffffff1663ffffffff16111561186c5780925061187c565b6001816118799190614083565b91505b506117e7565b6000821461190d578460000160018361189b919061410a565b815481106118d2577f4e487b7100000000000000000000000000000000000000000000000000000000600052603260045260246000fd5b9060005260206000200160000160049054906101000a90047bffffffffffffffffffffffffffffffffffffffffffffffffffffffff16611910565b60005b7bffffffffffffffffffffffffffffffffffffffffffffffffffffffff169250505092915050565b600061194383610958565b905081600760008573ffffffffffffffffffffffffffffffffffffffff1673ffffffffffffffffffffffffffffffffffffffff16815260200190815260200160002060006101000a81548173ffffffffffffffffffffffffffffffffffffffff021916908373ffffffffffffffffffffffffffffffffffffffff1602179055508173ffffffffffffffffffffffffffffffffffffffff168173ffffffffffffffffffffffffffffffffffffffff168473ffffffffffffffffffffffffffffffffffffffff167f3134e8a2e6d97e929a7e54011ea5485d7d196dd5f0ba4d4ef95803e8e3fc257f60405160405180910390a4611a478183611a428661221e565b612230565b505050565b611a546112bd565b73ffffffffffffffffffffffffffffffffffffffff16611a72610ba9565b73ffffffffffffffffffffffffffffffffffffffff1614611ac8576040517f08c379a0000000000000000000000000000000000000000000000000000000008152600401611abf90613eb5565b60405180910390fd5b565b6000600660009054906101000a900473ffffffffffffffffffffffffffffffffffffffff16905081600660006101000a81548173ffffffffffffffffffffffffffffffffffffffff021916908373ffffffffffffffffffffffffffffffffffffffff1602179055508173ffffffffffffffffffffffffffffffffffffffff168173ffffffffffffffffffffffffffffffffffffffff167f8be0079c531659141344cd1fd0a4f28419497f9722a3daafe3b4186f6b6457e060405160405180910390a35050565b600081600001549050919050565b6000808260000180549050905060008114611c365782600001600182611bc4919061410a565b81548110611bfb577f4e487b7100000000000000000000000000000000000000000000000000000000600052603260045260246000fd5b9060005260206000200160000160049054906101000a90047bffffffffffffffffffffffffffffffffffffffffffffffffffffffff16611c39565b60005b7bffffffffffffffffffffffffffffffffffffffffffffffffffffffff16915050919050565b8173ffffffffffffffffffffffffffffffffffffffff168373ffffffffffffffffffffffffffffffffffffffff161415611cce576040517f08c379a0000000000000000000000000000000000000000000000000000000008152600401611cc590613d95565b60405180910390fd5b80600560008573ffffffffffffffffffffffffffffffffffffffff1673ffffffffffffffffffffffffffffffffffffffff16815260200190815260200160002060008473ffffffffffffffffffffffffffffffffffffffff1673ffffffffffffffffffffffffffffffffffffffff16815260200190815260200160002060006101000a81548160ff0219169083151502179055508173ffffffffffffffffffffffffffffffffffffffff168373ffffffffffffffffffffffffffffffffffffffff167f17307eab39ab6107e8899845ad3d59bd9653f200f220920489ca2b5937696c3183604051611dbf9190613b40565b60405180910390a3505050565b611dd7848484611413565b611de38484848461243d565b611e22576040517f08c379a0000000000000000000000000000000000000000000000000000000008152600401611e1990613cf5565b60405180910390fd5b50505050565b6000611e3b611e3561167a565b836125d4565b9050919050565b6000806000611e5387878787612607565b91509150611e6081612714565b8192505050949350505050565b600080600a60008473ffffffffffffffffffffffffffffffffffffffff1673ffffffffffffffffffffffffffffffffffffffff1681526020019081526020016000209050611eba81611b90565b9150611ec58161208f565b50919050565b606060405180602001604052806000815250905090565b60606000821415611f2a576040518060400160405280600181526020017f3000000000000000000000000000000000000000000000000000000000000000815250905061208a565b600082905060005b60008214611f5c578080611f459061426e565b915050600a82611f5591906140d9565b9150611f32565b60008167ffffffffffffffff811115611f9e577f4e487b7100000000000000000000000000000000000000000000000000000000600052604160045260246000fd5b6040519080825280601f01601f191660200182016040528015611fd05781602001600182028036833780820191505090505b5090505b6000851461208357600182611fe9919061410a565b9150600a85611ff891906142c1565b60306120049190614083565b60f81b818381518110612040577f4e487b7100000000000000000000000000000000000000000000000000000000600052603260045260246000fd5b60200101907effffffffffffffffffffffffffffffffffffffffffffffffffffffffffffff1916908160001a905350600a8561207c91906140d9565b9450611fd4565b8093505050505b919050565b6001816000016000828254019250508190555050565b6120bf828260405180602001604052806000815250612a65565b5050565b60008073ffffffffffffffffffffffffffffffffffffffff166002600084815260200190815260200160002060009054906101000a900473ffffffffffffffffffffffffffffffffffffffff1673ffffffffffffffffffffffffffffffffffffffff1614159050919050565b600073ffffffffffffffffffffffffffffffffffffffff168373ffffffffffffffffffffffffffffffffffffffff161461219e576040517f08c379a000000000000000000000000000000000000000000000000000000000815260040161219590613c95565b60405180910390fd5b6121a9838383612ac0565b505050565b6121b9838383612ac5565b505050565b600083838346306040516020016121d9959493929190613bbb565b6040516020818303038152906040528051906020012090509392505050565b6000600282841861220991906140d9565b8284166122169190614083565b905092915050565b600061222982610a8d565b9050919050565b8173ffffffffffffffffffffffffffffffffffffffff168373ffffffffffffffffffffffffffffffffffffffff161415801561226c5750600081115b1561243857600073ffffffffffffffffffffffffffffffffffffffff168373ffffffffffffffffffffffffffffffffffffffff1614612354576000806122fd612ae184600860008973ffffffffffffffffffffffffffffffffffffffff1673ffffffffffffffffffffffffffffffffffffffff168152602001908152602001600020612af79092919063ffffffff16565b915091508473ffffffffffffffffffffffffffffffffffffffff167fdec2bacdd2f05b59de34da9b523dff8be42e5e38e818c82fdb0bae774387a7248383604051612349929190613f90565b60405180910390a250505b600073ffffffffffffffffffffffffffffffffffffffff168273ffffffffffffffffffffffffffffffffffffffff1614612437576000806123e0612b2584600860008873ffffffffffffffffffffffffffffffffffffffff1673ffffffffffffffffffffffffffffffffffffffff168152602001908152602001600020612af79092919063ffffffff16565b915091508373ffffffffffffffffffffffffffffffffffffffff167fdec2bacdd2f05b59de34da9b523dff8be42e5e38e818c82fdb0bae774387a724838360405161242c929190613f90565b60405180910390a250505b5b505050565b600061245e8473ffffffffffffffffffffffffffffffffffffffff16612b3b565b156125c7578373ffffffffffffffffffffffffffffffffffffffff1663150b7a026124876112bd565b8786866040518563ffffffff1660e01b81526004016124a99493929190613af4565b602060405180830381600087803b1580156124c357600080fd5b505af19250505080156124f457506040513d601f19601f820116820180604052508101906124f191906135bc565b60015b612577573d8060008114612524576040519150601f19603f3d011682016040523d82523d6000602084013e612529565b606091505b5060008151141561256f576040517f08c379a000000000000000000000000000000000000000000000000000000000815260040161256690613cf5565b60405180910390fd5b805181602001fd5b63150b7a0260e01b7bffffffffffffffffffffffffffffffffffffffffffffffffffffffff1916817bffffffffffffffffffffffffffffffffffffffffffffffffffffffff1916149150506125cc565b600190505b949350505050565b600082826040516020016125e9929190613aa2565b60405160208183030381529060405280519060200120905092915050565b6000807f7fffffffffffffffffffffffffffffff5d576e7357a4501ddfe92f46681b20a08360001c111561264257600060039150915061270b565b601b8560ff161415801561265a5750601c8560ff1614155b1561266c57600060049150915061270b565b6000600187878787604051600081526020016040526040516126919493929190613c0e565b6020604051602081039080840390855afa1580156126b3573d6000803e3d6000fd5b505050602060405103519050600073ffffffffffffffffffffffffffffffffffffffff168173ffffffffffffffffffffffffffffffffffffffff1614156127025760006001925092505061270b565b80600092509250505b94509492505050565b6000600481111561274e577f4e487b7100000000000000000000000000000000000000000000000000000000600052602160045260246000fd5b816004811115612787577f4e487b7100000000000000000000000000000000000000000000000000000000600052602160045260246000fd5b141561279257612a62565b600160048111156127cc577f4e487b7100000000000000000000000000000000000000000000000000000000600052602160045260246000fd5b816004811115612805577f4e487b7100000000000000000000000000000000000000000000000000000000600052602160045260246000fd5b1415612846576040517f08c379a000000000000000000000000000000000000000000000000000000000815260040161283d90613c75565b60405180910390fd5b60026004811115612880577f4e487b7100000000000000000000000000000000000000000000000000000000600052602160045260246000fd5b8160048111156128b9577f4e487b7100000000000000000000000000000000000000000000000000000000600052602160045260246000fd5b14156128fa576040517f08c379a00000000000000000000000000000000000000000000000000000000081526004016128f190613cd5565b60405180910390fd5b60036004811115612934577f4e487b7100000000000000000000000000000000000000000000000000000000600052602160045260246000fd5b81600481111561296d577f4e487b7100000000000000000000000000000000000000000000000000000000600052602160045260246000fd5b14156129ae576040517f08c379a00000000000000000000000000000000000000000000000000000000081526004016129a590613db5565b60405180910390fd5b6004808111156129e7577f4e487b7100000000000000000000000000000000000000000000000000000000600052602160045260246000fd5b816004811115612a20577f4e487b7100000000000000000000000000000000000000000000000000000000600052602160045260246000fd5b1415612a61576040517f08c379a0000000000000000000000000000000000000000000000000000000008152600401612a5890613e55565b60405180910390fd5b5b50565b612a6f8383612b5e565b612a7c600084848461243d565b612abb576040517f08c379a0000000000000000000000000000000000000000000000000000000008152600401612ab290613cf5565b60405180910390fd5b505050565b505050565b612ad183836001612d38565b612adc838383612df8565b505050565b60008183612aef919061410a565b905092915050565b600080612b1985612b14612b0a88611b9e565b868863ffffffff16565b612dfd565b91509150935093915050565b60008183612b339190614083565b905092915050565b6000808273ffffffffffffffffffffffffffffffffffffffff163b119050919050565b600073ffffffffffffffffffffffffffffffffffffffff168273ffffffffffffffffffffffffffffffffffffffff161415612bce576040517f08c379a0000000000000000000000000000000000000000000000000000000008152600401612bc590613e95565b60405180910390fd5b612bd7816120c3565b15612c17576040517f08c379a0000000000000000000000000000000000000000000000000000000008152600401612c0e90613d55565b60405180910390fd5b612c236000838361212f565b6001600360008473ffffffffffffffffffffffffffffffffffffffff1673ffffffffffffffffffffffffffffffffffffffff1681526020019081526020016000206000828254612c739190614083565b92505081905550816002600083815260200190815260200160002060006101000a81548173ffffffffffffffffffffffffffffffffffffffff021916908373ffffffffffffffffffffffffffffffffffffffff160217905550808273ffffffffffffffffffffffffffffffffffffffff16600073ffffffffffffffffffffffffffffffffffffffff167fddf252ad1be2c89b69c2b068fc378daa952ba7f163c4a11628f55a4df523b3ef60405160405180910390a4612d34600083836121ae565b5050565b600073ffffffffffffffffffffffffffffffffffffffff168373ffffffffffffffffffffffffffffffffffffffff161415612d8857612d85612b25826009612af79092919063ffffffff16565b50505b600073ffffffffffffffffffffffffffffffffffffffff168273ffffffffffffffffffffffffffffffffffffffff161415612dd857612dd5612ae1826009612af79092919063ffffffff16565b50505b612df3612de484610958565b612ded84610958565b83612230565b505050565b505050565b6000806000846000018054905090506000612e1786611b9e565b9050600082118015612e9357504386600001600184612e36919061410a565b81548110612e6d577f4e487b7100000000000000000000000000000000000000000000000000000000600052603260045260246000fd5b9060005260206000200160000160009054906101000a900463ffffffff1663ffffffff16145b15612f4957612ea18561304b565b86600001600184612eb2919061410a565b81548110612ee9577f4e487b7100000000000000000000000000000000000000000000000000000000600052603260045260246000fd5b9060005260206000200160000160046101000a8154817bffffffffffffffffffffffffffffffffffffffffffffffffffffffff02191690837bffffffffffffffffffffffffffffffffffffffffffffffffffffffff16021790555061303c565b856000016040518060400160405280612f61436130b6565b63ffffffff168152602001612f758861304b565b7bffffffffffffffffffffffffffffffffffffffffffffffffffffffff168152509080600181540180825580915050600190039060005260206000200160009091909190915060008201518160000160006101000a81548163ffffffff021916908363ffffffff16021790555060208201518160000160046101000a8154817bffffffffffffffffffffffffffffffffffffffffffffffffffffffff02191690837bffffffffffffffffffffffffffffffffffffffffffffffffffffffff16021790555050505b80859350935050509250929050565b60007bffffffffffffffffffffffffffffffffffffffffffffffffffffffff80168211156130ae576040517f08c379a00000000000000000000000000000000000000000000000000000000081526004016130a590613ed5565b60405180910390fd5b819050919050565b600063ffffffff8016821115613101576040517f08c379a00000000000000000000000000000000000000000000000000000000081526004016130f890613f35565b60405180910390fd5b819050919050565b8280546131159061420b565b90600052602060002090601f016020900481019282613137576000855561317e565b82601f1061315057805160ff191683800117855561317e565b8280016001018555821561317e579182015b8281111561317d578251825591602001919060010190613162565b5b50905061318b919061318f565b5090565b5b808211156131a8576000816000905550600101613190565b5090565b60006131bf6131ba84613fde565b613fb9565b9050828152602081018484840111156131d757600080fd5b6131e28482856141c9565b509392505050565b60006131fd6131f88461400f565b613fb9565b90508281526020810184848401111561321557600080fd5b6132208482856141c9565b509392505050565b60008135905061323781614988565b92915050565b60008135905061324c8161499f565b92915050565b600081359050613261816149b6565b92915050565b600081359050613276816149cd565b92915050565b60008151905061328b816149cd565b92915050565b600082601f8301126132a257600080fd5b81356132b28482602086016131ac565b91505092915050565b600082601f8301126132cc57600080fd5b81356132dc8482602086016131ea565b91505092915050565b6000813590506132f4816149e4565b92915050565b600081359050613309816149fb565b92915050565b60006020828403121561332157600080fd5b600061332f84828501613228565b91505092915050565b6000806040838503121561334b57600080fd5b600061335985828601613228565b925050602061336a85828601613228565b9150509250929050565b60008060006060848603121561338957600080fd5b600061339786828701613228565b93505060206133a886828701613228565b92505060406133b9868287016132e5565b9150509250925092565b600080600080608085870312156133d957600080fd5b60006133e787828801613228565b94505060206133f887828801613228565b9350506040613409878288016132e5565b925050606085013567ffffffffffffffff81111561342657600080fd5b61343287828801613291565b91505092959194509250565b6000806040838503121561345157600080fd5b600061345f85828601613228565b92505060206134708582860161323d565b9150509250929050565b6000806040838503121561348d57600080fd5b600061349b85828601613228565b925050602083013567ffffffffffffffff8111156134b857600080fd5b6134c4858286016132bb565b9150509250929050565b600080604083850312156134e157600080fd5b60006134ef85828601613228565b9250506020613500858286016132e5565b9150509250929050565b60008060008060008060c0878903121561352357600080fd5b600061353189828a01613228565b965050602061354289828a016132e5565b955050604061355389828a016132e5565b945050606061356489828a016132fa565b935050608061357589828a01613252565b92505060a061358689828a01613252565b9150509295509295509295565b6000602082840312156135a557600080fd5b60006135b384828501613267565b91505092915050565b6000602082840312156135ce57600080fd5b60006135dc8482850161327c565b91505092915050565b6000602082840312156135f757600080fd5b6000613605848285016132e5565b91505092915050565b6136178161413e565b82525050565b61362681614150565b82525050565b6136358161415c565b82525050565b61364c6136478261415c565b6142b7565b82525050565b600061365d82614040565b6136678185614056565b93506136778185602086016141d8565b613680816143ae565b840191505092915050565b60006136968261404b565b6136a08185614067565b93506136b08185602086016141d8565b6136b9816143ae565b840191505092915050565b60006136cf8261404b565b6136d98185614078565b93506136e98185602086016141d8565b80840191505092915050565b6000613702601883614067565b915061370d826143bf565b602082019050919050565b6000613725601883614067565b9150613730826143e8565b602082019050919050565b6000613748601483614067565b915061375382614411565b602082019050919050565b600061376b601f83614067565b91506137768261443a565b602082019050919050565b600061378e603283614067565b915061379982614463565b604082019050919050565b60006137b1602683614067565b91506137bc826144b2565b604082019050919050565b60006137d4602583614067565b91506137df82614501565b604082019050919050565b60006137f7601c83614067565b915061380282614550565b602082019050919050565b600061381a600283614078565b915061382582614579565b600282019050919050565b600061383d602483614067565b9150613848826145a2565b604082019050919050565b6000613860601983614067565b915061386b826145f1565b602082019050919050565b6000613883602283614067565b915061388e8261461a565b604082019050919050565b60006138a6602083614067565b91506138b182614669565b602082019050919050565b60006138c9602983614067565b91506138d482614692565b604082019050919050565b60006138ec601883614067565b91506138f7826146e1565b602082019050919050565b600061390f601a83614067565b915061391a8261470a565b602082019050919050565b6000613932602283614067565b915061393d82614733565b604082019050919050565b6000613955603e83614067565b915061396082614782565b604082019050919050565b6000613978602083614067565b9150613983826147d1565b602082019050919050565b600061399b602083614067565b91506139a6826147fa565b602082019050919050565b60006139be602783614067565b91506139c982614823565b604082019050919050565b60006139e1601883614067565b91506139ec82614872565b602082019050919050565b6000613a04602183614067565b9150613a0f8261489b565b604082019050919050565b6000613a27602683614067565b9150613a32826148ea565b604082019050919050565b6000613a4a602e83614067565b9150613a5582614939565b604082019050919050565b613a69816141b2565b82525050565b613a78816141bc565b82525050565b6000613a8a82856136c4565b9150613a9682846136c4565b91508190509392505050565b6000613aad8261380d565b9150613ab9828561363b565b602082019150613ac9828461363b565b6020820191508190509392505050565b6000602082019050613aee600083018461360e565b92915050565b6000608082019050613b09600083018761360e565b613b16602083018661360e565b613b236040830185613a60565b8181036060830152613b358184613652565b905095945050505050565b6000602082019050613b55600083018461361d565b92915050565b6000602082019050613b70600083018461362c565b92915050565b6000608082019050613b8b600083018761362c565b613b98602083018661360e565b613ba56040830185613a60565b613bb26060830184613a60565b95945050505050565b600060a082019050613bd0600083018861362c565b613bdd602083018761362c565b613bea604083018661362c565b613bf76060830185613a60565b613c04608083018461360e565b9695505050505050565b6000608082019050613c23600083018761362c565b613c306020830186613a6f565b613c3d604083018561362c565b613c4a606083018461362c565b95945050505050565b60006020820190508181036000830152613c6d818461368b565b905092915050565b60006020820190508181036000830152613c8e816136f5565b9050919050565b60006020820190508181036000830152613cae81613718565b9050919050565b60006020820190508181036000830152613cce8161373b565b9050919050565b60006020820190508181036000830152613cee8161375e565b9050919050565b60006020820190508181036000830152613d0e81613781565b9050919050565b60006020820190508181036000830152613d2e816137a4565b9050919050565b60006020820190508181036000830152613d4e816137c7565b9050919050565b60006020820190508181036000830152613d6e816137ea565b9050919050565b60006020820190508181036000830152613d8e81613830565b9050919050565b60006020820190508181036000830152613dae81613853565b9050919050565b60006020820190508181036000830152613dce81613876565b9050919050565b60006020820190508181036000830152613dee81613899565b9050919050565b60006020820190508181036000830152613e0e816138bc565b9050919050565b60006020820190508181036000830152613e2e816138df565b9050919050565b60006020820190508181036000830152613e4e81613902565b9050919050565b60006020820190508181036000830152613e6e81613925565b9050919050565b60006020820190508181036000830152613e8e81613948565b9050919050565b60006020820190508181036000830152613eae8161396b565b9050919050565b60006020820190508181036000830152613ece8161398e565b9050919050565b60006020820190508181036000830152613eee816139b1565b9050919050565b60006020820190508181036000830152613f0e816139d4565b9050919050565b60006020820190508181036000830152613f2e816139f7565b9050919050565b60006020820190508181036000830152613f4e81613a1a565b9050919050565b60006020820190508181036000830152613f6e81613a3d565b9050919050565b6000602082019050613f8a6000830184613a60565b92915050565b6000604082019050613fa56000830185613a60565b613fb26020830184613a60565b9392505050565b6000613fc3613fd4565b9050613fcf828261423d565b919050565b6000604051905090565b600067ffffffffffffffff821115613ff957613ff861437f565b5b614002826143ae565b9050602081019050919050565b600067ffffffffffffffff82111561402a5761402961437f565b5b614033826143ae565b9050602081019050919050565b600081519050919050565b600081519050919050565b600082825260208201905092915050565b600082825260208201905092915050565b600081905092915050565b600061408e826141b2565b9150614099836141b2565b9250827fffffffffffffffffffffffffffffffffffffffffffffffffffffffffffffffff038211156140ce576140cd6142f2565b5b828201905092915050565b60006140e4826141b2565b91506140ef836141b2565b9250826140ff576140fe614321565b5b828204905092915050565b6000614115826141b2565b9150614120836141b2565b925082821015614133576141326142f2565b5b828203905092915050565b600061414982614192565b9050919050565b60008115159050919050565b6000819050919050565b60007fffffffff0000000000000000000000000000000000000000000000000000000082169050919050565b600073ffffffffffffffffffffffffffffffffffffffff82169050919050565b6000819050919050565b600060ff82169050919050565b82818337600083830152505050565b60005b838110156141f65780820151818401526020810190506141db565b83811115614205576000848401525b50505050565b6000600282049050600182168061422357607f821691505b6020821081141561423757614236614350565b5b50919050565b614246826143ae565b810181811067ffffffffffffffff821117156142655761426461437f565b5b80604052505050565b6000614279826141b2565b91507fffffffffffffffffffffffffffffffffffffffffffffffffffffffffffffffff8214156142ac576142ab6142f2565b5b600182019050919050565b6000819050919050565b60006142cc826141b2565b91506142d7836141b2565b9250826142e7576142e6614321565b5b828206905092915050565b7f4e487b7100000000000000000000000000000000000000000000000000000000600052601160045260246000fd5b7f4e487b7100000000000000000000000000000000000000000000000000000000600052601260045260246000fd5b7f4e487b7100000000000000000000000000000000000000000000000000000000600052602260045260246000fd5b7f4e487b7100000000000000000000000000000000000000000000000000000000600052604160045260246000fd5b6000601f19601f8301169050919050565b7f45434453413a20696e76616c6964207369676e61747572650000000000000000600082015250565b7f4572723a20746f6b656e20697320534f554c20424f554e440000000000000000600082015250565b7f566f7465733a20696e76616c6964206e6f6e6365000000000000000000000000600082015250565b7f45434453413a20696e76616c6964207369676e6174757265206c656e67746800600082015250565b7f4552433732313a207472616e7366657220746f206e6f6e20455243373231526560008201527f63656976657220696d706c656d656e7465720000000000000000000000000000602082015250565b7f4f776e61626c653a206e6577206f776e657220697320746865207a65726f206160008201527f6464726573730000000000000000000000000000000000000000000000000000602082015250565b7f4552433732313a207472616e736665722066726f6d20696e636f72726563742060008201527f6f776e6572000000000000000000000000000000000000000000000000000000602082015250565b7f4552433732313a20746f6b656e20616c7265616479206d696e74656400000000600082015250565b7f1901000000000000000000000000000000000000000000000000000000000000600082015250565b7f4552433732313a207472616e7366657220746f20746865207a65726f2061646460008201527f7265737300000000000000000000000000000000000000000000000000000000602082015250565b7f4552433732313a20617070726f766520746f2063616c6c657200000000000000600082015250565b7f45434453413a20696e76616c6964207369676e6174757265202773272076616c60008201527f7565000000000000000000000000000000000000000000000000000000000000602082015250565b7f436865636b706f696e74733a20626c6f636b206e6f7420796574206d696e6564600082015250565b7f4552433732313a2061646472657373207a65726f206973206e6f74206120766160008201527f6c6964206f776e65720000000000000000000000000000000000000000000000602082015250565b7f566f7465733a207369676e617475726520657870697265640000000000000000600082015250565b7f566f7465733a20626c6f636b206e6f7420796574206d696e6564000000000000600082015250565b7f45434453413a20696e76616c6964207369676e6174757265202776272076616c60008201527f7565000000000000000000000000000000000000000000000000000000000000602082015250565b7f4552433732313a20617070726f76652063616c6c6572206973206e6f7420746f60008201527f6b656e206f776e6572206e6f7220617070726f76656420666f7220616c6c0000602082015250565b7f4552433732313a206d696e7420746f20746865207a65726f2061646472657373600082015250565b7f4f776e61626c653a2063616c6c6572206973206e6f7420746865206f776e6572600082015250565b7f53616665436173743a2076616c756520646f65736e27742066697420696e203260008201527f3234206269747300000000000000000000000000000000000000000000000000602082015250565b7f4552433732313a20696e76616c696420746f6b656e2049440000000000000000600082015250565b7f4552433732313a20617070726f76616c20746f2063757272656e74206f776e6560008201527f7200000000000000000000000000000000000000000000000000000000000000602082015250565b7f53616665436173743a2076616c756520646f65736e27742066697420696e203360008201527f3220626974730000000000000000000000000000000000000000000000000000602082015250565b7f4552433732313a2063616c6c6572206973206e6f7420746f6b656e206f776e6560008201527f72206e6f7220617070726f766564000000000000000000000000000000000000602082015250565b6149918161413e565b811461499c57600080fd5b50565b6149a881614150565b81146149b357600080fd5b50565b6149bf8161415c565b81146149ca57600080fd5b50565b6149d681614166565b81146149e157600080fd5b50565b6149ed816141b2565b81146149f857600080fd5b50565b614a04816141bc565b8114614a0f57600080fd5b5056fea264697066735822122031378a786931fd9dfb06564a5bbe24c29ca1c3cd37a13714d4a17a142990390a64736f6c63430008040033",
  "linkReferences": {},
  "deployedLinkReferences": {}
}