{
  "_format": "hh-sol-artifact-1",
  "contractName": "OmSbToken",
  "sourceName": "contracts/OmSbToken.sol",
  "abi": [
    {
      "inputs": [],
      "stateMutability": "nonpayable",
      "type": "constructor"
    },
    {
      "anonymous": false,
      "inputs": [
        {
          "indexed": true,
          "internalType": "address",
          "name": "owner",
          "type": "address"
        },
        {
          "indexed": true,
          "internalType": "address",
          "name": "approved",
          "type": "address"
        },
        {
          "indexed": true,
          "internalType": "uint256",
          "name": "tokenId",
          "type": "uint256"
        }
      ],
      "name": "Approval",
      "type": "event"
    },
    {
      "anonymous": false,
      "inputs": [
        {
          "indexed": true,
          "internalType": "address",
          "name": "owner",
          "type": "address"
        },
        {
          "indexed": true,
          "internalType": "address",
          "name": "operator",
          "type": "address"
        },
        {
          "indexed": false,
          "internalType": "bool",
          "name": "approved",
          "type": "bool"
        }
      ],
      "name": "ApprovalForAll",
      "type": "event"
    },
    {
      "anonymous": false,
      "inputs": [
        {
          "indexed": true,
          "internalType": "address",
          "name": "delegator",
          "type": "address"
        },
        {
          "indexed": true,
          "internalType": "address",
          "name": "fromDelegate",
          "type": "address"
        },
        {
          "indexed": true,
          "internalType": "address",
          "name": "toDelegate",
          "type": "address"
        }
      ],
      "name": "DelegateChanged",
      "type": "event"
    },
    {
      "anonymous": false,
      "inputs": [
        {
          "indexed": true,
          "internalType": "address",
          "name": "delegate",
          "type": "address"
        },
        {
          "indexed": false,
          "internalType": "uint256",
          "name": "previousBalance",
          "type": "uint256"
        },
        {
          "indexed": false,
          "internalType": "uint256",
          "name": "newBalance",
          "type": "uint256"
        }
      ],
      "name": "DelegateVotesChanged",
      "type": "event"
    },
    {
      "anonymous": false,
      "inputs": [
        {
          "indexed": true,
          "internalType": "address",
          "name": "previousOwner",
          "type": "address"
        },
        {
          "indexed": true,
          "internalType": "address",
          "name": "newOwner",
          "type": "address"
        }
      ],
      "name": "OwnershipTransferred",
      "type": "event"
    },
    {
      "anonymous": false,
      "inputs": [
        {
          "indexed": true,
          "internalType": "address",
          "name": "from",
          "type": "address"
        },
        {
          "indexed": true,
          "internalType": "address",
          "name": "to",
          "type": "address"
        },
        {
          "indexed": true,
          "internalType": "uint256",
          "name": "tokenId",
          "type": "uint256"
        }
      ],
      "name": "Transfer",
      "type": "event"
    },
    {
      "inputs": [],
      "name": "DOMAIN_SEPARATOR",
      "outputs": [
        {
          "internalType": "bytes32",
          "name": "",
          "type": "bytes32"
        }
      ],
      "stateMutability": "view",
      "type": "function"
    },
    {
      "inputs": [
        {
          "internalType": "address",
          "name": "to",
          "type": "address"
        },
        {
          "internalType": "uint256",
          "name": "tokenId",
          "type": "uint256"
        }
      ],
      "name": "approve",
      "outputs": [],
      "stateMutability": "nonpayable",
      "type": "function"
    },
    {
      "inputs": [
        {
          "internalType": "address",
          "name": "owner",
          "type": "address"
        }
      ],
      "name": "balanceOf",
      "outputs": [
        {
          "internalType": "uint256",
          "name": "",
          "type": "uint256"
        }
      ],
      "stateMutability": "view",
      "type": "function"
    },
    {
      "inputs": [
        {
          "internalType": "address",
          "name": "delegatee",
          "type": "address"
        }
      ],
      "name": "delegate",
      "outputs": [],
      "stateMutability": "nonpayable",
      "type": "function"
    },
    {
      "inputs": [
        {
          "internalType": "address",
          "name": "delegatee",
          "type": "address"
        },
        {
          "internalType": "uint256",
          "name": "nonce",
          "type": "uint256"
        },
        {
          "internalType": "uint256",
          "name": "expiry",
          "type": "uint256"
        },
        {
          "internalType": "uint8",
          "name": "v",
          "type": "uint8"
        },
        {
          "internalType": "bytes32",
          "name": "r",
          "type": "bytes32"
        },
        {
          "internalType": "bytes32",
          "name": "s",
          "type": "bytes32"
        }
      ],
      "name": "delegateBySig",
      "outputs": [],
      "stateMutability": "nonpayable",
      "type": "function"
    },
    {
      "inputs": [
        {
          "internalType": "address",
          "name": "account",
          "type": "address"
        }
      ],
      "name": "delegates",
      "outputs": [
        {
          "internalType": "address",
          "name": "",
          "type": "address"
        }
      ],
      "stateMutability": "view",
      "type": "function"
    },
    {
      "inputs": [
        {
          "internalType": "uint256",
          "name": "tokenId",
          "type": "uint256"
        }
      ],
      "name": "getApproved",
      "outputs": [
        {
          "internalType": "address",
          "name": "",
          "type": "address"
        }
      ],
      "stateMutability": "view",
      "type": "function"
    },
    {
      "inputs": [
        {
          "internalType": "uint256",
          "name": "blockNumber",
          "type": "uint256"
        }
      ],
      "name": "getPastTotalSupply",
      "outputs": [
        {
          "internalType": "uint256",
          "name": "",
          "type": "uint256"
        }
      ],
      "stateMutability": "view",
      "type": "function"
    },
    {
      "inputs": [
        {
          "internalType": "address",
          "name": "account",
          "type": "address"
        },
        {
          "internalType": "uint256",
          "name": "blockNumber",
          "type": "uint256"
        }
      ],
      "name": "getPastVotes",
      "outputs": [
        {
          "internalType": "uint256",
          "name": "",
          "type": "uint256"
        }
      ],
      "stateMutability": "view",
      "type": "function"
    },
    {
      "inputs": [
        {
          "internalType": "address",
          "name": "account",
          "type": "address"
        }
      ],
      "name": "getVotes",
      "outputs": [
        {
          "internalType": "uint256",
          "name": "",
          "type": "uint256"
        }
      ],
      "stateMutability": "view",
      "type": "function"
    },
    {
      "inputs": [
        {
          "internalType": "address",
          "name": "owner",
          "type": "address"
        },
        {
          "internalType": "address",
          "name": "operator",
          "type": "address"
        }
      ],
      "name": "isApprovedForAll",
      "outputs": [
        {
          "internalType": "bool",
          "name": "",
          "type": "bool"
        }
      ],
      "stateMutability": "view",
      "type": "function"
    },
    {
      "inputs": [],
      "name": "name",
      "outputs": [
        {
          "internalType": "string",
          "name": "",
          "type": "string"
        }
      ],
      "stateMutability": "view",
      "type": "function"
    },
    {
      "inputs": [
        {
          "internalType": "address",
          "name": "owner",
          "type": "address"
        }
      ],
      "name": "nonces",
      "outputs": [
        {
          "internalType": "uint256",
          "name": "",
          "type": "uint256"
        }
      ],
      "stateMutability": "view",
      "type": "function"
    },
    {
      "inputs": [],
      "name": "owner",
      "outputs": [
        {
          "internalType": "address",
          "name": "",
          "type": "address"
        }
      ],
      "stateMutability": "view",
      "type": "function"
    },
    {
      "inputs": [
        {
          "internalType": "uint256",
          "name": "tokenId",
          "type": "uint256"
        }
      ],
      "name": "ownerOf",
      "outputs": [
        {
          "internalType": "address",
          "name": "",
          "type": "address"
        }
      ],
      "stateMutability": "view",
      "type": "function"
    },
    {
      "inputs": [],
      "name": "renounceOwnership",
      "outputs": [],
      "stateMutability": "nonpayable",
      "type": "function"
    },
    {
      "inputs": [
        {
          "internalType": "address",
          "name": "to",
          "type": "address"
        }
      ],
      "name": "safeMint",
      "outputs": [],
      "stateMutability": "nonpayable",
      "type": "function"
    },
    {
      "inputs": [
        {
          "internalType": "address",
          "name": "from",
          "type": "address"
        },
        {
          "internalType": "address",
          "name": "to",
          "type": "address"
        },
        {
          "internalType": "uint256",
          "name": "tokenId",
          "type": "uint256"
        }
      ],
      "name": "safeTransferFrom",
      "outputs": [],
      "stateMutability": "nonpayable",
      "type": "function"
    },
    {
      "inputs": [
        {
          "internalType": "address",
          "name": "from",
          "type": "address"
        },
        {
          "internalType": "address",
          "name": "to",
          "type": "address"
        },
        {
          "internalType": "uint256",
          "name": "tokenId",
          "type": "uint256"
        },
        {
          "internalType": "bytes",
          "name": "data",
          "type": "bytes"
        }
      ],
      "name": "safeTransferFrom",
      "outputs": [],
      "stateMutability": "nonpayable",
      "type": "function"
    },
    {
      "inputs": [
        {
          "internalType": "address",
          "name": "operator",
          "type": "address"
        },
        {
          "internalType": "bool",
          "name": "approved",
          "type": "bool"
        }
      ],
      "name": "setApprovalForAll",
      "outputs": [],
      "stateMutability": "nonpayable",
      "type": "function"
    },
    {
      "inputs": [
        {
          "internalType": "bytes4",
          "name": "interfaceId",
          "type": "bytes4"
        }
      ],
      "name": "supportsInterface",
      "outputs": [
        {
          "internalType": "bool",
          "name": "",
          "type": "bool"
        }
      ],
      "stateMutability": "view",
      "type": "function"
    },
    {
      "inputs": [],
      "name": "symbol",
      "outputs": [
        {
          "internalType": "string",
          "name": "",
          "type": "string"
        }
      ],
      "stateMutability": "view",
      "type": "function"
    },
    {
      "inputs": [
        {
          "internalType": "uint256",
          "name": "tokenId",
          "type": "uint256"
        }
      ],
      "name": "tokenURI",
      "outputs": [
        {
          "internalType": "string",
          "name": "",
          "type": "string"
        }
      ],
      "stateMutability": "view",
      "type": "function"
    },
    {
      "inputs": [
        {
          "internalType": "address",
          "name": "from",
          "type": "address"
        },
        {
          "internalType": "address",
          "name": "to",
          "type": "address"
        },
        {
          "internalType": "uint256",
          "name": "tokenId",
          "type": "uint256"
        }
      ],
      "name": "transferFrom",
      "outputs": [],
      "stateMutability": "nonpayable",
      "type": "function"
    },
    {
      "inputs": [
        {
          "internalType": "address",
          "name": "newOwner",
          "type": "address"
        }
      ],
      "name": "transferOwnership",
      "outputs": [],
      "stateMutability": "nonpayable",
      "type": "function"
    }
  ],
  "bytecode": "0x6101406040523480156200001257600080fd5b506040518060400160405280600981526020017f4f6d5362546f6b656e00000000000000000000000000000000000000000000008152506040518060400160405280600181526020017f31000000000000000000000000000000000000000000000000000000000000008152506040518060400160405280600981526020017f4f6d5362546f6b656e00000000000000000000000000000000000000000000008152506040518060400160405280600381526020017f4d544b000000000000000000000000000000000000000000000000000000000081525081600090805190602001906200010392919062000304565b5080600190805190602001906200011c92919062000304565b5050506200013f62000133620001fa60201b60201c565b6200020260201b60201c565b60008280519060200120905060008280519060200120905060007f8b73c3c69bb8fe3d512ecc4cf759cc79239f7b179b0ffacaa9a75d522b39400f90508260e081815250508161010081815250504660a08181525050620001a8818484620002c860201b60201c565b608081815250503073ffffffffffffffffffffffffffffffffffffffff1660c08173ffffffffffffffffffffffffffffffffffffffff1660601b815250508061012081815250505050505050620004f1565b600033905090565b6000600660009054906101000a900473ffffffffffffffffffffffffffffffffffffffff16905081600660006101000a81548173ffffffffffffffffffffffffffffffffffffffff021916908373ffffffffffffffffffffffffffffffffffffffff1602179055508173ffffffffffffffffffffffffffffffffffffffff168173ffffffffffffffffffffffffffffffffffffffff167f8be0079c531659141344cd1fd0a4f28419497f9722a3daafe3b4186f6b6457e060405160405180910390a35050565b60008383834630604051602001620002e5959493929190620003e7565b6040516020818303038152906040528051906020012090509392505050565b82805462000312906200048c565b90600052602060002090601f01602090048101928262000336576000855562000382565b82601f106200035157805160ff191683800117855562000382565b8280016001018555821562000382579182015b828111156200038157825182559160200191906001019062000364565b5b50905062000391919062000395565b5090565b5b80821115620003b057600081600090555060010162000396565b5090565b620003bf8162000444565b82525050565b620003d08162000458565b82525050565b620003e18162000482565b82525050565b600060a082019050620003fe6000830188620003c5565b6200040d6020830187620003c5565b6200041c6040830186620003c5565b6200042b6060830185620003d6565b6200043a6080830184620003b4565b9695505050505050565b6000620004518262000462565b9050919050565b6000819050919050565b600073ffffffffffffffffffffffffffffffffffffffff82169050919050565b6000819050919050565b60006002820490506001821680620004a557607f821691505b60208210811415620004bc57620004bb620004c2565b5b50919050565b7f4e487b7100000000000000000000000000000000000000000000000000000000600052602260045260246000fd5b60805160a05160c05160601c60e05161010051610120516146586200054460003960006114c80152600061150a015260006114e90152600061141e015260006114740152600061149d01526146586000f3fe608060405234801561001057600080fd5b50600436106101735760003560e01c806370a08231116100de5780639ab24eb011610097578063c3cda52011610071578063c3cda5201461046e578063c87b56dd1461048a578063e985e9c5146104ba578063f2fde38b146104ea57610173565b80639ab24eb014610406578063a22cb46514610436578063b88d4fde1461045257610173565b806370a0823114610330578063715018a6146103605780637ecebe001461036a5780638da5cb5b1461039a5780638e539e8c146103b857806395d89b41146103e857610173565b80633a46b1a8116101305780633a46b1a81461024c57806340d097c31461027c57806342842e0e14610298578063587cde1e146102b45780635c19a95c146102e45780636352211e1461030057610173565b806301ffc9a71461017857806306fdde03146101a8578063081812fc146101c6578063095ea7b3146101f657806323b872dd146102125780633644e5151461022e575b600080fd5b610192600480360381019061018d91906131d4565b610506565b60405161019f9190613781565b60405180910390f35b6101b06105e8565b6040516101bd9190613894565b60405180910390f35b6101e060048036038101906101db9190613226565b61067a565b6040516101ed919061371a565b60405180910390f35b610210600480360381019061020b919061310f565b6106c0565b005b61022c60048036038101906102279190613009565b6107d8565b005b610236610838565b604051610243919061379c565b60405180910390f35b6102666004803603810190610261919061310f565b610847565b6040516102739190613bb6565b60405180910390f35b61029660048036038101906102919190612fa4565b6108a2565b005b6102b260048036038101906102ad9190613009565b6108d0565b005b6102ce60048036038101906102c99190612fa4565b6108f0565b6040516102db919061371a565b60405180910390f35b6102fe60048036038101906102f99190612fa4565b610959565b005b61031a60048036038101906103159190613226565b610973565b604051610327919061371a565b60405180910390f35b61034a60048036038101906103459190612fa4565b610a25565b6040516103579190613bb6565b60405180910390f35b610368610add565b005b610384600480360381019061037f9190612fa4565b610af1565b6040516103919190613bb6565b60405180910390f35b6103a2610b41565b6040516103af919061371a565b60405180910390f35b6103d260048036038101906103cd9190613226565b610b6b565b6040516103df9190613bb6565b60405180910390f35b6103f0610bca565b6040516103fd9190613894565b60405180910390f35b610420600480360381019061041b9190612fa4565b610c5c565b60405161042d9190613bb6565b60405180910390f35b610450600480360381019061044b91906130d3565b610cac565b005b61046c60048036038101906104679190613058565b610cc2565b005b6104886004803603810190610483919061314b565b610d24565b005b6104a4600480360381019061049f9190613226565b610e28565b6040516104b19190613894565b60405180910390f35b6104d460048036038101906104cf9190612fcd565b610e90565b6040516104e19190613781565b60405180910390f35b61050460048036038101906104ff9190612fa4565b610f24565b005b60007f80ac58cd000000000000000000000000000000000000000000000000000000007bffffffffffffffffffffffffffffffffffffffffffffffffffffffff1916827bffffffffffffffffffffffffffffffffffffffffffffffffffffffff191614806105d157507f5b5e139f000000000000000000000000000000000000000000000000000000007bffffffffffffffffffffffffffffffffffffffffffffffffffffffff1916827bffffffffffffffffffffffffffffffffffffffffffffffffffffffff1916145b806105e157506105e082610fa8565b5b9050919050565b6060600080546105f790613e1b565b80601f016020809104026020016040519081016040528092919081815260200182805461062390613e1b565b80156106705780601f1061064557610100808354040283529160200191610670565b820191906000526020600020905b81548152906001019060200180831161065357829003601f168201915b5050505050905090565b600061068582611012565b6004600083815260200190815260200160002060009054906101000a900473ffffffffffffffffffffffffffffffffffffffff169050919050565b60006106cb82610973565b90508073ffffffffffffffffffffffffffffffffffffffff168373ffffffffffffffffffffffffffffffffffffffff16141561073c576040517f08c379a000000000000000000000000000000000000000000000000000000000815260040161073390613b56565b60405180910390fd5b8073ffffffffffffffffffffffffffffffffffffffff1661075b61105d565b73ffffffffffffffffffffffffffffffffffffffff16148061078a57506107898161078461105d565b610e90565b5b6107c9576040517f08c379a00000000000000000000000000000000000000000000000000000000081526004016107c090613ab6565b60405180910390fd5b6107d38383611065565b505050565b6107e96107e361105d565b8261111e565b610828576040517f08c379a000000000000000000000000000000000000000000000000000000000815260040161081f90613b96565b60405180910390fd5b6108338383836111b3565b505050565b600061084261141a565b905090565b600061089a82600860008673ffffffffffffffffffffffffffffffffffffffff1673ffffffffffffffffffffffffffffffffffffffff16815260200190815260200160002061153490919063ffffffff16565b905092915050565b6108aa6116d8565b60006108b6600b611756565b90506108c2600b611764565b6108cc828261177a565b5050565b6108eb83838360405180602001604052806000815250610cc2565b505050565b6000600760008373ffffffffffffffffffffffffffffffffffffffff1673ffffffffffffffffffffffffffffffffffffffff16815260200190815260200160002060009054906101000a900473ffffffffffffffffffffffffffffffffffffffff169050919050565b600061096361105d565b905061096f8183611798565b5050565b6000806002600084815260200190815260200160002060009054906101000a900473ffffffffffffffffffffffffffffffffffffffff169050600073ffffffffffffffffffffffffffffffffffffffff168173ffffffffffffffffffffffffffffffffffffffff161415610a1c576040517f08c379a0000000000000000000000000000000000000000000000000000000008152600401610a1390613b36565b60405180910390fd5b80915050919050565b60008073ffffffffffffffffffffffffffffffffffffffff168273ffffffffffffffffffffffffffffffffffffffff161415610a96576040517f08c379a0000000000000000000000000000000000000000000000000000000008152600401610a8d90613a36565b60405180910390fd5b600360008373ffffffffffffffffffffffffffffffffffffffff1673ffffffffffffffffffffffffffffffffffffffff168152602001908152602001600020549050919050565b610ae56116d8565b610aef60006118ac565b565b6000610b3a600a60008473ffffffffffffffffffffffffffffffffffffffff1673ffffffffffffffffffffffffffffffffffffffff168152602001908152602001600020611756565b9050919050565b6000600660009054906101000a900473ffffffffffffffffffffffffffffffffffffffff16905090565b6000438210610baf576040517f08c379a0000000000000000000000000000000000000000000000000000000008152600401610ba690613a76565b60405180910390fd5b610bc382600961153490919063ffffffff16565b9050919050565b606060018054610bd990613e1b565b80601f0160208091040260200160405190810160405280929190818152602001828054610c0590613e1b565b8015610c525780601f10610c2757610100808354040283529160200191610c52565b820191906000526020600020905b815481529060010190602001808311610c3557829003601f168201915b5050505050905090565b6000610ca5600860008473ffffffffffffffffffffffffffffffffffffffff1673ffffffffffffffffffffffffffffffffffffffff168152602001908152602001600020611972565b9050919050565b610cbe610cb761105d565b8383611a33565b5050565b610cd3610ccd61105d565b8361111e565b610d12576040517f08c379a0000000000000000000000000000000000000000000000000000000008152600401610d0990613b96565b60405180910390fd5b610d1e84848484611ba0565b50505050565b83421115610d67576040517f08c379a0000000000000000000000000000000000000000000000000000000008152600401610d5e90613a56565b60405180910390fd5b6000610dc9610dc17fe48329057bfd03d55e49b547132e39cffd9c1820ad7b9d4c5307691425d15adf898989604051602001610da694939291906137b7565b60405160208183030381529060405280519060200120611bfc565b858585611c16565b9050610dd481611c41565b8614610e15576040517f08c379a0000000000000000000000000000000000000000000000000000000008152600401610e0c906138f6565b60405180910390fd5b610e1f8188611798565b50505050505050565b6060610e3382611012565b6000610e3d611c9f565b90506000815111610e5d5760405180602001604052806000815250610e88565b80610e6784611cb6565b604051602001610e789291906136bf565b6040516020818303038152906040525b915050919050565b6000600560008473ffffffffffffffffffffffffffffffffffffffff1673ffffffffffffffffffffffffffffffffffffffff16815260200190815260200160002060008373ffffffffffffffffffffffffffffffffffffffff1673ffffffffffffffffffffffffffffffffffffffff16815260200190815260200160002060009054906101000a900460ff16905092915050565b610f2c6116d8565b600073ffffffffffffffffffffffffffffffffffffffff168173ffffffffffffffffffffffffffffffffffffffff161415610f9c576040517f08c379a0000000000000000000000000000000000000000000000000000000008152600401610f9390613956565b60405180910390fd5b610fa5816118ac565b50565b60007f01ffc9a7000000000000000000000000000000000000000000000000000000007bffffffffffffffffffffffffffffffffffffffffffffffffffffffff1916827bffffffffffffffffffffffffffffffffffffffffffffffffffffffff1916149050919050565b61101b81611e63565b61105a576040517f08c379a000000000000000000000000000000000000000000000000000000000815260040161105190613b36565b60405180910390fd5b50565b600033905090565b816004600083815260200190815260200160002060006101000a81548173ffffffffffffffffffffffffffffffffffffffff021916908373ffffffffffffffffffffffffffffffffffffffff160217905550808273ffffffffffffffffffffffffffffffffffffffff166110d883610973565b73ffffffffffffffffffffffffffffffffffffffff167f8c5be1e5ebec7d5bd14f71427d1e84f3dd0314c0f7b2291e5b200ac8c7c3b92560405160405180910390a45050565b60008061112a83610973565b90508073ffffffffffffffffffffffffffffffffffffffff168473ffffffffffffffffffffffffffffffffffffffff16148061116c575061116b8185610e90565b5b806111aa57508373ffffffffffffffffffffffffffffffffffffffff166111928461067a565b73ffffffffffffffffffffffffffffffffffffffff16145b91505092915050565b8273ffffffffffffffffffffffffffffffffffffffff166111d382610973565b73ffffffffffffffffffffffffffffffffffffffff1614611229576040517f08c379a000000000000000000000000000000000000000000000000000000000815260040161122090613976565b60405180910390fd5b600073ffffffffffffffffffffffffffffffffffffffff168273ffffffffffffffffffffffffffffffffffffffff161415611299576040517f08c379a0000000000000000000000000000000000000000000000000000000008152600401611290906139b6565b60405180910390fd5b6112a4838383611ecf565b6112af600082611065565b6001600360008573ffffffffffffffffffffffffffffffffffffffff1673ffffffffffffffffffffffffffffffffffffffff16815260200190815260200160002060008282546112ff9190613d1a565b925050819055506001600360008473ffffffffffffffffffffffffffffffffffffffff1673ffffffffffffffffffffffffffffffffffffffff16815260200190815260200160002060008282546113569190613c93565b92505081905550816002600083815260200190815260200160002060006101000a81548173ffffffffffffffffffffffffffffffffffffffff021916908373ffffffffffffffffffffffffffffffffffffffff160217905550808273ffffffffffffffffffffffffffffffffffffffff168473ffffffffffffffffffffffffffffffffffffffff167fddf252ad1be2c89b69c2b068fc378daa952ba7f163c4a11628f55a4df523b3ef60405160405180910390a4611415838383611f4e565b505050565b60007f000000000000000000000000000000000000000000000000000000000000000073ffffffffffffffffffffffffffffffffffffffff163073ffffffffffffffffffffffffffffffffffffffff1614801561149657507f000000000000000000000000000000000000000000000000000000000000000046145b156114c3577f00000000000000000000000000000000000000000000000000000000000000009050611531565b61152e7f00000000000000000000000000000000000000000000000000000000000000007f00000000000000000000000000000000000000000000000000000000000000007f0000000000000000000000000000000000000000000000000000000000000000611f5e565b90505b90565b6000438210611578576040517f08c379a000000000000000000000000000000000000000000000000000000000815260040161156f90613a16565b60405180910390fd5b60008360000180549050905060005b8181101561162257600061159b8284611f98565b9050848660000182815481106115da577f4e487b7100000000000000000000000000000000000000000000000000000000600052603260045260246000fd5b9060005260206000200160000160009054906101000a900463ffffffff1663ffffffff16111561160c5780925061161c565b6001816116199190613c93565b91505b50611587565b600082146116ad578460000160018361163b9190613d1a565b81548110611672577f4e487b7100000000000000000000000000000000000000000000000000000000600052603260045260246000fd5b9060005260206000200160000160049054906101000a90047bffffffffffffffffffffffffffffffffffffffffffffffffffffffff166116b0565b60005b7bffffffffffffffffffffffffffffffffffffffffffffffffffffffff169250505092915050565b6116e061105d565b73ffffffffffffffffffffffffffffffffffffffff166116fe610b41565b73ffffffffffffffffffffffffffffffffffffffff1614611754576040517f08c379a000000000000000000000000000000000000000000000000000000000815260040161174b90613af6565b60405180910390fd5b565b600081600001549050919050565b6001816000016000828254019250508190555050565b611794828260405180602001604052806000815250611fbe565b5050565b60006117a3836108f0565b905081600760008573ffffffffffffffffffffffffffffffffffffffff1673ffffffffffffffffffffffffffffffffffffffff16815260200190815260200160002060006101000a81548173ffffffffffffffffffffffffffffffffffffffff021916908373ffffffffffffffffffffffffffffffffffffffff1602179055508173ffffffffffffffffffffffffffffffffffffffff168173ffffffffffffffffffffffffffffffffffffffff168473ffffffffffffffffffffffffffffffffffffffff167f3134e8a2e6d97e929a7e54011ea5485d7d196dd5f0ba4d4ef95803e8e3fc257f60405160405180910390a46118a781836118a286612019565b61202b565b505050565b6000600660009054906101000a900473ffffffffffffffffffffffffffffffffffffffff16905081600660006101000a81548173ffffffffffffffffffffffffffffffffffffffff021916908373ffffffffffffffffffffffffffffffffffffffff1602179055508173ffffffffffffffffffffffffffffffffffffffff168173ffffffffffffffffffffffffffffffffffffffff167f8be0079c531659141344cd1fd0a4f28419497f9722a3daafe3b4186f6b6457e060405160405180910390a35050565b6000808260000180549050905060008114611a0a57826000016001826119989190613d1a565b815481106119cf577f4e487b7100000000000000000000000000000000000000000000000000000000600052603260045260246000fd5b9060005260206000200160000160049054906101000a90047bffffffffffffffffffffffffffffffffffffffffffffffffffffffff16611a0d565b60005b7bffffffffffffffffffffffffffffffffffffffffffffffffffffffff16915050919050565b8173ffffffffffffffffffffffffffffffffffffffff168373ffffffffffffffffffffffffffffffffffffffff161415611aa2576040517f08c379a0000000000000000000000000000000000000000000000000000000008152600401611a99906139d6565b60405180910390fd5b80600560008573ffffffffffffffffffffffffffffffffffffffff1673ffffffffffffffffffffffffffffffffffffffff16815260200190815260200160002060008473ffffffffffffffffffffffffffffffffffffffff1673ffffffffffffffffffffffffffffffffffffffff16815260200190815260200160002060006101000a81548160ff0219169083151502179055508173ffffffffffffffffffffffffffffffffffffffff168373ffffffffffffffffffffffffffffffffffffffff167f17307eab39ab6107e8899845ad3d59bd9653f200f220920489ca2b5937696c3183604051611b939190613781565b60405180910390a3505050565b611bab8484846111b3565b611bb784848484612238565b611bf6576040517f08c379a0000000000000000000000000000000000000000000000000000000008152600401611bed90613936565b60405180910390fd5b50505050565b6000611c0f611c0961141a565b836123cf565b9050919050565b6000806000611c2787878787612402565b91509150611c348161250f565b8192505050949350505050565b600080600a60008473ffffffffffffffffffffffffffffffffffffffff1673ffffffffffffffffffffffffffffffffffffffff1681526020019081526020016000209050611c8e81611756565b9150611c9981611764565b50919050565b606060405180602001604052806000815250905090565b60606000821415611cfe576040518060400160405280600181526020017f30000000000000000000000000000000000000000000000000000000000000008152509050611e5e565b600082905060005b60008214611d30578080611d1990613e7e565b915050600a82611d299190613ce9565b9150611d06565b60008167ffffffffffffffff811115611d72577f4e487b7100000000000000000000000000000000000000000000000000000000600052604160045260246000fd5b6040519080825280601f01601f191660200182016040528015611da45781602001600182028036833780820191505090505b5090505b60008514611e5757600182611dbd9190613d1a565b9150600a85611dcc9190613ed1565b6030611dd89190613c93565b60f81b818381518110611e14577f4e487b7100000000000000000000000000000000000000000000000000000000600052603260045260246000fd5b60200101907effffffffffffffffffffffffffffffffffffffffffffffffffffffffffffff1916908160001a905350600a85611e509190613ce9565b9450611da8565b8093505050505b919050565b60008073ffffffffffffffffffffffffffffffffffffffff166002600084815260200190815260200160002060009054906101000a900473ffffffffffffffffffffffffffffffffffffffff1673ffffffffffffffffffffffffffffffffffffffff1614159050919050565b600073ffffffffffffffffffffffffffffffffffffffff168373ffffffffffffffffffffffffffffffffffffffff1614611f3e576040517f08c379a0000000000000000000000000000000000000000000000000000000008152600401611f35906138d6565b60405180910390fd5b611f49838383612860565b505050565b611f59838383612865565b505050565b60008383834630604051602001611f799594939291906137fc565b6040516020818303038152906040528051906020012090509392505050565b60006002828418611fa99190613ce9565b828416611fb69190613c93565b905092915050565b611fc88383612881565b611fd56000848484612238565b612014576040517f08c379a000000000000000000000000000000000000000000000000000000000815260040161200b90613936565b60405180910390fd5b505050565b600061202482610a25565b9050919050565b8173ffffffffffffffffffffffffffffffffffffffff168373ffffffffffffffffffffffffffffffffffffffff16141580156120675750600081115b1561223357600073ffffffffffffffffffffffffffffffffffffffff168373ffffffffffffffffffffffffffffffffffffffff161461214f576000806120f8612a5b84600860008973ffffffffffffffffffffffffffffffffffffffff1673ffffffffffffffffffffffffffffffffffffffff168152602001908152602001600020612a719092919063ffffffff16565b915091508473ffffffffffffffffffffffffffffffffffffffff167fdec2bacdd2f05b59de34da9b523dff8be42e5e38e818c82fdb0bae774387a7248383604051612144929190613bd1565b60405180910390a250505b600073ffffffffffffffffffffffffffffffffffffffff168273ffffffffffffffffffffffffffffffffffffffff1614612232576000806121db612a9f84600860008873ffffffffffffffffffffffffffffffffffffffff1673ffffffffffffffffffffffffffffffffffffffff168152602001908152602001600020612a719092919063ffffffff16565b915091508373ffffffffffffffffffffffffffffffffffffffff167fdec2bacdd2f05b59de34da9b523dff8be42e5e38e818c82fdb0bae774387a7248383604051612227929190613bd1565b60405180910390a250505b5b505050565b60006122598473ffffffffffffffffffffffffffffffffffffffff16612ab5565b156123c2578373ffffffffffffffffffffffffffffffffffffffff1663150b7a0261228261105d565b8786866040518563ffffffff1660e01b81526004016122a49493929190613735565b602060405180830381600087803b1580156122be57600080fd5b505af19250505080156122ef57506040513d601f19601f820116820180604052508101906122ec91906131fd565b60015b612372573d806000811461231f576040519150601f19603f3d011682016040523d82523d6000602084013e612324565b606091505b5060008151141561236a576040517f08c379a000000000000000000000000000000000000000000000000000000000815260040161236190613936565b60405180910390fd5b805181602001fd5b63150b7a0260e01b7bffffffffffffffffffffffffffffffffffffffffffffffffffffffff1916817bffffffffffffffffffffffffffffffffffffffffffffffffffffffff1916149150506123c7565b600190505b949350505050565b600082826040516020016123e49291906136e3565b60405160208183030381529060405280519060200120905092915050565b6000807f7fffffffffffffffffffffffffffffff5d576e7357a4501ddfe92f46681b20a08360001c111561243d576000600391509150612506565b601b8560ff16141580156124555750601c8560ff1614155b15612467576000600491509150612506565b60006001878787876040516000815260200160405260405161248c949392919061384f565b6020604051602081039080840390855afa1580156124ae573d6000803e3d6000fd5b505050602060405103519050600073ffffffffffffffffffffffffffffffffffffffff168173ffffffffffffffffffffffffffffffffffffffff1614156124fd57600060019250925050612506565b80600092509250505b94509492505050565b60006004811115612549577f4e487b7100000000000000000000000000000000000000000000000000000000600052602160045260246000fd5b816004811115612582577f4e487b7100000000000000000000000000000000000000000000000000000000600052602160045260246000fd5b141561258d5761285d565b600160048111156125c7577f4e487b7100000000000000000000000000000000000000000000000000000000600052602160045260246000fd5b816004811115612600577f4e487b7100000000000000000000000000000000000000000000000000000000600052602160045260246000fd5b1415612641576040517f08c379a0000000000000000000000000000000000000000000000000000000008152600401612638906138b6565b60405180910390fd5b6002600481111561267b577f4e487b7100000000000000000000000000000000000000000000000000000000600052602160045260246000fd5b8160048111156126b4577f4e487b7100000000000000000000000000000000000000000000000000000000600052602160045260246000fd5b14156126f5576040517f08c379a00000000000000000000000000000000000000000000000000000000081526004016126ec90613916565b60405180910390fd5b6003600481111561272f577f4e487b7100000000000000000000000000000000000000000000000000000000600052602160045260246000fd5b816004811115612768577f4e487b7100000000000000000000000000000000000000000000000000000000600052602160045260246000fd5b14156127a9576040517f08c379a00000000000000000000000000000000000000000000000000000000081526004016127a0906139f6565b60405180910390fd5b6004808111156127e2577f4e487b7100000000000000000000000000000000000000000000000000000000600052602160045260246000fd5b81600481111561281b577f4e487b7100000000000000000000000000000000000000000000000000000000600052602160045260246000fd5b141561285c576040517f08c379a000000000000000000000000000000000000000000000000000000000815260040161285390613a96565b60405180910390fd5b5b50565b505050565b61287183836001612ad8565b61287c838383612b98565b505050565b600073ffffffffffffffffffffffffffffffffffffffff168273ffffffffffffffffffffffffffffffffffffffff1614156128f1576040517f08c379a00000000000000000000000000000000000000000000000000000000081526004016128e890613ad6565b60405180910390fd5b6128fa81611e63565b1561293a576040517f08c379a000000000000000000000000000000000000000000000000000000000815260040161293190613996565b60405180910390fd5b61294660008383611ecf565b6001600360008473ffffffffffffffffffffffffffffffffffffffff1673ffffffffffffffffffffffffffffffffffffffff16815260200190815260200160002060008282546129969190613c93565b92505081905550816002600083815260200190815260200160002060006101000a81548173ffffffffffffffffffffffffffffffffffffffff021916908373ffffffffffffffffffffffffffffffffffffffff160217905550808273ffffffffffffffffffffffffffffffffffffffff16600073ffffffffffffffffffffffffffffffffffffffff167fddf252ad1be2c89b69c2b068fc378daa952ba7f163c4a11628f55a4df523b3ef60405160405180910390a4612a5760008383611f4e565b5050565b60008183612a699190613d1a565b905092915050565b600080612a9385612a8e612a8488611972565b868863ffffffff16565b612b9d565b91509150935093915050565b60008183612aad9190613c93565b905092915050565b6000808273ffffffffffffffffffffffffffffffffffffffff163b119050919050565b600073ffffffffffffffffffffffffffffffffffffffff168373ffffffffffffffffffffffffffffffffffffffff161415612b2857612b25612a9f826009612a719092919063ffffffff16565b50505b600073ffffffffffffffffffffffffffffffffffffffff168273ffffffffffffffffffffffffffffffffffffffff161415612b7857612b75612a5b826009612a719092919063ffffffff16565b50505b612b93612b84846108f0565b612b8d846108f0565b8361202b565b505050565b505050565b6000806000846000018054905090506000612bb786611972565b9050600082118015612c3357504386600001600184612bd69190613d1a565b81548110612c0d577f4e487b7100000000000000000000000000000000000000000000000000000000600052603260045260246000fd5b9060005260206000200160000160009054906101000a900463ffffffff1663ffffffff16145b15612ce957612c4185612deb565b86600001600184612c529190613d1a565b81548110612c89577f4e487b7100000000000000000000000000000000000000000000000000000000600052603260045260246000fd5b9060005260206000200160000160046101000a8154817bffffffffffffffffffffffffffffffffffffffffffffffffffffffff02191690837bffffffffffffffffffffffffffffffffffffffffffffffffffffffff160217905550612ddc565b856000016040518060400160405280612d0143612e56565b63ffffffff168152602001612d1588612deb565b7bffffffffffffffffffffffffffffffffffffffffffffffffffffffff168152509080600181540180825580915050600190039060005260206000200160009091909190915060008201518160000160006101000a81548163ffffffff021916908363ffffffff16021790555060208201518160000160046101000a8154817bffffffffffffffffffffffffffffffffffffffffffffffffffffffff02191690837bffffffffffffffffffffffffffffffffffffffffffffffffffffffff16021790555050505b80859350935050509250929050565b60007bffffffffffffffffffffffffffffffffffffffffffffffffffffffff8016821115612e4e576040517f08c379a0000000000000000000000000000000000000000000000000000000008152600401612e4590613b16565b60405180910390fd5b819050919050565b600063ffffffff8016821115612ea1576040517f08c379a0000000000000000000000000000000000000000000000000000000008152600401612e9890613b76565b60405180910390fd5b819050919050565b6000612ebc612eb784613c1f565b613bfa565b905082815260208101848484011115612ed457600080fd5b612edf848285613dd9565b509392505050565b600081359050612ef681614598565b92915050565b600081359050612f0b816145af565b92915050565b600081359050612f20816145c6565b92915050565b600081359050612f35816145dd565b92915050565b600081519050612f4a816145dd565b92915050565b600082601f830112612f6157600080fd5b8135612f71848260208601612ea9565b91505092915050565b600081359050612f89816145f4565b92915050565b600081359050612f9e8161460b565b92915050565b600060208284031215612fb657600080fd5b6000612fc484828501612ee7565b91505092915050565b60008060408385031215612fe057600080fd5b6000612fee85828601612ee7565b9250506020612fff85828601612ee7565b9150509250929050565b60008060006060848603121561301e57600080fd5b600061302c86828701612ee7565b935050602061303d86828701612ee7565b925050604061304e86828701612f7a565b9150509250925092565b6000806000806080858703121561306e57600080fd5b600061307c87828801612ee7565b945050602061308d87828801612ee7565b935050604061309e87828801612f7a565b925050606085013567ffffffffffffffff8111156130bb57600080fd5b6130c787828801612f50565b91505092959194509250565b600080604083850312156130e657600080fd5b60006130f485828601612ee7565b925050602061310585828601612efc565b9150509250929050565b6000806040838503121561312257600080fd5b600061313085828601612ee7565b925050602061314185828601612f7a565b9150509250929050565b60008060008060008060c0878903121561316457600080fd5b600061317289828a01612ee7565b965050602061318389828a01612f7a565b955050604061319489828a01612f7a565b94505060606131a589828a01612f8f565b93505060806131b689828a01612f11565b92505060a06131c789828a01612f11565b9150509295509295509295565b6000602082840312156131e657600080fd5b60006131f484828501612f26565b91505092915050565b60006020828403121561320f57600080fd5b600061321d84828501612f3b565b91505092915050565b60006020828403121561323857600080fd5b600061324684828501612f7a565b91505092915050565b61325881613d4e565b82525050565b61326781613d60565b82525050565b61327681613d6c565b82525050565b61328d61328882613d6c565b613ec7565b82525050565b600061329e82613c50565b6132a88185613c66565b93506132b8818560208601613de8565b6132c181613fbe565b840191505092915050565b60006132d782613c5b565b6132e18185613c77565b93506132f1818560208601613de8565b6132fa81613fbe565b840191505092915050565b600061331082613c5b565b61331a8185613c88565b935061332a818560208601613de8565b80840191505092915050565b6000613343601883613c77565b915061334e82613fcf565b602082019050919050565b6000613366601883613c77565b915061337182613ff8565b602082019050919050565b6000613389601483613c77565b915061339482614021565b602082019050919050565b60006133ac601f83613c77565b91506133b78261404a565b602082019050919050565b60006133cf603283613c77565b91506133da82614073565b604082019050919050565b60006133f2602683613c77565b91506133fd826140c2565b604082019050919050565b6000613415602583613c77565b915061342082614111565b604082019050919050565b6000613438601c83613c77565b915061344382614160565b602082019050919050565b600061345b600283613c88565b915061346682614189565b600282019050919050565b600061347e602483613c77565b9150613489826141b2565b604082019050919050565b60006134a1601983613c77565b91506134ac82614201565b602082019050919050565b60006134c4602283613c77565b91506134cf8261422a565b604082019050919050565b60006134e7602083613c77565b91506134f282614279565b602082019050919050565b600061350a602983613c77565b9150613515826142a2565b604082019050919050565b600061352d601883613c77565b9150613538826142f1565b602082019050919050565b6000613550601a83613c77565b915061355b8261431a565b602082019050919050565b6000613573602283613c77565b915061357e82614343565b604082019050919050565b6000613596603e83613c77565b91506135a182614392565b604082019050919050565b60006135b9602083613c77565b91506135c4826143e1565b602082019050919050565b60006135dc602083613c77565b91506135e78261440a565b602082019050919050565b60006135ff602783613c77565b915061360a82614433565b604082019050919050565b6000613622601883613c77565b915061362d82614482565b602082019050919050565b6000613645602183613c77565b9150613650826144ab565b604082019050919050565b6000613668602683613c77565b9150613673826144fa565b604082019050919050565b600061368b602e83613c77565b915061369682614549565b604082019050919050565b6136aa81613dc2565b82525050565b6136b981613dcc565b82525050565b60006136cb8285613305565b91506136d78284613305565b91508190509392505050565b60006136ee8261344e565b91506136fa828561327c565b60208201915061370a828461327c565b6020820191508190509392505050565b600060208201905061372f600083018461324f565b92915050565b600060808201905061374a600083018761324f565b613757602083018661324f565b61376460408301856136a1565b81810360608301526137768184613293565b905095945050505050565b6000602082019050613796600083018461325e565b92915050565b60006020820190506137b1600083018461326d565b92915050565b60006080820190506137cc600083018761326d565b6137d9602083018661324f565b6137e660408301856136a1565b6137f360608301846136a1565b95945050505050565b600060a082019050613811600083018861326d565b61381e602083018761326d565b61382b604083018661326d565b61383860608301856136a1565b613845608083018461324f565b9695505050505050565b6000608082019050613864600083018761326d565b61387160208301866136b0565b61387e604083018561326d565b61388b606083018461326d565b95945050505050565b600060208201905081810360008301526138ae81846132cc565b905092915050565b600060208201905081810360008301526138cf81613336565b9050919050565b600060208201905081810360008301526138ef81613359565b9050919050565b6000602082019050818103600083015261390f8161337c565b9050919050565b6000602082019050818103600083015261392f8161339f565b9050919050565b6000602082019050818103600083015261394f816133c2565b9050919050565b6000602082019050818103600083015261396f816133e5565b9050919050565b6000602082019050818103600083015261398f81613408565b9050919050565b600060208201905081810360008301526139af8161342b565b9050919050565b600060208201905081810360008301526139cf81613471565b9050919050565b600060208201905081810360008301526139ef81613494565b9050919050565b60006020820190508181036000830152613a0f816134b7565b9050919050565b60006020820190508181036000830152613a2f816134da565b9050919050565b60006020820190508181036000830152613a4f816134fd565b9050919050565b60006020820190508181036000830152613a6f81613520565b9050919050565b60006020820190508181036000830152613a8f81613543565b9050919050565b60006020820190508181036000830152613aaf81613566565b9050919050565b60006020820190508181036000830152613acf81613589565b9050919050565b60006020820190508181036000830152613aef816135ac565b9050919050565b60006020820190508181036000830152613b0f816135cf565b9050919050565b60006020820190508181036000830152613b2f816135f2565b9050919050565b60006020820190508181036000830152613b4f81613615565b9050919050565b60006020820190508181036000830152613b6f81613638565b9050919050565b60006020820190508181036000830152613b8f8161365b565b9050919050565b60006020820190508181036000830152613baf8161367e565b9050919050565b6000602082019050613bcb60008301846136a1565b92915050565b6000604082019050613be660008301856136a1565b613bf360208301846136a1565b9392505050565b6000613c04613c15565b9050613c108282613e4d565b919050565b6000604051905090565b600067ffffffffffffffff821115613c3a57613c39613f8f565b5b613c4382613fbe565b9050602081019050919050565b600081519050919050565b600081519050919050565b600082825260208201905092915050565b600082825260208201905092915050565b600081905092915050565b6000613c9e82613dc2565b9150613ca983613dc2565b9250827fffffffffffffffffffffffffffffffffffffffffffffffffffffffffffffffff03821115613cde57613cdd613f02565b5b828201905092915050565b6000613cf482613dc2565b9150613cff83613dc2565b925082613d0f57613d0e613f31565b5b828204905092915050565b6000613d2582613dc2565b9150613d3083613dc2565b925082821015613d4357613d42613f02565b5b828203905092915050565b6000613d5982613da2565b9050919050565b60008115159050919050565b6000819050919050565b60007fffffffff0000000000000000000000000000000000000000000000000000000082169050919050565b600073ffffffffffffffffffffffffffffffffffffffff82169050919050565b6000819050919050565b600060ff82169050919050565b82818337600083830152505050565b60005b83811015613e06578082015181840152602081019050613deb565b83811115613e15576000848401525b50505050565b60006002820490506001821680613e3357607f821691505b60208210811415613e4757613e46613f60565b5b50919050565b613e5682613fbe565b810181811067ffffffffffffffff82111715613e7557613e74613f8f565b5b80604052505050565b6000613e8982613dc2565b91507fffffffffffffffffffffffffffffffffffffffffffffffffffffffffffffffff821415613ebc57613ebb613f02565b5b600182019050919050565b6000819050919050565b6000613edc82613dc2565b9150613ee783613dc2565b925082613ef757613ef6613f31565b5b828206905092915050565b7f4e487b7100000000000000000000000000000000000000000000000000000000600052601160045260246000fd5b7f4e487b7100000000000000000000000000000000000000000000000000000000600052601260045260246000fd5b7f4e487b7100000000000000000000000000000000000000000000000000000000600052602260045260246000fd5b7f4e487b7100000000000000000000000000000000000000000000000000000000600052604160045260246000fd5b6000601f19601f8301169050919050565b7f45434453413a20696e76616c6964207369676e61747572650000000000000000600082015250565b7f4572723a20746f6b656e20697320534f554c20424f554e440000000000000000600082015250565b7f566f7465733a20696e76616c6964206e6f6e6365000000000000000000000000600082015250565b7f45434453413a20696e76616c6964207369676e6174757265206c656e67746800600082015250565b7f4552433732313a207472616e7366657220746f206e6f6e20455243373231526560008201527f63656976657220696d706c656d656e7465720000000000000000000000000000602082015250565b7f4f776e61626c653a206e6577206f776e657220697320746865207a65726f206160008201527f6464726573730000000000000000000000000000000000000000000000000000602082015250565b7f4552433732313a207472616e736665722066726f6d20696e636f72726563742060008201527f6f776e6572000000000000000000000000000000000000000000000000000000602082015250565b7f4552433732313a20746f6b656e20616c7265616479206d696e74656400000000600082015250565b7f1901000000000000000000000000000000000000000000000000000000000000600082015250565b7f4552433732313a207472616e7366657220746f20746865207a65726f2061646460008201527f7265737300000000000000000000000000000000000000000000000000000000602082015250565b7f4552433732313a20617070726f766520746f2063616c6c657200000000000000600082015250565b7f45434453413a20696e76616c6964207369676e6174757265202773272076616c60008201527f7565000000000000000000000000000000000000000000000000000000000000602082015250565b7f436865636b706f696e74733a20626c6f636b206e6f7420796574206d696e6564600082015250565b7f4552433732313a2061646472657373207a65726f206973206e6f74206120766160008201527f6c6964206f776e65720000000000000000000000000000000000000000000000602082015250565b7f566f7465733a207369676e617475726520657870697265640000000000000000600082015250565b7f566f7465733a20626c6f636b206e6f7420796574206d696e6564000000000000600082015250565b7f45434453413a20696e76616c6964207369676e6174757265202776272076616c60008201527f7565000000000000000000000000000000000000000000000000000000000000602082015250565b7f4552433732313a20617070726f76652063616c6c6572206973206e6f7420746f60008201527f6b656e206f776e6572206e6f7220617070726f76656420666f7220616c6c0000602082015250565b7f4552433732313a206d696e7420746f20746865207a65726f2061646472657373600082015250565b7f4f776e61626c653a2063616c6c6572206973206e6f7420746865206f776e6572600082015250565b7f53616665436173743a2076616c756520646f65736e27742066697420696e203260008201527f3234206269747300000000000000000000000000000000000000000000000000602082015250565b7f4552433732313a20696e76616c696420746f6b656e2049440000000000000000600082015250565b7f4552433732313a20617070726f76616c20746f2063757272656e74206f776e6560008201527f7200000000000000000000000000000000000000000000000000000000000000602082015250565b7f53616665436173743a2076616c756520646f65736e27742066697420696e203360008201527f3220626974730000000000000000000000000000000000000000000000000000602082015250565b7f4552433732313a2063616c6c6572206973206e6f7420746f6b656e206f776e6560008201527f72206e6f7220617070726f766564000000000000000000000000000000000000602082015250565b6145a181613d4e565b81146145ac57600080fd5b50565b6145b881613d60565b81146145c357600080fd5b50565b6145cf81613d6c565b81146145da57600080fd5b50565b6145e681613d76565b81146145f157600080fd5b50565b6145fd81613dc2565b811461460857600080fd5b50565b61461481613dcc565b811461461f57600080fd5b5056fea2646970667358221220bbf6085e74c82443556c0bd3e96617cb7681860d6b30700722c1d60f55aff7aa64736f6c63430008040033",
  "linkReferences": {},
  "deployedLinkReferences": {}
}