{
  "_format": "hh-sol-artifact-1",
  "contractName": "OmSbToken",
  "sourceName": "contracts/OmSbToken.sol",
  "abi": [
    {
      "inputs": [],
      "stateMutability": "nonpayable",
      "type": "constructor"
    },
    {
      "anonymous": false,
      "inputs": [
        {
          "indexed": true,
          "internalType": "address",
          "name": "owner",
          "type": "address"
        },
        {
          "indexed": true,
          "internalType": "address",
          "name": "approved",
          "type": "address"
        },
        {
          "indexed": true,
          "internalType": "uint256",
          "name": "tokenId",
          "type": "uint256"
        }
      ],
      "name": "Approval",
      "type": "event"
    },
    {
      "anonymous": false,
      "inputs": [
        {
          "indexed": true,
          "internalType": "address",
          "name": "owner",
          "type": "address"
        },
        {
          "indexed": true,
          "internalType": "address",
          "name": "operator",
          "type": "address"
        },
        {
          "indexed": false,
          "internalType": "bool",
          "name": "approved",
          "type": "bool"
        }
      ],
      "name": "ApprovalForAll",
      "type": "event"
    },
    {
      "anonymous": false,
      "inputs": [
        {
          "indexed": true,
          "internalType": "address",
          "name": "delegator",
          "type": "address"
        },
        {
          "indexed": true,
          "internalType": "address",
          "name": "fromDelegate",
          "type": "address"
        },
        {
          "indexed": true,
          "internalType": "address",
          "name": "toDelegate",
          "type": "address"
        }
      ],
      "name": "DelegateChanged",
      "type": "event"
    },
    {
      "anonymous": false,
      "inputs": [
        {
          "indexed": true,
          "internalType": "address",
          "name": "delegate",
          "type": "address"
        },
        {
          "indexed": false,
          "internalType": "uint256",
          "name": "previousBalance",
          "type": "uint256"
        },
        {
          "indexed": false,
          "internalType": "uint256",
          "name": "newBalance",
          "type": "uint256"
        }
      ],
      "name": "DelegateVotesChanged",
      "type": "event"
    },
    {
      "anonymous": false,
      "inputs": [
        {
          "indexed": true,
          "internalType": "address",
          "name": "previousOwner",
          "type": "address"
        },
        {
          "indexed": true,
          "internalType": "address",
          "name": "newOwner",
          "type": "address"
        }
      ],
      "name": "OwnershipTransferred",
      "type": "event"
    },
    {
      "anonymous": false,
      "inputs": [
        {
          "indexed": true,
          "internalType": "address",
          "name": "from",
          "type": "address"
        },
        {
          "indexed": true,
          "internalType": "address",
          "name": "to",
          "type": "address"
        },
        {
          "indexed": true,
          "internalType": "uint256",
          "name": "tokenId",
          "type": "uint256"
        }
      ],
      "name": "Transfer",
      "type": "event"
    },
    {
      "inputs": [],
      "name": "DOMAIN_SEPARATOR",
      "outputs": [
        {
          "internalType": "bytes32",
          "name": "",
          "type": "bytes32"
        }
      ],
      "stateMutability": "view",
      "type": "function"
    },
    {
      "inputs": [
        {
          "internalType": "address",
          "name": "to",
          "type": "address"
        },
        {
          "internalType": "uint256",
          "name": "tokenId",
          "type": "uint256"
        }
      ],
      "name": "approve",
      "outputs": [],
      "stateMutability": "nonpayable",
      "type": "function"
    },
    {
      "inputs": [
        {
          "internalType": "address",
          "name": "owner",
          "type": "address"
        }
      ],
      "name": "balanceOf",
      "outputs": [
        {
          "internalType": "uint256",
          "name": "",
          "type": "uint256"
        }
      ],
      "stateMutability": "view",
      "type": "function"
    },
    {
      "inputs": [
        {
          "internalType": "address",
          "name": "delegatee",
          "type": "address"
        }
      ],
      "name": "delegate",
      "outputs": [],
      "stateMutability": "nonpayable",
      "type": "function"
    },
    {
      "inputs": [
        {
          "internalType": "address",
          "name": "delegatee",
          "type": "address"
        },
        {
          "internalType": "uint256",
          "name": "nonce",
          "type": "uint256"
        },
        {
          "internalType": "uint256",
          "name": "expiry",
          "type": "uint256"
        },
        {
          "internalType": "uint8",
          "name": "v",
          "type": "uint8"
        },
        {
          "internalType": "bytes32",
          "name": "r",
          "type": "bytes32"
        },
        {
          "internalType": "bytes32",
          "name": "s",
          "type": "bytes32"
        }
      ],
      "name": "delegateBySig",
      "outputs": [],
      "stateMutability": "nonpayable",
      "type": "function"
    },
    {
      "inputs": [
        {
          "internalType": "address",
          "name": "account",
          "type": "address"
        }
      ],
      "name": "delegates",
      "outputs": [
        {
          "internalType": "address",
          "name": "",
          "type": "address"
        }
      ],
      "stateMutability": "view",
      "type": "function"
    },
    {
      "inputs": [
        {
          "internalType": "uint256",
          "name": "tokenId",
          "type": "uint256"
        }
      ],
      "name": "getApproved",
      "outputs": [
        {
          "internalType": "address",
          "name": "",
          "type": "address"
        }
      ],
      "stateMutability": "view",
      "type": "function"
    },
    {
      "inputs": [
        {
          "internalType": "uint256",
          "name": "blockNumber",
          "type": "uint256"
        }
      ],
      "name": "getPastTotalSupply",
      "outputs": [
        {
          "internalType": "uint256",
          "name": "",
          "type": "uint256"
        }
      ],
      "stateMutability": "view",
      "type": "function"
    },
    {
      "inputs": [
        {
          "internalType": "address",
          "name": "account",
          "type": "address"
        },
        {
          "internalType": "uint256",
          "name": "blockNumber",
          "type": "uint256"
        }
      ],
      "name": "getPastVotes",
      "outputs": [
        {
          "internalType": "uint256",
          "name": "",
          "type": "uint256"
        }
      ],
      "stateMutability": "view",
      "type": "function"
    },
    {
      "inputs": [
        {
          "internalType": "address",
          "name": "account",
          "type": "address"
        }
      ],
      "name": "getVotes",
      "outputs": [
        {
          "internalType": "uint256",
          "name": "",
          "type": "uint256"
        }
      ],
      "stateMutability": "view",
      "type": "function"
    },
    {
      "inputs": [
        {
          "internalType": "uint256",
          "name": "",
          "type": "uint256"
        }
      ],
      "name": "identityData",
      "outputs": [
        {
          "internalType": "string",
          "name": "",
          "type": "string"
        }
      ],
      "stateMutability": "view",
      "type": "function"
    },
    {
      "inputs": [
        {
          "internalType": "address",
          "name": "owner",
          "type": "address"
        },
        {
          "internalType": "address",
          "name": "operator",
          "type": "address"
        }
      ],
      "name": "isApprovedForAll",
      "outputs": [
        {
          "internalType": "bool",
          "name": "",
          "type": "bool"
        }
      ],
      "stateMutability": "view",
      "type": "function"
    },
    {
      "inputs": [],
      "name": "name",
      "outputs": [
        {
          "internalType": "string",
          "name": "",
          "type": "string"
        }
      ],
      "stateMutability": "view",
      "type": "function"
    },
    {
      "inputs": [
        {
          "internalType": "address",
          "name": "owner",
          "type": "address"
        }
      ],
      "name": "nonces",
      "outputs": [
        {
          "internalType": "uint256",
          "name": "",
          "type": "uint256"
        }
      ],
      "stateMutability": "view",
      "type": "function"
    },
    {
      "inputs": [],
      "name": "owner",
      "outputs": [
        {
          "internalType": "address",
          "name": "",
          "type": "address"
        }
      ],
      "stateMutability": "view",
      "type": "function"
    },
    {
      "inputs": [
        {
          "internalType": "uint256",
          "name": "tokenId",
          "type": "uint256"
        }
      ],
      "name": "ownerOf",
      "outputs": [
        {
          "internalType": "address",
          "name": "",
          "type": "address"
        }
      ],
      "stateMutability": "view",
      "type": "function"
    },
    {
      "inputs": [],
      "name": "renounceOwnership",
      "outputs": [],
      "stateMutability": "nonpayable",
      "type": "function"
    },
    {
      "inputs": [
        {
          "internalType": "address",
          "name": "to",
          "type": "address"
        },
        {
          "internalType": "string",
          "name": "_identityData",
          "type": "string"
        }
      ],
      "name": "safeMint",
      "outputs": [],
      "stateMutability": "nonpayable",
      "type": "function"
    },
    {
      "inputs": [
        {
          "internalType": "address",
          "name": "from",
          "type": "address"
        },
        {
          "internalType": "address",
          "name": "to",
          "type": "address"
        },
        {
          "internalType": "uint256",
          "name": "tokenId",
          "type": "uint256"
        }
      ],
      "name": "safeTransferFrom",
      "outputs": [],
      "stateMutability": "nonpayable",
      "type": "function"
    },
    {
      "inputs": [
        {
          "internalType": "address",
          "name": "from",
          "type": "address"
        },
        {
          "internalType": "address",
          "name": "to",
          "type": "address"
        },
        {
          "internalType": "uint256",
          "name": "tokenId",
          "type": "uint256"
        },
        {
          "internalType": "bytes",
          "name": "data",
          "type": "bytes"
        }
      ],
      "name": "safeTransferFrom",
      "outputs": [],
      "stateMutability": "nonpayable",
      "type": "function"
    },
    {
      "inputs": [
        {
          "internalType": "address",
          "name": "operator",
          "type": "address"
        },
        {
          "internalType": "bool",
          "name": "approved",
          "type": "bool"
        }
      ],
      "name": "setApprovalForAll",
      "outputs": [],
      "stateMutability": "nonpayable",
      "type": "function"
    },
    {
      "inputs": [
        {
          "internalType": "bytes4",
          "name": "interfaceId",
          "type": "bytes4"
        }
      ],
      "name": "supportsInterface",
      "outputs": [
        {
          "internalType": "bool",
          "name": "",
          "type": "bool"
        }
      ],
      "stateMutability": "view",
      "type": "function"
    },
    {
      "inputs": [],
      "name": "symbol",
      "outputs": [
        {
          "internalType": "string",
          "name": "",
          "type": "string"
        }
      ],
      "stateMutability": "view",
      "type": "function"
    },
    {
      "inputs": [
        {
          "internalType": "uint256",
          "name": "tokenId",
          "type": "uint256"
        }
      ],
      "name": "tokenURI",
      "outputs": [
        {
          "internalType": "string",
          "name": "",
          "type": "string"
        }
      ],
      "stateMutability": "view",
      "type": "function"
    },
    {
      "inputs": [
        {
          "internalType": "address",
          "name": "from",
          "type": "address"
        },
        {
          "internalType": "address",
          "name": "to",
          "type": "address"
        },
        {
          "internalType": "uint256",
          "name": "tokenId",
          "type": "uint256"
        }
      ],
      "name": "transferFrom",
      "outputs": [],
      "stateMutability": "nonpayable",
      "type": "function"
    },
    {
      "inputs": [
        {
          "internalType": "address",
          "name": "newOwner",
          "type": "address"
        }
      ],
      "name": "transferOwnership",
      "outputs": [],
      "stateMutability": "nonpayable",
      "type": "function"
    }
  ],
  "bytecode": "0x6101406040523480156200001257600080fd5b506040518060400160405280600c81526020017f4f6d53624964656e7469747900000000000000000000000000000000000000008152506040518060400160405280600181526020017f31000000000000000000000000000000000000000000000000000000000000008152506040518060400160405280600c81526020017f4f6d53624964656e7469747900000000000000000000000000000000000000008152506040518060400160405280600381526020017f4f5349000000000000000000000000000000000000000000000000000000000081525081600090805190602001906200010392919062000304565b5080600190805190602001906200011c92919062000304565b5050506200013f62000133620001fa60201b60201c565b6200020260201b60201c565b60008280519060200120905060008280519060200120905060007f8b73c3c69bb8fe3d512ecc4cf759cc79239f7b179b0ffacaa9a75d522b39400f90508260e081815250508161010081815250504660a08181525050620001a8818484620002c860201b60201c565b608081815250503073ffffffffffffffffffffffffffffffffffffffff1660c08173ffffffffffffffffffffffffffffffffffffffff1660601b815250508061012081815250505050505050620004f1565b600033905090565b6000600660009054906101000a900473ffffffffffffffffffffffffffffffffffffffff16905081600660006101000a81548173ffffffffffffffffffffffffffffffffffffffff021916908373ffffffffffffffffffffffffffffffffffffffff1602179055508173ffffffffffffffffffffffffffffffffffffffff168173ffffffffffffffffffffffffffffffffffffffff167f8be0079c531659141344cd1fd0a4f28419497f9722a3daafe3b4186f6b6457e060405160405180910390a35050565b60008383834630604051602001620002e5959493929190620003e7565b6040516020818303038152906040528051906020012090509392505050565b82805462000312906200048c565b90600052602060002090601f01602090048101928262000336576000855562000382565b82601f106200035157805160ff191683800117855562000382565b8280016001018555821562000382579182015b828111156200038157825182559160200191906001019062000364565b5b50905062000391919062000395565b5090565b5b80821115620003b057600081600090555060010162000396565b5090565b620003bf8162000444565b82525050565b620003d08162000458565b82525050565b620003e18162000482565b82525050565b600060a082019050620003fe6000830188620003c5565b6200040d6020830187620003c5565b6200041c6040830186620003c5565b6200042b6060830185620003d6565b6200043a6080830184620003b4565b9695505050505050565b6000620004518262000462565b9050919050565b6000819050919050565b600073ffffffffffffffffffffffffffffffffffffffff82169050919050565b6000819050919050565b60006002820490506001821680620004a557607f821691505b60208210811415620004bc57620004bb620004c2565b5b50919050565b7f4e487b7100000000000000000000000000000000000000000000000000000000600052602260045260246000fd5b60805160a05160c05160601c60e05161010051610120516148fc6200054460003960006115dc0152600061161e015260006115fd0152600061153201526000611588015260006115b101526148fc6000f3fe608060405234801561001057600080fd5b506004361061018e5760003560e01c80637ecebe00116100de578063b88d4fde11610097578063d204c45e11610071578063d204c45e146104b9578063e985e9c5146104d5578063f23b903614610505578063f2fde38b146105355761018e565b8063b88d4fde14610451578063c3cda5201461046d578063c87b56dd146104895761018e565b80637ecebe00146103695780638da5cb5b146103995780638e539e8c146103b757806395d89b41146103e75780639ab24eb014610405578063a22cb465146104355761018e565b80633a46b1a81161014b5780635c19a95c116101255780635c19a95c146102e35780636352211e146102ff57806370a082311461032f578063715018a61461035f5761018e565b80633a46b1a81461026757806342842e0e14610297578063587cde1e146102b35761018e565b806301ffc9a71461019357806306fdde03146101c3578063081812fc146101e1578063095ea7b31461021157806323b872dd1461022d5780633644e51514610249575b600080fd5b6101ad60048036038101906101a89190613447565b610551565b6040516101ba91906139f4565b60405180910390f35b6101cb610633565b6040516101d89190613b07565b60405180910390f35b6101fb60048036038101906101f69190613499565b6106c5565b604051610208919061398d565b60405180910390f35b61022b60048036038101906102269190613382565b61070b565b005b61024760048036038101906102429190613228565b610823565b005b610251610883565b60405161025e9190613a0f565b60405180910390f35b610281600480360381019061027c9190613382565b610892565b60405161028e9190613e29565b60405180910390f35b6102b160048036038101906102ac9190613228565b6108ed565b005b6102cd60048036038101906102c891906131c3565b61090d565b6040516102da919061398d565b60405180910390f35b6102fd60048036038101906102f891906131c3565b610976565b005b61031960048036038101906103149190613499565b610990565b604051610326919061398d565b60405180910390f35b610349600480360381019061034491906131c3565b610a42565b6040516103569190613e29565b60405180910390f35b610367610afa565b005b610383600480360381019061037e91906131c3565b610b0e565b6040516103909190613e29565b60405180910390f35b6103a1610b5e565b6040516103ae919061398d565b60405180910390f35b6103d160048036038101906103cc9190613499565b610b88565b6040516103de9190613e29565b60405180910390f35b6103ef610be7565b6040516103fc9190613b07565b60405180910390f35b61041f600480360381019061041a91906131c3565b610c79565b60405161042c9190613e29565b60405180910390f35b61044f600480360381019061044a91906132f2565b610cc9565b005b61046b60048036038101906104669190613277565b610cdf565b005b610487600480360381019061048291906133be565b610d41565b005b6104a3600480360381019061049e9190613499565b610e45565b6040516104b09190613b07565b60405180910390f35b6104d360048036038101906104ce919061332e565b610ead565b005b6104ef60048036038101906104ea91906131ec565b610f04565b6040516104fc91906139f4565b60405180910390f35b61051f600480360381019061051a9190613499565b610f98565b60405161052c9190613b07565b60405180910390f35b61054f600480360381019061054a91906131c3565b611038565b005b60007f80ac58cd000000000000000000000000000000000000000000000000000000007bffffffffffffffffffffffffffffffffffffffffffffffffffffffff1916827bffffffffffffffffffffffffffffffffffffffffffffffffffffffff1916148061061c57507f5b5e139f000000000000000000000000000000000000000000000000000000007bffffffffffffffffffffffffffffffffffffffffffffffffffffffff1916827bffffffffffffffffffffffffffffffffffffffffffffffffffffffff1916145b8061062c575061062b826110bc565b5b9050919050565b606060008054610642906140bf565b80601f016020809104026020016040519081016040528092919081815260200182805461066e906140bf565b80156106bb5780601f10610690576101008083540402835291602001916106bb565b820191906000526020600020905b81548152906001019060200180831161069e57829003601f168201915b5050505050905090565b60006106d082611126565b6004600083815260200190815260200160002060009054906101000a900473ffffffffffffffffffffffffffffffffffffffff169050919050565b600061071682610990565b90508073ffffffffffffffffffffffffffffffffffffffff168373ffffffffffffffffffffffffffffffffffffffff161415610787576040517f08c379a000000000000000000000000000000000000000000000000000000000815260040161077e90613dc9565b60405180910390fd5b8073ffffffffffffffffffffffffffffffffffffffff166107a6611171565b73ffffffffffffffffffffffffffffffffffffffff1614806107d557506107d4816107cf611171565b610f04565b5b610814576040517f08c379a000000000000000000000000000000000000000000000000000000000815260040161080b90613d29565b60405180910390fd5b61081e8383611179565b505050565b61083461082e611171565b82611232565b610873576040517f08c379a000000000000000000000000000000000000000000000000000000000815260040161086a90613e09565b60405180910390fd5b61087e8383836112c7565b505050565b600061088d61152e565b905090565b60006108e582600860008673ffffffffffffffffffffffffffffffffffffffff1673ffffffffffffffffffffffffffffffffffffffff16815260200190815260200160002061164890919063ffffffff16565b905092915050565b61090883838360405180602001604052806000815250610cdf565b505050565b6000600760008373ffffffffffffffffffffffffffffffffffffffff1673ffffffffffffffffffffffffffffffffffffffff16815260200190815260200160002060009054906101000a900473ffffffffffffffffffffffffffffffffffffffff169050919050565b6000610980611171565b905061098c81836117ec565b5050565b6000806002600084815260200190815260200160002060009054906101000a900473ffffffffffffffffffffffffffffffffffffffff169050600073ffffffffffffffffffffffffffffffffffffffff168173ffffffffffffffffffffffffffffffffffffffff161415610a39576040517f08c379a0000000000000000000000000000000000000000000000000000000008152600401610a3090613da9565b60405180910390fd5b80915050919050565b60008073ffffffffffffffffffffffffffffffffffffffff168273ffffffffffffffffffffffffffffffffffffffff161415610ab3576040517f08c379a0000000000000000000000000000000000000000000000000000000008152600401610aaa90613ca9565b60405180910390fd5b600360008373ffffffffffffffffffffffffffffffffffffffff1673ffffffffffffffffffffffffffffffffffffffff168152602001908152602001600020549050919050565b610b02611900565b610b0c600061197e565b565b6000610b57600a60008473ffffffffffffffffffffffffffffffffffffffff1673ffffffffffffffffffffffffffffffffffffffff168152602001908152602001600020611a44565b9050919050565b6000600660009054906101000a900473ffffffffffffffffffffffffffffffffffffffff16905090565b6000438210610bcc576040517f08c379a0000000000000000000000000000000000000000000000000000000008152600401610bc390613ce9565b60405180910390fd5b610be082600961164890919063ffffffff16565b9050919050565b606060018054610bf6906140bf565b80601f0160208091040260200160405190810160405280929190818152602001828054610c22906140bf565b8015610c6f5780601f10610c4457610100808354040283529160200191610c6f565b820191906000526020600020905b815481529060010190602001808311610c5257829003601f168201915b5050505050905090565b6000610cc2600860008473ffffffffffffffffffffffffffffffffffffffff1673ffffffffffffffffffffffffffffffffffffffff168152602001908152602001600020611a52565b9050919050565b610cdb610cd4611171565b8383611b13565b5050565b610cf0610cea611171565b83611232565b610d2f576040517f08c379a0000000000000000000000000000000000000000000000000000000008152600401610d2690613e09565b60405180910390fd5b610d3b84848484611c80565b50505050565b83421115610d84576040517f08c379a0000000000000000000000000000000000000000000000000000000008152600401610d7b90613cc9565b60405180910390fd5b6000610de6610dde7fe48329057bfd03d55e49b547132e39cffd9c1820ad7b9d4c5307691425d15adf898989604051602001610dc39493929190613a2a565b60405160208183030381529060405280519060200120611cdc565b858585611cf6565b9050610df181611d21565b8614610e32576040517f08c379a0000000000000000000000000000000000000000000000000000000008152600401610e2990613b69565b60405180910390fd5b610e3c81886117ec565b50505050505050565b6060610e5082611126565b6000610e5a611d7f565b90506000815111610e7a5760405180602001604052806000815250610ea5565b80610e8484611d96565b604051602001610e95929190613932565b6040516020818303038152906040525b915050919050565b610eb5611900565b6000610ec1600b611a44565b9050610ecd600b611f43565b610ed78382611f59565b81600c60008381526020019081526020016000209080519060200190610efe929190612fbd565b50505050565b6000600560008473ffffffffffffffffffffffffffffffffffffffff1673ffffffffffffffffffffffffffffffffffffffff16815260200190815260200160002060008373ffffffffffffffffffffffffffffffffffffffff1673ffffffffffffffffffffffffffffffffffffffff16815260200190815260200160002060009054906101000a900460ff16905092915050565b600c6020528060005260406000206000915090508054610fb7906140bf565b80601f0160208091040260200160405190810160405280929190818152602001828054610fe3906140bf565b80156110305780601f1061100557610100808354040283529160200191611030565b820191906000526020600020905b81548152906001019060200180831161101357829003601f168201915b505050505081565b611040611900565b600073ffffffffffffffffffffffffffffffffffffffff168173ffffffffffffffffffffffffffffffffffffffff1614156110b0576040517f08c379a00000000000000000000000000000000000000000000000000000000081526004016110a790613bc9565b60405180910390fd5b6110b98161197e565b50565b60007f01ffc9a7000000000000000000000000000000000000000000000000000000007bffffffffffffffffffffffffffffffffffffffffffffffffffffffff1916827bffffffffffffffffffffffffffffffffffffffffffffffffffffffff1916149050919050565b61112f81611f77565b61116e576040517f08c379a000000000000000000000000000000000000000000000000000000000815260040161116590613da9565b60405180910390fd5b50565b600033905090565b816004600083815260200190815260200160002060006101000a81548173ffffffffffffffffffffffffffffffffffffffff021916908373ffffffffffffffffffffffffffffffffffffffff160217905550808273ffffffffffffffffffffffffffffffffffffffff166111ec83610990565b73ffffffffffffffffffffffffffffffffffffffff167f8c5be1e5ebec7d5bd14f71427d1e84f3dd0314c0f7b2291e5b200ac8c7c3b92560405160405180910390a45050565b60008061123e83610990565b90508073ffffffffffffffffffffffffffffffffffffffff168473ffffffffffffffffffffffffffffffffffffffff161480611280575061127f8185610f04565b5b806112be57508373ffffffffffffffffffffffffffffffffffffffff166112a6846106c5565b73ffffffffffffffffffffffffffffffffffffffff16145b91505092915050565b8273ffffffffffffffffffffffffffffffffffffffff166112e782610990565b73ffffffffffffffffffffffffffffffffffffffff161461133d576040517f08c379a000000000000000000000000000000000000000000000000000000000815260040161133490613be9565b60405180910390fd5b600073ffffffffffffffffffffffffffffffffffffffff168273ffffffffffffffffffffffffffffffffffffffff1614156113ad576040517f08c379a00000000000000000000000000000000000000000000000000000000081526004016113a490613c29565b60405180910390fd5b6113b8838383611fe3565b6113c3600082611179565b6001600360008573ffffffffffffffffffffffffffffffffffffffff1673ffffffffffffffffffffffffffffffffffffffff16815260200190815260200160002060008282546114139190613fbe565b925050819055506001600360008473ffffffffffffffffffffffffffffffffffffffff1673ffffffffffffffffffffffffffffffffffffffff168152602001908152602001600020600082825461146a9190613f37565b92505081905550816002600083815260200190815260200160002060006101000a81548173ffffffffffffffffffffffffffffffffffffffff021916908373ffffffffffffffffffffffffffffffffffffffff160217905550808273ffffffffffffffffffffffffffffffffffffffff168473ffffffffffffffffffffffffffffffffffffffff167fddf252ad1be2c89b69c2b068fc378daa952ba7f163c4a11628f55a4df523b3ef60405160405180910390a4611529838383612062565b505050565b60007f000000000000000000000000000000000000000000000000000000000000000073ffffffffffffffffffffffffffffffffffffffff163073ffffffffffffffffffffffffffffffffffffffff161480156115aa57507f000000000000000000000000000000000000000000000000000000000000000046145b156115d7577f00000000000000000000000000000000000000000000000000000000000000009050611645565b6116427f00000000000000000000000000000000000000000000000000000000000000007f00000000000000000000000000000000000000000000000000000000000000007f0000000000000000000000000000000000000000000000000000000000000000612072565b90505b90565b600043821061168c576040517f08c379a000000000000000000000000000000000000000000000000000000000815260040161168390613c89565b60405180910390fd5b60008360000180549050905060005b818110156117365760006116af82846120ac565b9050848660000182815481106116ee577f4e487b7100000000000000000000000000000000000000000000000000000000600052603260045260246000fd5b9060005260206000200160000160009054906101000a900463ffffffff1663ffffffff16111561172057809250611730565b60018161172d9190613f37565b91505b5061169b565b600082146117c1578460000160018361174f9190613fbe565b81548110611786577f4e487b7100000000000000000000000000000000000000000000000000000000600052603260045260246000fd5b9060005260206000200160000160049054906101000a90047bffffffffffffffffffffffffffffffffffffffffffffffffffffffff166117c4565b60005b7bffffffffffffffffffffffffffffffffffffffffffffffffffffffff169250505092915050565b60006117f78361090d565b905081600760008573ffffffffffffffffffffffffffffffffffffffff1673ffffffffffffffffffffffffffffffffffffffff16815260200190815260200160002060006101000a81548173ffffffffffffffffffffffffffffffffffffffff021916908373ffffffffffffffffffffffffffffffffffffffff1602179055508173ffffffffffffffffffffffffffffffffffffffff168173ffffffffffffffffffffffffffffffffffffffff168473ffffffffffffffffffffffffffffffffffffffff167f3134e8a2e6d97e929a7e54011ea5485d7d196dd5f0ba4d4ef95803e8e3fc257f60405160405180910390a46118fb81836118f6866120d2565b6120e4565b505050565b611908611171565b73ffffffffffffffffffffffffffffffffffffffff16611926610b5e565b73ffffffffffffffffffffffffffffffffffffffff161461197c576040517f08c379a000000000000000000000000000000000000000000000000000000000815260040161197390613d69565b60405180910390fd5b565b6000600660009054906101000a900473ffffffffffffffffffffffffffffffffffffffff16905081600660006101000a81548173ffffffffffffffffffffffffffffffffffffffff021916908373ffffffffffffffffffffffffffffffffffffffff1602179055508173ffffffffffffffffffffffffffffffffffffffff168173ffffffffffffffffffffffffffffffffffffffff167f8be0079c531659141344cd1fd0a4f28419497f9722a3daafe3b4186f6b6457e060405160405180910390a35050565b600081600001549050919050565b6000808260000180549050905060008114611aea5782600001600182611a789190613fbe565b81548110611aaf577f4e487b7100000000000000000000000000000000000000000000000000000000600052603260045260246000fd5b9060005260206000200160000160049054906101000a90047bffffffffffffffffffffffffffffffffffffffffffffffffffffffff16611aed565b60005b7bffffffffffffffffffffffffffffffffffffffffffffffffffffffff16915050919050565b8173ffffffffffffffffffffffffffffffffffffffff168373ffffffffffffffffffffffffffffffffffffffff161415611b82576040517f08c379a0000000000000000000000000000000000000000000000000000000008152600401611b7990613c49565b60405180910390fd5b80600560008573ffffffffffffffffffffffffffffffffffffffff1673ffffffffffffffffffffffffffffffffffffffff16815260200190815260200160002060008473ffffffffffffffffffffffffffffffffffffffff1673ffffffffffffffffffffffffffffffffffffffff16815260200190815260200160002060006101000a81548160ff0219169083151502179055508173ffffffffffffffffffffffffffffffffffffffff168373ffffffffffffffffffffffffffffffffffffffff167f17307eab39ab6107e8899845ad3d59bd9653f200f220920489ca2b5937696c3183604051611c7391906139f4565b60405180910390a3505050565b611c8b8484846112c7565b611c97848484846122f1565b611cd6576040517f08c379a0000000000000000000000000000000000000000000000000000000008152600401611ccd90613ba9565b60405180910390fd5b50505050565b6000611cef611ce961152e565b83612488565b9050919050565b6000806000611d07878787876124bb565b91509150611d14816125c8565b8192505050949350505050565b600080600a60008473ffffffffffffffffffffffffffffffffffffffff1673ffffffffffffffffffffffffffffffffffffffff1681526020019081526020016000209050611d6e81611a44565b9150611d7981611f43565b50919050565b606060405180602001604052806000815250905090565b60606000821415611dde576040518060400160405280600181526020017f30000000000000000000000000000000000000000000000000000000000000008152509050611f3e565b600082905060005b60008214611e10578080611df990614122565b915050600a82611e099190613f8d565b9150611de6565b60008167ffffffffffffffff811115611e52577f4e487b7100000000000000000000000000000000000000000000000000000000600052604160045260246000fd5b6040519080825280601f01601f191660200182016040528015611e845781602001600182028036833780820191505090505b5090505b60008514611f3757600182611e9d9190613fbe565b9150600a85611eac9190614175565b6030611eb89190613f37565b60f81b818381518110611ef4577f4e487b7100000000000000000000000000000000000000000000000000000000600052603260045260246000fd5b60200101907effffffffffffffffffffffffffffffffffffffffffffffffffffffffffffff1916908160001a905350600a85611f309190613f8d565b9450611e88565b8093505050505b919050565b6001816000016000828254019250508190555050565b611f73828260405180602001604052806000815250612919565b5050565b60008073ffffffffffffffffffffffffffffffffffffffff166002600084815260200190815260200160002060009054906101000a900473ffffffffffffffffffffffffffffffffffffffff1673ffffffffffffffffffffffffffffffffffffffff1614159050919050565b600073ffffffffffffffffffffffffffffffffffffffff168373ffffffffffffffffffffffffffffffffffffffff1614612052576040517f08c379a000000000000000000000000000000000000000000000000000000000815260040161204990613b49565b60405180910390fd5b61205d838383612974565b505050565b61206d838383612979565b505050565b6000838383463060405160200161208d959493929190613a6f565b6040516020818303038152906040528051906020012090509392505050565b600060028284186120bd9190613f8d565b8284166120ca9190613f37565b905092915050565b60006120dd82610a42565b9050919050565b8173ffffffffffffffffffffffffffffffffffffffff168373ffffffffffffffffffffffffffffffffffffffff16141580156121205750600081115b156122ec57600073ffffffffffffffffffffffffffffffffffffffff168373ffffffffffffffffffffffffffffffffffffffff1614612208576000806121b161299584600860008973ffffffffffffffffffffffffffffffffffffffff1673ffffffffffffffffffffffffffffffffffffffff1681526020019081526020016000206129ab9092919063ffffffff16565b915091508473ffffffffffffffffffffffffffffffffffffffff167fdec2bacdd2f05b59de34da9b523dff8be42e5e38e818c82fdb0bae774387a72483836040516121fd929190613e44565b60405180910390a250505b600073ffffffffffffffffffffffffffffffffffffffff168273ffffffffffffffffffffffffffffffffffffffff16146122eb576000806122946129d984600860008873ffffffffffffffffffffffffffffffffffffffff1673ffffffffffffffffffffffffffffffffffffffff1681526020019081526020016000206129ab9092919063ffffffff16565b915091508373ffffffffffffffffffffffffffffffffffffffff167fdec2bacdd2f05b59de34da9b523dff8be42e5e38e818c82fdb0bae774387a72483836040516122e0929190613e44565b60405180910390a250505b5b505050565b60006123128473ffffffffffffffffffffffffffffffffffffffff166129ef565b1561247b578373ffffffffffffffffffffffffffffffffffffffff1663150b7a0261233b611171565b8786866040518563ffffffff1660e01b815260040161235d94939291906139a8565b602060405180830381600087803b15801561237757600080fd5b505af19250505080156123a857506040513d601f19601f820116820180604052508101906123a59190613470565b60015b61242b573d80600081146123d8576040519150601f19603f3d011682016040523d82523d6000602084013e6123dd565b606091505b50600081511415612423576040517f08c379a000000000000000000000000000000000000000000000000000000000815260040161241a90613ba9565b60405180910390fd5b805181602001fd5b63150b7a0260e01b7bffffffffffffffffffffffffffffffffffffffffffffffffffffffff1916817bffffffffffffffffffffffffffffffffffffffffffffffffffffffff191614915050612480565b600190505b949350505050565b6000828260405160200161249d929190613956565b60405160208183030381529060405280519060200120905092915050565b6000807f7fffffffffffffffffffffffffffffff5d576e7357a4501ddfe92f46681b20a08360001c11156124f65760006003915091506125bf565b601b8560ff161415801561250e5750601c8560ff1614155b156125205760006004915091506125bf565b6000600187878787604051600081526020016040526040516125459493929190613ac2565b6020604051602081039080840390855afa158015612567573d6000803e3d6000fd5b505050602060405103519050600073ffffffffffffffffffffffffffffffffffffffff168173ffffffffffffffffffffffffffffffffffffffff1614156125b6576000600192509250506125bf565b80600092509250505b94509492505050565b60006004811115612602577f4e487b7100000000000000000000000000000000000000000000000000000000600052602160045260246000fd5b81600481111561263b577f4e487b7100000000000000000000000000000000000000000000000000000000600052602160045260246000fd5b141561264657612916565b60016004811115612680577f4e487b7100000000000000000000000000000000000000000000000000000000600052602160045260246000fd5b8160048111156126b9577f4e487b7100000000000000000000000000000000000000000000000000000000600052602160045260246000fd5b14156126fa576040517f08c379a00000000000000000000000000000000000000000000000000000000081526004016126f190613b29565b60405180910390fd5b60026004811115612734577f4e487b7100000000000000000000000000000000000000000000000000000000600052602160045260246000fd5b81600481111561276d577f4e487b7100000000000000000000000000000000000000000000000000000000600052602160045260246000fd5b14156127ae576040517f08c379a00000000000000000000000000000000000000000000000000000000081526004016127a590613b89565b60405180910390fd5b600360048111156127e8577f4e487b7100000000000000000000000000000000000000000000000000000000600052602160045260246000fd5b816004811115612821577f4e487b7100000000000000000000000000000000000000000000000000000000600052602160045260246000fd5b1415612862576040517f08c379a000000000000000000000000000000000000000000000000000000000815260040161285990613c69565b60405180910390fd5b60048081111561289b577f4e487b7100000000000000000000000000000000000000000000000000000000600052602160045260246000fd5b8160048111156128d4577f4e487b7100000000000000000000000000000000000000000000000000000000600052602160045260246000fd5b1415612915576040517f08c379a000000000000000000000000000000000000000000000000000000000815260040161290c90613d09565b60405180910390fd5b5b50565b6129238383612a12565b61293060008484846122f1565b61296f576040517f08c379a000000000000000000000000000000000000000000000000000000000815260040161296690613ba9565b60405180910390fd5b505050565b505050565b61298583836001612bec565b612990838383612cac565b505050565b600081836129a39190613fbe565b905092915050565b6000806129cd856129c86129be88611a52565b868863ffffffff16565b612cb1565b91509150935093915050565b600081836129e79190613f37565b905092915050565b6000808273ffffffffffffffffffffffffffffffffffffffff163b119050919050565b600073ffffffffffffffffffffffffffffffffffffffff168273ffffffffffffffffffffffffffffffffffffffff161415612a82576040517f08c379a0000000000000000000000000000000000000000000000000000000008152600401612a7990613d49565b60405180910390fd5b612a8b81611f77565b15612acb576040517f08c379a0000000000000000000000000000000000000000000000000000000008152600401612ac290613c09565b60405180910390fd5b612ad760008383611fe3565b6001600360008473ffffffffffffffffffffffffffffffffffffffff1673ffffffffffffffffffffffffffffffffffffffff1681526020019081526020016000206000828254612b279190613f37565b92505081905550816002600083815260200190815260200160002060006101000a81548173ffffffffffffffffffffffffffffffffffffffff021916908373ffffffffffffffffffffffffffffffffffffffff160217905550808273ffffffffffffffffffffffffffffffffffffffff16600073ffffffffffffffffffffffffffffffffffffffff167fddf252ad1be2c89b69c2b068fc378daa952ba7f163c4a11628f55a4df523b3ef60405160405180910390a4612be860008383612062565b5050565b600073ffffffffffffffffffffffffffffffffffffffff168373ffffffffffffffffffffffffffffffffffffffff161415612c3c57612c396129d98260096129ab9092919063ffffffff16565b50505b600073ffffffffffffffffffffffffffffffffffffffff168273ffffffffffffffffffffffffffffffffffffffff161415612c8c57612c896129958260096129ab9092919063ffffffff16565b50505b612ca7612c988461090d565b612ca18461090d565b836120e4565b505050565b505050565b6000806000846000018054905090506000612ccb86611a52565b9050600082118015612d4757504386600001600184612cea9190613fbe565b81548110612d21577f4e487b7100000000000000000000000000000000000000000000000000000000600052603260045260246000fd5b9060005260206000200160000160009054906101000a900463ffffffff1663ffffffff16145b15612dfd57612d5585612eff565b86600001600184612d669190613fbe565b81548110612d9d577f4e487b7100000000000000000000000000000000000000000000000000000000600052603260045260246000fd5b9060005260206000200160000160046101000a8154817bffffffffffffffffffffffffffffffffffffffffffffffffffffffff02191690837bffffffffffffffffffffffffffffffffffffffffffffffffffffffff160217905550612ef0565b856000016040518060400160405280612e1543612f6a565b63ffffffff168152602001612e2988612eff565b7bffffffffffffffffffffffffffffffffffffffffffffffffffffffff168152509080600181540180825580915050600190039060005260206000200160009091909190915060008201518160000160006101000a81548163ffffffff021916908363ffffffff16021790555060208201518160000160046101000a8154817bffffffffffffffffffffffffffffffffffffffffffffffffffffffff02191690837bffffffffffffffffffffffffffffffffffffffffffffffffffffffff16021790555050505b80859350935050509250929050565b60007bffffffffffffffffffffffffffffffffffffffffffffffffffffffff8016821115612f62576040517f08c379a0000000000000000000000000000000000000000000000000000000008152600401612f5990613d89565b60405180910390fd5b819050919050565b600063ffffffff8016821115612fb5576040517f08c379a0000000000000000000000000000000000000000000000000000000008152600401612fac90613de9565b60405180910390fd5b819050919050565b828054612fc9906140bf565b90600052602060002090601f016020900481019282612feb5760008555613032565b82601f1061300457805160ff1916838001178555613032565b82800160010185558215613032579182015b82811115613031578251825591602001919060010190613016565b5b50905061303f9190613043565b5090565b5b8082111561305c576000816000905550600101613044565b5090565b600061307361306e84613e92565b613e6d565b90508281526020810184848401111561308b57600080fd5b61309684828561407d565b509392505050565b60006130b16130ac84613ec3565b613e6d565b9050828152602081018484840111156130c957600080fd5b6130d484828561407d565b509392505050565b6000813590506130eb8161483c565b92915050565b60008135905061310081614853565b92915050565b6000813590506131158161486a565b92915050565b60008135905061312a81614881565b92915050565b60008151905061313f81614881565b92915050565b600082601f83011261315657600080fd5b8135613166848260208601613060565b91505092915050565b600082601f83011261318057600080fd5b813561319084826020860161309e565b91505092915050565b6000813590506131a881614898565b92915050565b6000813590506131bd816148af565b92915050565b6000602082840312156131d557600080fd5b60006131e3848285016130dc565b91505092915050565b600080604083850312156131ff57600080fd5b600061320d858286016130dc565b925050602061321e858286016130dc565b9150509250929050565b60008060006060848603121561323d57600080fd5b600061324b868287016130dc565b935050602061325c868287016130dc565b925050604061326d86828701613199565b9150509250925092565b6000806000806080858703121561328d57600080fd5b600061329b878288016130dc565b94505060206132ac878288016130dc565b93505060406132bd87828801613199565b925050606085013567ffffffffffffffff8111156132da57600080fd5b6132e687828801613145565b91505092959194509250565b6000806040838503121561330557600080fd5b6000613313858286016130dc565b9250506020613324858286016130f1565b9150509250929050565b6000806040838503121561334157600080fd5b600061334f858286016130dc565b925050602083013567ffffffffffffffff81111561336c57600080fd5b6133788582860161316f565b9150509250929050565b6000806040838503121561339557600080fd5b60006133a3858286016130dc565b92505060206133b485828601613199565b9150509250929050565b60008060008060008060c087890312156133d757600080fd5b60006133e589828a016130dc565b96505060206133f689828a01613199565b955050604061340789828a01613199565b945050606061341889828a016131ae565b935050608061342989828a01613106565b92505060a061343a89828a01613106565b9150509295509295509295565b60006020828403121561345957600080fd5b60006134678482850161311b565b91505092915050565b60006020828403121561348257600080fd5b600061349084828501613130565b91505092915050565b6000602082840312156134ab57600080fd5b60006134b984828501613199565b91505092915050565b6134cb81613ff2565b82525050565b6134da81614004565b82525050565b6134e981614010565b82525050565b6135006134fb82614010565b61416b565b82525050565b600061351182613ef4565b61351b8185613f0a565b935061352b81856020860161408c565b61353481614262565b840191505092915050565b600061354a82613eff565b6135548185613f1b565b935061356481856020860161408c565b61356d81614262565b840191505092915050565b600061358382613eff565b61358d8185613f2c565b935061359d81856020860161408c565b80840191505092915050565b60006135b6601883613f1b565b91506135c182614273565b602082019050919050565b60006135d9601883613f1b565b91506135e48261429c565b602082019050919050565b60006135fc601483613f1b565b9150613607826142c5565b602082019050919050565b600061361f601f83613f1b565b915061362a826142ee565b602082019050919050565b6000613642603283613f1b565b915061364d82614317565b604082019050919050565b6000613665602683613f1b565b915061367082614366565b604082019050919050565b6000613688602583613f1b565b9150613693826143b5565b604082019050919050565b60006136ab601c83613f1b565b91506136b682614404565b602082019050919050565b60006136ce600283613f2c565b91506136d98261442d565b600282019050919050565b60006136f1602483613f1b565b91506136fc82614456565b604082019050919050565b6000613714601983613f1b565b915061371f826144a5565b602082019050919050565b6000613737602283613f1b565b9150613742826144ce565b604082019050919050565b600061375a602083613f1b565b91506137658261451d565b602082019050919050565b600061377d602983613f1b565b915061378882614546565b604082019050919050565b60006137a0601883613f1b565b91506137ab82614595565b602082019050919050565b60006137c3601a83613f1b565b91506137ce826145be565b602082019050919050565b60006137e6602283613f1b565b91506137f1826145e7565b604082019050919050565b6000613809603e83613f1b565b915061381482614636565b604082019050919050565b600061382c602083613f1b565b915061383782614685565b602082019050919050565b600061384f602083613f1b565b915061385a826146ae565b602082019050919050565b6000613872602783613f1b565b915061387d826146d7565b604082019050919050565b6000613895601883613f1b565b91506138a082614726565b602082019050919050565b60006138b8602183613f1b565b91506138c38261474f565b604082019050919050565b60006138db602683613f1b565b91506138e68261479e565b604082019050919050565b60006138fe602e83613f1b565b9150613909826147ed565b604082019050919050565b61391d81614066565b82525050565b61392c81614070565b82525050565b600061393e8285613578565b915061394a8284613578565b91508190509392505050565b6000613961826136c1565b915061396d82856134ef565b60208201915061397d82846134ef565b6020820191508190509392505050565b60006020820190506139a260008301846134c2565b92915050565b60006080820190506139bd60008301876134c2565b6139ca60208301866134c2565b6139d76040830185613914565b81810360608301526139e98184613506565b905095945050505050565b6000602082019050613a0960008301846134d1565b92915050565b6000602082019050613a2460008301846134e0565b92915050565b6000608082019050613a3f60008301876134e0565b613a4c60208301866134c2565b613a596040830185613914565b613a666060830184613914565b95945050505050565b600060a082019050613a8460008301886134e0565b613a9160208301876134e0565b613a9e60408301866134e0565b613aab6060830185613914565b613ab860808301846134c2565b9695505050505050565b6000608082019050613ad760008301876134e0565b613ae46020830186613923565b613af160408301856134e0565b613afe60608301846134e0565b95945050505050565b60006020820190508181036000830152613b21818461353f565b905092915050565b60006020820190508181036000830152613b42816135a9565b9050919050565b60006020820190508181036000830152613b62816135cc565b9050919050565b60006020820190508181036000830152613b82816135ef565b9050919050565b60006020820190508181036000830152613ba281613612565b9050919050565b60006020820190508181036000830152613bc281613635565b9050919050565b60006020820190508181036000830152613be281613658565b9050919050565b60006020820190508181036000830152613c028161367b565b9050919050565b60006020820190508181036000830152613c228161369e565b9050919050565b60006020820190508181036000830152613c42816136e4565b9050919050565b60006020820190508181036000830152613c6281613707565b9050919050565b60006020820190508181036000830152613c828161372a565b9050919050565b60006020820190508181036000830152613ca28161374d565b9050919050565b60006020820190508181036000830152613cc281613770565b9050919050565b60006020820190508181036000830152613ce281613793565b9050919050565b60006020820190508181036000830152613d02816137b6565b9050919050565b60006020820190508181036000830152613d22816137d9565b9050919050565b60006020820190508181036000830152613d42816137fc565b9050919050565b60006020820190508181036000830152613d628161381f565b9050919050565b60006020820190508181036000830152613d8281613842565b9050919050565b60006020820190508181036000830152613da281613865565b9050919050565b60006020820190508181036000830152613dc281613888565b9050919050565b60006020820190508181036000830152613de2816138ab565b9050919050565b60006020820190508181036000830152613e02816138ce565b9050919050565b60006020820190508181036000830152613e22816138f1565b9050919050565b6000602082019050613e3e6000830184613914565b92915050565b6000604082019050613e596000830185613914565b613e666020830184613914565b9392505050565b6000613e77613e88565b9050613e8382826140f1565b919050565b6000604051905090565b600067ffffffffffffffff821115613ead57613eac614233565b5b613eb682614262565b9050602081019050919050565b600067ffffffffffffffff821115613ede57613edd614233565b5b613ee782614262565b9050602081019050919050565b600081519050919050565b600081519050919050565b600082825260208201905092915050565b600082825260208201905092915050565b600081905092915050565b6000613f4282614066565b9150613f4d83614066565b9250827fffffffffffffffffffffffffffffffffffffffffffffffffffffffffffffffff03821115613f8257613f816141a6565b5b828201905092915050565b6000613f9882614066565b9150613fa383614066565b925082613fb357613fb26141d5565b5b828204905092915050565b6000613fc982614066565b9150613fd483614066565b925082821015613fe757613fe66141a6565b5b828203905092915050565b6000613ffd82614046565b9050919050565b60008115159050919050565b6000819050919050565b60007fffffffff0000000000000000000000000000000000000000000000000000000082169050919050565b600073ffffffffffffffffffffffffffffffffffffffff82169050919050565b6000819050919050565b600060ff82169050919050565b82818337600083830152505050565b60005b838110156140aa57808201518184015260208101905061408f565b838111156140b9576000848401525b50505050565b600060028204905060018216806140d757607f821691505b602082108114156140eb576140ea614204565b5b50919050565b6140fa82614262565b810181811067ffffffffffffffff8211171561411957614118614233565b5b80604052505050565b600061412d82614066565b91507fffffffffffffffffffffffffffffffffffffffffffffffffffffffffffffffff8214156141605761415f6141a6565b5b600182019050919050565b6000819050919050565b600061418082614066565b915061418b83614066565b92508261419b5761419a6141d5565b5b828206905092915050565b7f4e487b7100000000000000000000000000000000000000000000000000000000600052601160045260246000fd5b7f4e487b7100000000000000000000000000000000000000000000000000000000600052601260045260246000fd5b7f4e487b7100000000000000000000000000000000000000000000000000000000600052602260045260246000fd5b7f4e487b7100000000000000000000000000000000000000000000000000000000600052604160045260246000fd5b6000601f19601f8301169050919050565b7f45434453413a20696e76616c6964207369676e61747572650000000000000000600082015250565b7f4572723a20746f6b656e20697320534f554c20424f554e440000000000000000600082015250565b7f566f7465733a20696e76616c6964206e6f6e6365000000000000000000000000600082015250565b7f45434453413a20696e76616c6964207369676e6174757265206c656e67746800600082015250565b7f4552433732313a207472616e7366657220746f206e6f6e20455243373231526560008201527f63656976657220696d706c656d656e7465720000000000000000000000000000602082015250565b7f4f776e61626c653a206e6577206f776e657220697320746865207a65726f206160008201527f6464726573730000000000000000000000000000000000000000000000000000602082015250565b7f4552433732313a207472616e736665722066726f6d20696e636f72726563742060008201527f6f776e6572000000000000000000000000000000000000000000000000000000602082015250565b7f4552433732313a20746f6b656e20616c7265616479206d696e74656400000000600082015250565b7f1901000000000000000000000000000000000000000000000000000000000000600082015250565b7f4552433732313a207472616e7366657220746f20746865207a65726f2061646460008201527f7265737300000000000000000000000000000000000000000000000000000000602082015250565b7f4552433732313a20617070726f766520746f2063616c6c657200000000000000600082015250565b7f45434453413a20696e76616c6964207369676e6174757265202773272076616c60008201527f7565000000000000000000000000000000000000000000000000000000000000602082015250565b7f436865636b706f696e74733a20626c6f636b206e6f7420796574206d696e6564600082015250565b7f4552433732313a2061646472657373207a65726f206973206e6f74206120766160008201527f6c6964206f776e65720000000000000000000000000000000000000000000000602082015250565b7f566f7465733a207369676e617475726520657870697265640000000000000000600082015250565b7f566f7465733a20626c6f636b206e6f7420796574206d696e6564000000000000600082015250565b7f45434453413a20696e76616c6964207369676e6174757265202776272076616c60008201527f7565000000000000000000000000000000000000000000000000000000000000602082015250565b7f4552433732313a20617070726f76652063616c6c6572206973206e6f7420746f60008201527f6b656e206f776e6572206e6f7220617070726f76656420666f7220616c6c0000602082015250565b7f4552433732313a206d696e7420746f20746865207a65726f2061646472657373600082015250565b7f4f776e61626c653a2063616c6c6572206973206e6f7420746865206f776e6572600082015250565b7f53616665436173743a2076616c756520646f65736e27742066697420696e203260008201527f3234206269747300000000000000000000000000000000000000000000000000602082015250565b7f4552433732313a20696e76616c696420746f6b656e2049440000000000000000600082015250565b7f4552433732313a20617070726f76616c20746f2063757272656e74206f776e6560008201527f7200000000000000000000000000000000000000000000000000000000000000602082015250565b7f53616665436173743a2076616c756520646f65736e27742066697420696e203360008201527f3220626974730000000000000000000000000000000000000000000000000000602082015250565b7f4552433732313a2063616c6c6572206973206e6f7420746f6b656e206f776e6560008201527f72206e6f7220617070726f766564000000000000000000000000000000000000602082015250565b61484581613ff2565b811461485057600080fd5b50565b61485c81614004565b811461486757600080fd5b50565b61487381614010565b811461487e57600080fd5b50565b61488a8161401a565b811461489557600080fd5b50565b6148a181614066565b81146148ac57600080fd5b50565b6148b881614070565b81146148c357600080fd5b5056fea26469706673582212209a291f5c64cd8e19b2627a66c95fc1caae9fe117712be987b235c335033ee0a264736f6c63430008040033",
  "linkReferences": {},
  "deployedLinkReferences": {}
}