{
  "_format": "hh-sol-artifact-1",
  "contractName": "OmSbToken",
  "sourceName": "contracts/OmSbToken.sol",
  "abi": [
    {
      "inputs": [],
      "stateMutability": "nonpayable",
      "type": "constructor"
    },
    {
      "anonymous": false,
      "inputs": [
        {
          "indexed": true,
          "internalType": "address",
          "name": "owner",
          "type": "address"
        },
        {
          "indexed": true,
          "internalType": "address",
          "name": "approved",
          "type": "address"
        },
        {
          "indexed": true,
          "internalType": "uint256",
          "name": "tokenId",
          "type": "uint256"
        }
      ],
      "name": "Approval",
      "type": "event"
    },
    {
      "anonymous": false,
      "inputs": [
        {
          "indexed": true,
          "internalType": "address",
          "name": "owner",
          "type": "address"
        },
        {
          "indexed": true,
          "internalType": "address",
          "name": "operator",
          "type": "address"
        },
        {
          "indexed": false,
          "internalType": "bool",
          "name": "approved",
          "type": "bool"
        }
      ],
      "name": "ApprovalForAll",
      "type": "event"
    },
    {
      "anonymous": false,
      "inputs": [
        {
          "indexed": true,
          "internalType": "address",
          "name": "delegator",
          "type": "address"
        },
        {
          "indexed": true,
          "internalType": "address",
          "name": "fromDelegate",
          "type": "address"
        },
        {
          "indexed": true,
          "internalType": "address",
          "name": "toDelegate",
          "type": "address"
        }
      ],
      "name": "DelegateChanged",
      "type": "event"
    },
    {
      "anonymous": false,
      "inputs": [
        {
          "indexed": true,
          "internalType": "address",
          "name": "delegate",
          "type": "address"
        },
        {
          "indexed": false,
          "internalType": "uint256",
          "name": "previousBalance",
          "type": "uint256"
        },
        {
          "indexed": false,
          "internalType": "uint256",
          "name": "newBalance",
          "type": "uint256"
        }
      ],
      "name": "DelegateVotesChanged",
      "type": "event"
    },
    {
      "anonymous": false,
      "inputs": [
        {
          "indexed": true,
          "internalType": "address",
          "name": "from",
          "type": "address"
        },
        {
          "indexed": true,
          "internalType": "address",
          "name": "to",
          "type": "address"
        },
        {
          "indexed": true,
          "internalType": "uint256",
          "name": "tokenId",
          "type": "uint256"
        }
      ],
      "name": "Transfer",
      "type": "event"
    },
    {
      "inputs": [],
      "name": "DOMAIN_SEPARATOR",
      "outputs": [
        {
          "internalType": "bytes32",
          "name": "",
          "type": "bytes32"
        }
      ],
      "stateMutability": "view",
      "type": "function"
    },
    {
      "inputs": [
        {
          "internalType": "address",
          "name": "to",
          "type": "address"
        },
        {
          "internalType": "uint256",
          "name": "tokenId",
          "type": "uint256"
        }
      ],
      "name": "approve",
      "outputs": [],
      "stateMutability": "nonpayable",
      "type": "function"
    },
    {
      "inputs": [
        {
          "internalType": "address",
          "name": "owner",
          "type": "address"
        }
      ],
      "name": "balanceOf",
      "outputs": [
        {
          "internalType": "uint256",
          "name": "",
          "type": "uint256"
        }
      ],
      "stateMutability": "view",
      "type": "function"
    },
    {
      "inputs": [
        {
          "internalType": "address",
          "name": "delegatee",
          "type": "address"
        }
      ],
      "name": "delegate",
      "outputs": [],
      "stateMutability": "nonpayable",
      "type": "function"
    },
    {
      "inputs": [
        {
          "internalType": "address",
          "name": "delegatee",
          "type": "address"
        },
        {
          "internalType": "uint256",
          "name": "nonce",
          "type": "uint256"
        },
        {
          "internalType": "uint256",
          "name": "expiry",
          "type": "uint256"
        },
        {
          "internalType": "uint8",
          "name": "v",
          "type": "uint8"
        },
        {
          "internalType": "bytes32",
          "name": "r",
          "type": "bytes32"
        },
        {
          "internalType": "bytes32",
          "name": "s",
          "type": "bytes32"
        }
      ],
      "name": "delegateBySig",
      "outputs": [],
      "stateMutability": "nonpayable",
      "type": "function"
    },
    {
      "inputs": [
        {
          "internalType": "address",
          "name": "account",
          "type": "address"
        }
      ],
      "name": "delegates",
      "outputs": [
        {
          "internalType": "address",
          "name": "",
          "type": "address"
        }
      ],
      "stateMutability": "view",
      "type": "function"
    },
    {
      "inputs": [
        {
          "internalType": "uint256",
          "name": "tokenId",
          "type": "uint256"
        }
      ],
      "name": "getApproved",
      "outputs": [
        {
          "internalType": "address",
          "name": "",
          "type": "address"
        }
      ],
      "stateMutability": "view",
      "type": "function"
    },
    {
      "inputs": [
        {
          "internalType": "uint256",
          "name": "blockNumber",
          "type": "uint256"
        }
      ],
      "name": "getPastTotalSupply",
      "outputs": [
        {
          "internalType": "uint256",
          "name": "",
          "type": "uint256"
        }
      ],
      "stateMutability": "view",
      "type": "function"
    },
    {
      "inputs": [
        {
          "internalType": "address",
          "name": "account",
          "type": "address"
        },
        {
          "internalType": "uint256",
          "name": "blockNumber",
          "type": "uint256"
        }
      ],
      "name": "getPastVotes",
      "outputs": [
        {
          "internalType": "uint256",
          "name": "",
          "type": "uint256"
        }
      ],
      "stateMutability": "view",
      "type": "function"
    },
    {
      "inputs": [
        {
          "internalType": "address",
          "name": "account",
          "type": "address"
        }
      ],
      "name": "getVotes",
      "outputs": [
        {
          "internalType": "uint256",
          "name": "",
          "type": "uint256"
        }
      ],
      "stateMutability": "view",
      "type": "function"
    },
    {
      "inputs": [
        {
          "internalType": "address",
          "name": "",
          "type": "address"
        }
      ],
      "name": "haveId",
      "outputs": [
        {
          "internalType": "bool",
          "name": "",
          "type": "bool"
        }
      ],
      "stateMutability": "view",
      "type": "function"
    },
    {
      "inputs": [
        {
          "internalType": "address",
          "name": "",
          "type": "address"
        }
      ],
      "name": "identityData",
      "outputs": [
        {
          "internalType": "string",
          "name": "",
          "type": "string"
        }
      ],
      "stateMutability": "view",
      "type": "function"
    },
    {
      "inputs": [
        {
          "internalType": "address",
          "name": "owner",
          "type": "address"
        },
        {
          "internalType": "address",
          "name": "operator",
          "type": "address"
        }
      ],
      "name": "isApprovedForAll",
      "outputs": [
        {
          "internalType": "bool",
          "name": "",
          "type": "bool"
        }
      ],
      "stateMutability": "view",
      "type": "function"
    },
    {
      "inputs": [],
      "name": "name",
      "outputs": [
        {
          "internalType": "string",
          "name": "",
          "type": "string"
        }
      ],
      "stateMutability": "view",
      "type": "function"
    },
    {
      "inputs": [
        {
          "internalType": "address",
          "name": "owner",
          "type": "address"
        }
      ],
      "name": "nonces",
      "outputs": [
        {
          "internalType": "uint256",
          "name": "",
          "type": "uint256"
        }
      ],
      "stateMutability": "view",
      "type": "function"
    },
    {
      "inputs": [
        {
          "internalType": "uint256",
          "name": "tokenId",
          "type": "uint256"
        }
      ],
      "name": "ownerOf",
      "outputs": [
        {
          "internalType": "address",
          "name": "",
          "type": "address"
        }
      ],
      "stateMutability": "view",
      "type": "function"
    },
    {
      "inputs": [
        {
          "internalType": "address",
          "name": "to",
          "type": "address"
        },
        {
          "internalType": "string",
          "name": "_identityData",
          "type": "string"
        }
      ],
      "name": "safeMint",
      "outputs": [],
      "stateMutability": "nonpayable",
      "type": "function"
    },
    {
      "inputs": [
        {
          "internalType": "address",
          "name": "from",
          "type": "address"
        },
        {
          "internalType": "address",
          "name": "to",
          "type": "address"
        },
        {
          "internalType": "uint256",
          "name": "tokenId",
          "type": "uint256"
        }
      ],
      "name": "safeTransferFrom",
      "outputs": [],
      "stateMutability": "nonpayable",
      "type": "function"
    },
    {
      "inputs": [
        {
          "internalType": "address",
          "name": "from",
          "type": "address"
        },
        {
          "internalType": "address",
          "name": "to",
          "type": "address"
        },
        {
          "internalType": "uint256",
          "name": "tokenId",
          "type": "uint256"
        },
        {
          "internalType": "bytes",
          "name": "data",
          "type": "bytes"
        }
      ],
      "name": "safeTransferFrom",
      "outputs": [],
      "stateMutability": "nonpayable",
      "type": "function"
    },
    {
      "inputs": [
        {
          "internalType": "address",
          "name": "operator",
          "type": "address"
        },
        {
          "internalType": "bool",
          "name": "approved",
          "type": "bool"
        }
      ],
      "name": "setApprovalForAll",
      "outputs": [],
      "stateMutability": "nonpayable",
      "type": "function"
    },
    {
      "inputs": [
        {
          "internalType": "bytes4",
          "name": "interfaceId",
          "type": "bytes4"
        }
      ],
      "name": "supportsInterface",
      "outputs": [
        {
          "internalType": "bool",
          "name": "",
          "type": "bool"
        }
      ],
      "stateMutability": "view",
      "type": "function"
    },
    {
      "inputs": [],
      "name": "symbol",
      "outputs": [
        {
          "internalType": "string",
          "name": "",
          "type": "string"
        }
      ],
      "stateMutability": "view",
      "type": "function"
    },
    {
      "inputs": [
        {
          "internalType": "uint256",
          "name": "tokenId",
          "type": "uint256"
        }
      ],
      "name": "tokenURI",
      "outputs": [
        {
          "internalType": "string",
          "name": "",
          "type": "string"
        }
      ],
      "stateMutability": "view",
      "type": "function"
    },
    {
      "inputs": [
        {
          "internalType": "address",
          "name": "from",
          "type": "address"
        },
        {
          "internalType": "address",
          "name": "to",
          "type": "address"
        },
        {
          "internalType": "uint256",
          "name": "tokenId",
          "type": "uint256"
        }
      ],
      "name": "transferFrom",
      "outputs": [],
      "stateMutability": "nonpayable",
      "type": "function"
    }
  ],
  "bytecode": "0x6101406040523480156200001257600080fd5b506040518060400160405280600c81526020017f4f6d53624964656e7469747900000000000000000000000000000000000000008152506040518060400160405280600181526020017f31000000000000000000000000000000000000000000000000000000000000008152506040518060400160405280600c81526020017f4f6d53624964656e7469747900000000000000000000000000000000000000008152506040518060400160405280600381526020017f4f5349000000000000000000000000000000000000000000000000000000000081525081600090805190602001906200010392919062000216565b5080600190805190602001906200011c92919062000216565b50505060008280519060200120905060008280519060200120905060007f8b73c3c69bb8fe3d512ecc4cf759cc79239f7b179b0ffacaa9a75d522b39400f90508260e081815250508161010081815250504660a0818152505062000188818484620001da60201b60201c565b608081815250503073ffffffffffffffffffffffffffffffffffffffff1660c08173ffffffffffffffffffffffffffffffffffffffff1660601b81525050806101208181525050505050505062000403565b60008383834630604051602001620001f7959493929190620002f9565b6040516020818303038152906040528051906020012090509392505050565b82805462000224906200039e565b90600052602060002090601f01602090048101928262000248576000855562000294565b82601f106200026357805160ff191683800117855562000294565b8280016001018555821562000294579182015b828111156200029357825182559160200191906001019062000276565b5b509050620002a39190620002a7565b5090565b5b80821115620002c2576000816000905550600101620002a8565b5090565b620002d18162000356565b82525050565b620002e2816200036a565b82525050565b620002f38162000394565b82525050565b600060a082019050620003106000830188620002d7565b6200031f6020830187620002d7565b6200032e6040830186620002d7565b6200033d6060830185620002e8565b6200034c6080830184620002c6565b9695505050505050565b6000620003638262000374565b9050919050565b6000819050919050565b600073ffffffffffffffffffffffffffffffffffffffff82169050919050565b6000819050919050565b60006002820490506001821680620003b757607f821691505b60208210811415620003ce57620003cd620003d4565b5b50919050565b7f4e487b7100000000000000000000000000000000000000000000000000000000600052602260045260246000fd5b60805160a05160c05160601c60e05161010051610120516146a76200045660003960006115c90152600061160b015260006115ea0152600061151f015260006115750152600061159e01526146a76000f3fe608060405234801561001057600080fd5b50600436106101585760003560e01c80637ecebe00116100c3578063c3cda5201161007c578063c3cda5201461040f578063c87b56dd1461042b578063d204c45e1461045b578063e985e9c514610477578063f2adfd54146104a7578063f49dbf97146104d757610158565b80637ecebe00146103295780638e539e8c1461035957806395d89b41146103895780639ab24eb0146103a7578063a22cb465146103d7578063b88d4fde146103f357610158565b80633a46b1a8116101155780633a46b1a81461023157806342842e0e14610261578063587cde1e1461027d5780635c19a95c146102ad5780636352211e146102c957806370a08231146102f957610158565b806301ffc9a71461015d57806306fdde031461018d578063081812fc146101ab578063095ea7b3146101db57806323b872dd146101f75780633644e51514610213575b600080fd5b610177600480360381019061017291906132f0565b610507565b6040516101849190613857565b60405180910390f35b6101956105e9565b6040516101a2919061396a565b60405180910390f35b6101c560048036038101906101c09190613342565b61067b565b6040516101d291906137f0565b60405180910390f35b6101f560048036038101906101f0919061322b565b6106c1565b005b610211600480360381019061020c91906130d1565b6107d9565b005b61021b610839565b6040516102289190613872565b60405180910390f35b61024b6004803603810190610246919061322b565b610848565b6040516102589190613c4c565b60405180910390f35b61027b600480360381019061027691906130d1565b6108a3565b005b6102976004803603810190610292919061306c565b6108c3565b6040516102a491906137f0565b60405180910390f35b6102c760048036038101906102c2919061306c565b61092c565b005b6102e360048036038101906102de9190613342565b610946565b6040516102f091906137f0565b60405180910390f35b610313600480360381019061030e919061306c565b6109f8565b6040516103209190613c4c565b60405180910390f35b610343600480360381019061033e919061306c565b610ab0565b6040516103509190613c4c565b60405180910390f35b610373600480360381019061036e9190613342565b610b00565b6040516103809190613c4c565b60405180910390f35b610391610b5f565b60405161039e919061396a565b60405180910390f35b6103c160048036038101906103bc919061306c565b610bf1565b6040516103ce9190613c4c565b60405180910390f35b6103f160048036038101906103ec919061319b565b610c41565b005b61040d60048036038101906104089190613120565b610c57565b005b61042960048036038101906104249190613267565b610cb9565b005b61044560048036038101906104409190613342565b610dbd565b604051610452919061396a565b60405180910390f35b610475600480360381019061047091906131d7565b610e25565b005b610491600480360381019061048c9190613095565b610f55565b60405161049e9190613857565b60405180910390f35b6104c160048036038101906104bc919061306c565b610fe9565b6040516104ce9190613857565b60405180910390f35b6104f160048036038101906104ec919061306c565b611009565b6040516104fe919061396a565b60405180910390f35b60007f80ac58cd000000000000000000000000000000000000000000000000000000007bffffffffffffffffffffffffffffffffffffffffffffffffffffffff1916827bffffffffffffffffffffffffffffffffffffffffffffffffffffffff191614806105d257507f5b5e139f000000000000000000000000000000000000000000000000000000007bffffffffffffffffffffffffffffffffffffffffffffffffffffffff1916827bffffffffffffffffffffffffffffffffffffffffffffffffffffffff1916145b806105e257506105e1826110a9565b5b9050919050565b6060600080546105f890613ee2565b80601f016020809104026020016040519081016040528092919081815260200182805461062490613ee2565b80156106715780601f1061064657610100808354040283529160200191610671565b820191906000526020600020905b81548152906001019060200180831161065457829003601f168201915b5050505050905090565b600061068682611113565b6004600083815260200190815260200160002060009054906101000a900473ffffffffffffffffffffffffffffffffffffffff169050919050565b60006106cc82610946565b90508073ffffffffffffffffffffffffffffffffffffffff168373ffffffffffffffffffffffffffffffffffffffff16141561073d576040517f08c379a000000000000000000000000000000000000000000000000000000000815260040161073490613bec565b60405180910390fd5b8073ffffffffffffffffffffffffffffffffffffffff1661075c61115e565b73ffffffffffffffffffffffffffffffffffffffff16148061078b575061078a8161078561115e565b610f55565b5b6107ca576040517f08c379a00000000000000000000000000000000000000000000000000000000081526004016107c190613b6c565b60405180910390fd5b6107d48383611166565b505050565b6107ea6107e461115e565b8261121f565b610829576040517f08c379a000000000000000000000000000000000000000000000000000000000815260040161082090613c2c565b60405180910390fd5b6108348383836112b4565b505050565b600061084361151b565b905090565b600061089b82600760008673ffffffffffffffffffffffffffffffffffffffff1673ffffffffffffffffffffffffffffffffffffffff16815260200190815260200160002061163590919063ffffffff16565b905092915050565b6108be83838360405180602001604052806000815250610c57565b505050565b6000600660008373ffffffffffffffffffffffffffffffffffffffff1673ffffffffffffffffffffffffffffffffffffffff16815260200190815260200160002060009054906101000a900473ffffffffffffffffffffffffffffffffffffffff169050919050565b600061093661115e565b905061094281836117d9565b5050565b6000806002600084815260200190815260200160002060009054906101000a900473ffffffffffffffffffffffffffffffffffffffff169050600073ffffffffffffffffffffffffffffffffffffffff168173ffffffffffffffffffffffffffffffffffffffff1614156109ef576040517f08c379a00000000000000000000000000000000000000000000000000000000081526004016109e690613bcc565b60405180910390fd5b80915050919050565b60008073ffffffffffffffffffffffffffffffffffffffff168273ffffffffffffffffffffffffffffffffffffffff161415610a69576040517f08c379a0000000000000000000000000000000000000000000000000000000008152600401610a6090613aec565b60405180910390fd5b600360008373ffffffffffffffffffffffffffffffffffffffff1673ffffffffffffffffffffffffffffffffffffffff168152602001908152602001600020549050919050565b6000610af9600960008473ffffffffffffffffffffffffffffffffffffffff1673ffffffffffffffffffffffffffffffffffffffff1681526020019081526020016000206118ed565b9050919050565b6000438210610b44576040517f08c379a0000000000000000000000000000000000000000000000000000000008152600401610b3b90613b2c565b60405180910390fd5b610b5882600861163590919063ffffffff16565b9050919050565b606060018054610b6e90613ee2565b80601f0160208091040260200160405190810160405280929190818152602001828054610b9a90613ee2565b8015610be75780601f10610bbc57610100808354040283529160200191610be7565b820191906000526020600020905b815481529060010190602001808311610bca57829003601f168201915b5050505050905090565b6000610c3a600760008473ffffffffffffffffffffffffffffffffffffffff1673ffffffffffffffffffffffffffffffffffffffff1681526020019081526020016000206118fb565b9050919050565b610c53610c4c61115e565b83836119bc565b5050565b610c68610c6261115e565b8361121f565b610ca7576040517f08c379a0000000000000000000000000000000000000000000000000000000008152600401610c9e90613c2c565b60405180910390fd5b610cb384848484611b29565b50505050565b83421115610cfc576040517f08c379a0000000000000000000000000000000000000000000000000000000008152600401610cf390613b0c565b60405180910390fd5b6000610d5e610d567fe48329057bfd03d55e49b547132e39cffd9c1820ad7b9d4c5307691425d15adf898989604051602001610d3b949392919061388d565b60405160208183030381529060405280519060200120611b85565b858585611b9f565b9050610d6981611bca565b8614610daa576040517f08c379a0000000000000000000000000000000000000000000000000000000008152600401610da1906139cc565b60405180910390fd5b610db481886117d9565b50505050505050565b6060610dc882611113565b6000610dd2611c28565b90506000815111610df25760405180602001604052806000815250610e1d565b80610dfc84611c3f565b604051602001610e0d929190613795565b6040516020818303038152906040525b915050919050565b60001515600c60008473ffffffffffffffffffffffffffffffffffffffff1673ffffffffffffffffffffffffffffffffffffffff16815260200190815260200160002060009054906101000a900460ff16151514610e8257600080fd5b6000610e8e600a6118ed565b9050610e9a600a611dec565b81600b60008573ffffffffffffffffffffffffffffffffffffffff1673ffffffffffffffffffffffffffffffffffffffff1681526020019081526020016000209080519060200190610eed929190612e66565b506001600c60008573ffffffffffffffffffffffffffffffffffffffff1673ffffffffffffffffffffffffffffffffffffffff16815260200190815260200160002060006101000a81548160ff021916908315150217905550610f508382611e02565b505050565b6000600560008473ffffffffffffffffffffffffffffffffffffffff1673ffffffffffffffffffffffffffffffffffffffff16815260200190815260200160002060008373ffffffffffffffffffffffffffffffffffffffff1673ffffffffffffffffffffffffffffffffffffffff16815260200190815260200160002060009054906101000a900460ff16905092915050565b600c6020528060005260406000206000915054906101000a900460ff1681565b600b602052806000526040600020600091509050805461102890613ee2565b80601f016020809104026020016040519081016040528092919081815260200182805461105490613ee2565b80156110a15780601f10611076576101008083540402835291602001916110a1565b820191906000526020600020905b81548152906001019060200180831161108457829003601f168201915b505050505081565b60007f01ffc9a7000000000000000000000000000000000000000000000000000000007bffffffffffffffffffffffffffffffffffffffffffffffffffffffff1916827bffffffffffffffffffffffffffffffffffffffffffffffffffffffff1916149050919050565b61111c81611e20565b61115b576040517f08c379a000000000000000000000000000000000000000000000000000000000815260040161115290613bcc565b60405180910390fd5b50565b600033905090565b816004600083815260200190815260200160002060006101000a81548173ffffffffffffffffffffffffffffffffffffffff021916908373ffffffffffffffffffffffffffffffffffffffff160217905550808273ffffffffffffffffffffffffffffffffffffffff166111d983610946565b73ffffffffffffffffffffffffffffffffffffffff167f8c5be1e5ebec7d5bd14f71427d1e84f3dd0314c0f7b2291e5b200ac8c7c3b92560405160405180910390a45050565b60008061122b83610946565b90508073ffffffffffffffffffffffffffffffffffffffff168473ffffffffffffffffffffffffffffffffffffffff16148061126d575061126c8185610f55565b5b806112ab57508373ffffffffffffffffffffffffffffffffffffffff166112938461067b565b73ffffffffffffffffffffffffffffffffffffffff16145b91505092915050565b8273ffffffffffffffffffffffffffffffffffffffff166112d482610946565b73ffffffffffffffffffffffffffffffffffffffff161461132a576040517f08c379a000000000000000000000000000000000000000000000000000000000815260040161132190613a2c565b60405180910390fd5b600073ffffffffffffffffffffffffffffffffffffffff168273ffffffffffffffffffffffffffffffffffffffff16141561139a576040517f08c379a000000000000000000000000000000000000000000000000000000000815260040161139190613a6c565b60405180910390fd5b6113a5838383611e8c565b6113b0600082611166565b6001600360008573ffffffffffffffffffffffffffffffffffffffff1673ffffffffffffffffffffffffffffffffffffffff16815260200190815260200160002060008282546114009190613de1565b925050819055506001600360008473ffffffffffffffffffffffffffffffffffffffff1673ffffffffffffffffffffffffffffffffffffffff16815260200190815260200160002060008282546114579190613d5a565b92505081905550816002600083815260200190815260200160002060006101000a81548173ffffffffffffffffffffffffffffffffffffffff021916908373ffffffffffffffffffffffffffffffffffffffff160217905550808273ffffffffffffffffffffffffffffffffffffffff168473ffffffffffffffffffffffffffffffffffffffff167fddf252ad1be2c89b69c2b068fc378daa952ba7f163c4a11628f55a4df523b3ef60405160405180910390a4611516838383611f0b565b505050565b60007f000000000000000000000000000000000000000000000000000000000000000073ffffffffffffffffffffffffffffffffffffffff163073ffffffffffffffffffffffffffffffffffffffff1614801561159757507f000000000000000000000000000000000000000000000000000000000000000046145b156115c4577f00000000000000000000000000000000000000000000000000000000000000009050611632565b61162f7f00000000000000000000000000000000000000000000000000000000000000007f00000000000000000000000000000000000000000000000000000000000000007f0000000000000000000000000000000000000000000000000000000000000000611f1b565b90505b90565b6000438210611679576040517f08c379a000000000000000000000000000000000000000000000000000000000815260040161167090613acc565b60405180910390fd5b60008360000180549050905060005b8181101561172357600061169c8284611f55565b9050848660000182815481106116db577f4e487b7100000000000000000000000000000000000000000000000000000000600052603260045260246000fd5b9060005260206000200160000160009054906101000a900463ffffffff1663ffffffff16111561170d5780925061171d565b60018161171a9190613d5a565b91505b50611688565b600082146117ae578460000160018361173c9190613de1565b81548110611773577f4e487b7100000000000000000000000000000000000000000000000000000000600052603260045260246000fd5b9060005260206000200160000160049054906101000a90047bffffffffffffffffffffffffffffffffffffffffffffffffffffffff166117b1565b60005b7bffffffffffffffffffffffffffffffffffffffffffffffffffffffff169250505092915050565b60006117e4836108c3565b905081600660008573ffffffffffffffffffffffffffffffffffffffff1673ffffffffffffffffffffffffffffffffffffffff16815260200190815260200160002060006101000a81548173ffffffffffffffffffffffffffffffffffffffff021916908373ffffffffffffffffffffffffffffffffffffffff1602179055508173ffffffffffffffffffffffffffffffffffffffff168173ffffffffffffffffffffffffffffffffffffffff168473ffffffffffffffffffffffffffffffffffffffff167f3134e8a2e6d97e929a7e54011ea5485d7d196dd5f0ba4d4ef95803e8e3fc257f60405160405180910390a46118e881836118e386611f7b565b611f8d565b505050565b600081600001549050919050565b600080826000018054905090506000811461199357826000016001826119219190613de1565b81548110611958577f4e487b7100000000000000000000000000000000000000000000000000000000600052603260045260246000fd5b9060005260206000200160000160049054906101000a90047bffffffffffffffffffffffffffffffffffffffffffffffffffffffff16611996565b60005b7bffffffffffffffffffffffffffffffffffffffffffffffffffffffff16915050919050565b8173ffffffffffffffffffffffffffffffffffffffff168373ffffffffffffffffffffffffffffffffffffffff161415611a2b576040517f08c379a0000000000000000000000000000000000000000000000000000000008152600401611a2290613a8c565b60405180910390fd5b80600560008573ffffffffffffffffffffffffffffffffffffffff1673ffffffffffffffffffffffffffffffffffffffff16815260200190815260200160002060008473ffffffffffffffffffffffffffffffffffffffff1673ffffffffffffffffffffffffffffffffffffffff16815260200190815260200160002060006101000a81548160ff0219169083151502179055508173ffffffffffffffffffffffffffffffffffffffff168373ffffffffffffffffffffffffffffffffffffffff167f17307eab39ab6107e8899845ad3d59bd9653f200f220920489ca2b5937696c3183604051611b1c9190613857565b60405180910390a3505050565b611b348484846112b4565b611b408484848461219a565b611b7f576040517f08c379a0000000000000000000000000000000000000000000000000000000008152600401611b7690613a0c565b60405180910390fd5b50505050565b6000611b98611b9261151b565b83612331565b9050919050565b6000806000611bb087878787612364565b91509150611bbd81612471565b8192505050949350505050565b600080600960008473ffffffffffffffffffffffffffffffffffffffff1673ffffffffffffffffffffffffffffffffffffffff1681526020019081526020016000209050611c17816118ed565b9150611c2281611dec565b50919050565b606060405180602001604052806000815250905090565b60606000821415611c87576040518060400160405280600181526020017f30000000000000000000000000000000000000000000000000000000000000008152509050611de7565b600082905060005b60008214611cb9578080611ca290613f45565b915050600a82611cb29190613db0565b9150611c8f565b60008167ffffffffffffffff811115611cfb577f4e487b7100000000000000000000000000000000000000000000000000000000600052604160045260246000fd5b6040519080825280601f01601f191660200182016040528015611d2d5781602001600182028036833780820191505090505b5090505b60008514611de057600182611d469190613de1565b9150600a85611d559190613f98565b6030611d619190613d5a565b60f81b818381518110611d9d577f4e487b7100000000000000000000000000000000000000000000000000000000600052603260045260246000fd5b60200101907effffffffffffffffffffffffffffffffffffffffffffffffffffffffffffff1916908160001a905350600a85611dd99190613db0565b9450611d31565b8093505050505b919050565b6001816000016000828254019250508190555050565b611e1c8282604051806020016040528060008152506127c2565b5050565b60008073ffffffffffffffffffffffffffffffffffffffff166002600084815260200190815260200160002060009054906101000a900473ffffffffffffffffffffffffffffffffffffffff1673ffffffffffffffffffffffffffffffffffffffff1614159050919050565b600073ffffffffffffffffffffffffffffffffffffffff168373ffffffffffffffffffffffffffffffffffffffff1614611efb576040517f08c379a0000000000000000000000000000000000000000000000000000000008152600401611ef2906139ac565b60405180910390fd5b611f0683838361281d565b505050565b611f16838383612822565b505050565b60008383834630604051602001611f369594939291906138d2565b6040516020818303038152906040528051906020012090509392505050565b60006002828418611f669190613db0565b828416611f739190613d5a565b905092915050565b6000611f86826109f8565b9050919050565b8173ffffffffffffffffffffffffffffffffffffffff168373ffffffffffffffffffffffffffffffffffffffff1614158015611fc95750600081115b1561219557600073ffffffffffffffffffffffffffffffffffffffff168373ffffffffffffffffffffffffffffffffffffffff16146120b15760008061205a61283e84600760008973ffffffffffffffffffffffffffffffffffffffff1673ffffffffffffffffffffffffffffffffffffffff1681526020019081526020016000206128549092919063ffffffff16565b915091508473ffffffffffffffffffffffffffffffffffffffff167fdec2bacdd2f05b59de34da9b523dff8be42e5e38e818c82fdb0bae774387a72483836040516120a6929190613c67565b60405180910390a250505b600073ffffffffffffffffffffffffffffffffffffffff168273ffffffffffffffffffffffffffffffffffffffff16146121945760008061213d61288284600760008873ffffffffffffffffffffffffffffffffffffffff1673ffffffffffffffffffffffffffffffffffffffff1681526020019081526020016000206128549092919063ffffffff16565b915091508373ffffffffffffffffffffffffffffffffffffffff167fdec2bacdd2f05b59de34da9b523dff8be42e5e38e818c82fdb0bae774387a7248383604051612189929190613c67565b60405180910390a250505b5b505050565b60006121bb8473ffffffffffffffffffffffffffffffffffffffff16612898565b15612324578373ffffffffffffffffffffffffffffffffffffffff1663150b7a026121e461115e565b8786866040518563ffffffff1660e01b8152600401612206949392919061380b565b602060405180830381600087803b15801561222057600080fd5b505af192505050801561225157506040513d601f19601f8201168201806040525081019061224e9190613319565b60015b6122d4573d8060008114612281576040519150601f19603f3d011682016040523d82523d6000602084013e612286565b606091505b506000815114156122cc576040517f08c379a00000000000000000000000000000000000000000000000000000000081526004016122c390613a0c565b60405180910390fd5b805181602001fd5b63150b7a0260e01b7bffffffffffffffffffffffffffffffffffffffffffffffffffffffff1916817bffffffffffffffffffffffffffffffffffffffffffffffffffffffff191614915050612329565b600190505b949350505050565b600082826040516020016123469291906137b9565b60405160208183030381529060405280519060200120905092915050565b6000807f7fffffffffffffffffffffffffffffff5d576e7357a4501ddfe92f46681b20a08360001c111561239f576000600391509150612468565b601b8560ff16141580156123b75750601c8560ff1614155b156123c9576000600491509150612468565b6000600187878787604051600081526020016040526040516123ee9493929190613925565b6020604051602081039080840390855afa158015612410573d6000803e3d6000fd5b505050602060405103519050600073ffffffffffffffffffffffffffffffffffffffff168173ffffffffffffffffffffffffffffffffffffffff16141561245f57600060019250925050612468565b80600092509250505b94509492505050565b600060048111156124ab577f4e487b7100000000000000000000000000000000000000000000000000000000600052602160045260246000fd5b8160048111156124e4577f4e487b7100000000000000000000000000000000000000000000000000000000600052602160045260246000fd5b14156124ef576127bf565b60016004811115612529577f4e487b7100000000000000000000000000000000000000000000000000000000600052602160045260246000fd5b816004811115612562577f4e487b7100000000000000000000000000000000000000000000000000000000600052602160045260246000fd5b14156125a3576040517f08c379a000000000000000000000000000000000000000000000000000000000815260040161259a9061398c565b60405180910390fd5b600260048111156125dd577f4e487b7100000000000000000000000000000000000000000000000000000000600052602160045260246000fd5b816004811115612616577f4e487b7100000000000000000000000000000000000000000000000000000000600052602160045260246000fd5b1415612657576040517f08c379a000000000000000000000000000000000000000000000000000000000815260040161264e906139ec565b60405180910390fd5b60036004811115612691577f4e487b7100000000000000000000000000000000000000000000000000000000600052602160045260246000fd5b8160048111156126ca577f4e487b7100000000000000000000000000000000000000000000000000000000600052602160045260246000fd5b141561270b576040517f08c379a000000000000000000000000000000000000000000000000000000000815260040161270290613aac565b60405180910390fd5b600480811115612744577f4e487b7100000000000000000000000000000000000000000000000000000000600052602160045260246000fd5b81600481111561277d577f4e487b7100000000000000000000000000000000000000000000000000000000600052602160045260246000fd5b14156127be576040517f08c379a00000000000000000000000000000000000000000000000000000000081526004016127b590613b4c565b60405180910390fd5b5b50565b6127cc83836128bb565b6127d9600084848461219a565b612818576040517f08c379a000000000000000000000000000000000000000000000000000000000815260040161280f90613a0c565b60405180910390fd5b505050565b505050565b61282e83836001612a95565b612839838383612b55565b505050565b6000818361284c9190613de1565b905092915050565b60008061287685612871612867886118fb565b868863ffffffff16565b612b5a565b91509150935093915050565b600081836128909190613d5a565b905092915050565b6000808273ffffffffffffffffffffffffffffffffffffffff163b119050919050565b600073ffffffffffffffffffffffffffffffffffffffff168273ffffffffffffffffffffffffffffffffffffffff16141561292b576040517f08c379a000000000000000000000000000000000000000000000000000000000815260040161292290613b8c565b60405180910390fd5b61293481611e20565b15612974576040517f08c379a000000000000000000000000000000000000000000000000000000000815260040161296b90613a4c565b60405180910390fd5b61298060008383611e8c565b6001600360008473ffffffffffffffffffffffffffffffffffffffff1673ffffffffffffffffffffffffffffffffffffffff16815260200190815260200160002060008282546129d09190613d5a565b92505081905550816002600083815260200190815260200160002060006101000a81548173ffffffffffffffffffffffffffffffffffffffff021916908373ffffffffffffffffffffffffffffffffffffffff160217905550808273ffffffffffffffffffffffffffffffffffffffff16600073ffffffffffffffffffffffffffffffffffffffff167fddf252ad1be2c89b69c2b068fc378daa952ba7f163c4a11628f55a4df523b3ef60405160405180910390a4612a9160008383611f0b565b5050565b600073ffffffffffffffffffffffffffffffffffffffff168373ffffffffffffffffffffffffffffffffffffffff161415612ae557612ae26128828260086128549092919063ffffffff16565b50505b600073ffffffffffffffffffffffffffffffffffffffff168273ffffffffffffffffffffffffffffffffffffffff161415612b3557612b3261283e8260086128549092919063ffffffff16565b50505b612b50612b41846108c3565b612b4a846108c3565b83611f8d565b505050565b505050565b6000806000846000018054905090506000612b74866118fb565b9050600082118015612bf057504386600001600184612b939190613de1565b81548110612bca577f4e487b7100000000000000000000000000000000000000000000000000000000600052603260045260246000fd5b9060005260206000200160000160009054906101000a900463ffffffff1663ffffffff16145b15612ca657612bfe85612da8565b86600001600184612c0f9190613de1565b81548110612c46577f4e487b7100000000000000000000000000000000000000000000000000000000600052603260045260246000fd5b9060005260206000200160000160046101000a8154817bffffffffffffffffffffffffffffffffffffffffffffffffffffffff02191690837bffffffffffffffffffffffffffffffffffffffffffffffffffffffff160217905550612d99565b856000016040518060400160405280612cbe43612e13565b63ffffffff168152602001612cd288612da8565b7bffffffffffffffffffffffffffffffffffffffffffffffffffffffff168152509080600181540180825580915050600190039060005260206000200160009091909190915060008201518160000160006101000a81548163ffffffff021916908363ffffffff16021790555060208201518160000160046101000a8154817bffffffffffffffffffffffffffffffffffffffffffffffffffffffff02191690837bffffffffffffffffffffffffffffffffffffffffffffffffffffffff16021790555050505b80859350935050509250929050565b60007bffffffffffffffffffffffffffffffffffffffffffffffffffffffff8016821115612e0b576040517f08c379a0000000000000000000000000000000000000000000000000000000008152600401612e0290613bac565b60405180910390fd5b819050919050565b600063ffffffff8016821115612e5e576040517f08c379a0000000000000000000000000000000000000000000000000000000008152600401612e5590613c0c565b60405180910390fd5b819050919050565b828054612e7290613ee2565b90600052602060002090601f016020900481019282612e945760008555612edb565b82601f10612ead57805160ff1916838001178555612edb565b82800160010185558215612edb579182015b82811115612eda578251825591602001919060010190612ebf565b5b509050612ee89190612eec565b5090565b5b80821115612f05576000816000905550600101612eed565b5090565b6000612f1c612f1784613cb5565b613c90565b905082815260208101848484011115612f3457600080fd5b612f3f848285613ea0565b509392505050565b6000612f5a612f5584613ce6565b613c90565b905082815260208101848484011115612f7257600080fd5b612f7d848285613ea0565b509392505050565b600081359050612f94816145e7565b92915050565b600081359050612fa9816145fe565b92915050565b600081359050612fbe81614615565b92915050565b600081359050612fd38161462c565b92915050565b600081519050612fe88161462c565b92915050565b600082601f830112612fff57600080fd5b813561300f848260208601612f09565b91505092915050565b600082601f83011261302957600080fd5b8135613039848260208601612f47565b91505092915050565b60008135905061305181614643565b92915050565b6000813590506130668161465a565b92915050565b60006020828403121561307e57600080fd5b600061308c84828501612f85565b91505092915050565b600080604083850312156130a857600080fd5b60006130b685828601612f85565b92505060206130c785828601612f85565b9150509250929050565b6000806000606084860312156130e657600080fd5b60006130f486828701612f85565b935050602061310586828701612f85565b925050604061311686828701613042565b9150509250925092565b6000806000806080858703121561313657600080fd5b600061314487828801612f85565b945050602061315587828801612f85565b935050604061316687828801613042565b925050606085013567ffffffffffffffff81111561318357600080fd5b61318f87828801612fee565b91505092959194509250565b600080604083850312156131ae57600080fd5b60006131bc85828601612f85565b92505060206131cd85828601612f9a565b9150509250929050565b600080604083850312156131ea57600080fd5b60006131f885828601612f85565b925050602083013567ffffffffffffffff81111561321557600080fd5b61322185828601613018565b9150509250929050565b6000806040838503121561323e57600080fd5b600061324c85828601612f85565b925050602061325d85828601613042565b9150509250929050565b60008060008060008060c0878903121561328057600080fd5b600061328e89828a01612f85565b965050602061329f89828a01613042565b95505060406132b089828a01613042565b94505060606132c189828a01613057565b93505060806132d289828a01612faf565b92505060a06132e389828a01612faf565b9150509295509295509295565b60006020828403121561330257600080fd5b600061331084828501612fc4565b91505092915050565b60006020828403121561332b57600080fd5b600061333984828501612fd9565b91505092915050565b60006020828403121561335457600080fd5b600061336284828501613042565b91505092915050565b61337481613e15565b82525050565b61338381613e27565b82525050565b61339281613e33565b82525050565b6133a96133a482613e33565b613f8e565b82525050565b60006133ba82613d17565b6133c48185613d2d565b93506133d4818560208601613eaf565b6133dd81614085565b840191505092915050565b60006133f382613d22565b6133fd8185613d3e565b935061340d818560208601613eaf565b61341681614085565b840191505092915050565b600061342c82613d22565b6134368185613d4f565b9350613446818560208601613eaf565b80840191505092915050565b600061345f601883613d3e565b915061346a82614096565b602082019050919050565b6000613482601883613d3e565b915061348d826140bf565b602082019050919050565b60006134a5601483613d3e565b91506134b0826140e8565b602082019050919050565b60006134c8601f83613d3e565b91506134d382614111565b602082019050919050565b60006134eb603283613d3e565b91506134f68261413a565b604082019050919050565b600061350e602583613d3e565b915061351982614189565b604082019050919050565b6000613531601c83613d3e565b915061353c826141d8565b602082019050919050565b6000613554600283613d4f565b915061355f82614201565b600282019050919050565b6000613577602483613d3e565b91506135828261422a565b604082019050919050565b600061359a601983613d3e565b91506135a582614279565b602082019050919050565b60006135bd602283613d3e565b91506135c8826142a2565b604082019050919050565b60006135e0602083613d3e565b91506135eb826142f1565b602082019050919050565b6000613603602983613d3e565b915061360e8261431a565b604082019050919050565b6000613626601883613d3e565b915061363182614369565b602082019050919050565b6000613649601a83613d3e565b915061365482614392565b602082019050919050565b600061366c602283613d3e565b9150613677826143bb565b604082019050919050565b600061368f603e83613d3e565b915061369a8261440a565b604082019050919050565b60006136b2602083613d3e565b91506136bd82614459565b602082019050919050565b60006136d5602783613d3e565b91506136e082614482565b604082019050919050565b60006136f8601883613d3e565b9150613703826144d1565b602082019050919050565b600061371b602183613d3e565b9150613726826144fa565b604082019050919050565b600061373e602683613d3e565b915061374982614549565b604082019050919050565b6000613761602e83613d3e565b915061376c82614598565b604082019050919050565b61378081613e89565b82525050565b61378f81613e93565b82525050565b60006137a18285613421565b91506137ad8284613421565b91508190509392505050565b60006137c482613547565b91506137d08285613398565b6020820191506137e08284613398565b6020820191508190509392505050565b6000602082019050613805600083018461336b565b92915050565b6000608082019050613820600083018761336b565b61382d602083018661336b565b61383a6040830185613777565b818103606083015261384c81846133af565b905095945050505050565b600060208201905061386c600083018461337a565b92915050565b60006020820190506138876000830184613389565b92915050565b60006080820190506138a26000830187613389565b6138af602083018661336b565b6138bc6040830185613777565b6138c96060830184613777565b95945050505050565b600060a0820190506138e76000830188613389565b6138f46020830187613389565b6139016040830186613389565b61390e6060830185613777565b61391b608083018461336b565b9695505050505050565b600060808201905061393a6000830187613389565b6139476020830186613786565b6139546040830185613389565b6139616060830184613389565b95945050505050565b6000602082019050818103600083015261398481846133e8565b905092915050565b600060208201905081810360008301526139a581613452565b9050919050565b600060208201905081810360008301526139c581613475565b9050919050565b600060208201905081810360008301526139e581613498565b9050919050565b60006020820190508181036000830152613a05816134bb565b9050919050565b60006020820190508181036000830152613a25816134de565b9050919050565b60006020820190508181036000830152613a4581613501565b9050919050565b60006020820190508181036000830152613a6581613524565b9050919050565b60006020820190508181036000830152613a858161356a565b9050919050565b60006020820190508181036000830152613aa58161358d565b9050919050565b60006020820190508181036000830152613ac5816135b0565b9050919050565b60006020820190508181036000830152613ae5816135d3565b9050919050565b60006020820190508181036000830152613b05816135f6565b9050919050565b60006020820190508181036000830152613b2581613619565b9050919050565b60006020820190508181036000830152613b458161363c565b9050919050565b60006020820190508181036000830152613b658161365f565b9050919050565b60006020820190508181036000830152613b8581613682565b9050919050565b60006020820190508181036000830152613ba5816136a5565b9050919050565b60006020820190508181036000830152613bc5816136c8565b9050919050565b60006020820190508181036000830152613be5816136eb565b9050919050565b60006020820190508181036000830152613c058161370e565b9050919050565b60006020820190508181036000830152613c2581613731565b9050919050565b60006020820190508181036000830152613c4581613754565b9050919050565b6000602082019050613c616000830184613777565b92915050565b6000604082019050613c7c6000830185613777565b613c896020830184613777565b9392505050565b6000613c9a613cab565b9050613ca68282613f14565b919050565b6000604051905090565b600067ffffffffffffffff821115613cd057613ccf614056565b5b613cd982614085565b9050602081019050919050565b600067ffffffffffffffff821115613d0157613d00614056565b5b613d0a82614085565b9050602081019050919050565b600081519050919050565b600081519050919050565b600082825260208201905092915050565b600082825260208201905092915050565b600081905092915050565b6000613d6582613e89565b9150613d7083613e89565b9250827fffffffffffffffffffffffffffffffffffffffffffffffffffffffffffffffff03821115613da557613da4613fc9565b5b828201905092915050565b6000613dbb82613e89565b9150613dc683613e89565b925082613dd657613dd5613ff8565b5b828204905092915050565b6000613dec82613e89565b9150613df783613e89565b925082821015613e0a57613e09613fc9565b5b828203905092915050565b6000613e2082613e69565b9050919050565b60008115159050919050565b6000819050919050565b60007fffffffff0000000000000000000000000000000000000000000000000000000082169050919050565b600073ffffffffffffffffffffffffffffffffffffffff82169050919050565b6000819050919050565b600060ff82169050919050565b82818337600083830152505050565b60005b83811015613ecd578082015181840152602081019050613eb2565b83811115613edc576000848401525b50505050565b60006002820490506001821680613efa57607f821691505b60208210811415613f0e57613f0d614027565b5b50919050565b613f1d82614085565b810181811067ffffffffffffffff82111715613f3c57613f3b614056565b5b80604052505050565b6000613f5082613e89565b91507fffffffffffffffffffffffffffffffffffffffffffffffffffffffffffffffff821415613f8357613f82613fc9565b5b600182019050919050565b6000819050919050565b6000613fa382613e89565b9150613fae83613e89565b925082613fbe57613fbd613ff8565b5b828206905092915050565b7f4e487b7100000000000000000000000000000000000000000000000000000000600052601160045260246000fd5b7f4e487b7100000000000000000000000000000000000000000000000000000000600052601260045260246000fd5b7f4e487b7100000000000000000000000000000000000000000000000000000000600052602260045260246000fd5b7f4e487b7100000000000000000000000000000000000000000000000000000000600052604160045260246000fd5b6000601f19601f8301169050919050565b7f45434453413a20696e76616c6964207369676e61747572650000000000000000600082015250565b7f4572723a20746f6b656e20697320534f554c20424f554e440000000000000000600082015250565b7f566f7465733a20696e76616c6964206e6f6e6365000000000000000000000000600082015250565b7f45434453413a20696e76616c6964207369676e6174757265206c656e67746800600082015250565b7f4552433732313a207472616e7366657220746f206e6f6e20455243373231526560008201527f63656976657220696d706c656d656e7465720000000000000000000000000000602082015250565b7f4552433732313a207472616e736665722066726f6d20696e636f72726563742060008201527f6f776e6572000000000000000000000000000000000000000000000000000000602082015250565b7f4552433732313a20746f6b656e20616c7265616479206d696e74656400000000600082015250565b7f1901000000000000000000000000000000000000000000000000000000000000600082015250565b7f4552433732313a207472616e7366657220746f20746865207a65726f2061646460008201527f7265737300000000000000000000000000000000000000000000000000000000602082015250565b7f4552433732313a20617070726f766520746f2063616c6c657200000000000000600082015250565b7f45434453413a20696e76616c6964207369676e6174757265202773272076616c60008201527f7565000000000000000000000000000000000000000000000000000000000000602082015250565b7f436865636b706f696e74733a20626c6f636b206e6f7420796574206d696e6564600082015250565b7f4552433732313a2061646472657373207a65726f206973206e6f74206120766160008201527f6c6964206f776e65720000000000000000000000000000000000000000000000602082015250565b7f566f7465733a207369676e617475726520657870697265640000000000000000600082015250565b7f566f7465733a20626c6f636b206e6f7420796574206d696e6564000000000000600082015250565b7f45434453413a20696e76616c6964207369676e6174757265202776272076616c60008201527f7565000000000000000000000000000000000000000000000000000000000000602082015250565b7f4552433732313a20617070726f76652063616c6c6572206973206e6f7420746f60008201527f6b656e206f776e6572206e6f7220617070726f76656420666f7220616c6c0000602082015250565b7f4552433732313a206d696e7420746f20746865207a65726f2061646472657373600082015250565b7f53616665436173743a2076616c756520646f65736e27742066697420696e203260008201527f3234206269747300000000000000000000000000000000000000000000000000602082015250565b7f4552433732313a20696e76616c696420746f6b656e2049440000000000000000600082015250565b7f4552433732313a20617070726f76616c20746f2063757272656e74206f776e6560008201527f7200000000000000000000000000000000000000000000000000000000000000602082015250565b7f53616665436173743a2076616c756520646f65736e27742066697420696e203360008201527f3220626974730000000000000000000000000000000000000000000000000000602082015250565b7f4552433732313a2063616c6c6572206973206e6f7420746f6b656e206f776e6560008201527f72206e6f7220617070726f766564000000000000000000000000000000000000602082015250565b6145f081613e15565b81146145fb57600080fd5b50565b61460781613e27565b811461461257600080fd5b50565b61461e81613e33565b811461462957600080fd5b50565b61463581613e3d565b811461464057600080fd5b50565b61464c81613e89565b811461465757600080fd5b50565b61466381613e93565b811461466e57600080fd5b5056fea26469706673582212203e20865e3ce162247ba4cfd82c44333744602ce1490eef5f9e1fc4df81451f4b64736f6c63430008040033",
  "linkReferences": {},
  "deployedLinkReferences": {}
}