{
  "_format": "hh-sol-artifact-1",
  "contractName": "Om",
  "sourceName": "contracts/Om.sol",
  "abi": [
    {
      "inputs": [
        {
          "internalType": "uint8",
          "name": "_treeDepth",
          "type": "uint8"
        },
        {
          "internalType": "contract IVerifier",
          "name": "_verifier",
          "type": "address"
        }
      ],
      "stateMutability": "nonpayable",
      "type": "constructor"
    },
    {
      "anonymous": false,
      "inputs": [
        {
          "indexed": true,
          "internalType": "uint256",
          "name": "groupId",
          "type": "uint256"
        },
        {
          "indexed": false,
          "internalType": "bytes32",
          "name": "daoName",
          "type": "bytes32"
        }
      ],
      "name": "DaoCreated",
      "type": "event"
    },
    {
      "anonymous": false,
      "inputs": [
        {
          "indexed": true,
          "internalType": "uint256",
          "name": "groupId",
          "type": "uint256"
        },
        {
          "indexed": false,
          "internalType": "uint8",
          "name": "depth",
          "type": "uint8"
        },
        {
          "indexed": false,
          "internalType": "uint256",
          "name": "zeroValue",
          "type": "uint256"
        }
      ],
      "name": "GroupCreated",
      "type": "event"
    },
    {
      "anonymous": false,
      "inputs": [
        {
          "indexed": true,
          "internalType": "uint256",
          "name": "groupId",
          "type": "uint256"
        }
      ],
      "name": "MemberAdded",
      "type": "event"
    },
    {
      "anonymous": false,
      "inputs": [
        {
          "indexed": true,
          "internalType": "uint256",
          "name": "groupId",
          "type": "uint256"
        },
        {
          "indexed": false,
          "internalType": "uint256",
          "name": "identityCommitment",
          "type": "uint256"
        },
        {
          "indexed": false,
          "internalType": "uint256",
          "name": "root",
          "type": "uint256"
        }
      ],
      "name": "MemberAdded",
      "type": "event"
    },
    {
      "anonymous": false,
      "inputs": [
        {
          "indexed": true,
          "internalType": "uint256",
          "name": "groupId",
          "type": "uint256"
        }
      ],
      "name": "MemberRemoved",
      "type": "event"
    },
    {
      "anonymous": false,
      "inputs": [
        {
          "indexed": true,
          "internalType": "uint256",
          "name": "groupId",
          "type": "uint256"
        },
        {
          "indexed": false,
          "internalType": "uint256",
          "name": "identityCommitment",
          "type": "uint256"
        },
        {
          "indexed": false,
          "internalType": "uint256",
          "name": "root",
          "type": "uint256"
        }
      ],
      "name": "MemberRemoved",
      "type": "event"
    },
    {
      "anonymous": false,
      "inputs": [
        {
          "indexed": false,
          "internalType": "uint256",
          "name": "nullifierHash",
          "type": "uint256"
        }
      ],
      "name": "NullifierHashAdded",
      "type": "event"
    },
    {
      "anonymous": false,
      "inputs": [
        {
          "indexed": true,
          "internalType": "uint256",
          "name": "groupId",
          "type": "uint256"
        },
        {
          "indexed": false,
          "internalType": "uint256",
          "name": "proposalId",
          "type": "uint256"
        },
        {
          "indexed": false,
          "internalType": "bytes32",
          "name": "proposalName",
          "type": "bytes32"
        },
        {
          "indexed": false,
          "internalType": "bytes32",
          "name": "proposalDescription",
          "type": "bytes32"
        },
        {
          "indexed": false,
          "internalType": "uint256",
          "name": "startDate",
          "type": "uint256"
        },
        {
          "indexed": false,
          "internalType": "uint256",
          "name": "endDate",
          "type": "uint256"
        },
        {
          "indexed": false,
          "internalType": "bytes32",
          "name": "fileUri",
          "type": "bytes32"
        }
      ],
      "name": "ProposalCreated",
      "type": "event"
    },
    {
      "anonymous": false,
      "inputs": [
        {
          "indexed": true,
          "internalType": "uint256",
          "name": "groupId",
          "type": "uint256"
        },
        {
          "indexed": false,
          "internalType": "uint256",
          "name": "proposalId",
          "type": "uint256"
        },
        {
          "indexed": false,
          "internalType": "bytes32",
          "name": "signal",
          "type": "bytes32"
        }
      ],
      "name": "VoteCast",
      "type": "event"
    },
    {
      "inputs": [
        {
          "internalType": "uint256",
          "name": "groupId",
          "type": "uint256"
        },
        {
          "internalType": "uint256",
          "name": "identityCommitment",
          "type": "uint256"
        }
      ],
      "name": "addMember",
      "outputs": [],
      "stateMutability": "nonpayable",
      "type": "function"
    },
    {
      "inputs": [
        {
          "internalType": "uint256",
          "name": "proposalId",
          "type": "uint256"
        },
        {
          "internalType": "bytes32",
          "name": "vote",
          "type": "bytes32"
        },
        {
          "internalType": "uint256",
          "name": "nullifierHash",
          "type": "uint256"
        },
        {
          "internalType": "uint256",
          "name": "groupId",
          "type": "uint256"
        },
        {
          "internalType": "uint256[8]",
          "name": "proof",
          "type": "uint256[8]"
        }
      ],
      "name": "castVote",
      "outputs": [],
      "stateMutability": "nonpayable",
      "type": "function"
    },
    {
      "inputs": [
        {
          "internalType": "bytes32",
          "name": "daoName",
          "type": "bytes32"
        }
      ],
      "name": "createDao",
      "outputs": [],
      "stateMutability": "nonpayable",
      "type": "function"
    },
    {
      "inputs": [
        {
          "internalType": "bytes32",
          "name": "proposalName",
          "type": "bytes32"
        },
        {
          "internalType": "bytes32",
          "name": "proposalDescription",
          "type": "bytes32"
        },
        {
          "internalType": "uint256",
          "name": "startDate",
          "type": "uint256"
        },
        {
          "internalType": "uint256",
          "name": "endDate",
          "type": "uint256"
        },
        {
          "internalType": "uint256",
          "name": "nullifierHash",
          "type": "uint256"
        },
        {
          "internalType": "bytes32",
          "name": "fileUri",
          "type": "bytes32"
        },
        {
          "internalType": "uint256",
          "name": "groupId",
          "type": "uint256"
        },
        {
          "internalType": "uint256[8]",
          "name": "proof",
          "type": "uint256[8]"
        }
      ],
      "name": "createProposal",
      "outputs": [],
      "stateMutability": "nonpayable",
      "type": "function"
    },
    {
      "inputs": [
        {
          "internalType": "uint256",
          "name": "",
          "type": "uint256"
        }
      ],
      "name": "daoGroups",
      "outputs": [
        {
          "internalType": "address",
          "name": "admin",
          "type": "address"
        },
        {
          "internalType": "uint256",
          "name": "members",
          "type": "uint256"
        },
        {
          "internalType": "uint256",
          "name": "nextProposal",
          "type": "uint256"
        },
        {
          "internalType": "uint256",
          "name": "votesToPass",
          "type": "uint256"
        }
      ],
      "stateMutability": "view",
      "type": "function"
    },
    {
      "inputs": [
        {
          "internalType": "uint256",
          "name": "groupId",
          "type": "uint256"
        }
      ],
      "name": "getDepth",
      "outputs": [
        {
          "internalType": "uint8",
          "name": "",
          "type": "uint8"
        }
      ],
      "stateMutability": "view",
      "type": "function"
    },
    {
      "inputs": [
        {
          "internalType": "uint256",
          "name": "groupId",
          "type": "uint256"
        }
      ],
      "name": "getNumberOfLeaves",
      "outputs": [
        {
          "internalType": "uint256",
          "name": "",
          "type": "uint256"
        }
      ],
      "stateMutability": "view",
      "type": "function"
    },
    {
      "inputs": [
        {
          "internalType": "uint256",
          "name": "groupId",
          "type": "uint256"
        }
      ],
      "name": "getRoot",
      "outputs": [
        {
          "internalType": "uint256",
          "name": "",
          "type": "uint256"
        }
      ],
      "stateMutability": "view",
      "type": "function"
    },
    {
      "inputs": [
        {
          "internalType": "uint256",
          "name": "",
          "type": "uint256"
        },
        {
          "internalType": "uint256",
          "name": "",
          "type": "uint256"
        }
      ],
      "name": "proposalsPerGroup",
      "outputs": [
        {
          "internalType": "uint256",
          "name": "deadline",
          "type": "uint256"
        },
        {
          "internalType": "uint256",
          "name": "votesUp",
          "type": "uint256"
        },
        {
          "internalType": "uint256",
          "name": "votesDown",
          "type": "uint256"
        },
        {
          "internalType": "bool",
          "name": "passed",
          "type": "bool"
        }
      ],
      "stateMutability": "view",
      "type": "function"
    },
    {
      "inputs": [
        {
          "internalType": "uint256",
          "name": "groupId",
          "type": "uint256"
        },
        {
          "internalType": "uint256",
          "name": "identityCommitment",
          "type": "uint256"
        },
        {
          "internalType": "uint256[]",
          "name": "proofSiblings",
          "type": "uint256[]"
        },
        {
          "internalType": "uint8[]",
          "name": "proofPathIndices",
          "type": "uint8[]"
        }
      ],
      "name": "removeMember",
      "outputs": [],
      "stateMutability": "nonpayable",
      "type": "function"
    },
    {
      "inputs": [],
      "name": "treeDepth",
      "outputs": [
        {
          "internalType": "uint8",
          "name": "",
          "type": "uint8"
        }
      ],
      "stateMutability": "view",
      "type": "function"
    },
    {
      "inputs": [],
      "name": "verifier",
      "outputs": [
        {
          "internalType": "contract IVerifier",
          "name": "",
          "type": "address"
        }
      ],
      "stateMutability": "view",
      "type": "function"
    }
  ],
  "bytecode": "0x60806040523480156200001157600080fd5b5060405162002168380380620021688339818101604052810190620000379190620000c9565b81600260006101000a81548160ff021916908360ff16021790555080600260016101000a81548173ffffffffffffffffffffffffffffffffffffffff021916908373ffffffffffffffffffffffffffffffffffffffff160217905550505062000193565b600081519050620000ac816200015f565b92915050565b600081519050620000c38162000179565b92915050565b60008060408385031215620000dd57600080fd5b6000620000ed85828601620000b2565b925050602062000100858286016200009b565b9150509250929050565b6000620001178262000132565b9050919050565b60006200012b826200010a565b9050919050565b600073ffffffffffffffffffffffffffffffffffffffff82169050919050565b600060ff82169050919050565b6200016a816200011e565b81146200017657600080fd5b50565b620001848162000152565b81146200019057600080fd5b50565b611fc580620001a36000396000f3fe608060405234801561001057600080fd5b50600436106100b45760003560e01c806347df85bb1161007157806347df85bb1461017c57806374cab8451461019857806375e618c9146101b45780639b24b3b0146101e4578063ac05083a14610214578063b9c78c2b14610247576100b4565b806301e0faf6146100b957806316a56c41146100d55780631783efc3146100f35780631edf0a731461010f5780632b7ac3f31461014257806343989f8514610160575b600080fd5b6100d360048036038101906100ce91906111c7565b610277565b005b6100dd6103dc565b6040516100ea9190611af4565b60405180910390f35b61010d6004803603810190610108919061131a565b6103ef565b005b6101296004803603810190610124919061131a565b6104cf565b6040516101399493929190611aaf565b60405180910390f35b61014a610519565b604051610157919061186f565b60405180910390f35b61017a60048036038101906101759190611356565b61053f565b005b610196600480360381019061019191906112a2565b610627565b005b6101b260048036038101906101ad919061119e565b6106bd565b005b6101ce60048036038101906101c99190611279565b6107e9565b6040516101db9190611af4565b60405180910390f35b6101fe60048036038101906101f99190611279565b610816565b60405161020b91906119e1565b60405180910390f35b61022e60048036038101906102299190611279565b610836565b60405161023e94939291906117c8565b60405180910390f35b610261600480360381019061025c9190611279565b610886565b60405161026e91906119e1565b60405180910390f35b6000600160008481526020019081526020016000206001015490506102c28982878686600260019054906101000a900473ffffffffffffffffffffffffffffffffffffffff166108a6565b6102ca611045565b6000600360008681526020019081526020016000206002015490506064436102f29190611c2b565b8260000181815250508160046000878152602001908152602001600020600083815260200190815260200160002060008201518160000155602082015181600101556040820151816002015560608201518160030160006101000a81548160ff02191690831515021790555090505060036000868152602001908152602001600020600201600081548092919061038890611d3d565b9190505550847f0405f10dba078c9fdd91cabb2b2ba2f753e5bf7a268d6c38a24182d2157d54f1828d8d8d8d8c6040516103c796959493929190611a25565b60405180910390a25050505050505050505050565b600260009054906101000a900460ff1681565b813373ffffffffffffffffffffffffffffffffffffffff166003600083815260200190815260200160002060000160009054906101000a900473ffffffffffffffffffffffffffffffffffffffff1673ffffffffffffffffffffffffffffffffffffffff1614610494576040517f08c379a000000000000000000000000000000000000000000000000000000000815260040161048b906118ca565b60405180910390fd5b61049e8383610bff565b6003600084815260200190815260200160002060010160008154809291906104c590611d3d565b9190505550505050565b6004602052816000526040600020602052806000526040600020600091509150508060000154908060010154908060020154908060030160009054906101000a900460ff16905084565b600260019054906101000a900473ffffffffffffffffffffffffffffffffffffffff1681565b853373ffffffffffffffffffffffffffffffffffffffff166003600083815260200190815260200160002060000160009054906101000a900473ffffffffffffffffffffffffffffffffffffffff1673ffffffffffffffffffffffffffffffffffffffff16146105e4576040517f08c379a00000000000000000000000000000000000000000000000000000000081526004016105db906118ca565b60405180910390fd5b6105f2878787878787610d17565b60036000888152602001908152602001600020600101600081548092919061061990611d13565b919050555050505050505050565b6000600160008481526020019081526020016000206001015490506106728582868686600260019054906101000a900473ffffffffffffffffffffffffffffffffffffffff166108a6565b61067b84610e3b565b827f96c313364ec07441c94195f44ed1e5f2656059c98a7c0c68466dac90c6fd8bf987876040516106ad9291906119fc565b60405180910390a2505050505050565b60006106c882610e69565b90506106e581600260009054906101000a900460ff166000610ea0565b6106ed61106f565b33816000019073ffffffffffffffffffffffffffffffffffffffff16908173ffffffffffffffffffffffffffffffffffffffff16815250506001816040018181525050806003600084815260200190815260200160002060008201518160000160006101000a81548173ffffffffffffffffffffffffffffffffffffffff021916908373ffffffffffffffffffffffffffffffffffffffff160217905550602082015181600101556040820151816002015560608201518160030155905050817f90b49a3957a38a3d5e938dae87285886d0963bffacce56612f54960948493d32846040516107dc9190611854565b60405180910390a2505050565b60006001600083815260200190815260200160002060000160009054906101000a900460ff169050919050565b600060016000838152602001908152602001600020600101549050919050565b60036020528060005260406000206000915090508060000160009054906101000a900473ffffffffffffffffffffffffffffffffffffffff16908060010154908060020154908060030154905084565b600060016000838152602001908152602001600020600201549050919050565b60008085815260200190815260200160002060009054906101000a900460ff1615610906576040517f08c379a00000000000000000000000000000000000000000000000000000000081526004016108fd9061188a565b60405180910390fd5b60006109118761100e565b90508173ffffffffffffffffffffffffffffffffffffffff16635fe8c13b604051806040016040528086600060088110610974577f4e487b7100000000000000000000000000000000000000000000000000000000600052603260045260246000fd5b60200201358152602001866001600881106109b8577f4e487b7100000000000000000000000000000000000000000000000000000000600052603260045260246000fd5b60200201358152506040518060400160405280604051806040016040528089600260088110610a10577f4e487b7100000000000000000000000000000000000000000000000000000000600052603260045260246000fd5b6020020135815260200189600360088110610a54577f4e487b7100000000000000000000000000000000000000000000000000000000600052603260045260246000fd5b60200201358152508152602001604051806040016040528089600460088110610aa6577f4e487b7100000000000000000000000000000000000000000000000000000000600052603260045260246000fd5b6020020135815260200189600560088110610aea577f4e487b7100000000000000000000000000000000000000000000000000000000600052603260045260246000fd5b6020020135815250815250604051806040016040528088600660088110610b3a577f4e487b7100000000000000000000000000000000000000000000000000000000600052603260045260246000fd5b6020020135815260200188600760088110610b7e577f4e487b7100000000000000000000000000000000000000000000000000000000600052603260045260246000fd5b602002013581525060405180608001604052808c81526020018b81526020018781526020018a8152506040518563ffffffff1660e01b8152600401610bc6949392919061180d565b60006040518083038186803b158015610bde57600080fd5b505afa158015610bf2573d6000803e3d6000fd5b5050505050505050505050565b6000610c0a836107e9565b60ff161415610c4e576040517f08c379a0000000000000000000000000000000000000000000000000000000008152600401610c45906118ea565b60405180910390fd5b6001600083815260200190815260200160002073__$4c0484323457fe1a856f46a4759b553fe4$__63168703fa9091836040518363ffffffff1660e01b8152600401610c9b92919061192a565b60006040518083038186803b158015610cb357600080fd5b505af4158015610cc7573d6000803e3d6000fd5b505050506000610cd683610816565b9050827f03fd27265b7dd1f55558bedc22a58fa3b10afb1be776e614bd5a7ba7b94994068383604051610d0a929190611a86565b60405180910390a2505050565b6000610d22876107e9565b60ff161415610d66576040517f08c379a0000000000000000000000000000000000000000000000000000000008152600401610d5d906118ea565b60405180910390fd5b6001600087815260200190815260200160002073__$4c0484323457fe1a856f46a4759b553fe4$__630629596f909187878787876040518763ffffffff1660e01b8152600401610dbb96959493929190611953565b60006040518083038186803b158015610dd357600080fd5b505af4158015610de7573d6000803e3d6000fd5b505050506000610df687610816565b9050867fe270325ded177064d7bda473e6519ef40a291058c41286f71a6e4872f1e9ab5c8783604051610e2a929190611a86565b60405180910390a250505050505050565b600160008083815260200190815260200160002060006101000a81548160ff02191690831515021790555050565b6000600882604051602001610e7e91906117ad565b6040516020818303038152906040528051906020012060001c901c9050919050565b7f30644e72e131a029b85045b68181585d2833e84879b9709143e1f593f00000018310610f02576040517f08c379a0000000000000000000000000000000000000000000000000000000008152600401610ef99061190a565b60405180910390fd5b6000610f0d846107e9565b60ff1614610f50576040517f08c379a0000000000000000000000000000000000000000000000000000000008152600401610f47906118aa565b60405180910390fd5b6001600084815260200190815260200160002073__$4c0484323457fe1a856f46a4759b553fe4$__63b4bdd117909184846040518463ffffffff1660e01b8152600401610f9f939291906119aa565b60006040518083038186803b158015610fb757600080fd5b505af4158015610fcb573d6000803e3d6000fd5b50505050827fc3082aa494e9088c2c9f0fb62a0b6bd46e6699acb94cfba35be29b95a93f68c88383604051611001929190611b0f565b60405180910390a2505050565b600060088260405160200161102391906117ad565b6040516020818303038152906040528051906020012060001c901c9050919050565b60405180608001604052806000815260200160008152602001600081526020016000151581525090565b6040518060800160405280600073ffffffffffffffffffffffffffffffffffffffff1681526020016000815260200160008152602001600081525090565b6000819050826020600802820111156110c557600080fd5b92915050565b60008083601f8401126110dd57600080fd5b8235905067ffffffffffffffff8111156110f657600080fd5b60208301915083602082028301111561110e57600080fd5b9250929050565b60008083601f84011261112757600080fd5b8235905067ffffffffffffffff81111561114057600080fd5b60208301915083602082028301111561115857600080fd5b9250929050565b60008135905061116e81611f4a565b92915050565b60008135905061118381611f61565b92915050565b60008135905061119881611f78565b92915050565b6000602082840312156111b057600080fd5b60006111be8482850161115f565b91505092915050565b6000806000806000806000806101e0898b0312156111e457600080fd5b60006111f28b828c0161115f565b98505060206112038b828c0161115f565b97505060406112148b828c01611174565b96505060606112258b828c01611174565b95505060806112368b828c01611174565b94505060a06112478b828c0161115f565b93505060c06112588b828c01611174565b92505060e06112698b828c016110ad565b9150509295985092959890939650565b60006020828403121561128b57600080fd5b600061129984828501611174565b91505092915050565b600080600080600061018086880312156112bb57600080fd5b60006112c988828901611174565b95505060206112da8882890161115f565b94505060406112eb88828901611174565b93505060606112fc88828901611174565b925050608061130d888289016110ad565b9150509295509295909350565b6000806040838503121561132d57600080fd5b600061133b85828601611174565b925050602061134c85828601611174565b9150509250929050565b6000806000806000806080878903121561136f57600080fd5b600061137d89828a01611174565b965050602061138e89828a01611174565b955050604087013567ffffffffffffffff8111156113ab57600080fd5b6113b789828a016110cb565b9450945050606087013567ffffffffffffffff8111156113d657600080fd5b6113e289828a01611115565b92509250509295509295509295565b60006113fd838361149f565b60408301905092915050565b60006114158383611753565b60208301905092915050565b600061142d838361179e565b60208301905092915050565b61144281611c81565b82525050565b61145181611b60565b61145b8184611bb5565b925061146682611b38565b8060005b8381101561149757815161147e87826113f1565b965061148983611b81565b92505060018101905061146a565b505050505050565b6114a881611b6b565b6114b28184611bc0565b92506114bd82611b42565b8060005b838110156114ee5781516114d58782611409565b96506114e083611b8e565b9250506001810190506114c1565b505050505050565b6114ff81611b6b565b6115098184611bcb565b925061151482611b42565b8060005b8381101561154557815161152c8782611409565b965061153783611b8e565b925050600181019050611518565b505050505050565b61155681611b76565b6115608184611bd6565b925061156b82611b4c565b8060005b8381101561159c5781516115838782611409565b965061158e83611b9b565b92505060018101905061156f565b505050505050565b60006115b08385611be1565b93507f07ffffffffffffffffffffffffffffffffffffffffffffffffffffffffffffff8311156115df57600080fd5b6020830292506115f0838584611d04565b82840190509392505050565b60006116088385611bf2565b935061161382611b56565b8060005b8581101561164c576116298284611c14565b6116338882611421565b975061163e83611ba8565b925050600181019050611617565b5085925050509392505050565b61166281611c93565b82525050565b61167181611c9f565b82525050565b61168861168382611c9f565b611d86565b82525050565b61169781611ce0565b82525050565b60006116aa603683611c03565b91506116b582611dbf565b604082019050919050565b60006116cd602583611c03565b91506116d882611e0e565b604082019050919050565b60006116f0603083611c03565b91506116fb82611e5d565b604082019050919050565b6000611713602583611c03565b915061171e82611eac565b604082019050919050565b6000611736603683611c03565b915061174182611efb565b604082019050919050565b8082525050565b61175c81611cc9565b82525050565b61176b81611cc9565b82525050565b61177a81611cc9565b82525050565b61178981611cd3565b82525050565b61179881611cd3565b82525050565b6117a781611cd3565b82525050565b60006117b98284611677565b60208201915081905092915050565b60006080820190506117dd6000830187611439565b6117ea6020830186611762565b6117f76040830185611762565b6118046060830184611762565b95945050505050565b60006101808201905061182360008301876114f6565b6118306040830186611448565b61183d60c08301856114f6565b61184b61010083018461154d565b95945050505050565b60006020820190506118696000830184611668565b92915050565b6000602082019050611884600083018461168e565b92915050565b600060208201905081810360008301526118a38161169d565b9050919050565b600060208201905081810360008301526118c3816116c0565b9050919050565b600060208201905081810360008301526118e3816116e3565b9050919050565b6000602082019050818103600083015261190381611706565b9050919050565b6000602082019050818103600083015261192381611729565b9050919050565b600060408201905061193f600083018561174c565b61194c6020830184611771565b9392505050565b6000608082019050611968600083018961174c565b6119756020830188611771565b81810360408301526119888186886115a4565b9050818103606083015261199d8184866115fc565b9050979650505050505050565b60006060820190506119bf600083018661174c565b6119cc602083018561178f565b6119d96040830184611771565b949350505050565b60006020820190506119f66000830184611762565b92915050565b6000604082019050611a116000830185611762565b611a1e6020830184611668565b9392505050565b600060c082019050611a3a6000830189611762565b611a476020830188611668565b611a546040830187611668565b611a616060830186611762565b611a6e6080830185611762565b611a7b60a0830184611668565b979650505050505050565b6000604082019050611a9b6000830185611762565b611aa86020830184611762565b9392505050565b6000608082019050611ac46000830187611762565b611ad16020830186611762565b611ade6040830185611762565b611aeb6060830184611659565b95945050505050565b6000602082019050611b096000830184611780565b92915050565b6000604082019050611b246000830185611780565b611b316020830184611762565b9392505050565b6000819050919050565b6000819050919050565b6000819050919050565b6000819050919050565b600060029050919050565b600060029050919050565b600060049050919050565b6000602082019050919050565b6000602082019050919050565b6000602082019050919050565b6000602082019050919050565b600081905092915050565b600081905092915050565b600081905092915050565b600081905092915050565b600082825260208201905092915050565b600082825260208201905092915050565b600082825260208201905092915050565b6000611c236020840184611189565b905092915050565b6000611c3682611cc9565b9150611c4183611cc9565b9250827fffffffffffffffffffffffffffffffffffffffffffffffffffffffffffffffff03821115611c7657611c75611d90565b5b828201905092915050565b6000611c8c82611ca9565b9050919050565b60008115159050919050565b6000819050919050565b600073ffffffffffffffffffffffffffffffffffffffff82169050919050565b6000819050919050565b600060ff82169050919050565b6000611ceb82611cf2565b9050919050565b6000611cfd82611ca9565b9050919050565b82818337600083830152505050565b6000611d1e82611cc9565b91506000821415611d3257611d31611d90565b5b600182039050919050565b6000611d4882611cc9565b91507fffffffffffffffffffffffffffffffffffffffffffffffffffffffffffffffff821415611d7b57611d7a611d90565b5b600182019050919050565b6000819050919050565b7f4e487b7100000000000000000000000000000000000000000000000000000000600052601160045260246000fd5b7f53656d6170686f7265436f72653a20796f752063616e6e6f742075736520746860008201527f652073616d65206e756c6c696669657220747769636500000000000000000000602082015250565b7f53656d6170686f726547726f7570733a2067726f757020616c7265616479206560008201527f7869737473000000000000000000000000000000000000000000000000000000602082015250565b7f4f6e6c792067726f75702061646d696e6973747261746f722063616e2063616c60008201527f6c20746869732066756e6374696f6e2e00000000000000000000000000000000602082015250565b7f53656d6170686f726547726f7570733a2067726f757020646f6573206e6f742060008201527f6578697374000000000000000000000000000000000000000000000000000000602082015250565b7f53656d6170686f726547726f7570733a2067726f7570206964206d757374206260008201527f65203c20534e41524b5f5343414c41525f4649454c4400000000000000000000602082015250565b611f5381611c9f565b8114611f5e57600080fd5b50565b611f6a81611cc9565b8114611f7557600080fd5b50565b611f8181611cd3565b8114611f8c57600080fd5b5056fea2646970667358221220394d7a71f1aab1597d82183bcf03ce841d34af71f4be0078637891208c523a9164736f6c63430008040033",
  "linkReferences": {
    "@zk-kit/incremental-merkle-tree.sol/contracts/IncrementalBinaryTree.sol": {
      "IncrementalBinaryTree": [
        {
          "length": 20,
          "start": 3590
        },
        {
          "length": 20,
          "start": 3870
        },
        {
          "length": 20,
          "start": 4360
        }
      ]
    }
  },
  "deployedLinkReferences": {
    "@zk-kit/incremental-merkle-tree.sol/contracts/IncrementalBinaryTree.sol": {
      "IncrementalBinaryTree": [
        {
          "length": 20,
          "start": 3171
        },
        {
          "length": 20,
          "start": 3451
        },
        {
          "length": 20,
          "start": 3941
        }
      ]
    }
  }
}