{
  "_format": "hh-sol-artifact-1",
  "contractName": "Om",
  "sourceName": "contracts/Om.sol",
  "abi": [
    {
      "inputs": [
        {
          "internalType": "uint8",
          "name": "_treeDepth",
          "type": "uint8"
        },
        {
          "internalType": "contract IVerifier",
          "name": "_verifier",
          "type": "address"
        }
      ],
      "stateMutability": "nonpayable",
      "type": "constructor"
    },
    {
      "anonymous": false,
      "inputs": [
        {
          "indexed": true,
          "internalType": "uint256",
          "name": "groupId",
          "type": "uint256"
        },
        {
          "indexed": false,
          "internalType": "bytes32",
          "name": "daoName",
          "type": "bytes32"
        }
      ],
      "name": "DaoCreated",
      "type": "event"
    },
    {
      "anonymous": false,
      "inputs": [
        {
          "indexed": true,
          "internalType": "uint256",
          "name": "groupId",
          "type": "uint256"
        },
        {
          "indexed": false,
          "internalType": "uint8",
          "name": "depth",
          "type": "uint8"
        },
        {
          "indexed": false,
          "internalType": "uint256",
          "name": "zeroValue",
          "type": "uint256"
        }
      ],
      "name": "GroupCreated",
      "type": "event"
    },
    {
      "anonymous": false,
      "inputs": [
        {
          "indexed": true,
          "internalType": "uint256",
          "name": "groupId",
          "type": "uint256"
        }
      ],
      "name": "MemberAdded",
      "type": "event"
    },
    {
      "anonymous": false,
      "inputs": [
        {
          "indexed": true,
          "internalType": "uint256",
          "name": "groupId",
          "type": "uint256"
        },
        {
          "indexed": false,
          "internalType": "uint256",
          "name": "identityCommitment",
          "type": "uint256"
        },
        {
          "indexed": false,
          "internalType": "uint256",
          "name": "root",
          "type": "uint256"
        }
      ],
      "name": "MemberAdded",
      "type": "event"
    },
    {
      "anonymous": false,
      "inputs": [
        {
          "indexed": true,
          "internalType": "uint256",
          "name": "groupId",
          "type": "uint256"
        }
      ],
      "name": "MemberRemoved",
      "type": "event"
    },
    {
      "anonymous": false,
      "inputs": [
        {
          "indexed": true,
          "internalType": "uint256",
          "name": "groupId",
          "type": "uint256"
        },
        {
          "indexed": false,
          "internalType": "uint256",
          "name": "identityCommitment",
          "type": "uint256"
        },
        {
          "indexed": false,
          "internalType": "uint256",
          "name": "root",
          "type": "uint256"
        }
      ],
      "name": "MemberRemoved",
      "type": "event"
    },
    {
      "anonymous": false,
      "inputs": [
        {
          "indexed": false,
          "internalType": "uint256",
          "name": "nullifierHash",
          "type": "uint256"
        }
      ],
      "name": "NullifierHashAdded",
      "type": "event"
    },
    {
      "anonymous": false,
      "inputs": [
        {
          "indexed": true,
          "internalType": "uint256",
          "name": "groupId",
          "type": "uint256"
        },
        {
          "indexed": false,
          "internalType": "uint256",
          "name": "proposalId",
          "type": "uint256"
        },
        {
          "indexed": false,
          "internalType": "bytes32",
          "name": "proposalName",
          "type": "bytes32"
        },
        {
          "indexed": false,
          "internalType": "uint256",
          "name": "startDate",
          "type": "uint256"
        },
        {
          "indexed": false,
          "internalType": "uint256",
          "name": "endDate",
          "type": "uint256"
        },
        {
          "indexed": false,
          "internalType": "bytes32",
          "name": "fileUri",
          "type": "bytes32"
        }
      ],
      "name": "ProposalCreated",
      "type": "event"
    },
    {
      "anonymous": false,
      "inputs": [
        {
          "indexed": true,
          "internalType": "uint256",
          "name": "groupId",
          "type": "uint256"
        },
        {
          "indexed": false,
          "internalType": "uint256",
          "name": "proposalId",
          "type": "uint256"
        },
        {
          "indexed": false,
          "internalType": "bytes32",
          "name": "signal",
          "type": "bytes32"
        }
      ],
      "name": "VoteCast",
      "type": "event"
    },
    {
      "inputs": [
        {
          "internalType": "uint256",
          "name": "groupId",
          "type": "uint256"
        },
        {
          "internalType": "uint256",
          "name": "identityCommitment",
          "type": "uint256"
        }
      ],
      "name": "addMember",
      "outputs": [],
      "stateMutability": "nonpayable",
      "type": "function"
    },
    {
      "inputs": [
        {
          "internalType": "uint256",
          "name": "proposalId",
          "type": "uint256"
        },
        {
          "internalType": "bytes32",
          "name": "vote",
          "type": "bytes32"
        },
        {
          "internalType": "uint256",
          "name": "nullifierHash",
          "type": "uint256"
        },
        {
          "internalType": "uint256",
          "name": "groupId",
          "type": "uint256"
        },
        {
          "internalType": "uint256[8]",
          "name": "proof",
          "type": "uint256[8]"
        }
      ],
      "name": "castVote",
      "outputs": [],
      "stateMutability": "nonpayable",
      "type": "function"
    },
    {
      "inputs": [
        {
          "internalType": "bytes32",
          "name": "daoName",
          "type": "bytes32"
        }
      ],
      "name": "createDao",
      "outputs": [],
      "stateMutability": "nonpayable",
      "type": "function"
    },
    {
      "inputs": [
        {
          "internalType": "bytes32",
          "name": "proposalName",
          "type": "bytes32"
        },
        {
          "internalType": "uint256",
          "name": "nullifierHash",
          "type": "uint256"
        },
        {
          "internalType": "uint256",
          "name": "groupId",
          "type": "uint256"
        },
        {
          "internalType": "uint256[8]",
          "name": "proof",
          "type": "uint256[8]"
        }
      ],
      "name": "createProposal",
      "outputs": [],
      "stateMutability": "nonpayable",
      "type": "function"
    },
    {
      "inputs": [
        {
          "internalType": "uint256",
          "name": "",
          "type": "uint256"
        }
      ],
      "name": "daoGroups",
      "outputs": [
        {
          "internalType": "address",
          "name": "admin",
          "type": "address"
        },
        {
          "internalType": "uint256",
          "name": "members",
          "type": "uint256"
        },
        {
          "internalType": "uint256",
          "name": "nextProposal",
          "type": "uint256"
        },
        {
          "internalType": "uint256",
          "name": "votesToPass",
          "type": "uint256"
        }
      ],
      "stateMutability": "view",
      "type": "function"
    },
    {
      "inputs": [
        {
          "internalType": "uint256",
          "name": "groupId",
          "type": "uint256"
        }
      ],
      "name": "getDepth",
      "outputs": [
        {
          "internalType": "uint8",
          "name": "",
          "type": "uint8"
        }
      ],
      "stateMutability": "view",
      "type": "function"
    },
    {
      "inputs": [
        {
          "internalType": "uint256",
          "name": "groupId",
          "type": "uint256"
        }
      ],
      "name": "getNumberOfLeaves",
      "outputs": [
        {
          "internalType": "uint256",
          "name": "",
          "type": "uint256"
        }
      ],
      "stateMutability": "view",
      "type": "function"
    },
    {
      "inputs": [
        {
          "internalType": "uint256",
          "name": "groupId",
          "type": "uint256"
        }
      ],
      "name": "getRoot",
      "outputs": [
        {
          "internalType": "uint256",
          "name": "",
          "type": "uint256"
        }
      ],
      "stateMutability": "view",
      "type": "function"
    },
    {
      "inputs": [
        {
          "internalType": "uint256",
          "name": "",
          "type": "uint256"
        },
        {
          "internalType": "uint256",
          "name": "",
          "type": "uint256"
        }
      ],
      "name": "proposalsPerGroup",
      "outputs": [
        {
          "internalType": "uint256",
          "name": "deadline",
          "type": "uint256"
        },
        {
          "internalType": "uint256",
          "name": "votesUp",
          "type": "uint256"
        },
        {
          "internalType": "uint256",
          "name": "votesDown",
          "type": "uint256"
        },
        {
          "internalType": "bool",
          "name": "passed",
          "type": "bool"
        }
      ],
      "stateMutability": "view",
      "type": "function"
    },
    {
      "inputs": [
        {
          "internalType": "uint256",
          "name": "groupId",
          "type": "uint256"
        },
        {
          "internalType": "uint256",
          "name": "identityCommitment",
          "type": "uint256"
        },
        {
          "internalType": "uint256[]",
          "name": "proofSiblings",
          "type": "uint256[]"
        },
        {
          "internalType": "uint8[]",
          "name": "proofPathIndices",
          "type": "uint8[]"
        }
      ],
      "name": "removeMember",
      "outputs": [],
      "stateMutability": "nonpayable",
      "type": "function"
    },
    {
      "inputs": [],
      "name": "treeDepth",
      "outputs": [
        {
          "internalType": "uint8",
          "name": "",
          "type": "uint8"
        }
      ],
      "stateMutability": "view",
      "type": "function"
    },
    {
      "inputs": [],
      "name": "verifier",
      "outputs": [
        {
          "internalType": "contract IVerifier",
          "name": "",
          "type": "address"
        }
      ],
      "stateMutability": "view",
      "type": "function"
    }
  ],
  "bytecode": "0x60806040523480156200001157600080fd5b5060405162002146380380620021468339818101604052810190620000379190620000c9565b81600260006101000a81548160ff021916908360ff16021790555080600260016101000a81548173ffffffffffffffffffffffffffffffffffffffff021916908373ffffffffffffffffffffffffffffffffffffffff160217905550505062000193565b600081519050620000ac816200015f565b92915050565b600081519050620000c38162000179565b92915050565b60008060408385031215620000dd57600080fd5b6000620000ed85828601620000b2565b925050602062000100858286016200009b565b9150509250929050565b6000620001178262000132565b9050919050565b60006200012b826200010a565b9050919050565b600073ffffffffffffffffffffffffffffffffffffffff82169050919050565b600060ff82169050919050565b6200016a816200011e565b81146200017657600080fd5b50565b620001848162000152565b81146200019057600080fd5b50565b611fa380620001a36000396000f3fe608060405234801561001057600080fd5b50600436106100b45760003560e01c806366462e3d1161007157806366462e3d1461017c57806374cab8451461019857806375e618c9146101b45780639b24b3b0146101e4578063ac05083a14610214578063b9c78c2b14610247576100b4565b806316a56c41146100b95780631783efc3146100d75780631edf0a73146100f35780632b7ac3f31461012657806343989f851461014457806347df85bb14610160575b600080fd5b6100c1610277565b6040516100ce9190611ad2565b60405180910390f35b6100f160048036038101906100ec9190611306565b61028a565b005b61010d60048036038101906101089190611306565b61036a565b60405161011d9493929190611a8d565b60405180910390f35b61012e6103b4565b60405161013b919061185b565b60405180910390f35b61015e60048036038101906101599190611342565b6103da565b005b61017a6004803603810190610175919061128e565b6104c2565b005b61019660048036038101906101919190611201565b610558565b005b6101b260048036038101906101ad91906111d8565b6106f7565b005b6101ce60048036038101906101c99190611265565b610823565b6040516101db9190611ad2565b60405180910390f35b6101fe60048036038101906101f99190611265565b610850565b60405161020b91906119cd565b60405180910390f35b61022e60048036038101906102299190611265565b610870565b60405161023e94939291906117b4565b60405180910390f35b610261600480360381019061025c9190611265565b6108c0565b60405161026e91906119cd565b60405180910390f35b600260009054906101000a900460ff1681565b813373ffffffffffffffffffffffffffffffffffffffff166003600083815260200190815260200160002060000160009054906101000a900473ffffffffffffffffffffffffffffffffffffffff1673ffffffffffffffffffffffffffffffffffffffff161461032f576040517f08c379a0000000000000000000000000000000000000000000000000000000008152600401610326906118b6565b60405180910390fd5b61033983836108e0565b60036000848152602001908152602001600020600101600081548092919061036090611d1b565b9190505550505050565b6004602052816000526040600020602052806000526040600020600091509150508060000154908060010154908060020154908060030160009054906101000a900460ff16905084565b600260019054906101000a900473ffffffffffffffffffffffffffffffffffffffff1681565b853373ffffffffffffffffffffffffffffffffffffffff166003600083815260200190815260200160002060000160009054906101000a900473ffffffffffffffffffffffffffffffffffffffff1673ffffffffffffffffffffffffffffffffffffffff161461047f576040517f08c379a0000000000000000000000000000000000000000000000000000000008152600401610476906118b6565b60405180910390fd5b61048d8787878787876109f8565b6003600088815260200190815260200160002060010160008154809291906104b490611cf1565b919050555050505050505050565b60006001600084815260200190815260200160002060010154905061050d8582868686600260019054906101000a900473ffffffffffffffffffffffffffffffffffffffff16610b1c565b61051684610e75565b827f96c313364ec07441c94195f44ed1e5f2656059c98a7c0c68466dac90c6fd8bf987876040516105489291906119e8565b60405180910390a2505050505050565b6000600160008481526020019081526020016000206001015490506105a38582868686600260019054906101000a900473ffffffffffffffffffffffffffffffffffffffff16610b1c565b6105ab61107f565b6000600360008681526020019081526020016000206002015490506064436105d39190611c09565b8260000181815250508160046000878152602001908152602001600020600083815260200190815260200160002060008201518160000155602082015181600101556040820151816002015560608201518160030160006101000a81548160ff02191690831515021790555090505060036000868152602001908152602001600020600201600081548092919061066990611d1b565b919050555060007f687474703a2f2f6578616d706c652e69706673000000000000000000000000009050600042905060006203f480826106a99190611c09565b9050877fae581543be956d2cf25ef093e9ecd29e22525faec97ef9eb70d752e2fa002f21858c8585886040516106e3959493929190611a11565b60405180910390a250505050505050505050565b600061070282610ea3565b905061071f81600260009054906101000a900460ff166000610eda565b6107276110a9565b33816000019073ffffffffffffffffffffffffffffffffffffffff16908173ffffffffffffffffffffffffffffffffffffffff16815250506001816040018181525050806003600084815260200190815260200160002060008201518160000160006101000a81548173ffffffffffffffffffffffffffffffffffffffff021916908373ffffffffffffffffffffffffffffffffffffffff160217905550602082015181600101556040820151816002015560608201518160030155905050817f90b49a3957a38a3d5e938dae87285886d0963bffacce56612f54960948493d32846040516108169190611840565b60405180910390a2505050565b60006001600083815260200190815260200160002060000160009054906101000a900460ff169050919050565b600060016000838152602001908152602001600020600101549050919050565b60036020528060005260406000206000915090508060000160009054906101000a900473ffffffffffffffffffffffffffffffffffffffff16908060010154908060020154908060030154905084565b600060016000838152602001908152602001600020600201549050919050565b60006108eb83610823565b60ff16141561092f576040517f08c379a0000000000000000000000000000000000000000000000000000000008152600401610926906118d6565b60405180910390fd5b6001600083815260200190815260200160002073__$4c0484323457fe1a856f46a4759b553fe4$__63168703fa9091836040518363ffffffff1660e01b815260040161097c929190611916565b60006040518083038186803b15801561099457600080fd5b505af41580156109a8573d6000803e3d6000fd5b5050505060006109b783610850565b9050827f03fd27265b7dd1f55558bedc22a58fa3b10afb1be776e614bd5a7ba7b949940683836040516109eb929190611a64565b60405180910390a2505050565b6000610a0387610823565b60ff161415610a47576040517f08c379a0000000000000000000000000000000000000000000000000000000008152600401610a3e906118d6565b60405180910390fd5b6001600087815260200190815260200160002073__$4c0484323457fe1a856f46a4759b553fe4$__630629596f909187878787876040518763ffffffff1660e01b8152600401610a9c9695949392919061193f565b60006040518083038186803b158015610ab457600080fd5b505af4158015610ac8573d6000803e3d6000fd5b505050506000610ad787610850565b9050867fe270325ded177064d7bda473e6519ef40a291058c41286f71a6e4872f1e9ab5c8783604051610b0b929190611a64565b60405180910390a250505050505050565b60008085815260200190815260200160002060009054906101000a900460ff1615610b7c576040517f08c379a0000000000000000000000000000000000000000000000000000000008152600401610b7390611876565b60405180910390fd5b6000610b8787611048565b90508173ffffffffffffffffffffffffffffffffffffffff16635fe8c13b604051806040016040528086600060088110610bea577f4e487b7100000000000000000000000000000000000000000000000000000000600052603260045260246000fd5b6020020135815260200186600160088110610c2e577f4e487b7100000000000000000000000000000000000000000000000000000000600052603260045260246000fd5b60200201358152506040518060400160405280604051806040016040528089600260088110610c86577f4e487b7100000000000000000000000000000000000000000000000000000000600052603260045260246000fd5b6020020135815260200189600360088110610cca577f4e487b7100000000000000000000000000000000000000000000000000000000600052603260045260246000fd5b60200201358152508152602001604051806040016040528089600460088110610d1c577f4e487b7100000000000000000000000000000000000000000000000000000000600052603260045260246000fd5b6020020135815260200189600560088110610d60577f4e487b7100000000000000000000000000000000000000000000000000000000600052603260045260246000fd5b6020020135815250815250604051806040016040528088600660088110610db0577f4e487b7100000000000000000000000000000000000000000000000000000000600052603260045260246000fd5b6020020135815260200188600760088110610df4577f4e487b7100000000000000000000000000000000000000000000000000000000600052603260045260246000fd5b602002013581525060405180608001604052808c81526020018b81526020018781526020018a8152506040518563ffffffff1660e01b8152600401610e3c94939291906117f9565b60006040518083038186803b158015610e5457600080fd5b505afa158015610e68573d6000803e3d6000fd5b5050505050505050505050565b600160008083815260200190815260200160002060006101000a81548160ff02191690831515021790555050565b6000600882604051602001610eb89190611799565b6040516020818303038152906040528051906020012060001c901c9050919050565b7f30644e72e131a029b85045b68181585d2833e84879b9709143e1f593f00000018310610f3c576040517f08c379a0000000000000000000000000000000000000000000000000000000008152600401610f33906118f6565b60405180910390fd5b6000610f4784610823565b60ff1614610f8a576040517f08c379a0000000000000000000000000000000000000000000000000000000008152600401610f8190611896565b60405180910390fd5b6001600084815260200190815260200160002073__$4c0484323457fe1a856f46a4759b553fe4$__63b4bdd117909184846040518463ffffffff1660e01b8152600401610fd993929190611996565b60006040518083038186803b158015610ff157600080fd5b505af4158015611005573d6000803e3d6000fd5b50505050827fc3082aa494e9088c2c9f0fb62a0b6bd46e6699acb94cfba35be29b95a93f68c8838360405161103b929190611aed565b60405180910390a2505050565b600060088260405160200161105d9190611799565b6040516020818303038152906040528051906020012060001c901c9050919050565b60405180608001604052806000815260200160008152602001600081526020016000151581525090565b6040518060800160405280600073ffffffffffffffffffffffffffffffffffffffff1681526020016000815260200160008152602001600081525090565b6000819050826020600802820111156110ff57600080fd5b92915050565b60008083601f84011261111757600080fd5b8235905067ffffffffffffffff81111561113057600080fd5b60208301915083602082028301111561114857600080fd5b9250929050565b60008083601f84011261116157600080fd5b8235905067ffffffffffffffff81111561117a57600080fd5b60208301915083602082028301111561119257600080fd5b9250929050565b6000813590506111a881611f28565b92915050565b6000813590506111bd81611f3f565b92915050565b6000813590506111d281611f56565b92915050565b6000602082840312156111ea57600080fd5b60006111f884828501611199565b91505092915050565b600080600080610160858703121561121857600080fd5b600061122687828801611199565b9450506020611237878288016111ae565b9350506040611248878288016111ae565b9250506060611259878288016110e7565b91505092959194509250565b60006020828403121561127757600080fd5b6000611285848285016111ae565b91505092915050565b600080600080600061018086880312156112a757600080fd5b60006112b5888289016111ae565b95505060206112c688828901611199565b94505060406112d7888289016111ae565b93505060606112e8888289016111ae565b92505060806112f9888289016110e7565b9150509295509295909350565b6000806040838503121561131957600080fd5b6000611327858286016111ae565b9250506020611338858286016111ae565b9150509250929050565b6000806000806000806080878903121561135b57600080fd5b600061136989828a016111ae565b965050602061137a89828a016111ae565b955050604087013567ffffffffffffffff81111561139757600080fd5b6113a389828a01611105565b9450945050606087013567ffffffffffffffff8111156113c257600080fd5b6113ce89828a0161114f565b92509250509295509295509295565b60006113e9838361148b565b60408301905092915050565b6000611401838361173f565b60208301905092915050565b6000611419838361178a565b60208301905092915050565b61142e81611c5f565b82525050565b61143d81611b3e565b6114478184611b93565b925061145282611b16565b8060005b8381101561148357815161146a87826113dd565b965061147583611b5f565b925050600181019050611456565b505050505050565b61149481611b49565b61149e8184611b9e565b92506114a982611b20565b8060005b838110156114da5781516114c187826113f5565b96506114cc83611b6c565b9250506001810190506114ad565b505050505050565b6114eb81611b49565b6114f58184611ba9565b925061150082611b20565b8060005b8381101561153157815161151887826113f5565b965061152383611b6c565b925050600181019050611504565b505050505050565b61154281611b54565b61154c8184611bb4565b925061155782611b2a565b8060005b8381101561158857815161156f87826113f5565b965061157a83611b79565b92505060018101905061155b565b505050505050565b600061159c8385611bbf565b93507f07ffffffffffffffffffffffffffffffffffffffffffffffffffffffffffffff8311156115cb57600080fd5b6020830292506115dc838584611ce2565b82840190509392505050565b60006115f48385611bd0565b93506115ff82611b34565b8060005b85811015611638576116158284611bf2565b61161f888261140d565b975061162a83611b86565b925050600181019050611603565b5085925050509392505050565b61164e81611c71565b82525050565b61165d81611c7d565b82525050565b61167461166f82611c7d565b611d64565b82525050565b61168381611cbe565b82525050565b6000611696603683611be1565b91506116a182611d9d565b604082019050919050565b60006116b9602583611be1565b91506116c482611dec565b604082019050919050565b60006116dc603083611be1565b91506116e782611e3b565b604082019050919050565b60006116ff602583611be1565b915061170a82611e8a565b604082019050919050565b6000611722603683611be1565b915061172d82611ed9565b604082019050919050565b8082525050565b61174881611ca7565b82525050565b61175781611ca7565b82525050565b61176681611ca7565b82525050565b61177581611cb1565b82525050565b61178481611cb1565b82525050565b61179381611cb1565b82525050565b60006117a58284611663565b60208201915081905092915050565b60006080820190506117c96000830187611425565b6117d6602083018661174e565b6117e3604083018561174e565b6117f0606083018461174e565b95945050505050565b60006101808201905061180f60008301876114e2565b61181c6040830186611434565b61182960c08301856114e2565b611837610100830184611539565b95945050505050565b60006020820190506118556000830184611654565b92915050565b6000602082019050611870600083018461167a565b92915050565b6000602082019050818103600083015261188f81611689565b9050919050565b600060208201905081810360008301526118af816116ac565b9050919050565b600060208201905081810360008301526118cf816116cf565b9050919050565b600060208201905081810360008301526118ef816116f2565b9050919050565b6000602082019050818103600083015261190f81611715565b9050919050565b600060408201905061192b6000830185611738565b611938602083018461175d565b9392505050565b60006080820190506119546000830189611738565b611961602083018861175d565b8181036040830152611974818688611590565b905081810360608301526119898184866115e8565b9050979650505050505050565b60006060820190506119ab6000830186611738565b6119b8602083018561177b565b6119c5604083018461175d565b949350505050565b60006020820190506119e2600083018461174e565b92915050565b60006040820190506119fd600083018561174e565b611a0a6020830184611654565b9392505050565b600060a082019050611a26600083018861174e565b611a336020830187611654565b611a40604083018661174e565b611a4d606083018561174e565b611a5a6080830184611654565b9695505050505050565b6000604082019050611a79600083018561174e565b611a86602083018461174e565b9392505050565b6000608082019050611aa2600083018761174e565b611aaf602083018661174e565b611abc604083018561174e565b611ac96060830184611645565b95945050505050565b6000602082019050611ae7600083018461176c565b92915050565b6000604082019050611b02600083018561176c565b611b0f602083018461174e565b9392505050565b6000819050919050565b6000819050919050565b6000819050919050565b6000819050919050565b600060029050919050565b600060029050919050565b600060049050919050565b6000602082019050919050565b6000602082019050919050565b6000602082019050919050565b6000602082019050919050565b600081905092915050565b600081905092915050565b600081905092915050565b600081905092915050565b600082825260208201905092915050565b600082825260208201905092915050565b600082825260208201905092915050565b6000611c0160208401846111c3565b905092915050565b6000611c1482611ca7565b9150611c1f83611ca7565b9250827fffffffffffffffffffffffffffffffffffffffffffffffffffffffffffffffff03821115611c5457611c53611d6e565b5b828201905092915050565b6000611c6a82611c87565b9050919050565b60008115159050919050565b6000819050919050565b600073ffffffffffffffffffffffffffffffffffffffff82169050919050565b6000819050919050565b600060ff82169050919050565b6000611cc982611cd0565b9050919050565b6000611cdb82611c87565b9050919050565b82818337600083830152505050565b6000611cfc82611ca7565b91506000821415611d1057611d0f611d6e565b5b600182039050919050565b6000611d2682611ca7565b91507fffffffffffffffffffffffffffffffffffffffffffffffffffffffffffffffff821415611d5957611d58611d6e565b5b600182019050919050565b6000819050919050565b7f4e487b7100000000000000000000000000000000000000000000000000000000600052601160045260246000fd5b7f53656d6170686f7265436f72653a20796f752063616e6e6f742075736520746860008201527f652073616d65206e756c6c696669657220747769636500000000000000000000602082015250565b7f53656d6170686f726547726f7570733a2067726f757020616c7265616479206560008201527f7869737473000000000000000000000000000000000000000000000000000000602082015250565b7f4f6e6c792067726f75702061646d696e6973747261746f722063616e2063616c60008201527f6c20746869732066756e6374696f6e2e00000000000000000000000000000000602082015250565b7f53656d6170686f726547726f7570733a2067726f757020646f6573206e6f742060008201527f6578697374000000000000000000000000000000000000000000000000000000602082015250565b7f53656d6170686f726547726f7570733a2067726f7570206964206d757374206260008201527f65203c20534e41524b5f5343414c41525f4649454c4400000000000000000000602082015250565b611f3181611c7d565b8114611f3c57600080fd5b50565b611f4881611ca7565b8114611f5357600080fd5b50565b611f5f81611cb1565b8114611f6a57600080fd5b5056fea2646970667358221220f97c3c9e0de832c67069c58f4328743e932e1b4c9cc039853e58157d2ee21d2764736f6c63430008040033",
  "linkReferences": {
    "@zk-kit/incremental-merkle-tree.sol/contracts/IncrementalBinaryTree.sol": {
      "IncrementalBinaryTree": [
        {
          "length": 20,
          "start": 2791
        },
        {
          "length": 20,
          "start": 3071
        },
        {
          "length": 20,
          "start": 4418
        }
      ]
    }
  },
  "deployedLinkReferences": {
    "@zk-kit/incremental-merkle-tree.sol/contracts/IncrementalBinaryTree.sol": {
      "IncrementalBinaryTree": [
        {
          "length": 20,
          "start": 2372
        },
        {
          "length": 20,
          "start": 2652
        },
        {
          "length": 20,
          "start": 3999
        }
      ]
    }
  }
}