{
  "_format": "hh-sol-artifact-1",
  "contractName": "OmVoting",
  "sourceName": "contracts/OmVoting.sol",
  "abi": [
    {
      "inputs": [],
      "stateMutability": "nonpayable",
      "type": "constructor"
    },
    {
      "anonymous": false,
      "inputs": [
        {
          "indexed": true,
          "internalType": "uint256",
          "name": "groupId",
          "type": "uint256"
        },
        {
          "indexed": false,
          "internalType": "string",
          "name": "daoName",
          "type": "string"
        }
      ],
      "name": "DaoCreated",
      "type": "event"
    },
    {
      "anonymous": false,
      "inputs": [
        {
          "indexed": true,
          "internalType": "uint256",
          "name": "groupId",
          "type": "uint256"
        },
        {
          "indexed": false,
          "internalType": "uint256",
          "name": "proposalId",
          "type": "uint256"
        },
        {
          "indexed": false,
          "internalType": "string",
          "name": "question",
          "type": "string"
        },
        {
          "indexed": false,
          "internalType": "string",
          "name": "IpfsURI",
          "type": "string"
        }
      ],
      "name": "ProposalCreated",
      "type": "event"
    },
    {
      "anonymous": false,
      "inputs": [
        {
          "indexed": true,
          "internalType": "uint256",
          "name": "groupId",
          "type": "uint256"
        },
        {
          "indexed": false,
          "internalType": "uint256",
          "name": "proposalId",
          "type": "uint256"
        },
        {
          "indexed": false,
          "internalType": "bool",
          "name": "support",
          "type": "bool"
        }
      ],
      "name": "VoteCast",
      "type": "event"
    },
    {
      "inputs": [
        {
          "internalType": "uint256",
          "name": "groupId",
          "type": "uint256"
        },
        {
          "internalType": "uint256",
          "name": "proposalId",
          "type": "uint256"
        },
        {
          "internalType": "bool",
          "name": "support",
          "type": "bool"
        }
      ],
      "name": "castVote",
      "outputs": [],
      "stateMutability": "nonpayable",
      "type": "function"
    },
    {
      "inputs": [
        {
          "internalType": "string",
          "name": "daoName",
          "type": "string"
        },
        {
          "internalType": "address[]",
          "name": "_members",
          "type": "address[]"
        }
      ],
      "name": "createDao",
      "outputs": [],
      "stateMutability": "nonpayable",
      "type": "function"
    },
    {
      "inputs": [
        {
          "internalType": "uint256",
          "name": "",
          "type": "uint256"
        }
      ],
      "name": "daoGroups",
      "outputs": [
        {
          "internalType": "address",
          "name": "admin",
          "type": "address"
        },
        {
          "internalType": "uint256",
          "name": "members",
          "type": "uint256"
        },
        {
          "internalType": "uint256",
          "name": "nextProposal",
          "type": "uint256"
        },
        {
          "internalType": "uint256",
          "name": "votesToPass",
          "type": "uint256"
        }
      ],
      "stateMutability": "view",
      "type": "function"
    },
    {
      "inputs": [
        {
          "internalType": "uint256",
          "name": "",
          "type": "uint256"
        },
        {
          "internalType": "address",
          "name": "",
          "type": "address"
        }
      ],
      "name": "membersPerGroup",
      "outputs": [
        {
          "internalType": "bool",
          "name": "",
          "type": "bool"
        }
      ],
      "stateMutability": "view",
      "type": "function"
    },
    {
      "inputs": [
        {
          "internalType": "uint256",
          "name": "groupId",
          "type": "uint256"
        },
        {
          "internalType": "string",
          "name": "_question",
          "type": "string"
        },
        {
          "internalType": "string",
          "name": "_ipfsURI",
          "type": "string"
        }
      ],
      "name": "newProposal",
      "outputs": [],
      "stateMutability": "nonpayable",
      "type": "function"
    },
    {
      "inputs": [
        {
          "internalType": "uint256",
          "name": "",
          "type": "uint256"
        },
        {
          "internalType": "uint256",
          "name": "",
          "type": "uint256"
        }
      ],
      "name": "proposalsPerGroup",
      "outputs": [
        {
          "internalType": "address",
          "name": "creator",
          "type": "address"
        },
        {
          "internalType": "string",
          "name": "question",
          "type": "string"
        },
        {
          "internalType": "uint256",
          "name": "yesCount",
          "type": "uint256"
        },
        {
          "internalType": "uint256",
          "name": "noCount",
          "type": "uint256"
        },
        {
          "internalType": "uint256",
          "name": "StartDate",
          "type": "uint256"
        },
        {
          "internalType": "uint256",
          "name": "EndDate",
          "type": "uint256"
        },
        {
          "internalType": "string",
          "name": "IpfsURI",
          "type": "string"
        }
      ],
      "stateMutability": "view",
      "type": "function"
    }
  ],
  "bytecode": "0x6080604052600160005534801561001557600080fd5b50611360806100256000396000f3fe608060405234801561001057600080fd5b50600436106100625760003560e01c80631edf0a73146100675780635114e07d1461009d5780637390399a146100cd578063ac05083a146100e9578063c40b34fc1461011c578063f9000ba814610138575b600080fd5b610081600480360381019061007c9190610d8e565b610154565b6040516100949796959493929190610eac565b60405180910390f35b6100b760048036038101906100b29190610cc9565b6102d3565b6040516100c49190610f6e565b60405180910390f35b6100e760048036038101906100e29190610c34565b610302565b005b61010360048036038101906100fe9190610ca0565b610556565b6040516101139493929190610f29565b60405180910390f35b61013660048036038101906101319190610d05565b6105a6565b005b610152600480360381019061014d9190610dca565b61086a565b005b6003602052816000526040600020602052806000526040600020600091509150508060000160009054906101000a900473ffffffffffffffffffffffffffffffffffffffff16908060010180546101aa9061119b565b80601f01602080910402602001604051908101604052809291908181526020018280546101d69061119b565b80156102235780601f106101f857610100808354040283529160200191610223565b820191906000526020600020905b81548152906001019060200180831161020657829003601f168201915b5050505050908060020154908060030154908060040154908060050154908060060180546102509061119b565b80601f016020809104026020016040519081016040528092919081815260200182805461027c9061119b565b80156102c95780601f1061029e576101008083540402835291602001916102c9565b820191906000526020600020905b8154815290600101906020018083116102ac57829003601f168201915b5050505050905087565b60026020528160005260406000206020528060005260406000206000915091509054906101000a900460ff1681565b60008054905060008081548092919061031a906111fe565b9190505550610327610979565b33816000019073ffffffffffffffffffffffffffffffffffffffff16908173ffffffffffffffffffffffffffffffffffffffff16815250506001816040018181525050806001600084815260200190815260200160002060008201518160000160006101000a81548173ffffffffffffffffffffffffffffffffffffffff021916908373ffffffffffffffffffffffffffffffffffffffff16021790555060208201518160010155604082015181600201556060820151816003015590505060005b83518110156104ae576001600260008581526020019081526020016000206000868481518110610442577f4e487b7100000000000000000000000000000000000000000000000000000000600052603260045260246000fd5b602002602001015173ffffffffffffffffffffffffffffffffffffffff1673ffffffffffffffffffffffffffffffffffffffff16815260200190815260200160002060006101000a81548160ff02191690831515021790555080806104a6906111fe565b9150506103e9565b5060016002600084815260200190815260200160002060003373ffffffffffffffffffffffffffffffffffffffff1673ffffffffffffffffffffffffffffffffffffffff16815260200190815260200160002060006101000a81548160ff021916908315150217905550817f26525a29cbce956d4c3e6d18fda50882426740bea57a54c7045b0d2fdb20c962856040516105489190610f89565b60405180910390a250505050565b60016020528060005260406000206000915090508060000160009054906101000a900473ffffffffffffffffffffffffffffffffffffffff16908060010154908060020154908060030154905084565b6002600086815260200190815260200160002060003373ffffffffffffffffffffffffffffffffffffffff1673ffffffffffffffffffffffffffffffffffffffff16815260200190815260200160002060009054906101000a900460ff1661060d57600080fd5b6000600160008781526020019081526020016000206002015490506106306109b7565b33816000019073ffffffffffffffffffffffffffffffffffffffff16908173ffffffffffffffffffffffffffffffffffffffff168152505085858080601f016020809104026020016040519081016040528093929190818152602001838380828437600081840152601f19601f8201169050808301925050505050505081602001819052504281608001818152505062093a80426106ce91906110bb565b8160a001818152505083838080601f016020809104026020016040519081016040528093929190818152602001838380828437600081840152601f19601f820116905080830192505050505050508160c001819052508060036000898152602001908152602001600020600084815260200190815260200160002060008201518160000160006101000a81548173ffffffffffffffffffffffffffffffffffffffff021916908373ffffffffffffffffffffffffffffffffffffffff16021790555060208201518160010190805190602001906107ac929190610a0a565b5060408201518160020155606082015181600301556080820151816004015560a0820151816005015560c08201518160060190805190602001906107f1929190610a0a565b5090505060016000888152602001908152602001600020600201600081548092919061081c906111fe565b9190505550867f8aa3726c073ad10851119cce89ee48b5936882a91c40c54862c9c3289ce7572f8388888888604051610859959493929190610fd4565b60405180910390a250505050505050565b6002600084815260200190815260200160002060003373ffffffffffffffffffffffffffffffffffffffff1673ffffffffffffffffffffffffffffffffffffffff16815260200190815260200160002060009054906101000a900460ff166108d157600080fd5b60006003600085815260200190815260200160002060008481526020019081526020016000209050811561091e57806002016000815480929190610914906111fe565b9190505550610939565b806003016000815480929190610933906111fe565b91905055505b837fa071403561971b5037de93aebd0f95690808372d2f63965534e2c1b5486f2c6a848460405161096b929190610fab565b60405180910390a250505050565b6040518060800160405280600073ffffffffffffffffffffffffffffffffffffffff1681526020016000815260200160008152602001600081525090565b6040518060e00160405280600073ffffffffffffffffffffffffffffffffffffffff1681526020016060815260200160008152602001600081526020016000815260200160008152602001606081525090565b828054610a169061119b565b90600052602060002090601f016020900481019282610a385760008555610a7f565b82601f10610a5157805160ff1916838001178555610a7f565b82800160010185558215610a7f579182015b82811115610a7e578251825591602001919060010190610a63565b5b509050610a8c9190610a90565b5090565b5b80821115610aa9576000816000905550600101610a91565b5090565b6000610ac0610abb84611042565b61101d565b90508083825260208201905082856020860282011115610adf57600080fd5b60005b85811015610b0f5781610af58882610b57565b845260208401935060208301925050600181019050610ae2565b5050509392505050565b6000610b2c610b278461106e565b61101d565b905082815260208101848484011115610b4457600080fd5b610b4f848285611159565b509392505050565b600081359050610b66816112e5565b92915050565b600082601f830112610b7d57600080fd5b8135610b8d848260208601610aad565b91505092915050565b600081359050610ba5816112fc565b92915050565b60008083601f840112610bbd57600080fd5b8235905067ffffffffffffffff811115610bd657600080fd5b602083019150836001820283011115610bee57600080fd5b9250929050565b600082601f830112610c0657600080fd5b8135610c16848260208601610b19565b91505092915050565b600081359050610c2e81611313565b92915050565b60008060408385031215610c4757600080fd5b600083013567ffffffffffffffff811115610c6157600080fd5b610c6d85828601610bf5565b925050602083013567ffffffffffffffff811115610c8a57600080fd5b610c9685828601610b6c565b9150509250929050565b600060208284031215610cb257600080fd5b6000610cc084828501610c1f565b91505092915050565b60008060408385031215610cdc57600080fd5b6000610cea85828601610c1f565b9250506020610cfb85828601610b57565b9150509250929050565b600080600080600060608688031215610d1d57600080fd5b6000610d2b88828901610c1f565b955050602086013567ffffffffffffffff811115610d4857600080fd5b610d5488828901610bab565b9450945050604086013567ffffffffffffffff811115610d7357600080fd5b610d7f88828901610bab565b92509250509295509295909350565b60008060408385031215610da157600080fd5b6000610daf85828601610c1f565b9250506020610dc085828601610c1f565b9150509250929050565b600080600060608486031215610ddf57600080fd5b6000610ded86828701610c1f565b9350506020610dfe86828701610c1f565b9250506040610e0f86828701610b96565b9150509250925092565b610e2281611111565b82525050565b610e3181611123565b82525050565b6000610e4383856110aa565b9350610e50838584611159565b610e59836112d4565b840190509392505050565b6000610e6f8261109f565b610e7981856110aa565b9350610e89818560208601611168565b610e92816112d4565b840191505092915050565b610ea68161114f565b82525050565b600060e082019050610ec1600083018a610e19565b8181036020830152610ed38189610e64565b9050610ee26040830188610e9d565b610eef6060830187610e9d565b610efc6080830186610e9d565b610f0960a0830185610e9d565b81810360c0830152610f1b8184610e64565b905098975050505050505050565b6000608082019050610f3e6000830187610e19565b610f4b6020830186610e9d565b610f586040830185610e9d565b610f656060830184610e9d565b95945050505050565b6000602082019050610f836000830184610e28565b92915050565b60006020820190508181036000830152610fa38184610e64565b905092915050565b6000604082019050610fc06000830185610e9d565b610fcd6020830184610e28565b9392505050565b6000606082019050610fe96000830188610e9d565b8181036020830152610ffc818688610e37565b90508181036040830152611011818486610e37565b90509695505050505050565b6000611027611038565b905061103382826111cd565b919050565b6000604051905090565b600067ffffffffffffffff82111561105d5761105c6112a5565b5b602082029050602081019050919050565b600067ffffffffffffffff821115611089576110886112a5565b5b611092826112d4565b9050602081019050919050565b600081519050919050565b600082825260208201905092915050565b60006110c68261114f565b91506110d18361114f565b9250827fffffffffffffffffffffffffffffffffffffffffffffffffffffffffffffffff0382111561110657611105611247565b5b828201905092915050565b600061111c8261112f565b9050919050565b60008115159050919050565b600073ffffffffffffffffffffffffffffffffffffffff82169050919050565b6000819050919050565b82818337600083830152505050565b60005b8381101561118657808201518184015260208101905061116b565b83811115611195576000848401525b50505050565b600060028204905060018216806111b357607f821691505b602082108114156111c7576111c6611276565b5b50919050565b6111d6826112d4565b810181811067ffffffffffffffff821117156111f5576111f46112a5565b5b80604052505050565b60006112098261114f565b91507fffffffffffffffffffffffffffffffffffffffffffffffffffffffffffffffff82141561123c5761123b611247565b5b600182019050919050565b7f4e487b7100000000000000000000000000000000000000000000000000000000600052601160045260246000fd5b7f4e487b7100000000000000000000000000000000000000000000000000000000600052602260045260246000fd5b7f4e487b7100000000000000000000000000000000000000000000000000000000600052604160045260246000fd5b6000601f19601f8301169050919050565b6112ee81611111565b81146112f957600080fd5b50565b61130581611123565b811461131057600080fd5b50565b61131c8161114f565b811461132757600080fd5b5056fea2646970667358221220359d200854f89c30db942c6d76749d75401223f1980f008324e263b6ba35d45a64736f6c63430008040033",
  "linkReferences": {},
  "deployedLinkReferences": {}
}