{
  "_format": "hh-sol-artifact-1",
  "contractName": "OmVoting",
  "sourceName": "contracts/OmVoting.sol",
  "abi": [
    {
      "inputs": [
        {
          "internalType": "address[]",
          "name": "_members",
          "type": "address[]"
        }
      ],
      "stateMutability": "nonpayable",
      "type": "constructor"
    },
    {
      "anonymous": false,
      "inputs": [
        {
          "indexed": false,
          "internalType": "address",
          "name": "creator",
          "type": "address"
        },
        {
          "indexed": false,
          "internalType": "string",
          "name": "question",
          "type": "string"
        },
        {
          "indexed": false,
          "internalType": "uint256",
          "name": "StartDate",
          "type": "uint256"
        },
        {
          "indexed": false,
          "internalType": "uint256",
          "name": "EndDate",
          "type": "uint256"
        },
        {
          "indexed": false,
          "internalType": "string",
          "name": "IpfsURI",
          "type": "string"
        }
      ],
      "name": "ProposalCreated",
      "type": "event"
    },
    {
      "anonymous": false,
      "inputs": [
        {
          "indexed": false,
          "internalType": "uint256",
          "name": "",
          "type": "uint256"
        },
        {
          "indexed": true,
          "internalType": "address",
          "name": "",
          "type": "address"
        }
      ],
      "name": "VoteCast",
      "type": "event"
    },
    {
      "inputs": [
        {
          "internalType": "uint256",
          "name": "_proposalId",
          "type": "uint256"
        },
        {
          "internalType": "bool",
          "name": "_supports",
          "type": "bool"
        }
      ],
      "name": "castVote",
      "outputs": [],
      "stateMutability": "nonpayable",
      "type": "function"
    },
    {
      "inputs": [
        {
          "internalType": "string",
          "name": "_question",
          "type": "string"
        },
        {
          "internalType": "string",
          "name": "_ipfsURI",
          "type": "string"
        },
        {
          "internalType": "uint256",
          "name": "_startDate",
          "type": "uint256"
        },
        {
          "internalType": "uint256",
          "name": "_endDate",
          "type": "uint256"
        }
      ],
      "name": "newProposal",
      "outputs": [],
      "stateMutability": "nonpayable",
      "type": "function"
    },
    {
      "inputs": [],
      "name": "proposalCount",
      "outputs": [
        {
          "internalType": "uint256",
          "name": "",
          "type": "uint256"
        }
      ],
      "stateMutability": "view",
      "type": "function"
    },
    {
      "inputs": [
        {
          "internalType": "uint256",
          "name": "",
          "type": "uint256"
        }
      ],
      "name": "proposals",
      "outputs": [
        {
          "internalType": "address",
          "name": "creator",
          "type": "address"
        },
        {
          "internalType": "string",
          "name": "question",
          "type": "string"
        },
        {
          "internalType": "uint256",
          "name": "yesCount",
          "type": "uint256"
        },
        {
          "internalType": "uint256",
          "name": "noCount",
          "type": "uint256"
        },
        {
          "internalType": "uint256",
          "name": "StartDate",
          "type": "uint256"
        },
        {
          "internalType": "uint256",
          "name": "EndDate",
          "type": "uint256"
        },
        {
          "internalType": "string",
          "name": "IpfsURI",
          "type": "string"
        }
      ],
      "stateMutability": "view",
      "type": "function"
    }
  ],
  "bytecode": "0x60806040523480156200001157600080fd5b50604051620010f9380380620010f983398181016040528101906200003791906200020a565b60005b8151811015620000f257600180600084848151811062000083577f4e487b7100000000000000000000000000000000000000000000000000000000600052603260045260246000fd5b602002602001015173ffffffffffffffffffffffffffffffffffffffff1673ffffffffffffffffffffffffffffffffffffffff16815260200190815260200160002060006101000a81548160ff0219169083151502179055508080620000e9906200031b565b9150506200003a565b5060018060003373ffffffffffffffffffffffffffffffffffffffff1673ffffffffffffffffffffffffffffffffffffffff16815260200190815260200160002060006101000a81548160ff02191690831515021790555050620003f2565b600062000168620001628462000278565b6200024f565b905080838252602082019050828560208602820111156200018857600080fd5b60005b85811015620001bc5781620001a18882620001c6565b8452602084019350602083019250506001810190506200018b565b5050509392505050565b600081519050620001d781620003d8565b92915050565b600082601f830112620001ef57600080fd5b81516200020184826020860162000151565b91505092915050565b6000602082840312156200021d57600080fd5b600082015167ffffffffffffffff8111156200023857600080fd5b6200024684828501620001dd565b91505092915050565b60006200025b6200026e565b9050620002698282620002e5565b919050565b6000604051905090565b600067ffffffffffffffff82111562000296576200029562000398565b5b602082029050602081019050919050565b6000620002b482620002bb565b9050919050565b600073ffffffffffffffffffffffffffffffffffffffff82169050919050565b6000819050919050565b620002f082620003c7565b810181811067ffffffffffffffff8211171562000312576200031162000398565b5b80604052505050565b60006200032882620002db565b91507fffffffffffffffffffffffffffffffffffffffffffffffffffffffffffffffff8214156200035e576200035d62000369565b5b600182019050919050565b7f4e487b7100000000000000000000000000000000000000000000000000000000600052601160045260246000fd5b7f4e487b7100000000000000000000000000000000000000000000000000000000600052604160045260246000fd5b6000601f19601f8301169050919050565b620003e381620002a7565b8114620003ef57600080fd5b50565b610cf780620004026000396000f3fe608060405234801561001057600080fd5b506004361061004c5760003560e01c8063013cf08b1461005157806315373e3d1461008757806378574161146100a3578063da35c664146100bf575b600080fd5b61006b600480360381019061006691906108f3565b6100dd565b60405161007e9796959493929190610a41565b60405180910390f35b6100a1600480360381019061009c919061091c565b61025f565b005b6100bd60048036038101906100b89190610858565b6105f3565b005b6100c7610735565b6040516100d49190610abe565b60405180910390f35b600081815481106100ed57600080fd5b90600052602060002090600802016000915090508060000160009054906101000a900473ffffffffffffffffffffffffffffffffffffffff169080600101805461013690610ba9565b80601f016020809104026020016040519081016040528092919081815260200182805461016290610ba9565b80156101af5780601f10610184576101008083540402835291602001916101af565b820191906000526020600020905b81548152906001019060200180831161019257829003601f168201915b5050505050908060020154908060030154908060040154908060050154908060060180546101dc90610ba9565b80601f016020809104026020016040519081016040528092919081815260200182805461020890610ba9565b80156102555780601f1061022a57610100808354040283529160200191610255565b820191906000526020600020905b81548152906001019060200180831161023857829003601f168201915b5050505050905087565b600160003373ffffffffffffffffffffffffffffffffffffffff1673ffffffffffffffffffffffffffffffffffffffff16815260200190815260200160002060009054906101000a900460ff166102b557600080fd5b60008083815481106102f0577f4e487b7100000000000000000000000000000000000000000000000000000000600052603260045260246000fd5b906000526020600020906008020190506001600281111561033a577f4e487b7100000000000000000000000000000000000000000000000000000000600052602160045260246000fd5b8160070160003373ffffffffffffffffffffffffffffffffffffffff1673ffffffffffffffffffffffffffffffffffffffff16815260200190815260200160002060009054906101000a900460ff1660028111156103c1577f4e487b7100000000000000000000000000000000000000000000000000000000600052602160045260246000fd5b14156103e2578060020160008154809291906103dc90610b7f565b91905055505b60028081111561041b577f4e487b7100000000000000000000000000000000000000000000000000000000600052602160045260246000fd5b8160070160003373ffffffffffffffffffffffffffffffffffffffff1673ffffffffffffffffffffffffffffffffffffffff16815260200190815260200160002060009054906101000a900460ff1660028111156104a2577f4e487b7100000000000000000000000000000000000000000000000000000000600052602160045260246000fd5b14156104c3578060030160008154809291906104bd90610b7f565b91905055505b81156104e8578060020160008154809291906104de90610bdb565b9190505550610503565b8060030160008154809291906104fd90610bdb565b91905055505b8161050f576002610512565b60015b8160070160003373ffffffffffffffffffffffffffffffffffffffff1673ffffffffffffffffffffffffffffffffffffffff16815260200190815260200160002060006101000a81548160ff0219169083600281111561059b577f4e487b7100000000000000000000000000000000000000000000000000000000600052602160045260246000fd5b02179055503373ffffffffffffffffffffffffffffffffffffffff167ff1003b73c437642c0460aee9cd9628b0b8c447b66e6c7c905531b9c644214a11846040516105e69190610abe565b60405180910390a2505050565b600160003373ffffffffffffffffffffffffffffffffffffffff1673ffffffffffffffffffffffffffffffffffffffff16815260200190815260200160002060009054906101000a900460ff1661064957600080fd5b6000806001816001815401808255809150500390600052602060002090600802019050338160000160006101000a81548173ffffffffffffffffffffffffffffffffffffffff021916908373ffffffffffffffffffffffffffffffffffffffff16021790555086868260010191906106c2929190610741565b5082816004018190555081816005018190555084848260060191906106e8929190610741565b507f4c9d0f864712d0ec2ea4a5170cad42d17fcd9ed25339c9f9aa97d6f8688e574833888886868a8a60405161072497969594939291906109dc565b60405180910390a150505050505050565b60008080549050905090565b82805461074d90610ba9565b90600052602060002090601f01602090048101928261076f57600085556107b6565b82601f1061078857803560ff19168380011785556107b6565b828001600101855582156107b6579182015b828111156107b557823582559160200191906001019061079a565b5b5090506107c391906107c7565b5090565b5b808211156107e05760008160009055506001016107c8565b5090565b6000813590506107f381610c93565b92915050565b60008083601f84011261080b57600080fd5b8235905067ffffffffffffffff81111561082457600080fd5b60208301915083600182028301111561083c57600080fd5b9250929050565b60008135905061085281610caa565b92915050565b6000806000806000806080878903121561087157600080fd5b600087013567ffffffffffffffff81111561088b57600080fd5b61089789828a016107f9565b9650965050602087013567ffffffffffffffff8111156108b657600080fd5b6108c289828a016107f9565b945094505060406108d589828a01610843565b92505060606108e689828a01610843565b9150509295509295509295565b60006020828403121561090557600080fd5b600061091384828501610843565b91505092915050565b6000806040838503121561092f57600080fd5b600061093d85828601610843565b925050602061094e858286016107e4565b9150509250929050565b61096181610af5565b82525050565b60006109738385610ae4565b9350610980838584610b3d565b61098983610c82565b840190509392505050565b600061099f82610ad9565b6109a98185610ae4565b93506109b9818560208601610b4c565b6109c281610c82565b840191505092915050565b6109d681610b33565b82525050565b600060a0820190506109f1600083018a610958565b8181036020830152610a0481888a610967565b9050610a1360408301876109cd565b610a2060608301866109cd565b8181036080830152610a33818486610967565b905098975050505050505050565b600060e082019050610a56600083018a610958565b8181036020830152610a688189610994565b9050610a7760408301886109cd565b610a8460608301876109cd565b610a9160808301866109cd565b610a9e60a08301856109cd565b81810360c0830152610ab08184610994565b905098975050505050505050565b6000602082019050610ad360008301846109cd565b92915050565b600081519050919050565b600082825260208201905092915050565b6000610b0082610b13565b9050919050565b60008115159050919050565b600073ffffffffffffffffffffffffffffffffffffffff82169050919050565b6000819050919050565b82818337600083830152505050565b60005b83811015610b6a578082015181840152602081019050610b4f565b83811115610b79576000848401525b50505050565b6000610b8a82610b33565b91506000821415610b9e57610b9d610c24565b5b600182039050919050565b60006002820490506001821680610bc157607f821691505b60208210811415610bd557610bd4610c53565b5b50919050565b6000610be682610b33565b91507fffffffffffffffffffffffffffffffffffffffffffffffffffffffffffffffff821415610c1957610c18610c24565b5b600182019050919050565b7f4e487b7100000000000000000000000000000000000000000000000000000000600052601160045260246000fd5b7f4e487b7100000000000000000000000000000000000000000000000000000000600052602260045260246000fd5b6000601f19601f8301169050919050565b610c9c81610b07565b8114610ca757600080fd5b50565b610cb381610b33565b8114610cbe57600080fd5b5056fea2646970667358221220f0c671235863351aa84dee178503a6e889437a8ca69f31cdf6771c23db59f2b464736f6c63430008040033",
  "linkReferences": {},
  "deployedLinkReferences": {}
}