{
  "_format": "hh-sol-artifact-1",
  "contractName": "OmVoting",
  "sourceName": "contracts/OmVoting.sol",
  "abi": [
    {
      "inputs": [],
      "stateMutability": "nonpayable",
      "type": "constructor"
    },
    {
      "anonymous": false,
      "inputs": [
        {
          "indexed": true,
          "internalType": "uint256",
          "name": "groupId",
          "type": "uint256"
        },
        {
          "indexed": false,
          "internalType": "string",
          "name": "daoName",
          "type": "string"
        }
      ],
      "name": "DaoCreated",
      "type": "event"
    },
    {
      "anonymous": false,
      "inputs": [
        {
          "indexed": true,
          "internalType": "uint256",
          "name": "groupId",
          "type": "uint256"
        },
        {
          "indexed": false,
          "internalType": "uint256",
          "name": "proposalId",
          "type": "uint256"
        },
        {
          "indexed": false,
          "internalType": "string",
          "name": "question",
          "type": "string"
        },
        {
          "indexed": false,
          "internalType": "string",
          "name": "IpfsURI",
          "type": "string"
        }
      ],
      "name": "ProposalCreated",
      "type": "event"
    },
    {
      "anonymous": false,
      "inputs": [
        {
          "indexed": true,
          "internalType": "uint256",
          "name": "groupId",
          "type": "uint256"
        },
        {
          "indexed": false,
          "internalType": "uint256",
          "name": "proposalId",
          "type": "uint256"
        },
        {
          "indexed": false,
          "internalType": "bool",
          "name": "support",
          "type": "bool"
        }
      ],
      "name": "VoteCast",
      "type": "event"
    },
    {
      "inputs": [
        {
          "internalType": "uint256",
          "name": "groupId",
          "type": "uint256"
        },
        {
          "internalType": "uint256",
          "name": "proposalId",
          "type": "uint256"
        },
        {
          "internalType": "bool",
          "name": "support",
          "type": "bool"
        }
      ],
      "name": "castVote",
      "outputs": [],
      "stateMutability": "nonpayable",
      "type": "function"
    },
    {
      "inputs": [
        {
          "internalType": "string",
          "name": "daoName",
          "type": "string"
        },
        {
          "internalType": "address[]",
          "name": "_members",
          "type": "address[]"
        }
      ],
      "name": "createDao",
      "outputs": [],
      "stateMutability": "nonpayable",
      "type": "function"
    },
    {
      "inputs": [
        {
          "internalType": "uint256",
          "name": "",
          "type": "uint256"
        }
      ],
      "name": "daoGroups",
      "outputs": [
        {
          "internalType": "address",
          "name": "admin",
          "type": "address"
        },
        {
          "internalType": "uint256",
          "name": "members",
          "type": "uint256"
        },
        {
          "internalType": "uint256",
          "name": "nextProposal",
          "type": "uint256"
        },
        {
          "internalType": "uint256",
          "name": "votesToPass",
          "type": "uint256"
        }
      ],
      "stateMutability": "view",
      "type": "function"
    },
    {
      "inputs": [
        {
          "internalType": "uint256",
          "name": "",
          "type": "uint256"
        },
        {
          "internalType": "address",
          "name": "",
          "type": "address"
        }
      ],
      "name": "membersPerGroup",
      "outputs": [
        {
          "internalType": "bool",
          "name": "",
          "type": "bool"
        }
      ],
      "stateMutability": "view",
      "type": "function"
    },
    {
      "inputs": [
        {
          "internalType": "uint256",
          "name": "groupId",
          "type": "uint256"
        },
        {
          "internalType": "string",
          "name": "_question",
          "type": "string"
        },
        {
          "internalType": "string",
          "name": "_ipfsURI",
          "type": "string"
        }
      ],
      "name": "newProposal",
      "outputs": [],
      "stateMutability": "nonpayable",
      "type": "function"
    },
    {
      "inputs": [
        {
          "internalType": "uint256",
          "name": "",
          "type": "uint256"
        },
        {
          "internalType": "uint256",
          "name": "",
          "type": "uint256"
        }
      ],
      "name": "proposalsPerGroup",
      "outputs": [
        {
          "internalType": "address",
          "name": "creator",
          "type": "address"
        },
        {
          "internalType": "string",
          "name": "question",
          "type": "string"
        },
        {
          "internalType": "uint256",
          "name": "yesCount",
          "type": "uint256"
        },
        {
          "internalType": "uint256",
          "name": "noCount",
          "type": "uint256"
        },
        {
          "internalType": "uint256",
          "name": "StartDate",
          "type": "uint256"
        },
        {
          "internalType": "uint256",
          "name": "EndDate",
          "type": "uint256"
        },
        {
          "internalType": "string",
          "name": "IpfsURI",
          "type": "string"
        }
      ],
      "stateMutability": "view",
      "type": "function"
    }
  ],
  "bytecode": "0x6080604052600160005534801561001557600080fd5b5061145e806100256000396000f3fe608060405234801561001057600080fd5b50600436106100625760003560e01c80631edf0a73146100675780635114e07d1461009d5780637390399a146100cd578063ac05083a146100e9578063c40b34fc1461011c578063f9000ba814610138575b600080fd5b610081600480360381019061007c9190610dfa565b610154565b6040516100949796959493929190610f3b565b60405180910390f35b6100b760048036038101906100b29190610d35565b6102d3565b6040516100c49190610ffd565b60405180910390f35b6100e760048036038101906100e29190610ca0565b610302565b005b61010360048036038101906100fe9190610d0c565b610556565b6040516101139493929190610fb8565b60405180910390f35b61013660048036038101906101319190610d71565b6105a6565b005b610152600480360381019061014d9190610e36565b6108a0565b005b6003602052816000526040600020602052806000526040600020600091509150508060000160009054906101000a900473ffffffffffffffffffffffffffffffffffffffff16908060010180546101aa9061124a565b80601f01602080910402602001604051908101604052809291908181526020018280546101d69061124a565b80156102235780601f106101f857610100808354040283529160200191610223565b820191906000526020600020905b81548152906001019060200180831161020657829003601f168201915b5050505050908060020154908060030154908060040154908060050154908060060180546102509061124a565b80601f016020809104026020016040519081016040528092919081815260200182805461027c9061124a565b80156102c95780601f1061029e576101008083540402835291602001916102c9565b820191906000526020600020905b8154815290600101906020018083116102ac57829003601f168201915b5050505050905087565b60026020528160005260406000206020528060005260406000206000915091509054906101000a900460ff1681565b60008054905060008081548092919061031a906112ad565b91905055506103276109e5565b33816000019073ffffffffffffffffffffffffffffffffffffffff16908173ffffffffffffffffffffffffffffffffffffffff16815250506001816040018181525050806001600084815260200190815260200160002060008201518160000160006101000a81548173ffffffffffffffffffffffffffffffffffffffff021916908373ffffffffffffffffffffffffffffffffffffffff16021790555060208201518160010155604082015181600201556060820151816003015590505060005b83518110156104ae576001600260008581526020019081526020016000206000868481518110610442577f4e487b7100000000000000000000000000000000000000000000000000000000600052603260045260246000fd5b602002602001015173ffffffffffffffffffffffffffffffffffffffff1673ffffffffffffffffffffffffffffffffffffffff16815260200190815260200160002060006101000a81548160ff02191690831515021790555080806104a6906112ad565b9150506103e9565b5060016002600084815260200190815260200160002060003373ffffffffffffffffffffffffffffffffffffffff1673ffffffffffffffffffffffffffffffffffffffff16815260200190815260200160002060006101000a81548160ff021916908315150217905550817f26525a29cbce956d4c3e6d18fda50882426740bea57a54c7045b0d2fdb20c962856040516105489190611018565b60405180910390a250505050565b60016020528060005260406000206000915090508060000160009054906101000a900473ffffffffffffffffffffffffffffffffffffffff16908060010154908060020154908060030154905084565b6002600086815260200190815260200160002060003373ffffffffffffffffffffffffffffffffffffffff1673ffffffffffffffffffffffffffffffffffffffff16815260200190815260200160002060009054906101000a900460ff16610643576040517f08c379a000000000000000000000000000000000000000000000000000000000815260040161063a9061103a565b60405180910390fd5b600060016000878152602001908152602001600020600201549050610666610a23565b33816000019073ffffffffffffffffffffffffffffffffffffffff16908173ffffffffffffffffffffffffffffffffffffffff168152505085858080601f016020809104026020016040519081016040528093929190818152602001838380828437600081840152601f19601f8201169050808301925050505050505081602001819052504281608001818152505062093a8042610704919061116a565b8160a001818152505083838080601f016020809104026020016040519081016040528093929190818152602001838380828437600081840152601f19601f820116905080830192505050505050508160c001819052508060036000898152602001908152602001600020600084815260200190815260200160002060008201518160000160006101000a81548173ffffffffffffffffffffffffffffffffffffffff021916908373ffffffffffffffffffffffffffffffffffffffff16021790555060208201518160010190805190602001906107e2929190610a76565b5060408201518160020155606082015181600301556080820151816004015560a0820151816005015560c0820151816006019080519060200190610827929190610a76565b50905050600160008881526020019081526020016000206002016000815480929190610852906112ad565b9190505550867f8aa3726c073ad10851119cce89ee48b5936882a91c40c54862c9c3289ce7572f838888888860405161088f959493929190611083565b60405180910390a250505050505050565b6002600084815260200190815260200160002060003373ffffffffffffffffffffffffffffffffffffffff1673ffffffffffffffffffffffffffffffffffffffff16815260200190815260200160002060009054906101000a900460ff1661093d576040517f08c379a00000000000000000000000000000000000000000000000000000000081526004016109349061103a565b60405180910390fd5b60006003600085815260200190815260200160002060008481526020019081526020016000209050811561098a57806002016000815480929190610980906112ad565b91905055506109a5565b80600301600081548092919061099f906112ad565b91905055505b837fa071403561971b5037de93aebd0f95690808372d2f63965534e2c1b5486f2c6a84846040516109d792919061105a565b60405180910390a250505050565b6040518060800160405280600073ffffffffffffffffffffffffffffffffffffffff1681526020016000815260200160008152602001600081525090565b6040518060e00160405280600073ffffffffffffffffffffffffffffffffffffffff1681526020016060815260200160008152602001600081526020016000815260200160008152602001606081525090565b828054610a829061124a565b90600052602060002090601f016020900481019282610aa45760008555610aeb565b82601f10610abd57805160ff1916838001178555610aeb565b82800160010185558215610aeb579182015b82811115610aea578251825591602001919060010190610acf565b5b509050610af89190610afc565b5090565b5b80821115610b15576000816000905550600101610afd565b5090565b6000610b2c610b27846110f1565b6110cc565b90508083825260208201905082856020860282011115610b4b57600080fd5b60005b85811015610b7b5781610b618882610bc3565b845260208401935060208301925050600181019050610b4e565b5050509392505050565b6000610b98610b938461111d565b6110cc565b905082815260208101848484011115610bb057600080fd5b610bbb848285611208565b509392505050565b600081359050610bd2816113e3565b92915050565b600082601f830112610be957600080fd5b8135610bf9848260208601610b19565b91505092915050565b600081359050610c11816113fa565b92915050565b60008083601f840112610c2957600080fd5b8235905067ffffffffffffffff811115610c4257600080fd5b602083019150836001820283011115610c5a57600080fd5b9250929050565b600082601f830112610c7257600080fd5b8135610c82848260208601610b85565b91505092915050565b600081359050610c9a81611411565b92915050565b60008060408385031215610cb357600080fd5b600083013567ffffffffffffffff811115610ccd57600080fd5b610cd985828601610c61565b925050602083013567ffffffffffffffff811115610cf657600080fd5b610d0285828601610bd8565b9150509250929050565b600060208284031215610d1e57600080fd5b6000610d2c84828501610c8b565b91505092915050565b60008060408385031215610d4857600080fd5b6000610d5685828601610c8b565b9250506020610d6785828601610bc3565b9150509250929050565b600080600080600060608688031215610d8957600080fd5b6000610d9788828901610c8b565b955050602086013567ffffffffffffffff811115610db457600080fd5b610dc088828901610c17565b9450945050604086013567ffffffffffffffff811115610ddf57600080fd5b610deb88828901610c17565b92509250509295509295909350565b60008060408385031215610e0d57600080fd5b6000610e1b85828601610c8b565b9250506020610e2c85828601610c8b565b9150509250929050565b600080600060608486031215610e4b57600080fd5b6000610e5986828701610c8b565b9350506020610e6a86828701610c8b565b9250506040610e7b86828701610c02565b9150509250925092565b610e8e816111c0565b82525050565b610e9d816111d2565b82525050565b6000610eaf8385611159565b9350610ebc838584611208565b610ec583611383565b840190509392505050565b6000610edb8261114e565b610ee58185611159565b9350610ef5818560208601611217565b610efe81611383565b840191505092915050565b6000610f16602583611159565b9150610f2182611394565b604082019050919050565b610f35816111fe565b82525050565b600060e082019050610f50600083018a610e85565b8181036020830152610f628189610ed0565b9050610f716040830188610f2c565b610f7e6060830187610f2c565b610f8b6080830186610f2c565b610f9860a0830185610f2c565b81810360c0830152610faa8184610ed0565b905098975050505050505050565b6000608082019050610fcd6000830187610e85565b610fda6020830186610f2c565b610fe76040830185610f2c565b610ff46060830184610f2c565b95945050505050565b60006020820190506110126000830184610e94565b92915050565b600060208201905081810360008301526110328184610ed0565b905092915050565b6000602082019050818103600083015261105381610f09565b9050919050565b600060408201905061106f6000830185610f2c565b61107c6020830184610e94565b9392505050565b60006060820190506110986000830188610f2c565b81810360208301526110ab818688610ea3565b905081810360408301526110c0818486610ea3565b90509695505050505050565b60006110d66110e7565b90506110e2828261127c565b919050565b6000604051905090565b600067ffffffffffffffff82111561110c5761110b611354565b5b602082029050602081019050919050565b600067ffffffffffffffff82111561113857611137611354565b5b61114182611383565b9050602081019050919050565b600081519050919050565b600082825260208201905092915050565b6000611175826111fe565b9150611180836111fe565b9250827fffffffffffffffffffffffffffffffffffffffffffffffffffffffffffffffff038211156111b5576111b46112f6565b5b828201905092915050565b60006111cb826111de565b9050919050565b60008115159050919050565b600073ffffffffffffffffffffffffffffffffffffffff82169050919050565b6000819050919050565b82818337600083830152505050565b60005b8381101561123557808201518184015260208101905061121a565b83811115611244576000848401525b50505050565b6000600282049050600182168061126257607f821691505b6020821081141561127657611275611325565b5b50919050565b61128582611383565b810181811067ffffffffffffffff821117156112a4576112a3611354565b5b80604052505050565b60006112b8826111fe565b91507fffffffffffffffffffffffffffffffffffffffffffffffffffffffffffffffff8214156112eb576112ea6112f6565b5b600182019050919050565b7f4e487b7100000000000000000000000000000000000000000000000000000000600052601160045260246000fd5b7f4e487b7100000000000000000000000000000000000000000000000000000000600052602260045260246000fd5b7f4e487b7100000000000000000000000000000000000000000000000000000000600052604160045260246000fd5b6000601f19601f8301169050919050565b7f41646472657373206973206e6f742061206d656d626572206f6620746869732060008201527f67726f7570000000000000000000000000000000000000000000000000000000602082015250565b6113ec816111c0565b81146113f757600080fd5b50565b611403816111d2565b811461140e57600080fd5b50565b61141a816111fe565b811461142557600080fd5b5056fea2646970667358221220ddcaf93228ebfed01efa225854d9b18ce15841549b3ab549d6d2588e501664c764736f6c63430008040033",
  "linkReferences": {},
  "deployedLinkReferences": {}
}