{
  "_format": "hh-sol-artifact-1",
  "contractName": "OmContract",
  "sourceName": "contracts/OmContract.sol",
  "abi": [
    {
      "inputs": [
        {
          "components": [
            {
              "internalType": "address",
              "name": "contractAddress",
              "type": "address"
            },
            {
              "internalType": "uint8",
              "name": "merkleTreeDepth",
              "type": "uint8"
            }
          ],
          "internalType": "struct OmContract.Verifier[]",
          "name": "_verifiers",
          "type": "tuple[]"
        }
      ],
      "stateMutability": "nonpayable",
      "type": "constructor"
    },
    {
      "anonymous": false,
      "inputs": [
        {
          "indexed": true,
          "internalType": "uint256",
          "name": "dataId",
          "type": "uint256"
        },
        {
          "components": [
            {
              "internalType": "string",
              "name": "title",
              "type": "string"
            },
            {
              "internalType": "address",
              "name": "dataOwner",
              "type": "address"
            },
            {
              "internalType": "uint256",
              "name": "addedDate",
              "type": "uint256"
            },
            {
              "internalType": "string",
              "name": "dataURI",
              "type": "string"
            },
            {
              "internalType": "string",
              "name": "fileURI",
              "type": "string"
            },
            {
              "internalType": "uint256",
              "name": "groupId",
              "type": "uint256"
            },
            {
              "internalType": "uint256",
              "name": "dataType",
              "type": "uint256"
            },
            {
              "internalType": "string",
              "name": "symmetricKey",
              "type": "string"
            }
          ],
          "indexed": false,
          "internalType": "struct OmContract.dataStructure",
          "name": "dataInfos",
          "type": "tuple"
        }
      ],
      "name": "DataAdded",
      "type": "event"
    },
    {
      "anonymous": false,
      "inputs": [
        {
          "indexed": true,
          "internalType": "uint256",
          "name": "groupId",
          "type": "uint256"
        },
        {
          "indexed": false,
          "internalType": "uint8",
          "name": "depth",
          "type": "uint8"
        },
        {
          "indexed": false,
          "internalType": "uint256",
          "name": "zeroValue",
          "type": "uint256"
        }
      ],
      "name": "GroupCreated",
      "type": "event"
    },
    {
      "anonymous": false,
      "inputs": [
        {
          "indexed": true,
          "internalType": "uint256",
          "name": "groupId",
          "type": "uint256"
        },
        {
          "indexed": false,
          "internalType": "uint256",
          "name": "identityCommitment",
          "type": "uint256"
        },
        {
          "indexed": false,
          "internalType": "uint256",
          "name": "root",
          "type": "uint256"
        }
      ],
      "name": "MemberAdded",
      "type": "event"
    },
    {
      "anonymous": false,
      "inputs": [
        {
          "indexed": true,
          "internalType": "uint256",
          "name": "groupId",
          "type": "uint256"
        },
        {
          "indexed": false,
          "internalType": "uint256",
          "name": "identityCommitment",
          "type": "uint256"
        },
        {
          "indexed": false,
          "internalType": "uint256",
          "name": "root",
          "type": "uint256"
        }
      ],
      "name": "MemberRemoved",
      "type": "event"
    },
    {
      "anonymous": false,
      "inputs": [
        {
          "indexed": false,
          "internalType": "uint256",
          "name": "nullifierHash",
          "type": "uint256"
        }
      ],
      "name": "NullifierHashAdded",
      "type": "event"
    },
    {
      "anonymous": false,
      "inputs": [
        {
          "indexed": true,
          "internalType": "uint256",
          "name": "groupId",
          "type": "uint256"
        },
        {
          "indexed": false,
          "internalType": "address",
          "name": "admin",
          "type": "address"
        }
      ],
      "name": "OmGroupCreated",
      "type": "event"
    },
    {
      "anonymous": false,
      "inputs": [
        {
          "indexed": true,
          "internalType": "uint256",
          "name": "groupId",
          "type": "uint256"
        },
        {
          "indexed": true,
          "internalType": "uint256",
          "name": "memberID",
          "type": "uint256"
        }
      ],
      "name": "OmMemberAdded",
      "type": "event"
    },
    {
      "anonymous": false,
      "inputs": [
        {
          "indexed": true,
          "internalType": "uint256",
          "name": "groupId",
          "type": "uint256"
        },
        {
          "indexed": true,
          "internalType": "uint256",
          "name": "memberID",
          "type": "uint256"
        }
      ],
      "name": "OmMemberRemoved",
      "type": "event"
    },
    {
      "anonymous": false,
      "inputs": [
        {
          "indexed": true,
          "internalType": "uint256",
          "name": "groupId",
          "type": "uint256"
        },
        {
          "indexed": false,
          "internalType": "bytes32",
          "name": "signal",
          "type": "bytes32"
        }
      ],
      "name": "ProofVerified",
      "type": "event"
    },
    {
      "anonymous": false,
      "inputs": [
        {
          "indexed": false,
          "internalType": "uint256",
          "name": "groupId",
          "type": "uint256"
        },
        {
          "indexed": true,
          "internalType": "uint256",
          "name": "proposalCounter",
          "type": "uint256"
        },
        {
          "components": [
            {
              "internalType": "string",
              "name": "title",
              "type": "string"
            },
            {
              "internalType": "string",
              "name": "description",
              "type": "string"
            },
            {
              "internalType": "uint256",
              "name": "yesCount",
              "type": "uint256"
            },
            {
              "internalType": "uint256",
              "name": "noCount",
              "type": "uint256"
            },
            {
              "internalType": "uint256",
              "name": "StartDate",
              "type": "uint256"
            },
            {
              "internalType": "uint256",
              "name": "EndDate",
              "type": "uint256"
            },
            {
              "internalType": "string",
              "name": "IpfsURI",
              "type": "string"
            }
          ],
          "indexed": false,
          "internalType": "struct OmContract.Proposal",
          "name": "proposalData",
          "type": "tuple"
        }
      ],
      "name": "ProposalCreated",
      "type": "event"
    },
    {
      "anonymous": false,
      "inputs": [
        {
          "indexed": true,
          "internalType": "uint256",
          "name": "groupId",
          "type": "uint256"
        },
        {
          "indexed": true,
          "internalType": "uint256",
          "name": "proposalId",
          "type": "uint256"
        },
        {
          "indexed": true,
          "internalType": "bool",
          "name": "vote",
          "type": "bool"
        }
      ],
      "name": "VoteCast",
      "type": "event"
    },
    {
      "inputs": [
        {
          "internalType": "uint256",
          "name": "",
          "type": "uint256"
        }
      ],
      "name": "ProposalList",
      "outputs": [
        {
          "internalType": "string",
          "name": "title",
          "type": "string"
        },
        {
          "internalType": "string",
          "name": "description",
          "type": "string"
        },
        {
          "internalType": "uint256",
          "name": "yesCount",
          "type": "uint256"
        },
        {
          "internalType": "uint256",
          "name": "noCount",
          "type": "uint256"
        },
        {
          "internalType": "uint256",
          "name": "StartDate",
          "type": "uint256"
        },
        {
          "internalType": "uint256",
          "name": "EndDate",
          "type": "uint256"
        },
        {
          "internalType": "string",
          "name": "IpfsURI",
          "type": "string"
        }
      ],
      "stateMutability": "view",
      "type": "function"
    },
    {
      "inputs": [
        {
          "internalType": "uint256",
          "name": "groupId",
          "type": "uint256"
        },
        {
          "internalType": "uint256",
          "name": "root",
          "type": "uint256"
        },
        {
          "internalType": "bytes32",
          "name": "signal",
          "type": "bytes32"
        },
        {
          "internalType": "uint256",
          "name": "nullifierHash",
          "type": "uint256"
        },
        {
          "internalType": "uint256",
          "name": "externalNullifier",
          "type": "uint256"
        },
        {
          "internalType": "uint256[8]",
          "name": "proof",
          "type": "uint256[8]"
        }
      ],
      "name": "accessData",
      "outputs": [
        {
          "internalType": "bool",
          "name": "",
          "type": "bool"
        }
      ],
      "stateMutability": "nonpayable",
      "type": "function"
    },
    {
      "inputs": [
        {
          "internalType": "string",
          "name": "title",
          "type": "string"
        },
        {
          "internalType": "string",
          "name": "dataURI",
          "type": "string"
        },
        {
          "internalType": "string",
          "name": "fileURI",
          "type": "string"
        },
        {
          "internalType": "uint256",
          "name": "dataType",
          "type": "uint256"
        },
        {
          "internalType": "string",
          "name": "symmetricKey",
          "type": "string"
        },
        {
          "internalType": "uint256",
          "name": "groupId",
          "type": "uint256"
        },
        {
          "internalType": "uint256",
          "name": "root",
          "type": "uint256"
        },
        {
          "internalType": "bytes32",
          "name": "signal",
          "type": "bytes32"
        },
        {
          "internalType": "uint256",
          "name": "nullifierHash",
          "type": "uint256"
        },
        {
          "internalType": "uint256",
          "name": "externalNullifier",
          "type": "uint256"
        },
        {
          "internalType": "uint256[8]",
          "name": "proof",
          "type": "uint256[8]"
        }
      ],
      "name": "addData",
      "outputs": [],
      "stateMutability": "nonpayable",
      "type": "function"
    },
    {
      "inputs": [
        {
          "internalType": "uint256",
          "name": "groupId",
          "type": "uint256"
        },
        {
          "internalType": "uint256",
          "name": "identityCommitment",
          "type": "uint256"
        }
      ],
      "name": "addMember",
      "outputs": [],
      "stateMutability": "nonpayable",
      "type": "function"
    },
    {
      "inputs": [
        {
          "internalType": "uint256",
          "name": "",
          "type": "uint256"
        }
      ],
      "name": "canGroupAddData",
      "outputs": [
        {
          "internalType": "bool",
          "name": "",
          "type": "bool"
        }
      ],
      "stateMutability": "view",
      "type": "function"
    },
    {
      "inputs": [
        {
          "internalType": "uint256",
          "name": "",
          "type": "uint256"
        }
      ],
      "name": "canGroupPropose",
      "outputs": [
        {
          "internalType": "bool",
          "name": "",
          "type": "bool"
        }
      ],
      "stateMutability": "view",
      "type": "function"
    },
    {
      "inputs": [
        {
          "internalType": "uint256",
          "name": "groupId",
          "type": "uint256"
        },
        {
          "internalType": "uint256",
          "name": "root",
          "type": "uint256"
        },
        {
          "internalType": "bool",
          "name": "vote",
          "type": "bool"
        },
        {
          "internalType": "uint256",
          "name": "nullifierHash",
          "type": "uint256"
        },
        {
          "internalType": "uint256",
          "name": "externalNullifierProposalId",
          "type": "uint256"
        },
        {
          "internalType": "bytes32",
          "name": "signal",
          "type": "bytes32"
        },
        {
          "internalType": "uint256[8]",
          "name": "proof",
          "type": "uint256[8]"
        }
      ],
      "name": "castVote",
      "outputs": [],
      "stateMutability": "nonpayable",
      "type": "function"
    },
    {
      "inputs": [
        {
          "internalType": "uint8",
          "name": "depth",
          "type": "uint8"
        },
        {
          "internalType": "uint256",
          "name": "zeroValue",
          "type": "uint256"
        },
        {
          "internalType": "address",
          "name": "admin",
          "type": "address"
        },
        {
          "internalType": "bool",
          "name": "canPropose",
          "type": "bool"
        },
        {
          "internalType": "bool",
          "name": "canAddData",
          "type": "bool"
        }
      ],
      "name": "createGroup",
      "outputs": [],
      "stateMutability": "nonpayable",
      "type": "function"
    },
    {
      "inputs": [
        {
          "internalType": "string",
          "name": "title",
          "type": "string"
        },
        {
          "internalType": "string",
          "name": "description",
          "type": "string"
        },
        {
          "internalType": "uint256",
          "name": "root",
          "type": "uint256"
        },
        {
          "internalType": "uint256",
          "name": "startDate",
          "type": "uint256"
        },
        {
          "internalType": "uint256",
          "name": "endDate",
          "type": "uint256"
        },
        {
          "internalType": "string",
          "name": "proposalURI",
          "type": "string"
        },
        {
          "internalType": "uint256",
          "name": "groupId",
          "type": "uint256"
        },
        {
          "internalType": "bytes32",
          "name": "signal",
          "type": "bytes32"
        },
        {
          "internalType": "uint256",
          "name": "nullifierHash",
          "type": "uint256"
        },
        {
          "internalType": "uint256",
          "name": "externalNullifier",
          "type": "uint256"
        },
        {
          "internalType": "uint256[8]",
          "name": "proof",
          "type": "uint256[8]"
        }
      ],
      "name": "createProposal",
      "outputs": [],
      "stateMutability": "nonpayable",
      "type": "function"
    },
    {
      "inputs": [],
      "name": "dataFileCounter",
      "outputs": [
        {
          "internalType": "uint256",
          "name": "",
          "type": "uint256"
        }
      ],
      "stateMutability": "view",
      "type": "function"
    },
    {
      "inputs": [
        {
          "internalType": "uint256",
          "name": "",
          "type": "uint256"
        }
      ],
      "name": "dataList",
      "outputs": [
        {
          "internalType": "string",
          "name": "title",
          "type": "string"
        },
        {
          "internalType": "address",
          "name": "dataOwner",
          "type": "address"
        },
        {
          "internalType": "uint256",
          "name": "addedDate",
          "type": "uint256"
        },
        {
          "internalType": "string",
          "name": "dataURI",
          "type": "string"
        },
        {
          "internalType": "string",
          "name": "fileURI",
          "type": "string"
        },
        {
          "internalType": "uint256",
          "name": "groupId",
          "type": "uint256"
        },
        {
          "internalType": "uint256",
          "name": "dataType",
          "type": "uint256"
        },
        {
          "internalType": "string",
          "name": "symmetricKey",
          "type": "string"
        }
      ],
      "stateMutability": "view",
      "type": "function"
    },
    {
      "inputs": [
        {
          "internalType": "uint256",
          "name": "groupId",
          "type": "uint256"
        }
      ],
      "name": "getDepth",
      "outputs": [
        {
          "internalType": "uint8",
          "name": "",
          "type": "uint8"
        }
      ],
      "stateMutability": "view",
      "type": "function"
    },
    {
      "inputs": [
        {
          "internalType": "uint256",
          "name": "groupId",
          "type": "uint256"
        }
      ],
      "name": "getNumberOfLeaves",
      "outputs": [
        {
          "internalType": "uint256",
          "name": "",
          "type": "uint256"
        }
      ],
      "stateMutability": "view",
      "type": "function"
    },
    {
      "inputs": [
        {
          "internalType": "uint256",
          "name": "proposalId",
          "type": "uint256"
        }
      ],
      "name": "getProposalData",
      "outputs": [
        {
          "components": [
            {
              "internalType": "string",
              "name": "title",
              "type": "string"
            },
            {
              "internalType": "string",
              "name": "description",
              "type": "string"
            },
            {
              "internalType": "uint256",
              "name": "yesCount",
              "type": "uint256"
            },
            {
              "internalType": "uint256",
              "name": "noCount",
              "type": "uint256"
            },
            {
              "internalType": "uint256",
              "name": "StartDate",
              "type": "uint256"
            },
            {
              "internalType": "uint256",
              "name": "EndDate",
              "type": "uint256"
            },
            {
              "internalType": "string",
              "name": "IpfsURI",
              "type": "string"
            }
          ],
          "internalType": "struct OmContract.Proposal",
          "name": "ProposalData",
          "type": "tuple"
        }
      ],
      "stateMutability": "view",
      "type": "function"
    },
    {
      "inputs": [
        {
          "internalType": "uint256",
          "name": "groupId",
          "type": "uint256"
        }
      ],
      "name": "getRoot",
      "outputs": [
        {
          "internalType": "uint256",
          "name": "",
          "type": "uint256"
        }
      ],
      "stateMutability": "view",
      "type": "function"
    },
    {
      "inputs": [
        {
          "internalType": "uint256",
          "name": "",
          "type": "uint256"
        }
      ],
      "name": "groupAdmins",
      "outputs": [
        {
          "internalType": "address",
          "name": "",
          "type": "address"
        }
      ],
      "stateMutability": "view",
      "type": "function"
    },
    {
      "inputs": [],
      "name": "groupCounter",
      "outputs": [
        {
          "internalType": "uint256",
          "name": "",
          "type": "uint256"
        }
      ],
      "stateMutability": "view",
      "type": "function"
    },
    {
      "inputs": [
        {
          "internalType": "uint256",
          "name": "",
          "type": "uint256"
        },
        {
          "internalType": "uint256",
          "name": "",
          "type": "uint256"
        }
      ],
      "name": "groupMembership",
      "outputs": [
        {
          "internalType": "uint256",
          "name": "",
          "type": "uint256"
        }
      ],
      "stateMutability": "view",
      "type": "function"
    },
    {
      "inputs": [],
      "name": "owner",
      "outputs": [
        {
          "internalType": "address",
          "name": "",
          "type": "address"
        }
      ],
      "stateMutability": "view",
      "type": "function"
    },
    {
      "inputs": [],
      "name": "proposalCounter",
      "outputs": [
        {
          "internalType": "uint256",
          "name": "",
          "type": "uint256"
        }
      ],
      "stateMutability": "view",
      "type": "function"
    },
    {
      "inputs": [
        {
          "internalType": "uint256",
          "name": "groupId",
          "type": "uint256"
        },
        {
          "internalType": "uint256",
          "name": "identityCommitment",
          "type": "uint256"
        },
        {
          "internalType": "uint256[]",
          "name": "proofSiblings",
          "type": "uint256[]"
        },
        {
          "internalType": "uint8[]",
          "name": "proofPathIndices",
          "type": "uint8[]"
        }
      ],
      "name": "removeMember",
      "outputs": [],
      "stateMutability": "nonpayable",
      "type": "function"
    },
    {
      "inputs": [
        {
          "internalType": "uint8",
          "name": "",
          "type": "uint8"
        }
      ],
      "name": "verifiers",
      "outputs": [
        {
          "internalType": "contract IVerifier",
          "name": "",
          "type": "address"
        }
      ],
      "stateMutability": "view",
      "type": "function"
    },
    {
      "inputs": [
        {
          "internalType": "uint256",
          "name": "groupId",
          "type": "uint256"
        },
        {
          "internalType": "bytes32",
          "name": "signal",
          "type": "bytes32"
        },
        {
          "internalType": "uint256",
          "name": "root",
          "type": "uint256"
        },
        {
          "internalType": "uint256",
          "name": "nullifierHash",
          "type": "uint256"
        },
        {
          "internalType": "uint256",
          "name": "externalNullifier",
          "type": "uint256"
        },
        {
          "internalType": "uint256[8]",
          "name": "proof",
          "type": "uint256[8]"
        }
      ],
      "name": "verifyProof",
      "outputs": [],
      "stateMutability": "nonpayable",
      "type": "function"
    }
  ],
  "bytecode": "0x60806040523480156200001157600080fd5b506040516200470a3803806200470a833981810160405281019062000037919062000646565b60005b81518160ff1610156200014557818160ff168151811062000084577f4e487b7100000000000000000000000000000000000000000000000000000000600052603260045260246000fd5b60200260200101516000015160026000848460ff1681518110620000d1577f4e487b7100000000000000000000000000000000000000000000000000000000600052603260045260246000fd5b60200260200101516020015160ff1660ff16815260200190815260200160002060006101000a81548173ffffffffffffffffffffffffffffffffffffffff021916908373ffffffffffffffffffffffffffffffffffffffff16021790555080806200013c9062000981565b9150506200003a565b5033600960006101000a81548173ffffffffffffffffffffffffffffffffffffffff021916908373ffffffffffffffffffffffffffffffffffffffff1602179055506200019f6014600033600180620001a660201b60201c565b5062000b1a565b84600073ffffffffffffffffffffffffffffffffffffffff16600260008360ff1660ff16815260200190815260200160002060009054906101000a900473ffffffffffffffffffffffffffffffffffffffff1673ffffffffffffffffffffffffffffffffffffffff16141562000253576040517f08c379a00000000000000000000000000000000000000000000000000000000081526004016200024a906200079b565b60405180910390fd5b600a6000815480929190620002689062000933565b919050555062000282600a5487876200037460201b60201c565b8360036000600a54815260200190815260200160002060006101000a81548173ffffffffffffffffffffffffffffffffffffffff021916908373ffffffffffffffffffffffffffffffffffffffff1602179055508260046000600a54815260200190815260200160002060006101000a81548160ff0219169083151502179055508160056000600a54815260200190815260200160002060006101000a81548160ff021916908315150217905550600a547fcbe08648079192e9f7eeb443f35dd17cd3b02ee13d08a915e409228e8fb69729856040516200036491906200075c565b60405180910390a2505050505050565b7f30644e72e131a029b85045b68181585d2833e84879b9709143e1f593f00000018310620003d9576040517f08c379a0000000000000000000000000000000000000000000000000000000008152600401620003d090620007bd565b60405180910390fd5b6000620003ec84620004f660201b60201c565b60ff161462000432576040517f08c379a0000000000000000000000000000000000000000000000000000000008152600401620004299062000779565b60405180910390fd5b6001600084815260200190815260200160002073__$0c6eb7207c37accf1552a1c47686411ac0$__63b4bdd117909184846040518463ffffffff1660e01b81526004016200048393929190620007df565b60006040518083038186803b1580156200049c57600080fd5b505af4158015620004b1573d6000803e3d6000fd5b50505050827fc3082aa494e9088c2c9f0fb62a0b6bd46e6699acb94cfba35be29b95a93f68c88383604051620004e99291906200081c565b60405180910390a2505050565b60006001600083815260200190815260200160002060000160009054906101000a900460ff169050919050565b60006200053a620005348462000872565b62000849565b905080838252602082019050828560408602820111156200055a57600080fd5b60005b858110156200058e5781620005738882620005dc565b8452602084019350604083019250506001810190506200055d565b5050509392505050565b600081519050620005a98162000ae6565b92915050565b600082601f830112620005c157600080fd5b8151620005d384826020860162000523565b91505092915050565b600060408284031215620005ef57600080fd5b620005fb604062000849565b905060006200060d8482850162000598565b600083015250602062000623848285016200062f565b60208301525092915050565b600081519050620006408162000b00565b92915050565b6000602082840312156200065957600080fd5b600082015167ffffffffffffffff8111156200067457600080fd5b6200068284828501620005af565b91505092915050565b6200069681620008b2565b82525050565b6000620006ab602583620008a1565b9150620006b88262000a1f565b604082019050919050565b6000620006d2601b83620008a1565b9150620006df8262000a6e565b602082019050919050565b6000620006f9603683620008a1565b9150620007068262000a97565b604082019050919050565b8082525050565b6200072381620008e6565b82525050565b6200073481620008e6565b82525050565b6200074581620008f0565b82525050565b6200075681620008f0565b82525050565b60006020820190506200077360008301846200068b565b92915050565b6000602082019050818103600083015262000794816200069c565b9050919050565b60006020820190508181036000830152620007b681620006c3565b9050919050565b60006020820190508181036000830152620007d881620006ea565b9050919050565b6000606082019050620007f6600083018662000711565b6200080560208301856200074b565b62000814604083018462000729565b949350505050565b60006040820190506200083360008301856200073a565b62000842602083018462000718565b9392505050565b60006200085562000868565b9050620008638282620008fd565b919050565b6000604051905090565b600067ffffffffffffffff82111562000890576200088f620009df565b5b602082029050602081019050919050565b600082825260208201905092915050565b6000620008bf82620008c6565b9050919050565b600073ffffffffffffffffffffffffffffffffffffffff82169050919050565b6000819050919050565b600060ff82169050919050565b620009088262000a0e565b810181811067ffffffffffffffff821117156200092a5762000929620009df565b5b80604052505050565b60006200094082620008e6565b91507fffffffffffffffffffffffffffffffffffffffffffffffffffffffffffffffff821415620009765762000975620009b0565b5b600182019050919050565b60006200098e82620008f0565b915060ff821415620009a557620009a4620009b0565b5b600182019050919050565b7f4e487b7100000000000000000000000000000000000000000000000000000000600052601160045260246000fd5b7f4e487b7100000000000000000000000000000000000000000000000000000000600052604160045260246000fd5b6000601f19601f8301169050919050565b7f53656d6170686f726547726f7570733a2067726f757020616c7265616479206560008201527f7869737473000000000000000000000000000000000000000000000000000000602082015250565b7f54726565206465707468206973206e6f7420737570706f727465640000000000600082015250565b7f53656d6170686f726547726f7570733a2067726f7570206964206d757374206260008201527f65203c20534e41524b5f5343414c41525f4649454c4400000000000000000000602082015250565b62000af181620008b2565b811462000afd57600080fd5b50565b62000b0b81620008f0565b811462000b1757600080fd5b50565b613be08062000b2a6000396000f3fe608060405234801561001057600080fd5b506004361061014d5760003560e01c806375e618c9116100c3578063b9c78c2b1161007c578063b9c78c2b14610409578063d24924fe14610439578063db22151e14610457578063e63ac69e14610473578063f82ac0571461048f578063fc0f9425146104ab5761014d565b806375e618c914610308578063856dc14a146103385780638da5cb5b146103545780639b24b3b014610372578063ac28eacd146103a2578063af4a74cf146103d25761014d565b806337fce1981161011557806337fce198146102225780633fe29e2c1461025257806343989f85146102705780636bf5e4311461028c5780636e768530146102a8578063746ea5b9146102d85761014d565b806305874565146101525780630c0512e9146101885780630dc80cf5146101a65780631783efc3146101d65780632d69be98146101f2575b600080fd5b61016c600480360381019061016791906124fb565b6104db565b60405161017f9796959493929190613190565b60405180910390f35b6101906106b5565b60405161019d919061344f565b60405180910390f35b6101c060048036038101906101bb91906124fb565b6106bb565b6040516101cd91906130a5565b60405180910390f35b6101f060048036038101906101eb91906125ae565b6106db565b005b61020c600480360381019061020791906127ae565b610751565b60405161021991906130db565b60405180910390f35b61023c600480360381019061023791906125ae565b610784565b604051610249919061344f565b60405180910390f35b61025a6107b5565b604051610267919061344f565b60405180910390f35b61028a600480360381019061028591906125ea565b6107bb565b005b6102a660048036038101906102a19190612273565b610839565b005b6102c260048036038101906102bd91906124fb565b610b98565b6040516102cf919061340b565b60405180910390f35b6102f260048036038101906102ed9190612724565b610da3565b6040516102ff91906130a5565b60405180910390f35b610322600480360381019061031d91906124fb565b610e95565b60405161032f91906134c3565b60405180910390f35b610352600480360381019061034d91906123c3565b610ec2565b005b61035c61110e565b6040516103699190613043565b60405180910390f35b61038c600480360381019061038791906124fb565b611134565b604051610399919061344f565b60405180910390f35b6103bc60048036038101906103b791906124fb565b611154565b6040516103c99190613043565b60405180910390f35b6103ec60048036038101906103e791906124fb565b611187565b6040516104009897969594939291906130f6565b60405180910390f35b610423600480360381019061041e91906124fb565b61140f565b604051610430919061344f565b60405180910390f35b61044161142f565b60405161044e919061344f565b60405180910390f35b610471600480360381019061046c91906127d7565b611435565b005b61048d60048036038101906104889190612524565b6115f4565b005b6104a960048036038101906104a49190612685565b6116df565b005b6104c560048036038101906104c091906124fb565b611888565b6040516104d291906130a5565b60405180910390f35b60076020528060005260406000206000915090508060000180546104fe90613770565b80601f016020809104026020016040519081016040528092919081815260200182805461052a90613770565b80156105775780601f1061054c57610100808354040283529160200191610577565b820191906000526020600020905b81548152906001019060200180831161055a57829003601f168201915b50505050509080600101805461058c90613770565b80601f01602080910402602001604051908101604052809291908181526020018280546105b890613770565b80156106055780601f106105da57610100808354040283529160200191610605565b820191906000526020600020905b8154815290600101906020018083116105e857829003601f168201915b50505050509080600201549080600301549080600401549080600501549080600601805461063290613770565b80601f016020809104026020016040519081016040528092919081815260200182805461065e90613770565b80156106ab5780601f10610680576101008083540402835291602001916106ab565b820191906000526020600020905b81548152906001019060200180831161068e57829003601f168201915b5050505050905087565b600b5481565b60056020528060005260406000206000915054906101000a900460ff1681565b6106e582826118a8565b600c600082815260200190815260200160002082908060018154018082558091505060019003906000526020600020016000909190919091505580827fa6261b03033da26c67d0314ecedbe543df22d5c1dded351f9cc7257432a342dc60405160405180910390a35050565b60026020528060005260406000206000915054906101000a900473ffffffffffffffffffffffffffffffffffffffff1681565b600c60205281600052604060002081815481106107a057600080fd5b90600052602060002001600091509150505481565b60085481565b6107c98686868686866119c0565b600c600086815260200190815260200160002086908060018154018082558091505060019003906000526020600020016000909190919091505584867fd6d227d0653303d5e4a8229d6fa7ee4f5690ea621c4f97677237f2a6a93cc3bd60405160405180910390a3505050505050565b600061084487610e95565b905060008160ff16141561088d576040517f08c379a0000000000000000000000000000000000000000000000000000000008152600401610884906132f4565b60405180910390fd5b6005600088815260200190815260200160002060009054906101000a900460ff166108ed576040517f08c379a00000000000000000000000000000000000000000000000000000000081526004016108e490613314565b60405180910390fd5b6000600260008360ff1660ff16815260200190815260200160002060009054906101000a900473ffffffffffffffffffffffffffffffffffffffff169050600073ffffffffffffffffffffffffffffffffffffffff16600260008460ff1660ff16815260200190815260200160002060009054906101000a900473ffffffffffffffffffffffffffffffffffffffff1673ffffffffffffffffffffffffffffffffffffffff1614156109d4576040517f08c379a00000000000000000000000000000000000000000000000000000000081526004016109cb90613294565b60405180910390fd5b6109e2868887878786611ae4565b600860008154809291906109f590613807565b91905055506040518061010001604052808e81526020013373ffffffffffffffffffffffffffffffffffffffff1681526020014281526020018d81526020018c81526020018981526020018b81526020018a8152506006600060085481526020019081526020016000206000820151816000019080519060200190610a7b929190612010565b5060208201518160010160006101000a81548173ffffffffffffffffffffffffffffffffffffffff021916908373ffffffffffffffffffffffffffffffffffffffff160217905550604082015181600201556060820151816003019080519060200190610ae9929190612010565b506080820151816004019080519060200190610b06929190612010565b5060a0820151816005015560c0820151816006015560e0820151816007019080519060200190610b37929190612010565b509050506008547fbcc413e3626de2301c941445268450e95360b68912bafa846e3906de3b27f672600660006008548152602001908152602001600020604051610b81919061342d565b60405180910390a250505050505050505050505050565b610ba0612096565b600760008381526020019081526020016000206040518060e0016040529081600082018054610bce90613770565b80601f0160208091040260200160405190810160405280929190818152602001828054610bfa90613770565b8015610c475780601f10610c1c57610100808354040283529160200191610c47565b820191906000526020600020905b815481529060010190602001808311610c2a57829003601f168201915b50505050508152602001600182018054610c6090613770565b80601f0160208091040260200160405190810160405280929190818152602001828054610c8c90613770565b8015610cd95780601f10610cae57610100808354040283529160200191610cd9565b820191906000526020600020905b815481529060010190602001808311610cbc57829003601f168201915b5050505050815260200160028201548152602001600382015481526020016004820154815260200160058201548152602001600682018054610d1a90613770565b80601f0160208091040260200160405190810160405280929190818152602001828054610d4690613770565b8015610d935780601f10610d6857610100808354040283529160200191610d93565b820191906000526020600020905b815481529060010190602001808311610d7657829003601f168201915b5050505050815250509050919050565b600080610daf88610e95565b905060008160ff161415610df8576040517f08c379a0000000000000000000000000000000000000000000000000000000008152600401610def90613274565b60405180910390fd5b6000600260008360ff1660ff16815260200190815260200160002060009054906101000a900473ffffffffffffffffffffffffffffffffffffffff169050610e44878988888886611ae4565b610e4d86611e3d565b887f102229041138505f4cecdadc8e3ac1cd92c55870c17371050fc00bdb0888980188604051610e7d91906130c0565b60405180910390a26001925050509695505050505050565b60006001600083815260200190815260200160002060000160009054906101000a900460ff169050919050565b6000610ecd86610e95565b905060008160ff161415610f16576040517f08c379a0000000000000000000000000000000000000000000000000000000008152600401610f0d906132f4565b60405180910390fd5b6004600087815260200190815260200160002060009054906101000a900460ff16610f76576040517f08c379a0000000000000000000000000000000000000000000000000000000008152600401610f6d906132b4565b60405180910390fd5b6000600260008360ff1660ff16815260200190815260200160002060009054906101000a900473ffffffffffffffffffffffffffffffffffffffff169050610fc2868c87878786611ae4565b610fcb85611e3d565b600b6000815480929190610fde90613807565b91905055506040518060e001604052808e81526020018d815260200160008152602001600081526020018b81526020018a81526020018981525060076000600b5481526020019081526020016000206000820151816000019080519060200190611049929190612010565b506020820151816001019080519060200190611066929190612010565b5060408201518160020155606082015181600301556080820151816004015560a0820151816005015560c08201518160060190805190602001906110ab929190612010565b50905050600b547f0bb2e3e9f327122f1a97e4083193c8bffa75acd7a94a4f12400052fa0b2919c88860076000600b5481526020019081526020016000206040516110f792919061346a565b60405180910390a250505050505050505050505050565b600960009054906101000a900473ffffffffffffffffffffffffffffffffffffffff1681565b600060016000838152602001908152602001600020600101549050919050565b60036020528060005260406000206000915054906101000a900473ffffffffffffffffffffffffffffffffffffffff1681565b60066020528060005260406000206000915090508060000180546111aa90613770565b80601f01602080910402602001604051908101604052809291908181526020018280546111d690613770565b80156112235780601f106111f857610100808354040283529160200191611223565b820191906000526020600020905b81548152906001019060200180831161120657829003601f168201915b5050505050908060010160009054906101000a900473ffffffffffffffffffffffffffffffffffffffff169080600201549080600301805461126490613770565b80601f016020809104026020016040519081016040528092919081815260200182805461129090613770565b80156112dd5780601f106112b2576101008083540402835291602001916112dd565b820191906000526020600020905b8154815290600101906020018083116112c057829003601f168201915b5050505050908060040180546112f290613770565b80601f016020809104026020016040519081016040528092919081815260200182805461131e90613770565b801561136b5780601f106113405761010080835404028352916020019161136b565b820191906000526020600020905b81548152906001019060200180831161134e57829003601f168201915b50505050509080600501549080600601549080600701805461138c90613770565b80601f01602080910402602001604051908101604052809291908181526020018280546113b890613770565b80156114055780601f106113da57610100808354040283529160200191611405565b820191906000526020600020905b8154815290600101906020018083116113e857829003601f168201915b5050505050905088565b600060016000838152602001908152602001600020600201549050919050565b600a5481565b84600073ffffffffffffffffffffffffffffffffffffffff16600260008360ff1660ff16815260200190815260200160002060009054906101000a900473ffffffffffffffffffffffffffffffffffffffff1673ffffffffffffffffffffffffffffffffffffffff1614156114df576040517f08c379a00000000000000000000000000000000000000000000000000000000081526004016114d690613254565b60405180910390fd5b600a60008154809291906114f290613807565b9190505550611504600a548787611e6b565b8360036000600a54815260200190815260200160002060006101000a81548173ffffffffffffffffffffffffffffffffffffffff021916908373ffffffffffffffffffffffffffffffffffffffff1602179055508260046000600a54815260200190815260200160002060006101000a81548160ff0219169083151502179055508160056000600a54815260200190815260200160002060006101000a81548160ff021916908315150217905550600a547fcbe08648079192e9f7eeb443f35dd17cd3b02ee13d08a915e409228e8fb69729856040516115e49190613043565b60405180910390a2505050505050565b60006115ff87610e95565b905060008160ff161415611648576040517f08c379a000000000000000000000000000000000000000000000000000000000815260040161163f906132f4565b60405180910390fd5b6000600260008360ff1660ff16815260200190815260200160002060009054906101000a900473ffffffffffffffffffffffffffffffffffffffff169050611694878787878786611ae4565b61169d85611e3d565b877f102229041138505f4cecdadc8e3ac1cd92c55870c17371050fc00bdb08889801886040516116cd91906130c0565b60405180910390a25050505050505050565b60006116ea88610e95565b905060008160ff161415611733576040517f08c379a000000000000000000000000000000000000000000000000000000000815260040161172a906132f4565b60405180910390fd5b6004600089815260200190815260200160002060009054906101000a900460ff16611793576040517f08c379a000000000000000000000000000000000000000000000000000000000815260040161178a906132b4565b60405180910390fd5b6000600260008360ff1660ff16815260200190815260200160002060009054906101000a900473ffffffffffffffffffffffffffffffffffffffff1690506117df848988888786611ae4565b6117e886611e3d565b861561181f5760076000868152602001908152602001600020600201600081548092919061181590613807565b919050555061184c565b60076000868152602001908152602001600020600301600081548092919061184690613807565b91905055505b861515858a7fa071403561971b5037de93aebd0f95690808372d2f63965534e2c1b5486f2c6a60405160405180910390a4505050505050505050565b60046020528060005260406000206000915054906101000a900460ff1681565b60006118b383610e95565b60ff1614156118f7576040517f08c379a00000000000000000000000000000000000000000000000000000000081526004016118ee906132d4565b60405180910390fd5b6001600083815260200190815260200160002073__$0c6eb7207c37accf1552a1c47686411ac0$__63168703fa9091836040518363ffffffff1660e01b8152600401611944929190613354565b60006040518083038186803b15801561195c57600080fd5b505af4158015611970573d6000803e3d6000fd5b50505050600061197f83611134565b9050827f03fd27265b7dd1f55558bedc22a58fa3b10afb1be776e614bd5a7ba7b949940683836040516119b392919061349a565b60405180910390a2505050565b60006119cb87610e95565b60ff161415611a0f576040517f08c379a0000000000000000000000000000000000000000000000000000000008152600401611a06906132d4565b60405180910390fd5b6001600087815260200190815260200160002073__$0c6eb7207c37accf1552a1c47686411ac0$__630629596f909187878787876040518763ffffffff1660e01b8152600401611a649695949392919061337d565b60006040518083038186803b158015611a7c57600080fd5b505af4158015611a90573d6000803e3d6000fd5b505050506000611a9f87611134565b9050867fe270325ded177064d7bda473e6519ef40a291058c41286f71a6e4872f1e9ab5c8783604051611ad392919061349a565b60405180910390a250505050505050565b60008085815260200190815260200160002060009054906101000a900460ff1615611b44576040517f08c379a0000000000000000000000000000000000000000000000000000000008152600401611b3b90613214565b60405180910390fd5b6000611b4f87611fd9565b90508173ffffffffffffffffffffffffffffffffffffffff16635fe8c13b604051806040016040528086600060088110611bb2577f4e487b7100000000000000000000000000000000000000000000000000000000600052603260045260246000fd5b6020020135815260200186600160088110611bf6577f4e487b7100000000000000000000000000000000000000000000000000000000600052603260045260246000fd5b60200201358152506040518060400160405280604051806040016040528089600260088110611c4e577f4e487b7100000000000000000000000000000000000000000000000000000000600052603260045260246000fd5b6020020135815260200189600360088110611c92577f4e487b7100000000000000000000000000000000000000000000000000000000600052603260045260246000fd5b60200201358152508152602001604051806040016040528089600460088110611ce4577f4e487b7100000000000000000000000000000000000000000000000000000000600052603260045260246000fd5b6020020135815260200189600560088110611d28577f4e487b7100000000000000000000000000000000000000000000000000000000600052603260045260246000fd5b6020020135815250815250604051806040016040528088600660088110611d78577f4e487b7100000000000000000000000000000000000000000000000000000000600052603260045260246000fd5b6020020135815260200188600760088110611dbc577f4e487b7100000000000000000000000000000000000000000000000000000000600052603260045260246000fd5b602002013581525060405180608001604052808c81526020018b81526020018781526020018a8152506040518563ffffffff1660e01b8152600401611e04949392919061305e565b60006040518083038186803b158015611e1c57600080fd5b505afa158015611e30573d6000803e3d6000fd5b5050505050505050505050565b600160008083815260200190815260200160002060006101000a81548160ff02191690831515021790555050565b7f30644e72e131a029b85045b68181585d2833e84879b9709143e1f593f00000018310611ecd576040517f08c379a0000000000000000000000000000000000000000000000000000000008152600401611ec490613334565b60405180910390fd5b6000611ed884610e95565b60ff1614611f1b576040517f08c379a0000000000000000000000000000000000000000000000000000000008152600401611f1290613234565b60405180910390fd5b6001600084815260200190815260200160002073__$0c6eb7207c37accf1552a1c47686411ac0$__63b4bdd117909184846040518463ffffffff1660e01b8152600401611f6a939291906133d4565b60006040518083038186803b158015611f8257600080fd5b505af4158015611f96573d6000803e3d6000fd5b50505050827fc3082aa494e9088c2c9f0fb62a0b6bd46e6699acb94cfba35be29b95a93f68c88383604051611fcc9291906134de565b60405180910390a2505050565b6000600882604051602001611fee9190613028565b6040516020818303038152906040528051906020012060001c901c9050919050565b82805461201c90613770565b90600052602060002090601f01602090048101928261203e5760008555612085565b82601f1061205757805160ff1916838001178555612085565b82800160010185558215612085579182015b82811115612084578251825591602001919060010190612069565b5b50905061209291906120d3565b5090565b6040518060e00160405280606081526020016060815260200160008152602001600081526020016000815260200160008152602001606081525090565b5b808211156120ec5760008160009055506001016120d4565b5090565b60006121036120fe8461352c565b613507565b90508281526020810184848401111561211b57600080fd5b61212684828561372e565b509392505050565b60008135905061213d81613b37565b92915050565b60008190508260206008028201111561215b57600080fd5b92915050565b60008083601f84011261217357600080fd5b8235905067ffffffffffffffff81111561218c57600080fd5b6020830191508360208202830111156121a457600080fd5b9250929050565b60008083601f8401126121bd57600080fd5b8235905067ffffffffffffffff8111156121d657600080fd5b6020830191508360208202830111156121ee57600080fd5b9250929050565b60008135905061220481613b4e565b92915050565b60008135905061221981613b65565b92915050565b600082601f83011261223057600080fd5b81356122408482602086016120f0565b91505092915050565b60008135905061225881613b7c565b92915050565b60008135905061226d81613b93565b92915050565b60008060008060008060008060008060006102408c8e03121561229557600080fd5b60008c013567ffffffffffffffff8111156122af57600080fd5b6122bb8e828f0161221f565b9b505060208c013567ffffffffffffffff8111156122d857600080fd5b6122e48e828f0161221f565b9a505060408c013567ffffffffffffffff81111561230157600080fd5b61230d8e828f0161221f565b995050606061231e8e828f01612249565b98505060808c013567ffffffffffffffff81111561233b57600080fd5b6123478e828f0161221f565b97505060a06123588e828f01612249565b96505060c06123698e828f01612249565b95505060e061237a8e828f0161220a565b94505061010061238c8e828f01612249565b93505061012061239e8e828f01612249565b9250506101406123b08e828f01612143565b9150509295989b509295989b9093969950565b60008060008060008060008060008060006102408c8e0312156123e557600080fd5b60008c013567ffffffffffffffff8111156123ff57600080fd5b61240b8e828f0161221f565b9b505060208c013567ffffffffffffffff81111561242857600080fd5b6124348e828f0161221f565b9a505060406124458e828f01612249565b99505060606124568e828f01612249565b98505060806124678e828f01612249565b97505060a08c013567ffffffffffffffff81111561248457600080fd5b6124908e828f0161221f565b96505060c06124a18e828f01612249565b95505060e06124b28e828f0161220a565b9450506101006124c48e828f01612249565b9350506101206124d68e828f01612249565b9250506101406124e88e828f01612143565b9150509295989b509295989b9093969950565b60006020828403121561250d57600080fd5b600061251b84828501612249565b91505092915050565b6000806000806000806101a0878903121561253e57600080fd5b600061254c89828a01612249565b965050602061255d89828a0161220a565b955050604061256e89828a01612249565b945050606061257f89828a01612249565b935050608061259089828a01612249565b92505060a06125a189828a01612143565b9150509295509295509295565b600080604083850312156125c157600080fd5b60006125cf85828601612249565b92505060206125e085828601612249565b9150509250929050565b6000806000806000806080878903121561260357600080fd5b600061261189828a01612249565b965050602061262289828a01612249565b955050604087013567ffffffffffffffff81111561263f57600080fd5b61264b89828a01612161565b9450945050606087013567ffffffffffffffff81111561266a57600080fd5b61267689828a016121ab565b92509250509295509295509295565b60008060008060008060006101c0888a0312156126a157600080fd5b60006126af8a828b01612249565b97505060206126c08a828b01612249565b96505060406126d18a828b016121f5565b95505060606126e28a828b01612249565b94505060806126f38a828b01612249565b93505060a06127048a828b0161220a565b92505060c06127158a828b01612143565b91505092959891949750929550565b6000806000806000806101a0878903121561273e57600080fd5b600061274c89828a01612249565b965050602061275d89828a01612249565b955050604061276e89828a0161220a565b945050606061277f89828a01612249565b935050608061279089828a01612249565b92505060a06127a189828a01612143565b9150509295509295509295565b6000602082840312156127c057600080fd5b60006127ce8482850161225e565b91505092915050565b600080600080600060a086880312156127ef57600080fd5b60006127fd8882890161225e565b955050602061280e88828901612249565b945050604061281f8882890161212e565b9350506060612830888289016121f5565b9250506080612841888289016121f5565b9150509295509295909350565b600061285a838361290b565b60408301905092915050565b60006128728383612fce565b60208301905092915050565b600061288a8383613019565b60208301905092915050565b61289f816136ab565b82525050565b6128ae816136ab565b82525050565b6128bd8161359a565b6128c781846135fa565b92506128d28261355d565b8060005b838110156129035781516128ea878261284e565b96506128f5836135c6565b9250506001810190506128d6565b505050505050565b612914816135a5565b61291e8184613605565b925061292982613567565b8060005b8381101561295a5781516129418782612866565b965061294c836135d3565b92505060018101905061292d565b505050505050565b61296b816135a5565b6129758184613610565b925061298082613567565b8060005b838110156129b15781516129988782612866565b96506129a3836135d3565b925050600181019050612984565b505050505050565b6129c2816135b0565b6129cc818461361b565b92506129d782613571565b8060005b83811015612a085781516129ef8782612866565b96506129fa836135e0565b9250506001810190506129db565b505050505050565b6000612a1c8385613626565b93507f07ffffffffffffffffffffffffffffffffffffffffffffffffffffffffffffff831115612a4b57600080fd5b602083029250612a5c83858461372e565b82840190509392505050565b6000612a748385613637565b9350612a7f8261357b565b8060005b85811015612ab857612a95828461366a565b612a9f888261287e565b9750612aaa836135ed565b925050600181019050612a83565b5085925050509392505050565b612ace816136bd565b82525050565b612add816136c9565b82525050565b612af4612aef826136c9565b613850565b82525050565b612b038161370a565b82525050565b6000612b14826135bb565b612b1e8185613648565b9350612b2e81856020860161373d565b612b37816138e7565b840191505092915050565b6000612b4d826135bb565b612b578185613659565b9350612b6781856020860161373d565b612b70816138e7565b840191505092915050565b60008154612b8881613770565b612b928186613648565b94506001821660008114612bad5760018114612bbf57612bf2565b60ff1983168652602086019350612bf2565b612bc885613585565b60005b83811015612bea57815481890152600182019150602081019050612bcb565b808801955050505b50505092915050565b6000612c08603683613659565b9150612c1382613905565b604082019050919050565b6000612c2b602583613659565b9150612c3682613954565b604082019050919050565b6000612c4e601b83613659565b9150612c59826139a3565b602082019050919050565b6000612c71602083613659565b9150612c7c826139cc565b602082019050919050565b6000612c94601c83613659565b9150612c9f826139f5565b602082019050919050565b6000612cb7601183613659565b9150612cc282613a1e565b602082019050919050565b6000612cda602583613659565b9150612ce582613a47565b604082019050919050565b6000612cfd601483613659565b9150612d0882613a96565b602082019050919050565b6000612d20601583613659565b9150612d2b82613abf565b602082019050919050565b6000612d43603683613659565b9150612d4e82613ae8565b604082019050919050565b8082525050565b600060e0830160008301518482036000860152612d7d8282612b09565b91505060208301518482036020860152612d978282612b09565b9150506040830151612dac6040860182612fce565b506060830151612dbf6060860182612fce565b506080830151612dd26080860182612fce565b5060a0830151612de560a0860182612fce565b5060c083015184820360c0860152612dfd8282612b09565b9150508091505092915050565b600060e0830160008084018583036000870152612e278382612b7b565b925050600184018583036020870152612e408382612b7b565b92505060028401549050612e53816137bc565b612e606040870182612fce565b5060038401549050612e71816137bc565b612e7e6060870182612fce565b5060048401549050612e8f816137bc565b612e9c6080870182612fce565b5060058401549050612ead816137bc565b612eba60a0870182612fce565b506006840185830360c0870152612ed18382612b7b565b925050819250505092915050565b6000610100830160008084018583036000870152612efd8382612b7b565b92505060018401549050612f10816137a2565b612f1d6020870182612896565b5060028401549050612f2e816137bc565b612f3b6040870182612fce565b50600384018583036060870152612f528382612b7b565b925050600484018583036080870152612f6b8382612b7b565b92505060058401549050612f7e816137bc565b612f8b60a0870182612fce565b5060068401549050612f9c816137bc565b612fa960c0870182612fce565b506007840185830360e0870152612fc08382612b7b565b925050819250505092915050565b612fd7816136f3565b82525050565b612fe6816136f3565b82525050565b612ff5816136f3565b82525050565b613004816136fd565b82525050565b613013816136fd565b82525050565b613022816136fd565b82525050565b60006130348284612ae3565b60208201915081905092915050565b600060208201905061305860008301846128a5565b92915050565b6000610180820190506130746000830187612962565b61308160408301866128b4565b61308e60c0830185612962565b61309c6101008301846129b9565b95945050505050565b60006020820190506130ba6000830184612ac5565b92915050565b60006020820190506130d56000830184612ad4565b92915050565b60006020820190506130f06000830184612afa565b92915050565b6000610100820190508181036000830152613111818b612b42565b9050613120602083018a6128a5565b61312d6040830189612fdd565b818103606083015261313f8188612b42565b905081810360808301526131538187612b42565b905061316260a0830186612fdd565b61316f60c0830185612fdd565b81810360e08301526131818184612b42565b90509998505050505050505050565b600060e08201905081810360008301526131aa818a612b42565b905081810360208301526131be8189612b42565b90506131cd6040830188612fdd565b6131da6060830187612fdd565b6131e76080830186612fdd565b6131f460a0830185612fdd565b81810360c08301526132068184612b42565b905098975050505050505050565b6000602082019050818103600083015261322d81612bfb565b9050919050565b6000602082019050818103600083015261324d81612c1e565b9050919050565b6000602082019050818103600083015261326d81612c41565b9050919050565b6000602082019050818103600083015261328d81612c64565b9050919050565b600060208201905081810360008301526132ad81612c87565b9050919050565b600060208201905081810360008301526132cd81612caa565b9050919050565b600060208201905081810360008301526132ed81612ccd565b9050919050565b6000602082019050818103600083015261330d81612cf0565b9050919050565b6000602082019050818103600083015261332d81612d13565b9050919050565b6000602082019050818103600083015261334d81612d36565b9050919050565b60006040820190506133696000830185612d59565b6133766020830184612fec565b9392505050565b60006080820190506133926000830189612d59565b61339f6020830188612fec565b81810360408301526133b2818688612a10565b905081810360608301526133c7818486612a68565b9050979650505050505050565b60006060820190506133e96000830186612d59565b6133f6602083018561300a565b6134036040830184612fec565b949350505050565b600060208201905081810360008301526134258184612d60565b905092915050565b600060208201905081810360008301526134478184612edf565b905092915050565b60006020820190506134646000830184612fdd565b92915050565b600060408201905061347f6000830185612fdd565b81810360208301526134918184612e0a565b90509392505050565b60006040820190506134af6000830185612fdd565b6134bc6020830184612fdd565b9392505050565b60006020820190506134d86000830184612ffb565b92915050565b60006040820190506134f36000830185612ffb565b6135006020830184612fdd565b9392505050565b6000613511613522565b905061351d82826137d6565b919050565b6000604051905090565b600067ffffffffffffffff821115613547576135466138b8565b5b613550826138e7565b9050602081019050919050565b6000819050919050565b6000819050919050565b6000819050919050565b6000819050919050565b60008190508160005260206000209050919050565b600060029050919050565b600060029050919050565b600060049050919050565b600081519050919050565b6000602082019050919050565b6000602082019050919050565b6000602082019050919050565b6000602082019050919050565b600081905092915050565b600081905092915050565b600081905092915050565b600081905092915050565b600082825260208201905092915050565b600082825260208201905092915050565b600082825260208201905092915050565b600082825260208201905092915050565b6000613679602084018461225e565b905092915050565b600073ffffffffffffffffffffffffffffffffffffffff82169050919050565b6000819050919050565b60006136b6826136d3565b9050919050565b60008115159050919050565b6000819050919050565b600073ffffffffffffffffffffffffffffffffffffffff82169050919050565b6000819050919050565b600060ff82169050919050565b60006137158261371c565b9050919050565b6000613727826136d3565b9050919050565b82818337600083830152505050565b60005b8381101561375b578082015181840152602081019050613740565b8381111561376a576000848401525b50505050565b6000600282049050600182168061378857607f821691505b6020821081141561379c5761379b613889565b5b50919050565b60006137b56137b0836138f8565b613681565b9050919050565b60006137cf6137ca836138f8565b6136a1565b9050919050565b6137df826138e7565b810181811067ffffffffffffffff821117156137fe576137fd6138b8565b5b80604052505050565b6000613812826136f3565b91507fffffffffffffffffffffffffffffffffffffffffffffffffffffffffffffffff8214156138455761384461385a565b5b600182019050919050565b6000819050919050565b7f4e487b7100000000000000000000000000000000000000000000000000000000600052601160045260246000fd5b7f4e487b7100000000000000000000000000000000000000000000000000000000600052602260045260246000fd5b7f4e487b7100000000000000000000000000000000000000000000000000000000600052604160045260246000fd5b6000601f19601f8301169050919050565b60008160001c9050919050565b7f53656d6170686f7265436f72653a20796f752063616e6e6f742075736520746860008201527f652073616d65206e756c6c696669657220747769636500000000000000000000602082015250565b7f53656d6170686f726547726f7570733a2067726f757020616c7265616479206560008201527f7869737473000000000000000000000000000000000000000000000000000000602082015250565b7f54726565206465707468206973206e6f7420737570706f727465640000000000600082015250565b7f4f6d436f6e74726163743a2067726f757020646f6573206e6f74206578697374600082015250565b7f44657074682076616c7565206973206e6f7420737570706f7274656400000000600082015250565b7f47726f75702063616e6e6f7420566f7465000000000000000000000000000000600082015250565b7f53656d6170686f726547726f7570733a2067726f757020646f6573206e6f742060008201527f6578697374000000000000000000000000000000000000000000000000000000602082015250565b7f47726f757020646f6573206e6f74206578697374000000000000000000000000600082015250565b7f47726f75702063616e6e6f742061646420446174610000000000000000000000600082015250565b7f53656d6170686f726547726f7570733a2067726f7570206964206d757374206260008201527f65203c20534e41524b5f5343414c41525f4649454c4400000000000000000000602082015250565b613b40816136ab565b8114613b4b57600080fd5b50565b613b57816136bd565b8114613b6257600080fd5b50565b613b6e816136c9565b8114613b7957600080fd5b50565b613b85816136f3565b8114613b9057600080fd5b50565b613b9c816136fd565b8114613ba757600080fd5b5056fea26469706673582212205c0fd337217902eb72a1fdb72c3c5ac93f6737076a5da9e405aa37942b11865064736f6c63430008040033",
  "linkReferences": {
    "@zk-kit/incremental-merkle-tree.sol/IncrementalBinaryTree.sol": {
      "IncrementalBinaryTree": [
        {
          "length": 20,
          "start": 1095
        },
        {
          "length": 20,
          "start": 9270
        },
        {
          "length": 20,
          "start": 9550
        },
        {
          "length": 20,
          "start": 10842
        }
      ]
    }
  },
  "deployedLinkReferences": {
    "@zk-kit/incremental-merkle-tree.sol/IncrementalBinaryTree.sol": {
      "IncrementalBinaryTree": [
        {
          "length": 20,
          "start": 6412
        },
        {
          "length": 20,
          "start": 6692
        },
        {
          "length": 20,
          "start": 7984
        }
      ]
    }
  }
}