{
  "_format": "hh-sol-artifact-1",
  "contractName": "OmContract",
  "sourceName": "contracts/OmContract.sol",
  "abi": [
    {
      "inputs": [
        {
          "components": [
            {
              "internalType": "address",
              "name": "contractAddress",
              "type": "address"
            },
            {
              "internalType": "uint8",
              "name": "merkleTreeDepth",
              "type": "uint8"
            }
          ],
          "internalType": "struct OmContract.Verifier[]",
          "name": "_verifiers",
          "type": "tuple[]"
        }
      ],
      "stateMutability": "nonpayable",
      "type": "constructor"
    },
    {
      "anonymous": false,
      "inputs": [
        {
          "indexed": true,
          "internalType": "uint256",
          "name": "groupId",
          "type": "uint256"
        },
        {
          "indexed": false,
          "internalType": "bytes32",
          "name": "daoName",
          "type": "bytes32"
        }
      ],
      "name": "DaoCreated",
      "type": "event"
    },
    {
      "anonymous": false,
      "inputs": [
        {
          "indexed": true,
          "internalType": "uint256",
          "name": "dataId",
          "type": "uint256"
        },
        {
          "indexed": true,
          "internalType": "address",
          "name": "owner",
          "type": "address"
        },
        {
          "indexed": false,
          "internalType": "uint256",
          "name": "dateAdded",
          "type": "uint256"
        },
        {
          "indexed": false,
          "internalType": "string",
          "name": "IpfsURI",
          "type": "string"
        },
        {
          "indexed": true,
          "internalType": "uint256",
          "name": "groupId",
          "type": "uint256"
        }
      ],
      "name": "DataAdded",
      "type": "event"
    },
    {
      "anonymous": false,
      "inputs": [
        {
          "indexed": true,
          "internalType": "uint256",
          "name": "groupId",
          "type": "uint256"
        },
        {
          "indexed": false,
          "internalType": "uint8",
          "name": "depth",
          "type": "uint8"
        },
        {
          "indexed": false,
          "internalType": "uint256",
          "name": "zeroValue",
          "type": "uint256"
        }
      ],
      "name": "GroupCreated",
      "type": "event"
    },
    {
      "anonymous": false,
      "inputs": [
        {
          "indexed": true,
          "internalType": "uint256",
          "name": "groupId",
          "type": "uint256"
        },
        {
          "indexed": false,
          "internalType": "uint256",
          "name": "identityCommitment",
          "type": "uint256"
        },
        {
          "indexed": false,
          "internalType": "uint256",
          "name": "root",
          "type": "uint256"
        }
      ],
      "name": "MemberAdded",
      "type": "event"
    },
    {
      "anonymous": false,
      "inputs": [
        {
          "indexed": true,
          "internalType": "uint256",
          "name": "groupId",
          "type": "uint256"
        },
        {
          "indexed": false,
          "internalType": "uint256",
          "name": "identityCommitment",
          "type": "uint256"
        },
        {
          "indexed": false,
          "internalType": "uint256",
          "name": "root",
          "type": "uint256"
        }
      ],
      "name": "MemberRemoved",
      "type": "event"
    },
    {
      "anonymous": false,
      "inputs": [
        {
          "indexed": false,
          "internalType": "uint256",
          "name": "nullifierHash",
          "type": "uint256"
        }
      ],
      "name": "NullifierHashAdded",
      "type": "event"
    },
    {
      "anonymous": false,
      "inputs": [
        {
          "indexed": true,
          "internalType": "uint256",
          "name": "groupId",
          "type": "uint256"
        },
        {
          "indexed": false,
          "internalType": "address",
          "name": "admin",
          "type": "address"
        }
      ],
      "name": "OmGroupCreated",
      "type": "event"
    },
    {
      "anonymous": false,
      "inputs": [
        {
          "indexed": true,
          "internalType": "uint256",
          "name": "groupId",
          "type": "uint256"
        },
        {
          "indexed": true,
          "internalType": "uint256",
          "name": "memberID",
          "type": "uint256"
        }
      ],
      "name": "OmMemberAdded",
      "type": "event"
    },
    {
      "anonymous": false,
      "inputs": [
        {
          "indexed": true,
          "internalType": "uint256",
          "name": "groupId",
          "type": "uint256"
        },
        {
          "indexed": true,
          "internalType": "uint256",
          "name": "memberID",
          "type": "uint256"
        }
      ],
      "name": "OmMemberRemoved",
      "type": "event"
    },
    {
      "anonymous": false,
      "inputs": [
        {
          "indexed": true,
          "internalType": "uint256",
          "name": "groupId",
          "type": "uint256"
        },
        {
          "indexed": false,
          "internalType": "bytes32",
          "name": "signal",
          "type": "bytes32"
        }
      ],
      "name": "ProofVerified",
      "type": "event"
    },
    {
      "anonymous": false,
      "inputs": [
        {
          "indexed": true,
          "internalType": "uint256",
          "name": "groupId",
          "type": "uint256"
        },
        {
          "indexed": true,
          "internalType": "string",
          "name": "title",
          "type": "string"
        },
        {
          "indexed": false,
          "internalType": "string",
          "name": "description",
          "type": "string"
        },
        {
          "indexed": true,
          "internalType": "uint256",
          "name": "proposalId",
          "type": "uint256"
        },
        {
          "indexed": false,
          "internalType": "uint256",
          "name": "startDate",
          "type": "uint256"
        },
        {
          "indexed": false,
          "internalType": "uint256",
          "name": "endDate",
          "type": "uint256"
        },
        {
          "indexed": false,
          "internalType": "string",
          "name": "fileUri",
          "type": "string"
        }
      ],
      "name": "ProposalCreated",
      "type": "event"
    },
    {
      "anonymous": false,
      "inputs": [
        {
          "indexed": true,
          "internalType": "uint256",
          "name": "groupId",
          "type": "uint256"
        },
        {
          "indexed": true,
          "internalType": "uint256",
          "name": "proposalId",
          "type": "uint256"
        },
        {
          "indexed": true,
          "internalType": "bool",
          "name": "vote",
          "type": "bool"
        }
      ],
      "name": "VoteCast",
      "type": "event"
    },
    {
      "inputs": [
        {
          "internalType": "uint256",
          "name": "",
          "type": "uint256"
        }
      ],
      "name": "ProposalList",
      "outputs": [
        {
          "internalType": "address",
          "name": "coordinator",
          "type": "address"
        },
        {
          "internalType": "string",
          "name": "title",
          "type": "string"
        },
        {
          "internalType": "string",
          "name": "description",
          "type": "string"
        },
        {
          "internalType": "uint256",
          "name": "yesCount",
          "type": "uint256"
        },
        {
          "internalType": "uint256",
          "name": "noCount",
          "type": "uint256"
        },
        {
          "internalType": "uint256",
          "name": "StartDate",
          "type": "uint256"
        },
        {
          "internalType": "uint256",
          "name": "EndDate",
          "type": "uint256"
        },
        {
          "internalType": "string",
          "name": "IpfsURI",
          "type": "string"
        }
      ],
      "stateMutability": "view",
      "type": "function"
    },
    {
      "inputs": [
        {
          "internalType": "uint256",
          "name": "groupId",
          "type": "uint256"
        },
        {
          "internalType": "bytes32",
          "name": "signal",
          "type": "bytes32"
        },
        {
          "internalType": "uint256",
          "name": "nullifierHash",
          "type": "uint256"
        },
        {
          "internalType": "uint256",
          "name": "externalNullifier",
          "type": "uint256"
        },
        {
          "internalType": "uint256[8]",
          "name": "proof",
          "type": "uint256[8]"
        }
      ],
      "name": "accessData",
      "outputs": [
        {
          "internalType": "bool",
          "name": "",
          "type": "bool"
        }
      ],
      "stateMutability": "nonpayable",
      "type": "function"
    },
    {
      "inputs": [
        {
          "internalType": "string",
          "name": "IpfsURI",
          "type": "string"
        },
        {
          "internalType": "uint256",
          "name": "groupId",
          "type": "uint256"
        },
        {
          "internalType": "bytes32",
          "name": "signal",
          "type": "bytes32"
        },
        {
          "internalType": "uint256",
          "name": "nullifierHash",
          "type": "uint256"
        },
        {
          "internalType": "uint256",
          "name": "externalNullifier",
          "type": "uint256"
        },
        {
          "internalType": "uint256[8]",
          "name": "proof",
          "type": "uint256[8]"
        }
      ],
      "name": "addData",
      "outputs": [],
      "stateMutability": "nonpayable",
      "type": "function"
    },
    {
      "inputs": [
        {
          "internalType": "uint256",
          "name": "groupId",
          "type": "uint256"
        },
        {
          "internalType": "uint256",
          "name": "identityCommitment",
          "type": "uint256"
        }
      ],
      "name": "addMember",
      "outputs": [],
      "stateMutability": "nonpayable",
      "type": "function"
    },
    {
      "inputs": [
        {
          "internalType": "uint256",
          "name": "",
          "type": "uint256"
        }
      ],
      "name": "canGroupAddData",
      "outputs": [
        {
          "internalType": "bool",
          "name": "",
          "type": "bool"
        }
      ],
      "stateMutability": "view",
      "type": "function"
    },
    {
      "inputs": [
        {
          "internalType": "uint256",
          "name": "",
          "type": "uint256"
        }
      ],
      "name": "canGroupPropose",
      "outputs": [
        {
          "internalType": "bool",
          "name": "",
          "type": "bool"
        }
      ],
      "stateMutability": "view",
      "type": "function"
    },
    {
      "inputs": [
        {
          "internalType": "uint256",
          "name": "groupId",
          "type": "uint256"
        },
        {
          "internalType": "bool",
          "name": "vote",
          "type": "bool"
        },
        {
          "internalType": "uint256",
          "name": "nullifierHash",
          "type": "uint256"
        },
        {
          "internalType": "uint256",
          "name": "externalNullifierProposalId",
          "type": "uint256"
        },
        {
          "internalType": "bytes32",
          "name": "signal",
          "type": "bytes32"
        },
        {
          "internalType": "uint256[8]",
          "name": "proof",
          "type": "uint256[8]"
        }
      ],
      "name": "castVote",
      "outputs": [],
      "stateMutability": "nonpayable",
      "type": "function"
    },
    {
      "inputs": [
        {
          "internalType": "uint8",
          "name": "depth",
          "type": "uint8"
        },
        {
          "internalType": "uint256",
          "name": "zeroValue",
          "type": "uint256"
        },
        {
          "internalType": "address",
          "name": "admin",
          "type": "address"
        },
        {
          "internalType": "bool",
          "name": "canPropose",
          "type": "bool"
        },
        {
          "internalType": "bool",
          "name": "canAddData",
          "type": "bool"
        }
      ],
      "name": "createGroup",
      "outputs": [],
      "stateMutability": "nonpayable",
      "type": "function"
    },
    {
      "inputs": [
        {
          "internalType": "address",
          "name": "coordinator",
          "type": "address"
        },
        {
          "internalType": "string",
          "name": "title",
          "type": "string"
        },
        {
          "internalType": "string",
          "name": "description",
          "type": "string"
        },
        {
          "internalType": "uint256",
          "name": "startDate",
          "type": "uint256"
        },
        {
          "internalType": "uint256",
          "name": "endDate",
          "type": "uint256"
        },
        {
          "internalType": "string",
          "name": "proposalURI",
          "type": "string"
        },
        {
          "internalType": "uint256",
          "name": "groupId",
          "type": "uint256"
        },
        {
          "internalType": "bytes32",
          "name": "signal",
          "type": "bytes32"
        },
        {
          "internalType": "uint256",
          "name": "nullifierHash",
          "type": "uint256"
        },
        {
          "internalType": "uint256",
          "name": "externalNullifier",
          "type": "uint256"
        },
        {
          "internalType": "uint256[8]",
          "name": "proof",
          "type": "uint256[8]"
        }
      ],
      "name": "createProposal",
      "outputs": [],
      "stateMutability": "nonpayable",
      "type": "function"
    },
    {
      "inputs": [],
      "name": "dataFileCounter",
      "outputs": [
        {
          "internalType": "uint256",
          "name": "",
          "type": "uint256"
        }
      ],
      "stateMutability": "view",
      "type": "function"
    },
    {
      "inputs": [
        {
          "internalType": "uint256",
          "name": "",
          "type": "uint256"
        }
      ],
      "name": "dataList",
      "outputs": [
        {
          "internalType": "uint256",
          "name": "dataId",
          "type": "uint256"
        },
        {
          "internalType": "address",
          "name": "dataOwner",
          "type": "address"
        },
        {
          "internalType": "uint256",
          "name": "addedDate",
          "type": "uint256"
        },
        {
          "internalType": "string",
          "name": "IpfsURI",
          "type": "string"
        },
        {
          "internalType": "uint256",
          "name": "groupId",
          "type": "uint256"
        }
      ],
      "stateMutability": "view",
      "type": "function"
    },
    {
      "inputs": [
        {
          "internalType": "uint256",
          "name": "groupId",
          "type": "uint256"
        }
      ],
      "name": "getDepth",
      "outputs": [
        {
          "internalType": "uint8",
          "name": "",
          "type": "uint8"
        }
      ],
      "stateMutability": "view",
      "type": "function"
    },
    {
      "inputs": [
        {
          "internalType": "uint256",
          "name": "groupId",
          "type": "uint256"
        }
      ],
      "name": "getNumberOfLeaves",
      "outputs": [
        {
          "internalType": "uint256",
          "name": "",
          "type": "uint256"
        }
      ],
      "stateMutability": "view",
      "type": "function"
    },
    {
      "inputs": [
        {
          "internalType": "uint256",
          "name": "proposalId",
          "type": "uint256"
        }
      ],
      "name": "getProposalData",
      "outputs": [
        {
          "components": [
            {
              "internalType": "address",
              "name": "coordinator",
              "type": "address"
            },
            {
              "internalType": "string",
              "name": "title",
              "type": "string"
            },
            {
              "internalType": "string",
              "name": "description",
              "type": "string"
            },
            {
              "internalType": "uint256",
              "name": "yesCount",
              "type": "uint256"
            },
            {
              "internalType": "uint256",
              "name": "noCount",
              "type": "uint256"
            },
            {
              "internalType": "uint256",
              "name": "StartDate",
              "type": "uint256"
            },
            {
              "internalType": "uint256",
              "name": "EndDate",
              "type": "uint256"
            },
            {
              "internalType": "string",
              "name": "IpfsURI",
              "type": "string"
            }
          ],
          "internalType": "struct OmContract.Proposal",
          "name": "ProposalData",
          "type": "tuple"
        }
      ],
      "stateMutability": "view",
      "type": "function"
    },
    {
      "inputs": [
        {
          "internalType": "uint256",
          "name": "groupId",
          "type": "uint256"
        }
      ],
      "name": "getRoot",
      "outputs": [
        {
          "internalType": "uint256",
          "name": "",
          "type": "uint256"
        }
      ],
      "stateMutability": "view",
      "type": "function"
    },
    {
      "inputs": [
        {
          "internalType": "uint256",
          "name": "",
          "type": "uint256"
        }
      ],
      "name": "groupAdmins",
      "outputs": [
        {
          "internalType": "address",
          "name": "",
          "type": "address"
        }
      ],
      "stateMutability": "view",
      "type": "function"
    },
    {
      "inputs": [
        {
          "internalType": "uint256",
          "name": "",
          "type": "uint256"
        },
        {
          "internalType": "uint256",
          "name": "",
          "type": "uint256"
        }
      ],
      "name": "groupMembership",
      "outputs": [
        {
          "internalType": "uint256",
          "name": "",
          "type": "uint256"
        }
      ],
      "stateMutability": "view",
      "type": "function"
    },
    {
      "inputs": [],
      "name": "owner",
      "outputs": [
        {
          "internalType": "address",
          "name": "",
          "type": "address"
        }
      ],
      "stateMutability": "view",
      "type": "function"
    },
    {
      "inputs": [],
      "name": "proposalCounter",
      "outputs": [
        {
          "internalType": "uint256",
          "name": "",
          "type": "uint256"
        }
      ],
      "stateMutability": "view",
      "type": "function"
    },
    {
      "inputs": [
        {
          "internalType": "uint256",
          "name": "groupId",
          "type": "uint256"
        },
        {
          "internalType": "uint256",
          "name": "identityCommitment",
          "type": "uint256"
        },
        {
          "internalType": "uint256[]",
          "name": "proofSiblings",
          "type": "uint256[]"
        },
        {
          "internalType": "uint8[]",
          "name": "proofPathIndices",
          "type": "uint8[]"
        }
      ],
      "name": "removeMember",
      "outputs": [],
      "stateMutability": "nonpayable",
      "type": "function"
    },
    {
      "inputs": [
        {
          "internalType": "uint8",
          "name": "",
          "type": "uint8"
        }
      ],
      "name": "verifiers",
      "outputs": [
        {
          "internalType": "contract IVerifier",
          "name": "",
          "type": "address"
        }
      ],
      "stateMutability": "view",
      "type": "function"
    },
    {
      "inputs": [
        {
          "internalType": "uint256",
          "name": "groupId",
          "type": "uint256"
        },
        {
          "internalType": "bytes32",
          "name": "signal",
          "type": "bytes32"
        },
        {
          "internalType": "uint256",
          "name": "nullifierHash",
          "type": "uint256"
        },
        {
          "internalType": "uint256",
          "name": "externalNullifier",
          "type": "uint256"
        },
        {
          "internalType": "uint256[8]",
          "name": "proof",
          "type": "uint256[8]"
        }
      ],
      "name": "verifyProof",
      "outputs": [],
      "stateMutability": "nonpayable",
      "type": "function"
    }
  ],
  "bytecode": "0x60806040523480156200001157600080fd5b506040516200425538038062004255833981810160405281019062000037919062000646565b60005b81518160ff1610156200014557818160ff168151811062000084577f4e487b7100000000000000000000000000000000000000000000000000000000600052603260045260246000fd5b60200260200101516000015160026000848460ff1681518110620000d1577f4e487b7100000000000000000000000000000000000000000000000000000000600052603260045260246000fd5b60200260200101516020015160ff1660ff16815260200190815260200160002060006101000a81548173ffffffffffffffffffffffffffffffffffffffff021916908373ffffffffffffffffffffffffffffffffffffffff16021790555080806200013c9062000981565b9150506200003a565b5033600960006101000a81548173ffffffffffffffffffffffffffffffffffffffff021916908373ffffffffffffffffffffffffffffffffffffffff1602179055506200019f6014600033600180620001a660201b60201c565b5062000b1a565b84600073ffffffffffffffffffffffffffffffffffffffff16600260008360ff1660ff16815260200190815260200160002060009054906101000a900473ffffffffffffffffffffffffffffffffffffffff1673ffffffffffffffffffffffffffffffffffffffff16141562000253576040517f08c379a00000000000000000000000000000000000000000000000000000000081526004016200024a906200079b565b60405180910390fd5b600a6000815480929190620002689062000933565b919050555062000282600a5487876200037460201b60201c565b8360036000600a54815260200190815260200160002060006101000a81548173ffffffffffffffffffffffffffffffffffffffff021916908373ffffffffffffffffffffffffffffffffffffffff1602179055508260046000600a54815260200190815260200160002060006101000a81548160ff0219169083151502179055508160056000600a54815260200190815260200160002060006101000a81548160ff021916908315150217905550600a547fcbe08648079192e9f7eeb443f35dd17cd3b02ee13d08a915e409228e8fb69729856040516200036491906200075c565b60405180910390a2505050505050565b7f30644e72e131a029b85045b68181585d2833e84879b9709143e1f593f00000018310620003d9576040517f08c379a0000000000000000000000000000000000000000000000000000000008152600401620003d090620007bd565b60405180910390fd5b6000620003ec84620004f660201b60201c565b60ff161462000432576040517f08c379a0000000000000000000000000000000000000000000000000000000008152600401620004299062000779565b60405180910390fd5b6001600084815260200190815260200160002073__$0c6eb7207c37accf1552a1c47686411ac0$__63b4bdd117909184846040518463ffffffff1660e01b81526004016200048393929190620007df565b60006040518083038186803b1580156200049c57600080fd5b505af4158015620004b1573d6000803e3d6000fd5b50505050827fc3082aa494e9088c2c9f0fb62a0b6bd46e6699acb94cfba35be29b95a93f68c88383604051620004e99291906200081c565b60405180910390a2505050565b60006001600083815260200190815260200160002060000160009054906101000a900460ff169050919050565b60006200053a620005348462000872565b62000849565b905080838252602082019050828560408602820111156200055a57600080fd5b60005b858110156200058e5781620005738882620005dc565b8452602084019350604083019250506001810190506200055d565b5050509392505050565b600081519050620005a98162000ae6565b92915050565b600082601f830112620005c157600080fd5b8151620005d384826020860162000523565b91505092915050565b600060408284031215620005ef57600080fd5b620005fb604062000849565b905060006200060d8482850162000598565b600083015250602062000623848285016200062f565b60208301525092915050565b600081519050620006408162000b00565b92915050565b6000602082840312156200065957600080fd5b600082015167ffffffffffffffff8111156200067457600080fd5b6200068284828501620005af565b91505092915050565b6200069681620008b2565b82525050565b6000620006ab602583620008a1565b9150620006b88262000a1f565b604082019050919050565b6000620006d2601b83620008a1565b9150620006df8262000a6e565b602082019050919050565b6000620006f9603683620008a1565b9150620007068262000a97565b604082019050919050565b8082525050565b6200072381620008e6565b82525050565b6200073481620008e6565b82525050565b6200074581620008f0565b82525050565b6200075681620008f0565b82525050565b60006020820190506200077360008301846200068b565b92915050565b6000602082019050818103600083015262000794816200069c565b9050919050565b60006020820190508181036000830152620007b681620006c3565b9050919050565b60006020820190508181036000830152620007d881620006ea565b9050919050565b6000606082019050620007f6600083018662000711565b6200080560208301856200074b565b62000814604083018462000729565b949350505050565b60006040820190506200083360008301856200073a565b62000842602083018462000718565b9392505050565b60006200085562000868565b9050620008638282620008fd565b919050565b6000604051905090565b600067ffffffffffffffff82111562000890576200088f620009df565b5b602082029050602081019050919050565b600082825260208201905092915050565b6000620008bf82620008c6565b9050919050565b600073ffffffffffffffffffffffffffffffffffffffff82169050919050565b6000819050919050565b600060ff82169050919050565b620009088262000a0e565b810181811067ffffffffffffffff821117156200092a5762000929620009df565b5b80604052505050565b60006200094082620008e6565b91507fffffffffffffffffffffffffffffffffffffffffffffffffffffffffffffffff821415620009765762000975620009b0565b5b600182019050919050565b60006200098e82620008f0565b915060ff821415620009a557620009a4620009b0565b5b600182019050919050565b7f4e487b7100000000000000000000000000000000000000000000000000000000600052601160045260246000fd5b7f4e487b7100000000000000000000000000000000000000000000000000000000600052604160045260246000fd5b6000601f19601f8301169050919050565b7f53656d6170686f726547726f7570733a2067726f757020616c7265616479206560008201527f7869737473000000000000000000000000000000000000000000000000000000602082015250565b7f54726565206465707468206973206e6f7420737570706f727465640000000000600082015250565b7f53656d6170686f726547726f7570733a2067726f7570206964206d757374206260008201527f65203c20534e41524b5f5343414c41525f4649454c4400000000000000000000602082015250565b62000af181620008b2565b811462000afd57600080fd5b50565b62000b0b81620008f0565b811462000b1757600080fd5b50565b61372b8062000b2a6000396000f3fe608060405234801561001057600080fd5b50600436106101425760003560e01c80638da5cb5b116100b8578063b9c78c2b1161007c578063b9c78c2b146103cc578063cc405d8b146103fc578063cf48a1431461042c578063db22151e14610448578063e6e7349a14610464578063fc0f94251461048057610142565b80638da5cb5b146102fe5780639b24b3b01461031c578063ac28eacd1461034c578063af4a74cf1461037c578063b1ba329c146103b057610142565b806337fce1981161010a57806337fce198146102185780633fe29e2c1461024857806343989f85146102665780636673e849146102825780636e7685301461029e57806375e618c9146102ce57610142565b806305874565146101475780630c0512e91461017e5780630dc80cf51461019c5780631783efc3146101cc5780632d69be98146101e8575b600080fd5b610161600480360381019061015c9190612354565b6104b0565b604051610175989796959493929190612c1e565b60405180910390f35b6101866106b0565b6040516101939190612fb5565b60405180910390f35b6101b660048036038101906101b19190612354565b6106b6565b6040516101c39190612cf8565b60405180910390f35b6101e660048036038101906101e1919061247f565b6106d6565b005b61020260048036038101906101fd9190612556565b61074c565b60405161020f9190612d2e565b60405180910390f35b610232600480360381019061022d919061247f565b61077f565b60405161023f9190612fb5565b60405180910390f35b6102506107b0565b60405161025d9190612fb5565b60405180910390f35b610280600480360381019061027b91906124bb565b6107b6565b005b61029c60048036038101906102979190612407565b610834565b005b6102b860048036038101906102b39190612354565b61092c565b6040516102c59190612f93565b60405180910390f35b6102e860048036038101906102e39190612354565b610b8e565b6040516102f59190613083565b60405180910390f35b610306610bbb565b6040516103139190612c03565b60405180910390f35b61033660048036038101906103319190612354565b610be1565b6040516103439190612fb5565b60405180910390f35b61036660048036038101906103619190612354565b610c01565b6040516103739190612c03565b60405180910390f35b61039660048036038101906103919190612354565b610c34565b6040516103a7959493929190612fd0565b60405180910390f35b6103ca60048036038101906103c5919061237d565b610d12565b005b6103e660048036038101906103e19190612354565b610ec8565b6040516103f39190612fb5565b60405180910390f35b61041660048036038101906104119190612407565b610ee8565b6040516104239190612cf8565b60405180910390f35b6104466004803603810190610441919061217a565b610fe7565b005b610462600480360381019061045d919061257f565b6112ac565b005b61047e600480360381019061047991906122b2565b61146b565b005b61049a60048036038101906104959190612354565b611771565b6040516104a79190612cf8565b60405180910390f35b60076020528060005260406000206000915090508060000160009054906101000a900473ffffffffffffffffffffffffffffffffffffffff16908060010180546104f9906132fc565b80601f0160208091040260200160405190810160405280929190818152602001828054610525906132fc565b80156105725780601f1061054757610100808354040283529160200191610572565b820191906000526020600020905b81548152906001019060200180831161055557829003601f168201915b505050505090806002018054610587906132fc565b80601f01602080910402602001604051908101604052809291908181526020018280546105b3906132fc565b80156106005780601f106105d557610100808354040283529160200191610600565b820191906000526020600020905b8154815290600101906020018083116105e357829003601f168201915b50505050509080600301549080600401549080600501549080600601549080600701805461062d906132fc565b80601f0160208091040260200160405190810160405280929190818152602001828054610659906132fc565b80156106a65780601f1061067b576101008083540402835291602001916106a6565b820191906000526020600020905b81548152906001019060200180831161068957829003601f168201915b5050505050905088565b600b5481565b60056020528060005260406000206000915054906101000a900460ff1681565b6106e08282611791565b600c600082815260200190815260200160002082908060018154018082558091505060019003906000526020600020016000909190919091505580827fa6261b03033da26c67d0314ecedbe543df22d5c1dded351f9cc7257432a342dc60405160405180910390a35050565b60026020528060005260406000206000915054906101000a900473ffffffffffffffffffffffffffffffffffffffff1681565b600c602052816000526040600020818154811061079b57600080fd5b90600052602060002001600091509150505481565b60085481565b6107c48686868686866118a9565b600c600086815260200190815260200160002086908060018154018082558091505060019003906000526020600020016000909190919091505584867fd6d227d0653303d5e4a8229d6fa7ee4f5690ea621c4f97677237f2a6a93cc3bd60405160405180910390a3505050505050565b600061083f86610be1565b9050600061084c87610b8e565b905060008160ff161415610895576040517f08c379a000000000000000000000000000000000000000000000000000000000815260040161088c90612e7c565b60405180910390fd5b6000600260008360ff1660ff16815260200190815260200160002060009054906101000a900473ffffffffffffffffffffffffffffffffffffffff1690506108e18784888888866119cd565b6108ea86611d26565b877f102229041138505f4cecdadc8e3ac1cd92c55870c17371050fc00bdb088898018860405161091a9190612d13565b60405180910390a25050505050505050565b610934611ef9565b60076000838152602001908152602001600020604051806101000160405290816000820160009054906101000a900473ffffffffffffffffffffffffffffffffffffffff1673ffffffffffffffffffffffffffffffffffffffff1673ffffffffffffffffffffffffffffffffffffffff1681526020016001820180546109b9906132fc565b80601f01602080910402602001604051908101604052809291908181526020018280546109e5906132fc565b8015610a325780601f10610a0757610100808354040283529160200191610a32565b820191906000526020600020905b815481529060010190602001808311610a1557829003601f168201915b50505050508152602001600282018054610a4b906132fc565b80601f0160208091040260200160405190810160405280929190818152602001828054610a77906132fc565b8015610ac45780601f10610a9957610100808354040283529160200191610ac4565b820191906000526020600020905b815481529060010190602001808311610aa757829003601f168201915b5050505050815260200160038201548152602001600482015481526020016005820154815260200160068201548152602001600782018054610b05906132fc565b80601f0160208091040260200160405190810160405280929190818152602001828054610b31906132fc565b8015610b7e5780601f10610b5357610100808354040283529160200191610b7e565b820191906000526020600020905b815481529060010190602001808311610b6157829003601f168201915b5050505050815250509050919050565b60006001600083815260200190815260200160002060000160009054906101000a900460ff169050919050565b600960009054906101000a900473ffffffffffffffffffffffffffffffffffffffff1681565b600060016000838152602001908152602001600020600101549050919050565b60036020528060005260406000206000915054906101000a900473ffffffffffffffffffffffffffffffffffffffff1681565b60066020528060005260406000206000915090508060000154908060010160009054906101000a900473ffffffffffffffffffffffffffffffffffffffff1690806002015490806003018054610c89906132fc565b80601f0160208091040260200160405190810160405280929190818152602001828054610cb5906132fc565b8015610d025780601f10610cd757610100808354040283529160200191610d02565b820191906000526020600020905b815481529060010190602001808311610ce557829003601f168201915b5050505050908060040154905085565b6000610d1d87610be1565b90506000610d2a88610b8e565b905060008160ff161415610d73576040517f08c379a0000000000000000000000000000000000000000000000000000000008152600401610d6a90612e7c565b60405180910390fd5b6004600089815260200190815260200160002060009054906101000a900460ff16610dd3576040517f08c379a0000000000000000000000000000000000000000000000000000000008152600401610dca90612e3c565b60405180910390fd5b6000600260008360ff1660ff16815260200190815260200160002060009054906101000a900473ffffffffffffffffffffffffffffffffffffffff169050610e1f8584898988866119cd565b610e2887611d26565b8715610e5f57600760008781526020019081526020016000206003016000815480929190610e559061335f565b9190505550610e8c565b600760008781526020019081526020016000206004016000815480929190610e869061335f565b91905055505b871515868a7fa071403561971b5037de93aebd0f95690808372d2f63965534e2c1b5486f2c6a60405160405180910390a4505050505050505050565b600060016000838152602001908152602001600020600201549050919050565b600080610ef487610be1565b90506000610f0188610b8e565b905060008160ff161415610f4a576040517f08c379a0000000000000000000000000000000000000000000000000000000008152600401610f4190612dfc565b60405180910390fd5b6000600260008360ff1660ff16815260200190815260200160002060009054906101000a900473ffffffffffffffffffffffffffffffffffffffff169050610f968884898989866119cd565b610f9f87611d26565b887f102229041138505f4cecdadc8e3ac1cd92c55870c17371050fc00bdb0888980189604051610fcf9190612d13565b60405180910390a26001935050505095945050505050565b6000610ff286610be1565b90506000610fff87610b8e565b905060008160ff161415611048576040517f08c379a000000000000000000000000000000000000000000000000000000000815260040161103f90612e7c565b60405180910390fd5b6004600088815260200190815260200160002060009054906101000a900460ff166110a8576040517f08c379a000000000000000000000000000000000000000000000000000000000815260040161109f90612e3c565b60405180910390fd5b6000600260008360ff1660ff16815260200190815260200160002060009054906101000a900473ffffffffffffffffffffffffffffffffffffffff1690506110f48784888888866119cd565b6110fd86611d26565b600b60008154809291906111109061335f565b91905055506040518061010001604052808f73ffffffffffffffffffffffffffffffffffffffff1681526020018e81526020018d815260200160008152602001600081526020018c81526020018b81526020018a81525060076000600b54815260200190815260200160002060008201518160000160006101000a81548173ffffffffffffffffffffffffffffffffffffffff021916908373ffffffffffffffffffffffffffffffffffffffff16021790555060208201518160010190805190602001906111df929190611f54565b5060408201518160020190805190602001906111fc929190611f54565b50606082015181600301556080820151816004015560a0820151816005015560c0820151816006015560e0820151816007019080519060200190611241929190611f54565b50905050600b548d6040516112569190612bec565b6040518091039020897fac05e0aabbd58abee0c933085eff72ea4c1812104bc7bf7b31a4b2672d4d732f8f8f8f8f6040516112949493929190612d49565b60405180910390a45050505050505050505050505050565b84600073ffffffffffffffffffffffffffffffffffffffff16600260008360ff1660ff16815260200190815260200160002060009054906101000a900473ffffffffffffffffffffffffffffffffffffffff1673ffffffffffffffffffffffffffffffffffffffff161415611356576040517f08c379a000000000000000000000000000000000000000000000000000000000815260040161134d90612ddc565b60405180910390fd5b600a60008154809291906113699061335f565b919050555061137b600a548787611d54565b8360036000600a54815260200190815260200160002060006101000a81548173ffffffffffffffffffffffffffffffffffffffff021916908373ffffffffffffffffffffffffffffffffffffffff1602179055508260046000600a54815260200190815260200160002060006101000a81548160ff0219169083151502179055508160056000600a54815260200190815260200160002060006101000a81548160ff021916908315150217905550600a547fcbe08648079192e9f7eeb443f35dd17cd3b02ee13d08a915e409228e8fb697298560405161145b9190612c03565b60405180910390a2505050505050565b600061147686610be1565b9050600061148387610b8e565b905060008160ff1614156114cc576040517f08c379a00000000000000000000000000000000000000000000000000000000081526004016114c390612e7c565b60405180910390fd5b6005600088815260200190815260200160002060009054906101000a900460ff1661152c576040517f08c379a000000000000000000000000000000000000000000000000000000000815260040161152390612e9c565b60405180910390fd5b6000600260008360ff1660ff16815260200190815260200160002060009054906101000a900473ffffffffffffffffffffffffffffffffffffffff169050600073ffffffffffffffffffffffffffffffffffffffff16600260008460ff1660ff16815260200190815260200160002060009054906101000a900473ffffffffffffffffffffffffffffffffffffffff1673ffffffffffffffffffffffffffffffffffffffff161415611613576040517f08c379a000000000000000000000000000000000000000000000000000000000815260040161160a90612e1c565b60405180910390fd5b6116218784888888866119cd565b600860008154809291906116349061335f565b91905055506040518060a0016040528060085481526020013373ffffffffffffffffffffffffffffffffffffffff1681526020014281526020018a8152602001898152506006600060085481526020019081526020016000206000820151816000015560208201518160010160006101000a81548173ffffffffffffffffffffffffffffffffffffffff021916908373ffffffffffffffffffffffffffffffffffffffff160217905550604082015181600201556060820151816003019080519060200190611704929190611f54565b5060808201518160040155905050873373ffffffffffffffffffffffffffffffffffffffff166008547f985d9107ba825ea54576e0f30bf8875fa7fd40758b5b887fa32d40246bd84fae428d60405161175e92919061302a565b60405180910390a4505050505050505050565b60046020528060005260406000206000915054906101000a900460ff1681565b600061179c83610b8e565b60ff1614156117e0576040517f08c379a00000000000000000000000000000000000000000000000000000000081526004016117d790612e5c565b60405180910390fd5b6001600083815260200190815260200160002073__$0c6eb7207c37accf1552a1c47686411ac0$__63168703fa9091836040518363ffffffff1660e01b815260040161182d929190612edc565b60006040518083038186803b15801561184557600080fd5b505af4158015611859573d6000803e3d6000fd5b50505050600061186883610be1565b9050827f03fd27265b7dd1f55558bedc22a58fa3b10afb1be776e614bd5a7ba7b9499406838360405161189c92919061305a565b60405180910390a2505050565b60006118b487610b8e565b60ff1614156118f8576040517f08c379a00000000000000000000000000000000000000000000000000000000081526004016118ef90612e5c565b60405180910390fd5b6001600087815260200190815260200160002073__$0c6eb7207c37accf1552a1c47686411ac0$__630629596f909187878787876040518763ffffffff1660e01b815260040161194d96959493929190612f05565b60006040518083038186803b15801561196557600080fd5b505af4158015611979573d6000803e3d6000fd5b50505050600061198887610be1565b9050867fe270325ded177064d7bda473e6519ef40a291058c41286f71a6e4872f1e9ab5c87836040516119bc92919061305a565b60405180910390a250505050505050565b60008085815260200190815260200160002060009054906101000a900460ff1615611a2d576040517f08c379a0000000000000000000000000000000000000000000000000000000008152600401611a2490612d9c565b60405180910390fd5b6000611a3887611ec2565b90508173ffffffffffffffffffffffffffffffffffffffff16635fe8c13b604051806040016040528086600060088110611a9b577f4e487b7100000000000000000000000000000000000000000000000000000000600052603260045260246000fd5b6020020135815260200186600160088110611adf577f4e487b7100000000000000000000000000000000000000000000000000000000600052603260045260246000fd5b60200201358152506040518060400160405280604051806040016040528089600260088110611b37577f4e487b7100000000000000000000000000000000000000000000000000000000600052603260045260246000fd5b6020020135815260200189600360088110611b7b577f4e487b7100000000000000000000000000000000000000000000000000000000600052603260045260246000fd5b60200201358152508152602001604051806040016040528089600460088110611bcd577f4e487b7100000000000000000000000000000000000000000000000000000000600052603260045260246000fd5b6020020135815260200189600560088110611c11577f4e487b7100000000000000000000000000000000000000000000000000000000600052603260045260246000fd5b6020020135815250815250604051806040016040528088600660088110611c61577f4e487b7100000000000000000000000000000000000000000000000000000000600052603260045260246000fd5b6020020135815260200188600760088110611ca5577f4e487b7100000000000000000000000000000000000000000000000000000000600052603260045260246000fd5b602002013581525060405180608001604052808c81526020018b81526020018781526020018a8152506040518563ffffffff1660e01b8152600401611ced9493929190612cb1565b60006040518083038186803b158015611d0557600080fd5b505afa158015611d19573d6000803e3d6000fd5b5050505050505050505050565b600160008083815260200190815260200160002060006101000a81548160ff02191690831515021790555050565b7f30644e72e131a029b85045b68181585d2833e84879b9709143e1f593f00000018310611db6576040517f08c379a0000000000000000000000000000000000000000000000000000000008152600401611dad90612ebc565b60405180910390fd5b6000611dc184610b8e565b60ff1614611e04576040517f08c379a0000000000000000000000000000000000000000000000000000000008152600401611dfb90612dbc565b60405180910390fd5b6001600084815260200190815260200160002073__$0c6eb7207c37accf1552a1c47686411ac0$__63b4bdd117909184846040518463ffffffff1660e01b8152600401611e5393929190612f5c565b60006040518083038186803b158015611e6b57600080fd5b505af4158015611e7f573d6000803e3d6000fd5b50505050827fc3082aa494e9088c2c9f0fb62a0b6bd46e6699acb94cfba35be29b95a93f68c88383604051611eb592919061309e565b60405180910390a2505050565b6000600882604051602001611ed79190612bd1565b6040516020818303038152906040528051906020012060001c901c9050919050565b604051806101000160405280600073ffffffffffffffffffffffffffffffffffffffff168152602001606081526020016060815260200160008152602001600081526020016000815260200160008152602001606081525090565b828054611f60906132fc565b90600052602060002090601f016020900481019282611f825760008555611fc9565b82601f10611f9b57805160ff1916838001178555611fc9565b82800160010185558215611fc9579182015b82811115611fc8578251825591602001919060010190611fad565b5b509050611fd69190611fda565b5090565b5b80821115611ff3576000816000905550600101611fdb565b5090565b600061200a612005846130ec565b6130c7565b90508281526020810184848401111561202257600080fd5b61202d8482856132ba565b509392505050565b60008135905061204481613682565b92915050565b60008190508260206008028201111561206257600080fd5b92915050565b60008083601f84011261207a57600080fd5b8235905067ffffffffffffffff81111561209357600080fd5b6020830191508360208202830111156120ab57600080fd5b9250929050565b60008083601f8401126120c457600080fd5b8235905067ffffffffffffffff8111156120dd57600080fd5b6020830191508360208202830111156120f557600080fd5b9250929050565b60008135905061210b81613699565b92915050565b600081359050612120816136b0565b92915050565b600082601f83011261213757600080fd5b8135612147848260208601611ff7565b91505092915050565b60008135905061215f816136c7565b92915050565b600081359050612174816136de565b92915050565b60008060008060008060008060008060006102408c8e03121561219c57600080fd5b60006121aa8e828f01612035565b9b505060208c013567ffffffffffffffff8111156121c757600080fd5b6121d38e828f01612126565b9a505060408c013567ffffffffffffffff8111156121f057600080fd5b6121fc8e828f01612126565b995050606061220d8e828f01612150565b985050608061221e8e828f01612150565b97505060a08c013567ffffffffffffffff81111561223b57600080fd5b6122478e828f01612126565b96505060c06122588e828f01612150565b95505060e06122698e828f01612111565b94505061010061227b8e828f01612150565b93505061012061228d8e828f01612150565b92505061014061229f8e828f0161204a565b9150509295989b509295989b9093969950565b6000806000806000806101a087890312156122cc57600080fd5b600087013567ffffffffffffffff8111156122e657600080fd5b6122f289828a01612126565b965050602061230389828a01612150565b955050604061231489828a01612111565b945050606061232589828a01612150565b935050608061233689828a01612150565b92505060a061234789828a0161204a565b9150509295509295509295565b60006020828403121561236657600080fd5b600061237484828501612150565b91505092915050565b6000806000806000806101a0878903121561239757600080fd5b60006123a589828a01612150565b96505060206123b689828a016120fc565b95505060406123c789828a01612150565b94505060606123d889828a01612150565b93505060806123e989828a01612111565b92505060a06123fa89828a0161204a565b9150509295509295509295565b6000806000806000610180868803121561242057600080fd5b600061242e88828901612150565b955050602061243f88828901612111565b945050604061245088828901612150565b935050606061246188828901612150565b92505060806124728882890161204a565b9150509295509295909350565b6000806040838503121561249257600080fd5b60006124a085828601612150565b92505060206124b185828601612150565b9150509250929050565b600080600080600080608087890312156124d457600080fd5b60006124e289828a01612150565b96505060206124f389828a01612150565b955050604087013567ffffffffffffffff81111561251057600080fd5b61251c89828a01612068565b9450945050606087013567ffffffffffffffff81111561253b57600080fd5b61254789828a016120b2565b92509250509295509295509295565b60006020828403121561256857600080fd5b600061257684828501612165565b91505092915050565b600080600080600060a0868803121561259757600080fd5b60006125a588828901612165565b95505060206125b688828901612150565b94505060406125c788828901612035565b93505060606125d8888289016120fc565b92505060806125e9888289016120fc565b9150509295509295909350565b600061260283836126b3565b60408301905092915050565b600061261a8383612b77565b60208301905092915050565b60006126328383612bc2565b60208301905092915050565b61264781613237565b82525050565b61265681613237565b82525050565b61266581613145565b61266f81846131a5565b925061267a8261311d565b8060005b838110156126ab57815161269287826125f6565b965061269d83613171565b92505060018101905061267e565b505050505050565b6126bc81613150565b6126c681846131b0565b92506126d182613127565b8060005b838110156127025781516126e9878261260e565b96506126f48361317e565b9250506001810190506126d5565b505050505050565b61271381613150565b61271d81846131bb565b925061272882613127565b8060005b83811015612759578151612740878261260e565b965061274b8361317e565b92505060018101905061272c565b505050505050565b61276a8161315b565b61277481846131c6565b925061277f82613131565b8060005b838110156127b0578151612797878261260e565b96506127a28361318b565b925050600181019050612783565b505050505050565b60006127c483856131d1565b93507f07ffffffffffffffffffffffffffffffffffffffffffffffffffffffffffffff8311156127f357600080fd5b6020830292506128048385846132ba565b82840190509392505050565b600061281c83856131e2565b93506128278261313b565b8060005b858110156128605761283d8284613220565b6128478882612626565b975061285283613198565b92505060018101905061282b565b5085925050509392505050565b61287681613249565b82525050565b61288581613255565b82525050565b61289c61289782613255565b6133a8565b82525050565b6128ab81613296565b82525050565b60006128bc82613166565b6128c681856131f3565b93506128d68185602086016132c9565b6128df8161343f565b840191505092915050565b60006128f582613166565b6128ff8185613204565b935061290f8185602086016132c9565b6129188161343f565b840191505092915050565b600061292e82613166565b6129388185613215565b93506129488185602086016132c9565b80840191505092915050565b6000612961603683613204565b915061296c82613450565b604082019050919050565b6000612984602583613204565b915061298f8261349f565b604082019050919050565b60006129a7601b83613204565b91506129b2826134ee565b602082019050919050565b60006129ca602083613204565b91506129d582613517565b602082019050919050565b60006129ed601c83613204565b91506129f882613540565b602082019050919050565b6000612a10601183613204565b9150612a1b82613569565b602082019050919050565b6000612a33602583613204565b9150612a3e82613592565b604082019050919050565b6000612a56601483613204565b9150612a61826135e1565b602082019050919050565b6000612a79601583613204565b9150612a848261360a565b602082019050919050565b6000612a9c603683613204565b9150612aa782613633565b604082019050919050565b8082525050565b600061010083016000830151612ad2600086018261263e565b5060208301518482036020860152612aea82826128b1565b91505060408301518482036040860152612b0482826128b1565b9150506060830151612b196060860182612b77565b506080830151612b2c6080860182612b77565b5060a0830151612b3f60a0860182612b77565b5060c0830151612b5260c0860182612b77565b5060e083015184820360e0860152612b6a82826128b1565b9150508091505092915050565b612b808161327f565b82525050565b612b8f8161327f565b82525050565b612b9e8161327f565b82525050565b612bad81613289565b82525050565b612bbc81613289565b82525050565b612bcb81613289565b82525050565b6000612bdd828461288b565b60208201915081905092915050565b6000612bf88284612923565b915081905092915050565b6000602082019050612c18600083018461264d565b92915050565b600061010082019050612c34600083018b61264d565b8181036020830152612c46818a6128ea565b90508181036040830152612c5a81896128ea565b9050612c696060830188612b86565b612c766080830187612b86565b612c8360a0830186612b86565b612c9060c0830185612b86565b81810360e0830152612ca281846128ea565b90509998505050505050505050565b600061018082019050612cc7600083018761270a565b612cd4604083018661265c565b612ce160c083018561270a565b612cef610100830184612761565b95945050505050565b6000602082019050612d0d600083018461286d565b92915050565b6000602082019050612d28600083018461287c565b92915050565b6000602082019050612d4360008301846128a2565b92915050565b60006080820190508181036000830152612d6381876128ea565b9050612d726020830186612b86565b612d7f6040830185612b86565b8181036060830152612d9181846128ea565b905095945050505050565b60006020820190508181036000830152612db581612954565b9050919050565b60006020820190508181036000830152612dd581612977565b9050919050565b60006020820190508181036000830152612df58161299a565b9050919050565b60006020820190508181036000830152612e15816129bd565b9050919050565b60006020820190508181036000830152612e35816129e0565b9050919050565b60006020820190508181036000830152612e5581612a03565b9050919050565b60006020820190508181036000830152612e7581612a26565b9050919050565b60006020820190508181036000830152612e9581612a49565b9050919050565b60006020820190508181036000830152612eb581612a6c565b9050919050565b60006020820190508181036000830152612ed581612a8f565b9050919050565b6000604082019050612ef16000830185612ab2565b612efe6020830184612b95565b9392505050565b6000608082019050612f1a6000830189612ab2565b612f276020830188612b95565b8181036040830152612f3a8186886127b8565b90508181036060830152612f4f818486612810565b9050979650505050505050565b6000606082019050612f716000830186612ab2565b612f7e6020830185612bb3565b612f8b6040830184612b95565b949350505050565b60006020820190508181036000830152612fad8184612ab9565b905092915050565b6000602082019050612fca6000830184612b86565b92915050565b600060a082019050612fe56000830188612b86565b612ff2602083018761264d565b612fff6040830186612b86565b818103606083015261301181856128ea565b90506130206080830184612b86565b9695505050505050565b600060408201905061303f6000830185612b86565b818103602083015261305181846128ea565b90509392505050565b600060408201905061306f6000830185612b86565b61307c6020830184612b86565b9392505050565b60006020820190506130986000830184612ba4565b92915050565b60006040820190506130b36000830185612ba4565b6130c06020830184612b86565b9392505050565b60006130d16130e2565b90506130dd828261332e565b919050565b6000604051905090565b600067ffffffffffffffff82111561310757613106613410565b5b6131108261343f565b9050602081019050919050565b6000819050919050565b6000819050919050565b6000819050919050565b6000819050919050565b600060029050919050565b600060029050919050565b600060049050919050565b600081519050919050565b6000602082019050919050565b6000602082019050919050565b6000602082019050919050565b6000602082019050919050565b600081905092915050565b600081905092915050565b600081905092915050565b600081905092915050565b600082825260208201905092915050565b600082825260208201905092915050565b600082825260208201905092915050565b600082825260208201905092915050565b600081905092915050565b600061322f6020840184612165565b905092915050565b60006132428261325f565b9050919050565b60008115159050919050565b6000819050919050565b600073ffffffffffffffffffffffffffffffffffffffff82169050919050565b6000819050919050565b600060ff82169050919050565b60006132a1826132a8565b9050919050565b60006132b38261325f565b9050919050565b82818337600083830152505050565b60005b838110156132e75780820151818401526020810190506132cc565b838111156132f6576000848401525b50505050565b6000600282049050600182168061331457607f821691505b60208210811415613328576133276133e1565b5b50919050565b6133378261343f565b810181811067ffffffffffffffff8211171561335657613355613410565b5b80604052505050565b600061336a8261327f565b91507fffffffffffffffffffffffffffffffffffffffffffffffffffffffffffffffff82141561339d5761339c6133b2565b5b600182019050919050565b6000819050919050565b7f4e487b7100000000000000000000000000000000000000000000000000000000600052601160045260246000fd5b7f4e487b7100000000000000000000000000000000000000000000000000000000600052602260045260246000fd5b7f4e487b7100000000000000000000000000000000000000000000000000000000600052604160045260246000fd5b6000601f19601f8301169050919050565b7f53656d6170686f7265436f72653a20796f752063616e6e6f742075736520746860008201527f652073616d65206e756c6c696669657220747769636500000000000000000000602082015250565b7f53656d6170686f726547726f7570733a2067726f757020616c7265616479206560008201527f7869737473000000000000000000000000000000000000000000000000000000602082015250565b7f54726565206465707468206973206e6f7420737570706f727465640000000000600082015250565b7f4f6d436f6e74726163743a2067726f757020646f6573206e6f74206578697374600082015250565b7f44657074682076616c7565206973206e6f7420737570706f7274656400000000600082015250565b7f47726f75702063616e6e6f7420566f7465000000000000000000000000000000600082015250565b7f53656d6170686f726547726f7570733a2067726f757020646f6573206e6f742060008201527f6578697374000000000000000000000000000000000000000000000000000000602082015250565b7f47726f757020646f6573206e6f74206578697374000000000000000000000000600082015250565b7f47726f75702063616e6e6f742061646420446174610000000000000000000000600082015250565b7f53656d6170686f726547726f7570733a2067726f7570206964206d757374206260008201527f65203c20534e41524b5f5343414c41525f4649454c4400000000000000000000602082015250565b61368b81613237565b811461369657600080fd5b50565b6136a281613249565b81146136ad57600080fd5b50565b6136b981613255565b81146136c457600080fd5b50565b6136d08161327f565b81146136db57600080fd5b50565b6136e781613289565b81146136f257600080fd5b5056fea2646970667358221220be5ddca16fed6cfcde2d6ce3e5971a6b15475d862a2b31ad97f65016f16c062664736f6c63430008040033",
  "linkReferences": {
    "@zk-kit/incremental-merkle-tree.sol/IncrementalBinaryTree.sol": {
      "IncrementalBinaryTree": [
        {
          "length": 20,
          "start": 1095
        },
        {
          "length": 20,
          "start": 8991
        },
        {
          "length": 20,
          "start": 9271
        },
        {
          "length": 20,
          "start": 10563
        }
      ]
    }
  },
  "deployedLinkReferences": {
    "@zk-kit/incremental-merkle-tree.sol/IncrementalBinaryTree.sol": {
      "IncrementalBinaryTree": [
        {
          "length": 20,
          "start": 6133
        },
        {
          "length": 20,
          "start": 6413
        },
        {
          "length": 20,
          "start": 7705
        }
      ]
    }
  }
}