{
  "_format": "hh-sol-artifact-1",
  "contractName": "OmContract",
  "sourceName": "contracts/OmContract.sol",
  "abi": [
    {
      "inputs": [
        {
          "components": [
            {
              "internalType": "address",
              "name": "contractAddress",
              "type": "address"
            },
            {
              "internalType": "uint8",
              "name": "merkleTreeDepth",
              "type": "uint8"
            }
          ],
          "internalType": "struct OmContract.Verifier[]",
          "name": "_verifiers",
          "type": "tuple[]"
        }
      ],
      "stateMutability": "nonpayable",
      "type": "constructor"
    },
    {
      "anonymous": false,
      "inputs": [
        {
          "indexed": true,
          "internalType": "uint256",
          "name": "groupId",
          "type": "uint256"
        },
        {
          "indexed": false,
          "internalType": "bytes32",
          "name": "daoName",
          "type": "bytes32"
        }
      ],
      "name": "DaoCreated",
      "type": "event"
    },
    {
      "anonymous": false,
      "inputs": [
        {
          "indexed": true,
          "internalType": "uint256",
          "name": "dataId",
          "type": "uint256"
        },
        {
          "indexed": true,
          "internalType": "address",
          "name": "owner",
          "type": "address"
        },
        {
          "indexed": false,
          "internalType": "uint256",
          "name": "dateAdded",
          "type": "uint256"
        },
        {
          "indexed": false,
          "internalType": "string",
          "name": "IpfsURI",
          "type": "string"
        },
        {
          "indexed": true,
          "internalType": "uint256",
          "name": "groupId",
          "type": "uint256"
        }
      ],
      "name": "DataAdded",
      "type": "event"
    },
    {
      "anonymous": false,
      "inputs": [
        {
          "indexed": true,
          "internalType": "uint256",
          "name": "dataId",
          "type": "uint256"
        },
        {
          "components": [
            {
              "internalType": "uint256",
              "name": "dataId",
              "type": "uint256"
            },
            {
              "internalType": "string",
              "name": "title",
              "type": "string"
            },
            {
              "internalType": "uint256",
              "name": "size",
              "type": "uint256"
            },
            {
              "internalType": "address",
              "name": "dataOwner",
              "type": "address"
            },
            {
              "internalType": "uint256",
              "name": "addedDate",
              "type": "uint256"
            },
            {
              "internalType": "string",
              "name": "IpfsURI",
              "type": "string"
            },
            {
              "internalType": "uint256",
              "name": "groupId",
              "type": "uint256"
            }
          ],
          "indexed": false,
          "internalType": "struct OmContract.dataStructure",
          "name": "dataInfos",
          "type": "tuple"
        }
      ],
      "name": "DataAdded",
      "type": "event"
    },
    {
      "anonymous": false,
      "inputs": [
        {
          "indexed": true,
          "internalType": "uint256",
          "name": "groupId",
          "type": "uint256"
        },
        {
          "indexed": false,
          "internalType": "uint8",
          "name": "depth",
          "type": "uint8"
        },
        {
          "indexed": false,
          "internalType": "uint256",
          "name": "zeroValue",
          "type": "uint256"
        }
      ],
      "name": "GroupCreated",
      "type": "event"
    },
    {
      "anonymous": false,
      "inputs": [
        {
          "indexed": true,
          "internalType": "uint256",
          "name": "groupId",
          "type": "uint256"
        },
        {
          "indexed": false,
          "internalType": "uint256",
          "name": "identityCommitment",
          "type": "uint256"
        },
        {
          "indexed": false,
          "internalType": "uint256",
          "name": "root",
          "type": "uint256"
        }
      ],
      "name": "MemberAdded",
      "type": "event"
    },
    {
      "anonymous": false,
      "inputs": [
        {
          "indexed": true,
          "internalType": "uint256",
          "name": "groupId",
          "type": "uint256"
        },
        {
          "indexed": false,
          "internalType": "uint256",
          "name": "identityCommitment",
          "type": "uint256"
        },
        {
          "indexed": false,
          "internalType": "uint256",
          "name": "root",
          "type": "uint256"
        }
      ],
      "name": "MemberRemoved",
      "type": "event"
    },
    {
      "anonymous": false,
      "inputs": [
        {
          "indexed": false,
          "internalType": "uint256",
          "name": "nullifierHash",
          "type": "uint256"
        }
      ],
      "name": "NullifierHashAdded",
      "type": "event"
    },
    {
      "anonymous": false,
      "inputs": [
        {
          "indexed": true,
          "internalType": "uint256",
          "name": "groupId",
          "type": "uint256"
        },
        {
          "indexed": false,
          "internalType": "address",
          "name": "admin",
          "type": "address"
        }
      ],
      "name": "OmGroupCreated",
      "type": "event"
    },
    {
      "anonymous": false,
      "inputs": [
        {
          "indexed": true,
          "internalType": "uint256",
          "name": "groupId",
          "type": "uint256"
        },
        {
          "indexed": true,
          "internalType": "uint256",
          "name": "memberID",
          "type": "uint256"
        }
      ],
      "name": "OmMemberAdded",
      "type": "event"
    },
    {
      "anonymous": false,
      "inputs": [
        {
          "indexed": true,
          "internalType": "uint256",
          "name": "groupId",
          "type": "uint256"
        },
        {
          "indexed": true,
          "internalType": "uint256",
          "name": "memberID",
          "type": "uint256"
        }
      ],
      "name": "OmMemberRemoved",
      "type": "event"
    },
    {
      "anonymous": false,
      "inputs": [
        {
          "indexed": true,
          "internalType": "uint256",
          "name": "groupId",
          "type": "uint256"
        },
        {
          "indexed": false,
          "internalType": "bytes32",
          "name": "signal",
          "type": "bytes32"
        }
      ],
      "name": "ProofVerified",
      "type": "event"
    },
    {
      "anonymous": false,
      "inputs": [
        {
          "indexed": false,
          "internalType": "uint256",
          "name": "groupId",
          "type": "uint256"
        },
        {
          "indexed": true,
          "internalType": "uint256",
          "name": "proposalCounter",
          "type": "uint256"
        },
        {
          "components": [
            {
              "internalType": "address",
              "name": "coordinator",
              "type": "address"
            },
            {
              "internalType": "string",
              "name": "title",
              "type": "string"
            },
            {
              "internalType": "string",
              "name": "description",
              "type": "string"
            },
            {
              "internalType": "uint256",
              "name": "yesCount",
              "type": "uint256"
            },
            {
              "internalType": "uint256",
              "name": "noCount",
              "type": "uint256"
            },
            {
              "internalType": "uint256",
              "name": "StartDate",
              "type": "uint256"
            },
            {
              "internalType": "uint256",
              "name": "EndDate",
              "type": "uint256"
            },
            {
              "internalType": "string",
              "name": "IpfsURI",
              "type": "string"
            }
          ],
          "indexed": false,
          "internalType": "struct OmContract.Proposal",
          "name": "proposalData",
          "type": "tuple"
        }
      ],
      "name": "ProposalCreated",
      "type": "event"
    },
    {
      "anonymous": false,
      "inputs": [
        {
          "indexed": true,
          "internalType": "uint256",
          "name": "groupId",
          "type": "uint256"
        },
        {
          "indexed": true,
          "internalType": "uint256",
          "name": "proposalId",
          "type": "uint256"
        },
        {
          "indexed": true,
          "internalType": "bool",
          "name": "vote",
          "type": "bool"
        }
      ],
      "name": "VoteCast",
      "type": "event"
    },
    {
      "inputs": [
        {
          "internalType": "uint256",
          "name": "",
          "type": "uint256"
        }
      ],
      "name": "ProposalList",
      "outputs": [
        {
          "internalType": "address",
          "name": "coordinator",
          "type": "address"
        },
        {
          "internalType": "string",
          "name": "title",
          "type": "string"
        },
        {
          "internalType": "string",
          "name": "description",
          "type": "string"
        },
        {
          "internalType": "uint256",
          "name": "yesCount",
          "type": "uint256"
        },
        {
          "internalType": "uint256",
          "name": "noCount",
          "type": "uint256"
        },
        {
          "internalType": "uint256",
          "name": "StartDate",
          "type": "uint256"
        },
        {
          "internalType": "uint256",
          "name": "EndDate",
          "type": "uint256"
        },
        {
          "internalType": "string",
          "name": "IpfsURI",
          "type": "string"
        }
      ],
      "stateMutability": "view",
      "type": "function"
    },
    {
      "inputs": [
        {
          "internalType": "uint256",
          "name": "groupId",
          "type": "uint256"
        },
        {
          "internalType": "uint256",
          "name": "root",
          "type": "uint256"
        },
        {
          "internalType": "bytes32",
          "name": "signal",
          "type": "bytes32"
        },
        {
          "internalType": "uint256",
          "name": "nullifierHash",
          "type": "uint256"
        },
        {
          "internalType": "uint256",
          "name": "externalNullifier",
          "type": "uint256"
        },
        {
          "internalType": "uint256[8]",
          "name": "proof",
          "type": "uint256[8]"
        }
      ],
      "name": "accessData",
      "outputs": [
        {
          "internalType": "bool",
          "name": "",
          "type": "bool"
        }
      ],
      "stateMutability": "nonpayable",
      "type": "function"
    },
    {
      "inputs": [
        {
          "internalType": "string",
          "name": "title",
          "type": "string"
        },
        {
          "internalType": "string",
          "name": "IpfsURI",
          "type": "string"
        },
        {
          "internalType": "uint256",
          "name": "size",
          "type": "uint256"
        },
        {
          "internalType": "uint256",
          "name": "groupId",
          "type": "uint256"
        },
        {
          "internalType": "uint256",
          "name": "root",
          "type": "uint256"
        },
        {
          "internalType": "bytes32",
          "name": "signal",
          "type": "bytes32"
        },
        {
          "internalType": "uint256",
          "name": "nullifierHash",
          "type": "uint256"
        },
        {
          "internalType": "uint256",
          "name": "externalNullifier",
          "type": "uint256"
        },
        {
          "internalType": "uint256[8]",
          "name": "proof",
          "type": "uint256[8]"
        }
      ],
      "name": "addData",
      "outputs": [],
      "stateMutability": "nonpayable",
      "type": "function"
    },
    {
      "inputs": [
        {
          "internalType": "uint256",
          "name": "groupId",
          "type": "uint256"
        },
        {
          "internalType": "uint256",
          "name": "identityCommitment",
          "type": "uint256"
        }
      ],
      "name": "addMember",
      "outputs": [],
      "stateMutability": "nonpayable",
      "type": "function"
    },
    {
      "inputs": [
        {
          "internalType": "uint256",
          "name": "",
          "type": "uint256"
        }
      ],
      "name": "canGroupAddData",
      "outputs": [
        {
          "internalType": "bool",
          "name": "",
          "type": "bool"
        }
      ],
      "stateMutability": "view",
      "type": "function"
    },
    {
      "inputs": [
        {
          "internalType": "uint256",
          "name": "",
          "type": "uint256"
        }
      ],
      "name": "canGroupPropose",
      "outputs": [
        {
          "internalType": "bool",
          "name": "",
          "type": "bool"
        }
      ],
      "stateMutability": "view",
      "type": "function"
    },
    {
      "inputs": [
        {
          "internalType": "uint256",
          "name": "groupId",
          "type": "uint256"
        },
        {
          "internalType": "uint256",
          "name": "root",
          "type": "uint256"
        },
        {
          "internalType": "bool",
          "name": "vote",
          "type": "bool"
        },
        {
          "internalType": "uint256",
          "name": "nullifierHash",
          "type": "uint256"
        },
        {
          "internalType": "uint256",
          "name": "externalNullifierProposalId",
          "type": "uint256"
        },
        {
          "internalType": "bytes32",
          "name": "signal",
          "type": "bytes32"
        },
        {
          "internalType": "uint256[8]",
          "name": "proof",
          "type": "uint256[8]"
        }
      ],
      "name": "castVote",
      "outputs": [],
      "stateMutability": "nonpayable",
      "type": "function"
    },
    {
      "inputs": [
        {
          "internalType": "uint8",
          "name": "depth",
          "type": "uint8"
        },
        {
          "internalType": "uint256",
          "name": "zeroValue",
          "type": "uint256"
        },
        {
          "internalType": "address",
          "name": "admin",
          "type": "address"
        },
        {
          "internalType": "bool",
          "name": "canPropose",
          "type": "bool"
        },
        {
          "internalType": "bool",
          "name": "canAddData",
          "type": "bool"
        }
      ],
      "name": "createGroup",
      "outputs": [],
      "stateMutability": "nonpayable",
      "type": "function"
    },
    {
      "inputs": [
        {
          "internalType": "string",
          "name": "title",
          "type": "string"
        },
        {
          "internalType": "string",
          "name": "description",
          "type": "string"
        },
        {
          "internalType": "uint256",
          "name": "root",
          "type": "uint256"
        },
        {
          "internalType": "uint256",
          "name": "startDate",
          "type": "uint256"
        },
        {
          "internalType": "uint256",
          "name": "endDate",
          "type": "uint256"
        },
        {
          "internalType": "string",
          "name": "proposalURI",
          "type": "string"
        },
        {
          "internalType": "uint256",
          "name": "groupId",
          "type": "uint256"
        },
        {
          "internalType": "bytes32",
          "name": "signal",
          "type": "bytes32"
        },
        {
          "internalType": "uint256",
          "name": "nullifierHash",
          "type": "uint256"
        },
        {
          "internalType": "uint256",
          "name": "externalNullifier",
          "type": "uint256"
        },
        {
          "internalType": "uint256[8]",
          "name": "proof",
          "type": "uint256[8]"
        }
      ],
      "name": "createProposal",
      "outputs": [],
      "stateMutability": "nonpayable",
      "type": "function"
    },
    {
      "inputs": [],
      "name": "dataFileCounter",
      "outputs": [
        {
          "internalType": "uint256",
          "name": "",
          "type": "uint256"
        }
      ],
      "stateMutability": "view",
      "type": "function"
    },
    {
      "inputs": [
        {
          "internalType": "uint256",
          "name": "",
          "type": "uint256"
        }
      ],
      "name": "dataList",
      "outputs": [
        {
          "internalType": "uint256",
          "name": "dataId",
          "type": "uint256"
        },
        {
          "internalType": "string",
          "name": "title",
          "type": "string"
        },
        {
          "internalType": "uint256",
          "name": "size",
          "type": "uint256"
        },
        {
          "internalType": "address",
          "name": "dataOwner",
          "type": "address"
        },
        {
          "internalType": "uint256",
          "name": "addedDate",
          "type": "uint256"
        },
        {
          "internalType": "string",
          "name": "IpfsURI",
          "type": "string"
        },
        {
          "internalType": "uint256",
          "name": "groupId",
          "type": "uint256"
        }
      ],
      "stateMutability": "view",
      "type": "function"
    },
    {
      "inputs": [
        {
          "internalType": "uint256",
          "name": "groupId",
          "type": "uint256"
        }
      ],
      "name": "getDepth",
      "outputs": [
        {
          "internalType": "uint8",
          "name": "",
          "type": "uint8"
        }
      ],
      "stateMutability": "view",
      "type": "function"
    },
    {
      "inputs": [
        {
          "internalType": "uint256",
          "name": "groupId",
          "type": "uint256"
        }
      ],
      "name": "getNumberOfLeaves",
      "outputs": [
        {
          "internalType": "uint256",
          "name": "",
          "type": "uint256"
        }
      ],
      "stateMutability": "view",
      "type": "function"
    },
    {
      "inputs": [
        {
          "internalType": "uint256",
          "name": "proposalId",
          "type": "uint256"
        }
      ],
      "name": "getProposalData",
      "outputs": [
        {
          "components": [
            {
              "internalType": "address",
              "name": "coordinator",
              "type": "address"
            },
            {
              "internalType": "string",
              "name": "title",
              "type": "string"
            },
            {
              "internalType": "string",
              "name": "description",
              "type": "string"
            },
            {
              "internalType": "uint256",
              "name": "yesCount",
              "type": "uint256"
            },
            {
              "internalType": "uint256",
              "name": "noCount",
              "type": "uint256"
            },
            {
              "internalType": "uint256",
              "name": "StartDate",
              "type": "uint256"
            },
            {
              "internalType": "uint256",
              "name": "EndDate",
              "type": "uint256"
            },
            {
              "internalType": "string",
              "name": "IpfsURI",
              "type": "string"
            }
          ],
          "internalType": "struct OmContract.Proposal",
          "name": "ProposalData",
          "type": "tuple"
        }
      ],
      "stateMutability": "view",
      "type": "function"
    },
    {
      "inputs": [
        {
          "internalType": "uint256",
          "name": "groupId",
          "type": "uint256"
        }
      ],
      "name": "getRoot",
      "outputs": [
        {
          "internalType": "uint256",
          "name": "",
          "type": "uint256"
        }
      ],
      "stateMutability": "view",
      "type": "function"
    },
    {
      "inputs": [
        {
          "internalType": "uint256",
          "name": "",
          "type": "uint256"
        }
      ],
      "name": "groupAdmins",
      "outputs": [
        {
          "internalType": "address",
          "name": "",
          "type": "address"
        }
      ],
      "stateMutability": "view",
      "type": "function"
    },
    {
      "inputs": [
        {
          "internalType": "uint256",
          "name": "",
          "type": "uint256"
        },
        {
          "internalType": "uint256",
          "name": "",
          "type": "uint256"
        }
      ],
      "name": "groupMembership",
      "outputs": [
        {
          "internalType": "uint256",
          "name": "",
          "type": "uint256"
        }
      ],
      "stateMutability": "view",
      "type": "function"
    },
    {
      "inputs": [],
      "name": "owner",
      "outputs": [
        {
          "internalType": "address",
          "name": "",
          "type": "address"
        }
      ],
      "stateMutability": "view",
      "type": "function"
    },
    {
      "inputs": [],
      "name": "proposalCounter",
      "outputs": [
        {
          "internalType": "uint256",
          "name": "",
          "type": "uint256"
        }
      ],
      "stateMutability": "view",
      "type": "function"
    },
    {
      "inputs": [
        {
          "internalType": "uint256",
          "name": "groupId",
          "type": "uint256"
        },
        {
          "internalType": "uint256",
          "name": "identityCommitment",
          "type": "uint256"
        },
        {
          "internalType": "uint256[]",
          "name": "proofSiblings",
          "type": "uint256[]"
        },
        {
          "internalType": "uint8[]",
          "name": "proofPathIndices",
          "type": "uint8[]"
        }
      ],
      "name": "removeMember",
      "outputs": [],
      "stateMutability": "nonpayable",
      "type": "function"
    },
    {
      "inputs": [
        {
          "internalType": "uint8",
          "name": "",
          "type": "uint8"
        }
      ],
      "name": "verifiers",
      "outputs": [
        {
          "internalType": "contract IVerifier",
          "name": "",
          "type": "address"
        }
      ],
      "stateMutability": "view",
      "type": "function"
    },
    {
      "inputs": [
        {
          "internalType": "uint256",
          "name": "groupId",
          "type": "uint256"
        },
        {
          "internalType": "bytes32",
          "name": "signal",
          "type": "bytes32"
        },
        {
          "internalType": "uint256",
          "name": "root",
          "type": "uint256"
        },
        {
          "internalType": "uint256",
          "name": "nullifierHash",
          "type": "uint256"
        },
        {
          "internalType": "uint256",
          "name": "externalNullifier",
          "type": "uint256"
        },
        {
          "internalType": "uint256[8]",
          "name": "proof",
          "type": "uint256[8]"
        }
      ],
      "name": "verifyProof",
      "outputs": [],
      "stateMutability": "nonpayable",
      "type": "function"
    }
  ],
  "bytecode": "0x60806040523480156200001157600080fd5b506040516200464338038062004643833981810160405281019062000037919062000646565b60005b81518160ff1610156200014557818160ff168151811062000084577f4e487b7100000000000000000000000000000000000000000000000000000000600052603260045260246000fd5b60200260200101516000015160026000848460ff1681518110620000d1577f4e487b7100000000000000000000000000000000000000000000000000000000600052603260045260246000fd5b60200260200101516020015160ff1660ff16815260200190815260200160002060006101000a81548173ffffffffffffffffffffffffffffffffffffffff021916908373ffffffffffffffffffffffffffffffffffffffff16021790555080806200013c9062000981565b9150506200003a565b5033600960006101000a81548173ffffffffffffffffffffffffffffffffffffffff021916908373ffffffffffffffffffffffffffffffffffffffff1602179055506200019f6014600033600180620001a660201b60201c565b5062000b1a565b84600073ffffffffffffffffffffffffffffffffffffffff16600260008360ff1660ff16815260200190815260200160002060009054906101000a900473ffffffffffffffffffffffffffffffffffffffff1673ffffffffffffffffffffffffffffffffffffffff16141562000253576040517f08c379a00000000000000000000000000000000000000000000000000000000081526004016200024a906200079b565b60405180910390fd5b600a6000815480929190620002689062000933565b919050555062000282600a5487876200037460201b60201c565b8360036000600a54815260200190815260200160002060006101000a81548173ffffffffffffffffffffffffffffffffffffffff021916908373ffffffffffffffffffffffffffffffffffffffff1602179055508260046000600a54815260200190815260200160002060006101000a81548160ff0219169083151502179055508160056000600a54815260200190815260200160002060006101000a81548160ff021916908315150217905550600a547fcbe08648079192e9f7eeb443f35dd17cd3b02ee13d08a915e409228e8fb69729856040516200036491906200075c565b60405180910390a2505050505050565b7f30644e72e131a029b85045b68181585d2833e84879b9709143e1f593f00000018310620003d9576040517f08c379a0000000000000000000000000000000000000000000000000000000008152600401620003d090620007bd565b60405180910390fd5b6000620003ec84620004f660201b60201c565b60ff161462000432576040517f08c379a0000000000000000000000000000000000000000000000000000000008152600401620004299062000779565b60405180910390fd5b6001600084815260200190815260200160002073__$0c6eb7207c37accf1552a1c47686411ac0$__63b4bdd117909184846040518463ffffffff1660e01b81526004016200048393929190620007df565b60006040518083038186803b1580156200049c57600080fd5b505af4158015620004b1573d6000803e3d6000fd5b50505050827fc3082aa494e9088c2c9f0fb62a0b6bd46e6699acb94cfba35be29b95a93f68c88383604051620004e99291906200081c565b60405180910390a2505050565b60006001600083815260200190815260200160002060000160009054906101000a900460ff169050919050565b60006200053a620005348462000872565b62000849565b905080838252602082019050828560408602820111156200055a57600080fd5b60005b858110156200058e5781620005738882620005dc565b8452602084019350604083019250506001810190506200055d565b5050509392505050565b600081519050620005a98162000ae6565b92915050565b600082601f830112620005c157600080fd5b8151620005d384826020860162000523565b91505092915050565b600060408284031215620005ef57600080fd5b620005fb604062000849565b905060006200060d8482850162000598565b600083015250602062000623848285016200062f565b60208301525092915050565b600081519050620006408162000b00565b92915050565b6000602082840312156200065957600080fd5b600082015167ffffffffffffffff8111156200067457600080fd5b6200068284828501620005af565b91505092915050565b6200069681620008b2565b82525050565b6000620006ab602583620008a1565b9150620006b88262000a1f565b604082019050919050565b6000620006d2601b83620008a1565b9150620006df8262000a6e565b602082019050919050565b6000620006f9603683620008a1565b9150620007068262000a97565b604082019050919050565b8082525050565b6200072381620008e6565b82525050565b6200073481620008e6565b82525050565b6200074581620008f0565b82525050565b6200075681620008f0565b82525050565b60006020820190506200077360008301846200068b565b92915050565b6000602082019050818103600083015262000794816200069c565b9050919050565b60006020820190508181036000830152620007b681620006c3565b9050919050565b60006020820190508181036000830152620007d881620006ea565b9050919050565b6000606082019050620007f6600083018662000711565b6200080560208301856200074b565b62000814604083018462000729565b949350505050565b60006040820190506200083360008301856200073a565b62000842602083018462000718565b9392505050565b60006200085562000868565b9050620008638282620008fd565b919050565b6000604051905090565b600067ffffffffffffffff82111562000890576200088f620009df565b5b602082029050602081019050919050565b600082825260208201905092915050565b6000620008bf82620008c6565b9050919050565b600073ffffffffffffffffffffffffffffffffffffffff82169050919050565b6000819050919050565b600060ff82169050919050565b620009088262000a0e565b810181811067ffffffffffffffff821117156200092a5762000929620009df565b5b80604052505050565b60006200094082620008e6565b91507fffffffffffffffffffffffffffffffffffffffffffffffffffffffffffffffff821415620009765762000975620009b0565b5b600182019050919050565b60006200098e82620008f0565b915060ff821415620009a557620009a4620009b0565b5b600182019050919050565b7f4e487b7100000000000000000000000000000000000000000000000000000000600052601160045260246000fd5b7f4e487b7100000000000000000000000000000000000000000000000000000000600052604160045260246000fd5b6000601f19601f8301169050919050565b7f53656d6170686f726547726f7570733a2067726f757020616c7265616479206560008201527f7869737473000000000000000000000000000000000000000000000000000000602082015250565b7f54726565206465707468206973206e6f7420737570706f727465640000000000600082015250565b7f53656d6170686f726547726f7570733a2067726f7570206964206d757374206260008201527f65203c20534e41524b5f5343414c41525f4649454c4400000000000000000000602082015250565b62000af181620008b2565b811462000afd57600080fd5b50565b62000b0b81620008f0565b811462000b1757600080fd5b50565b613b198062000b2a6000396000f3fe608060405234801561001057600080fd5b50600436106101425760003560e01c8063856dc14a116100b8578063af4a74cf1161007c578063af4a74cf146103c8578063b9c78c2b146103fe578063db22151e1461042e578063e63ac69e1461044a578063f82ac05714610466578063fc0f94251461048257610142565b8063856dc14a146103125780638da5cb5b1461032e5780639b24b3b01461034c5780639e05f74c1461037c578063ac28eacd1461039857610142565b806337fce1981161010a57806337fce198146102185780633fe29e2c1461024857806343989f85146102665780636e76853014610282578063746ea5b9146102b257806375e618c9146102e257610142565b806305874565146101475780630c0512e91461017e5780630dc80cf51461019c5780631783efc3146101cc5780632d69be98146101e8575b600080fd5b610161600480360381019061015c9190612424565b6104b2565b604051610175989796959493929190612fa5565b60405180910390f35b6101866106b2565b604051610193919061330b565b60405180910390f35b6101b660048036038101906101b19190612424565b6106b8565b6040516101c3919061307f565b60405180910390f35b6101e660048036038101906101e191906124d7565b6106d8565b005b61020260048036038101906101fd91906126d7565b61074e565b60405161020f91906130b5565b60405180910390f35b610232600480360381019061022d91906124d7565b610781565b60405161023f919061330b565b60405180910390f35b6102506107b2565b60405161025d919061330b565b60405180910390f35b610280600480360381019061027b9190612513565b6107b8565b005b61029c60048036038101906102979190612424565b610836565b6040516102a991906132c7565b60405180910390f35b6102cc60048036038101906102c7919061264d565b610a98565b6040516102d9919061307f565b60405180910390f35b6102fc60048036038101906102f79190612424565b610b8a565b60405161030991906133fc565b60405180910390f35b61032c600480360381019061032791906122ec565b610bb7565b005b610336610e67565b6040516103439190612f8a565b60405180910390f35b61036660048036038101906103619190612424565b610e8d565b604051610373919061330b565b60405180910390f35b610396600480360381019061039191906121f6565b610ead565b005b6103b260048036038101906103ad9190612424565b6111d5565b6040516103bf9190612f8a565b60405180910390f35b6103e260048036038101906103dd9190612424565b611208565b6040516103f59796959493929190613326565b60405180910390f35b61041860048036038101906104139190612424565b61137a565b604051610425919061330b565b60405180910390f35b61044860048036038101906104439190612700565b61139a565b005b610464600480360381019061045f919061244d565b611559565b005b610480600480360381019061047b91906125ae565b611644565b005b61049c60048036038101906104979190612424565b6117ed565b6040516104a9919061307f565b60405180910390f35b60076020528060005260406000206000915090508060000160009054906101000a900473ffffffffffffffffffffffffffffffffffffffff16908060010180546104fb906136a9565b80601f0160208091040260200160405190810160405280929190818152602001828054610527906136a9565b80156105745780601f1061054957610100808354040283529160200191610574565b820191906000526020600020905b81548152906001019060200180831161055757829003601f168201915b505050505090806002018054610589906136a9565b80601f01602080910402602001604051908101604052809291908181526020018280546105b5906136a9565b80156106025780601f106105d757610100808354040283529160200191610602565b820191906000526020600020905b8154815290600101906020018083116105e557829003601f168201915b50505050509080600301549080600401549080600501549080600601549080600701805461062f906136a9565b80601f016020809104026020016040519081016040528092919081815260200182805461065b906136a9565b80156106a85780601f1061067d576101008083540402835291602001916106a8565b820191906000526020600020905b81548152906001019060200180831161068b57829003601f168201915b5050505050905088565b600b5481565b60056020528060005260406000206000915054906101000a900460ff1681565b6106e2828261180d565b600c600082815260200190815260200160002082908060018154018082558091505060019003906000526020600020016000909190919091505580827fa6261b03033da26c67d0314ecedbe543df22d5c1dded351f9cc7257432a342dc60405160405180910390a35050565b60026020528060005260406000206000915054906101000a900473ffffffffffffffffffffffffffffffffffffffff1681565b600c602052816000526040600020818154811061079d57600080fd5b90600052602060002001600091509150505481565b60085481565b6107c6868686868686611925565b600c600086815260200190815260200160002086908060018154018082558091505060019003906000526020600020016000909190919091505584867fd6d227d0653303d5e4a8229d6fa7ee4f5690ea621c4f97677237f2a6a93cc3bd60405160405180910390a3505050505050565b61083e611f75565b60076000838152602001908152602001600020604051806101000160405290816000820160009054906101000a900473ffffffffffffffffffffffffffffffffffffffff1673ffffffffffffffffffffffffffffffffffffffff1673ffffffffffffffffffffffffffffffffffffffff1681526020016001820180546108c3906136a9565b80601f01602080910402602001604051908101604052809291908181526020018280546108ef906136a9565b801561093c5780601f106109115761010080835404028352916020019161093c565b820191906000526020600020905b81548152906001019060200180831161091f57829003601f168201915b50505050508152602001600282018054610955906136a9565b80601f0160208091040260200160405190810160405280929190818152602001828054610981906136a9565b80156109ce5780601f106109a3576101008083540402835291602001916109ce565b820191906000526020600020905b8154815290600101906020018083116109b157829003601f168201915b5050505050815260200160038201548152602001600482015481526020016005820154815260200160068201548152602001600782018054610a0f906136a9565b80601f0160208091040260200160405190810160405280929190818152602001828054610a3b906136a9565b8015610a885780601f10610a5d57610100808354040283529160200191610a88565b820191906000526020600020905b815481529060010190602001808311610a6b57829003601f168201915b5050505050815250509050919050565b600080610aa488610b8a565b905060008160ff161415610aed576040517f08c379a0000000000000000000000000000000000000000000000000000000008152600401610ae490613130565b60405180910390fd5b6000600260008360ff1660ff16815260200190815260200160002060009054906101000a900473ffffffffffffffffffffffffffffffffffffffff169050610b39878988888886611a49565b610b4286611da2565b887f102229041138505f4cecdadc8e3ac1cd92c55870c17371050fc00bdb0888980188604051610b72919061309a565b60405180910390a26001925050509695505050505050565b60006001600083815260200190815260200160002060000160009054906101000a900460ff169050919050565b6000610bc286610b8a565b905060008160ff161415610c0b576040517f08c379a0000000000000000000000000000000000000000000000000000000008152600401610c02906131b0565b60405180910390fd5b6004600087815260200190815260200160002060009054906101000a900460ff16610c6b576040517f08c379a0000000000000000000000000000000000000000000000000000000008152600401610c6290613170565b60405180910390fd5b6000600260008360ff1660ff16815260200190815260200160002060009054906101000a900473ffffffffffffffffffffffffffffffffffffffff169050610cb7868c87878786611a49565b610cc085611da2565b600b6000815480929190610cd390613740565b91905055506040518061010001604052803373ffffffffffffffffffffffffffffffffffffffff1681526020018e81526020018d815260200160008152602001600081526020018b81526020018a81526020018981525060076000600b54815260200190815260200160002060008201518160000160006101000a81548173ffffffffffffffffffffffffffffffffffffffff021916908373ffffffffffffffffffffffffffffffffffffffff1602179055506020820151816001019080519060200190610da2929190611fd0565b506040820151816002019080519060200190610dbf929190611fd0565b50606082015181600301556080820151816004015560a0820151816005015560c0820151816006015560e0820151816007019080519060200190610e04929190611fd0565b50905050600b547f7436c2a101d4552357d4a45e8c5524ffa67c60c9d0b850c828e4eb8de47841de8860076000600b548152602001908152602001600020604051610e509291906133a3565b60405180910390a250505050505050505050505050565b600960009054906101000a900473ffffffffffffffffffffffffffffffffffffffff1681565b600060016000838152602001908152602001600020600101549050919050565b6000610eb887610b8a565b905060008160ff161415610f01576040517f08c379a0000000000000000000000000000000000000000000000000000000008152600401610ef8906131b0565b60405180910390fd5b6005600088815260200190815260200160002060009054906101000a900460ff16610f61576040517f08c379a0000000000000000000000000000000000000000000000000000000008152600401610f58906131d0565b60405180910390fd5b6000600260008360ff1660ff16815260200190815260200160002060009054906101000a900473ffffffffffffffffffffffffffffffffffffffff169050600073ffffffffffffffffffffffffffffffffffffffff16600260008460ff1660ff16815260200190815260200160002060009054906101000a900473ffffffffffffffffffffffffffffffffffffffff1673ffffffffffffffffffffffffffffffffffffffff161415611048576040517f08c379a000000000000000000000000000000000000000000000000000000000815260040161103f90613150565b60405180910390fd5b611056868887878786611a49565b6008600081548092919061106990613740565b91905055506040518060e0016040528060085481526020018c81526020018a81526020013373ffffffffffffffffffffffffffffffffffffffff1681526020014281526020018b8152602001898152506006600060085481526020019081526020016000206000820151816000015560208201518160010190805190602001906110f4929190611fd0565b506040820151816002015560608201518160030160006101000a81548173ffffffffffffffffffffffffffffffffffffffff021916908373ffffffffffffffffffffffffffffffffffffffff1602179055506080820151816004015560a082015181600501908051906020019061116c929190611fd0565b5060c082015181600601559050506008547fc90156f0977e357de14fa65fcb6800676feb50dc6e3f300decd25af344ea87cb6006600060085481526020019081526020016000206040516111c091906132e9565b60405180910390a25050505050505050505050565b60036020528060005260406000206000915054906101000a900473ffffffffffffffffffffffffffffffffffffffff1681565b6006602052806000526040600020600091509050806000015490806001018054611231906136a9565b80601f016020809104026020016040519081016040528092919081815260200182805461125d906136a9565b80156112aa5780601f1061127f576101008083540402835291602001916112aa565b820191906000526020600020905b81548152906001019060200180831161128d57829003601f168201915b5050505050908060020154908060030160009054906101000a900473ffffffffffffffffffffffffffffffffffffffff16908060040154908060050180546112f1906136a9565b80601f016020809104026020016040519081016040528092919081815260200182805461131d906136a9565b801561136a5780601f1061133f5761010080835404028352916020019161136a565b820191906000526020600020905b81548152906001019060200180831161134d57829003601f168201915b5050505050908060060154905087565b600060016000838152602001908152602001600020600201549050919050565b84600073ffffffffffffffffffffffffffffffffffffffff16600260008360ff1660ff16815260200190815260200160002060009054906101000a900473ffffffffffffffffffffffffffffffffffffffff1673ffffffffffffffffffffffffffffffffffffffff161415611444576040517f08c379a000000000000000000000000000000000000000000000000000000000815260040161143b90613110565b60405180910390fd5b600a600081548092919061145790613740565b9190505550611469600a548787611dd0565b8360036000600a54815260200190815260200160002060006101000a81548173ffffffffffffffffffffffffffffffffffffffff021916908373ffffffffffffffffffffffffffffffffffffffff1602179055508260046000600a54815260200190815260200160002060006101000a81548160ff0219169083151502179055508160056000600a54815260200190815260200160002060006101000a81548160ff021916908315150217905550600a547fcbe08648079192e9f7eeb443f35dd17cd3b02ee13d08a915e409228e8fb69729856040516115499190612f8a565b60405180910390a2505050505050565b600061156487610b8a565b905060008160ff1614156115ad576040517f08c379a00000000000000000000000000000000000000000000000000000000081526004016115a4906131b0565b60405180910390fd5b6000600260008360ff1660ff16815260200190815260200160002060009054906101000a900473ffffffffffffffffffffffffffffffffffffffff1690506115f9878787878786611a49565b61160285611da2565b877f102229041138505f4cecdadc8e3ac1cd92c55870c17371050fc00bdb0888980188604051611632919061309a565b60405180910390a25050505050505050565b600061164f88610b8a565b905060008160ff161415611698576040517f08c379a000000000000000000000000000000000000000000000000000000000815260040161168f906131b0565b60405180910390fd5b6004600089815260200190815260200160002060009054906101000a900460ff166116f8576040517f08c379a00000000000000000000000000000000000000000000000000000000081526004016116ef90613170565b60405180910390fd5b6000600260008360ff1660ff16815260200190815260200160002060009054906101000a900473ffffffffffffffffffffffffffffffffffffffff169050611744848988888786611a49565b61174d86611da2565b86156117845760076000868152602001908152602001600020600301600081548092919061177a90613740565b91905055506117b1565b6007600086815260200190815260200160002060040160008154809291906117ab90613740565b91905055505b861515858a7fa071403561971b5037de93aebd0f95690808372d2f63965534e2c1b5486f2c6a60405160405180910390a4505050505050505050565b60046020528060005260406000206000915054906101000a900460ff1681565b600061181883610b8a565b60ff16141561185c576040517f08c379a000000000000000000000000000000000000000000000000000000000815260040161185390613190565b60405180910390fd5b6001600083815260200190815260200160002073__$0c6eb7207c37accf1552a1c47686411ac0$__63168703fa9091836040518363ffffffff1660e01b81526004016118a9929190613210565b60006040518083038186803b1580156118c157600080fd5b505af41580156118d5573d6000803e3d6000fd5b5050505060006118e483610e8d565b9050827f03fd27265b7dd1f55558bedc22a58fa3b10afb1be776e614bd5a7ba7b949940683836040516119189291906133d3565b60405180910390a2505050565b600061193087610b8a565b60ff161415611974576040517f08c379a000000000000000000000000000000000000000000000000000000000815260040161196b90613190565b60405180910390fd5b6001600087815260200190815260200160002073__$0c6eb7207c37accf1552a1c47686411ac0$__630629596f909187878787876040518763ffffffff1660e01b81526004016119c996959493929190613239565b60006040518083038186803b1580156119e157600080fd5b505af41580156119f5573d6000803e3d6000fd5b505050506000611a0487610e8d565b9050867fe270325ded177064d7bda473e6519ef40a291058c41286f71a6e4872f1e9ab5c8783604051611a389291906133d3565b60405180910390a250505050505050565b60008085815260200190815260200160002060009054906101000a900460ff1615611aa9576040517f08c379a0000000000000000000000000000000000000000000000000000000008152600401611aa0906130d0565b60405180910390fd5b6000611ab487611f3e565b90508173ffffffffffffffffffffffffffffffffffffffff16635fe8c13b604051806040016040528086600060088110611b17577f4e487b7100000000000000000000000000000000000000000000000000000000600052603260045260246000fd5b6020020135815260200186600160088110611b5b577f4e487b7100000000000000000000000000000000000000000000000000000000600052603260045260246000fd5b60200201358152506040518060400160405280604051806040016040528089600260088110611bb3577f4e487b7100000000000000000000000000000000000000000000000000000000600052603260045260246000fd5b6020020135815260200189600360088110611bf7577f4e487b7100000000000000000000000000000000000000000000000000000000600052603260045260246000fd5b60200201358152508152602001604051806040016040528089600460088110611c49577f4e487b7100000000000000000000000000000000000000000000000000000000600052603260045260246000fd5b6020020135815260200189600560088110611c8d577f4e487b7100000000000000000000000000000000000000000000000000000000600052603260045260246000fd5b6020020135815250815250604051806040016040528088600660088110611cdd577f4e487b7100000000000000000000000000000000000000000000000000000000600052603260045260246000fd5b6020020135815260200188600760088110611d21577f4e487b7100000000000000000000000000000000000000000000000000000000600052603260045260246000fd5b602002013581525060405180608001604052808c81526020018b81526020018781526020018a8152506040518563ffffffff1660e01b8152600401611d699493929190613038565b60006040518083038186803b158015611d8157600080fd5b505afa158015611d95573d6000803e3d6000fd5b5050505050505050505050565b600160008083815260200190815260200160002060006101000a81548160ff02191690831515021790555050565b7f30644e72e131a029b85045b68181585d2833e84879b9709143e1f593f00000018310611e32576040517f08c379a0000000000000000000000000000000000000000000000000000000008152600401611e29906131f0565b60405180910390fd5b6000611e3d84610b8a565b60ff1614611e80576040517f08c379a0000000000000000000000000000000000000000000000000000000008152600401611e77906130f0565b60405180910390fd5b6001600084815260200190815260200160002073__$0c6eb7207c37accf1552a1c47686411ac0$__63b4bdd117909184846040518463ffffffff1660e01b8152600401611ecf93929190613290565b60006040518083038186803b158015611ee757600080fd5b505af4158015611efb573d6000803e3d6000fd5b50505050827fc3082aa494e9088c2c9f0fb62a0b6bd46e6699acb94cfba35be29b95a93f68c88383604051611f31929190613417565b60405180910390a2505050565b6000600882604051602001611f539190612f6f565b6040516020818303038152906040528051906020012060001c901c9050919050565b604051806101000160405280600073ffffffffffffffffffffffffffffffffffffffff168152602001606081526020016060815260200160008152602001600081526020016000815260200160008152602001606081525090565b828054611fdc906136a9565b90600052602060002090601f016020900481019282611ffe5760008555612045565b82601f1061201757805160ff1916838001178555612045565b82800160010185558215612045579182015b82811115612044578251825591602001919060010190612029565b5b5090506120529190612056565b5090565b5b8082111561206f576000816000905550600101612057565b5090565b600061208661208184613465565b613440565b90508281526020810184848401111561209e57600080fd5b6120a9848285613667565b509392505050565b6000813590506120c081613a70565b92915050565b6000819050826020600802820111156120de57600080fd5b92915050565b60008083601f8401126120f657600080fd5b8235905067ffffffffffffffff81111561210f57600080fd5b60208301915083602082028301111561212757600080fd5b9250929050565b60008083601f84011261214057600080fd5b8235905067ffffffffffffffff81111561215957600080fd5b60208301915083602082028301111561217157600080fd5b9250929050565b60008135905061218781613a87565b92915050565b60008135905061219c81613a9e565b92915050565b600082601f8301126121b357600080fd5b81356121c3848260208601612073565b91505092915050565b6000813590506121db81613ab5565b92915050565b6000813590506121f081613acc565b92915050565b60008060008060008060008060006102008a8c03121561221557600080fd5b60008a013567ffffffffffffffff81111561222f57600080fd5b61223b8c828d016121a2565b99505060208a013567ffffffffffffffff81111561225857600080fd5b6122648c828d016121a2565b98505060406122758c828d016121cc565b97505060606122868c828d016121cc565b96505060806122978c828d016121cc565b95505060a06122a88c828d0161218d565b94505060c06122b98c828d016121cc565b93505060e06122ca8c828d016121cc565b9250506101006122dc8c828d016120c6565b9150509295985092959850929598565b60008060008060008060008060008060006102408c8e03121561230e57600080fd5b60008c013567ffffffffffffffff81111561232857600080fd5b6123348e828f016121a2565b9b505060208c013567ffffffffffffffff81111561235157600080fd5b61235d8e828f016121a2565b9a5050604061236e8e828f016121cc565b995050606061237f8e828f016121cc565b98505060806123908e828f016121cc565b97505060a08c013567ffffffffffffffff8111156123ad57600080fd5b6123b98e828f016121a2565b96505060c06123ca8e828f016121cc565b95505060e06123db8e828f0161218d565b9450506101006123ed8e828f016121cc565b9350506101206123ff8e828f016121cc565b9250506101406124118e828f016120c6565b9150509295989b509295989b9093969950565b60006020828403121561243657600080fd5b6000612444848285016121cc565b91505092915050565b6000806000806000806101a0878903121561246757600080fd5b600061247589828a016121cc565b965050602061248689828a0161218d565b955050604061249789828a016121cc565b94505060606124a889828a016121cc565b93505060806124b989828a016121cc565b92505060a06124ca89828a016120c6565b9150509295509295509295565b600080604083850312156124ea57600080fd5b60006124f8858286016121cc565b9250506020612509858286016121cc565b9150509250929050565b6000806000806000806080878903121561252c57600080fd5b600061253a89828a016121cc565b965050602061254b89828a016121cc565b955050604087013567ffffffffffffffff81111561256857600080fd5b61257489828a016120e4565b9450945050606087013567ffffffffffffffff81111561259357600080fd5b61259f89828a0161212e565b92509250509295509295509295565b60008060008060008060006101c0888a0312156125ca57600080fd5b60006125d88a828b016121cc565b97505060206125e98a828b016121cc565b96505060406125fa8a828b01612178565b955050606061260b8a828b016121cc565b945050608061261c8a828b016121cc565b93505060a061262d8a828b0161218d565b92505060c061263e8a828b016120c6565b91505092959891949750929550565b6000806000806000806101a0878903121561266757600080fd5b600061267589828a016121cc565b965050602061268689828a016121cc565b955050604061269789828a0161218d565b94505060606126a889828a016121cc565b93505060806126b989828a016121cc565b92505060a06126ca89828a016120c6565b9150509295509295509295565b6000602082840312156126e957600080fd5b60006126f7848285016121e1565b91505092915050565b600080600080600060a0868803121561271857600080fd5b6000612726888289016121e1565b9550506020612737888289016121cc565b9450506040612748888289016120b1565b935050606061275988828901612178565b925050608061276a88828901612178565b9150509295509295909350565b60006127838383612834565b60408301905092915050565b600061279b8383612f15565b60208301905092915050565b60006127b38383612f60565b60208301905092915050565b6127c8816135e4565b82525050565b6127d7816135e4565b82525050565b6127e6816134d3565b6127f08184613533565b92506127fb82613496565b8060005b8381101561282c5781516128138782612777565b965061281e836134ff565b9250506001810190506127ff565b505050505050565b61283d816134de565b612847818461353e565b9250612852826134a0565b8060005b8381101561288357815161286a878261278f565b96506128758361350c565b925050600181019050612856565b505050505050565b612894816134de565b61289e8184613549565b92506128a9826134a0565b8060005b838110156128da5781516128c1878261278f565b96506128cc8361350c565b9250506001810190506128ad565b505050505050565b6128eb816134e9565b6128f58184613554565b9250612900826134aa565b8060005b83811015612931578151612918878261278f565b965061292383613519565b925050600181019050612904565b505050505050565b6000612945838561355f565b93507f07ffffffffffffffffffffffffffffffffffffffffffffffffffffffffffffff83111561297457600080fd5b602083029250612985838584613667565b82840190509392505050565b600061299d8385613570565b93506129a8826134b4565b8060005b858110156129e1576129be82846135a3565b6129c888826127a7565b97506129d383613526565b9250506001810190506129ac565b5085925050509392505050565b6129f7816135f6565b82525050565b612a0681613602565b82525050565b612a1d612a1882613602565b613789565b82525050565b612a2c81613643565b82525050565b6000612a3d826134f4565b612a478185613581565b9350612a57818560208601613676565b612a6081613820565b840191505092915050565b6000612a76826134f4565b612a808185613592565b9350612a90818560208601613676565b612a9981613820565b840191505092915050565b60008154612ab1816136a9565b612abb8186613581565b94506001821660008114612ad65760018114612ae857612b1b565b60ff1983168652602086019350612b1b565b612af1856134be565b60005b83811015612b1357815481890152600182019150602081019050612af4565b808801955050505b50505092915050565b6000612b31603683613592565b9150612b3c8261383e565b604082019050919050565b6000612b54602583613592565b9150612b5f8261388d565b604082019050919050565b6000612b77601b83613592565b9150612b82826138dc565b602082019050919050565b6000612b9a602083613592565b9150612ba582613905565b602082019050919050565b6000612bbd601c83613592565b9150612bc88261392e565b602082019050919050565b6000612be0601183613592565b9150612beb82613957565b602082019050919050565b6000612c03602583613592565b9150612c0e82613980565b604082019050919050565b6000612c26601483613592565b9150612c31826139cf565b602082019050919050565b6000612c49601583613592565b9150612c54826139f8565b602082019050919050565b6000612c6c603683613592565b9150612c7782613a21565b604082019050919050565b8082525050565b600061010083016000830151612ca260008601826127bf565b5060208301518482036020860152612cba8282612a32565b91505060408301518482036040860152612cd48282612a32565b9150506060830151612ce96060860182612f15565b506080830151612cfc6080860182612f15565b5060a0830151612d0f60a0860182612f15565b5060c0830151612d2260c0860182612f15565b5060e083015184820360e0860152612d3a8282612a32565b9150508091505092915050565b600061010083016000808401549050612d5f816136db565b612d6c60008701826127bf565b50600184018583036020870152612d838382612aa4565b925050600284018583036040870152612d9c8382612aa4565b92505060038401549050612daf816136f5565b612dbc6060870182612f15565b5060048401549050612dcd816136f5565b612dda6080870182612f15565b5060058401549050612deb816136f5565b612df860a0870182612f15565b5060068401549050612e09816136f5565b612e1660c0870182612f15565b506007840185830360e0870152612e2d8382612aa4565b925050819250505092915050565b600060e083016000808401549050612e52816136f5565b612e5f6000870182612f15565b50600184018583036020870152612e768382612aa4565b92505060028401549050612e89816136f5565b612e966040870182612f15565b5060038401549050612ea7816136db565b612eb460608701826127bf565b5060048401549050612ec5816136f5565b612ed26080870182612f15565b506005840185830360a0870152612ee98382612aa4565b92505060068401549050612efc816136f5565b612f0960c0870182612f15565b50819250505092915050565b612f1e8161362c565b82525050565b612f2d8161362c565b82525050565b612f3c8161362c565b82525050565b612f4b81613636565b82525050565b612f5a81613636565b82525050565b612f6981613636565b82525050565b6000612f7b8284612a0c565b60208201915081905092915050565b6000602082019050612f9f60008301846127ce565b92915050565b600061010082019050612fbb600083018b6127ce565b8181036020830152612fcd818a612a6b565b90508181036040830152612fe18189612a6b565b9050612ff06060830188612f24565b612ffd6080830187612f24565b61300a60a0830186612f24565b61301760c0830185612f24565b81810360e08301526130298184612a6b565b90509998505050505050505050565b60006101808201905061304e600083018761288b565b61305b60408301866127dd565b61306860c083018561288b565b6130766101008301846128e2565b95945050505050565b600060208201905061309460008301846129ee565b92915050565b60006020820190506130af60008301846129fd565b92915050565b60006020820190506130ca6000830184612a23565b92915050565b600060208201905081810360008301526130e981612b24565b9050919050565b6000602082019050818103600083015261310981612b47565b9050919050565b6000602082019050818103600083015261312981612b6a565b9050919050565b6000602082019050818103600083015261314981612b8d565b9050919050565b6000602082019050818103600083015261316981612bb0565b9050919050565b6000602082019050818103600083015261318981612bd3565b9050919050565b600060208201905081810360008301526131a981612bf6565b9050919050565b600060208201905081810360008301526131c981612c19565b9050919050565b600060208201905081810360008301526131e981612c3c565b9050919050565b6000602082019050818103600083015261320981612c5f565b9050919050565b60006040820190506132256000830185612c82565b6132326020830184612f33565b9392505050565b600060808201905061324e6000830189612c82565b61325b6020830188612f33565b818103604083015261326e818688612939565b90508181036060830152613283818486612991565b9050979650505050505050565b60006060820190506132a56000830186612c82565b6132b26020830185612f51565b6132bf6040830184612f33565b949350505050565b600060208201905081810360008301526132e18184612c89565b905092915050565b600060208201905081810360008301526133038184612e3b565b905092915050565b60006020820190506133206000830184612f24565b92915050565b600060e08201905061333b600083018a612f24565b818103602083015261334d8189612a6b565b905061335c6040830188612f24565b61336960608301876127ce565b6133766080830186612f24565b81810360a08301526133888185612a6b565b905061339760c0830184612f24565b98975050505050505050565b60006040820190506133b86000830185612f24565b81810360208301526133ca8184612d47565b90509392505050565b60006040820190506133e86000830185612f24565b6133f56020830184612f24565b9392505050565b60006020820190506134116000830184612f42565b92915050565b600060408201905061342c6000830185612f42565b6134396020830184612f24565b9392505050565b600061344a61345b565b9050613456828261370f565b919050565b6000604051905090565b600067ffffffffffffffff8211156134805761347f6137f1565b5b61348982613820565b9050602081019050919050565b6000819050919050565b6000819050919050565b6000819050919050565b6000819050919050565b60008190508160005260206000209050919050565b600060029050919050565b600060029050919050565b600060049050919050565b600081519050919050565b6000602082019050919050565b6000602082019050919050565b6000602082019050919050565b6000602082019050919050565b600081905092915050565b600081905092915050565b600081905092915050565b600081905092915050565b600082825260208201905092915050565b600082825260208201905092915050565b600082825260208201905092915050565b600082825260208201905092915050565b60006135b260208401846121e1565b905092915050565b600073ffffffffffffffffffffffffffffffffffffffff82169050919050565b6000819050919050565b60006135ef8261360c565b9050919050565b60008115159050919050565b6000819050919050565b600073ffffffffffffffffffffffffffffffffffffffff82169050919050565b6000819050919050565b600060ff82169050919050565b600061364e82613655565b9050919050565b60006136608261360c565b9050919050565b82818337600083830152505050565b60005b83811015613694578082015181840152602081019050613679565b838111156136a3576000848401525b50505050565b600060028204905060018216806136c157607f821691505b602082108114156136d5576136d46137c2565b5b50919050565b60006136ee6136e983613831565b6135ba565b9050919050565b600061370861370383613831565b6135da565b9050919050565b61371882613820565b810181811067ffffffffffffffff82111715613737576137366137f1565b5b80604052505050565b600061374b8261362c565b91507fffffffffffffffffffffffffffffffffffffffffffffffffffffffffffffffff82141561377e5761377d613793565b5b600182019050919050565b6000819050919050565b7f4e487b7100000000000000000000000000000000000000000000000000000000600052601160045260246000fd5b7f4e487b7100000000000000000000000000000000000000000000000000000000600052602260045260246000fd5b7f4e487b7100000000000000000000000000000000000000000000000000000000600052604160045260246000fd5b6000601f19601f8301169050919050565b60008160001c9050919050565b7f53656d6170686f7265436f72653a20796f752063616e6e6f742075736520746860008201527f652073616d65206e756c6c696669657220747769636500000000000000000000602082015250565b7f53656d6170686f726547726f7570733a2067726f757020616c7265616479206560008201527f7869737473000000000000000000000000000000000000000000000000000000602082015250565b7f54726565206465707468206973206e6f7420737570706f727465640000000000600082015250565b7f4f6d436f6e74726163743a2067726f757020646f6573206e6f74206578697374600082015250565b7f44657074682076616c7565206973206e6f7420737570706f7274656400000000600082015250565b7f47726f75702063616e6e6f7420566f7465000000000000000000000000000000600082015250565b7f53656d6170686f726547726f7570733a2067726f757020646f6573206e6f742060008201527f6578697374000000000000000000000000000000000000000000000000000000602082015250565b7f47726f757020646f6573206e6f74206578697374000000000000000000000000600082015250565b7f47726f75702063616e6e6f742061646420446174610000000000000000000000600082015250565b7f53656d6170686f726547726f7570733a2067726f7570206964206d757374206260008201527f65203c20534e41524b5f5343414c41525f4649454c4400000000000000000000602082015250565b613a79816135e4565b8114613a8457600080fd5b50565b613a90816135f6565b8114613a9b57600080fd5b50565b613aa781613602565b8114613ab257600080fd5b50565b613abe8161362c565b8114613ac957600080fd5b50565b613ad581613636565b8114613ae057600080fd5b5056fea2646970667358221220cd1aff3bc7fd70afded800fdd4924b625f97ffe264cc8e471c8fe258fe92b42c64736f6c63430008040033",
  "linkReferences": {
    "@zk-kit/incremental-merkle-tree.sol/IncrementalBinaryTree.sol": {
      "IncrementalBinaryTree": [
        {
          "length": 20,
          "start": 1095
        },
        {
          "length": 20,
          "start": 9115
        },
        {
          "length": 20,
          "start": 9395
        },
        {
          "length": 20,
          "start": 10687
        }
      ]
    }
  },
  "deployedLinkReferences": {
    "@zk-kit/incremental-merkle-tree.sol/IncrementalBinaryTree.sol": {
      "IncrementalBinaryTree": [
        {
          "length": 20,
          "start": 6257
        },
        {
          "length": 20,
          "start": 6537
        },
        {
          "length": 20,
          "start": 7829
        }
      ]
    }
  }
}