{
  "_format": "hh-sol-artifact-1",
  "contractName": "OmContract",
  "sourceName": "contracts/OmContract.sol",
  "abi": [
    {
      "inputs": [
        {
          "components": [
            {
              "internalType": "address",
              "name": "contractAddress",
              "type": "address"
            },
            {
              "internalType": "uint8",
              "name": "merkleTreeDepth",
              "type": "uint8"
            }
          ],
          "internalType": "struct OmContract.Verifier[]",
          "name": "_verifiers",
          "type": "tuple[]"
        }
      ],
      "stateMutability": "nonpayable",
      "type": "constructor"
    },
    {
      "anonymous": false,
      "inputs": [
        {
          "indexed": true,
          "internalType": "uint256",
          "name": "groupId",
          "type": "uint256"
        },
        {
          "indexed": false,
          "internalType": "uint256",
          "name": "dataId",
          "type": "uint256"
        },
        {
          "components": [
            {
              "internalType": "string",
              "name": "title",
              "type": "string"
            },
            {
              "internalType": "address",
              "name": "dataOwner",
              "type": "address"
            },
            {
              "internalType": "uint256",
              "name": "addedDate",
              "type": "uint256"
            },
            {
              "internalType": "string",
              "name": "dataURI",
              "type": "string"
            },
            {
              "internalType": "string",
              "name": "fileURI",
              "type": "string"
            },
            {
              "internalType": "uint256",
              "name": "groupId",
              "type": "uint256"
            },
            {
              "internalType": "uint256",
              "name": "dataType",
              "type": "uint256"
            }
          ],
          "indexed": false,
          "internalType": "struct OmContract.dataStructure",
          "name": "dataInfos",
          "type": "tuple"
        }
      ],
      "name": "DataAdded",
      "type": "event"
    },
    {
      "anonymous": false,
      "inputs": [
        {
          "indexed": true,
          "internalType": "uint256",
          "name": "groupId",
          "type": "uint256"
        },
        {
          "indexed": false,
          "internalType": "uint8",
          "name": "depth",
          "type": "uint8"
        },
        {
          "indexed": false,
          "internalType": "uint256",
          "name": "zeroValue",
          "type": "uint256"
        }
      ],
      "name": "GroupCreated",
      "type": "event"
    },
    {
      "anonymous": false,
      "inputs": [
        {
          "indexed": true,
          "internalType": "uint256",
          "name": "groupId",
          "type": "uint256"
        },
        {
          "indexed": false,
          "internalType": "uint256",
          "name": "identityCommitment",
          "type": "uint256"
        },
        {
          "indexed": false,
          "internalType": "uint256",
          "name": "root",
          "type": "uint256"
        }
      ],
      "name": "MemberAdded",
      "type": "event"
    },
    {
      "anonymous": false,
      "inputs": [
        {
          "indexed": true,
          "internalType": "uint256",
          "name": "groupId",
          "type": "uint256"
        },
        {
          "indexed": false,
          "internalType": "uint256",
          "name": "identityCommitment",
          "type": "uint256"
        },
        {
          "indexed": false,
          "internalType": "uint256",
          "name": "root",
          "type": "uint256"
        }
      ],
      "name": "MemberRemoved",
      "type": "event"
    },
    {
      "anonymous": false,
      "inputs": [
        {
          "indexed": false,
          "internalType": "uint256",
          "name": "nullifierHash",
          "type": "uint256"
        }
      ],
      "name": "NullifierHashAdded",
      "type": "event"
    },
    {
      "anonymous": false,
      "inputs": [
        {
          "indexed": false,
          "internalType": "uint256",
          "name": "groupId",
          "type": "uint256"
        },
        {
          "indexed": false,
          "internalType": "address",
          "name": "admin",
          "type": "address"
        }
      ],
      "name": "OmGroupCreated",
      "type": "event"
    },
    {
      "anonymous": false,
      "inputs": [
        {
          "indexed": false,
          "internalType": "uint256",
          "name": "groupId",
          "type": "uint256"
        },
        {
          "indexed": false,
          "internalType": "uint256",
          "name": "memberID",
          "type": "uint256"
        }
      ],
      "name": "OmMemberAdded",
      "type": "event"
    },
    {
      "anonymous": false,
      "inputs": [
        {
          "indexed": true,
          "internalType": "uint256",
          "name": "groupId",
          "type": "uint256"
        },
        {
          "indexed": true,
          "internalType": "uint256",
          "name": "memberID",
          "type": "uint256"
        }
      ],
      "name": "OmMemberRemoved",
      "type": "event"
    },
    {
      "anonymous": false,
      "inputs": [
        {
          "indexed": true,
          "internalType": "uint256",
          "name": "groupId",
          "type": "uint256"
        },
        {
          "indexed": false,
          "internalType": "bytes32",
          "name": "signal",
          "type": "bytes32"
        }
      ],
      "name": "ProofVerified",
      "type": "event"
    },
    {
      "anonymous": false,
      "inputs": [
        {
          "indexed": true,
          "internalType": "uint256",
          "name": "groupId",
          "type": "uint256"
        },
        {
          "indexed": false,
          "internalType": "uint256",
          "name": "proposalCounter",
          "type": "uint256"
        },
        {
          "components": [
            {
              "internalType": "string",
              "name": "title",
              "type": "string"
            },
            {
              "internalType": "string",
              "name": "description",
              "type": "string"
            },
            {
              "internalType": "uint256",
              "name": "yesCount",
              "type": "uint256"
            },
            {
              "internalType": "uint256",
              "name": "noCount",
              "type": "uint256"
            },
            {
              "internalType": "uint256",
              "name": "StartDate",
              "type": "uint256"
            },
            {
              "internalType": "uint256",
              "name": "EndDate",
              "type": "uint256"
            },
            {
              "internalType": "string",
              "name": "IpfsURI",
              "type": "string"
            }
          ],
          "indexed": false,
          "internalType": "struct OmContract.Proposal",
          "name": "proposalData",
          "type": "tuple"
        }
      ],
      "name": "ProposalCreated",
      "type": "event"
    },
    {
      "anonymous": false,
      "inputs": [
        {
          "indexed": true,
          "internalType": "uint256",
          "name": "groupId",
          "type": "uint256"
        },
        {
          "indexed": false,
          "internalType": "uint256",
          "name": "proposalId",
          "type": "uint256"
        },
        {
          "indexed": false,
          "internalType": "bool",
          "name": "vote",
          "type": "bool"
        }
      ],
      "name": "VoteCast",
      "type": "event"
    },
    {
      "inputs": [
        {
          "internalType": "uint256",
          "name": "",
          "type": "uint256"
        }
      ],
      "name": "ProposalList",
      "outputs": [
        {
          "internalType": "string",
          "name": "title",
          "type": "string"
        },
        {
          "internalType": "string",
          "name": "description",
          "type": "string"
        },
        {
          "internalType": "uint256",
          "name": "yesCount",
          "type": "uint256"
        },
        {
          "internalType": "uint256",
          "name": "noCount",
          "type": "uint256"
        },
        {
          "internalType": "uint256",
          "name": "StartDate",
          "type": "uint256"
        },
        {
          "internalType": "uint256",
          "name": "EndDate",
          "type": "uint256"
        },
        {
          "internalType": "string",
          "name": "IpfsURI",
          "type": "string"
        }
      ],
      "stateMutability": "view",
      "type": "function"
    },
    {
      "inputs": [
        {
          "internalType": "uint256",
          "name": "groupId",
          "type": "uint256"
        },
        {
          "internalType": "uint256",
          "name": "root",
          "type": "uint256"
        },
        {
          "internalType": "bytes32",
          "name": "signal",
          "type": "bytes32"
        },
        {
          "internalType": "uint256",
          "name": "nullifierHash",
          "type": "uint256"
        },
        {
          "internalType": "uint256",
          "name": "externalNullifier",
          "type": "uint256"
        },
        {
          "internalType": "uint256[8]",
          "name": "proof",
          "type": "uint256[8]"
        }
      ],
      "name": "accessData",
      "outputs": [
        {
          "internalType": "bool",
          "name": "",
          "type": "bool"
        }
      ],
      "stateMutability": "nonpayable",
      "type": "function"
    },
    {
      "inputs": [
        {
          "internalType": "string",
          "name": "title",
          "type": "string"
        },
        {
          "internalType": "string",
          "name": "dataURI",
          "type": "string"
        },
        {
          "internalType": "string",
          "name": "fileURI",
          "type": "string"
        },
        {
          "internalType": "uint256",
          "name": "dataType",
          "type": "uint256"
        },
        {
          "internalType": "uint256",
          "name": "groupId",
          "type": "uint256"
        },
        {
          "internalType": "uint256",
          "name": "root",
          "type": "uint256"
        },
        {
          "internalType": "bytes32",
          "name": "signal",
          "type": "bytes32"
        },
        {
          "internalType": "uint256",
          "name": "nullifierHash",
          "type": "uint256"
        },
        {
          "internalType": "uint256",
          "name": "externalNullifier",
          "type": "uint256"
        },
        {
          "internalType": "uint256[8]",
          "name": "proof",
          "type": "uint256[8]"
        }
      ],
      "name": "addData",
      "outputs": [],
      "stateMutability": "nonpayable",
      "type": "function"
    },
    {
      "inputs": [
        {
          "internalType": "uint256",
          "name": "groupId",
          "type": "uint256"
        },
        {
          "internalType": "uint256",
          "name": "identityCommitment",
          "type": "uint256"
        }
      ],
      "name": "addMember",
      "outputs": [],
      "stateMutability": "nonpayable",
      "type": "function"
    },
    {
      "inputs": [
        {
          "internalType": "uint256",
          "name": "",
          "type": "uint256"
        }
      ],
      "name": "canGroupAddData",
      "outputs": [
        {
          "internalType": "bool",
          "name": "",
          "type": "bool"
        }
      ],
      "stateMutability": "view",
      "type": "function"
    },
    {
      "inputs": [
        {
          "internalType": "uint256",
          "name": "",
          "type": "uint256"
        }
      ],
      "name": "canGroupPropose",
      "outputs": [
        {
          "internalType": "bool",
          "name": "",
          "type": "bool"
        }
      ],
      "stateMutability": "view",
      "type": "function"
    },
    {
      "inputs": [
        {
          "internalType": "uint256",
          "name": "groupId",
          "type": "uint256"
        },
        {
          "internalType": "uint256",
          "name": "root",
          "type": "uint256"
        },
        {
          "internalType": "bool",
          "name": "vote",
          "type": "bool"
        },
        {
          "internalType": "uint256",
          "name": "nullifierHash",
          "type": "uint256"
        },
        {
          "internalType": "uint256",
          "name": "externalNullifierProposalId",
          "type": "uint256"
        },
        {
          "internalType": "bytes32",
          "name": "signal",
          "type": "bytes32"
        },
        {
          "internalType": "uint256[8]",
          "name": "proof",
          "type": "uint256[8]"
        }
      ],
      "name": "castVote",
      "outputs": [],
      "stateMutability": "nonpayable",
      "type": "function"
    },
    {
      "inputs": [
        {
          "internalType": "uint8",
          "name": "depth",
          "type": "uint8"
        },
        {
          "internalType": "uint256",
          "name": "zeroValue",
          "type": "uint256"
        },
        {
          "internalType": "address",
          "name": "admin",
          "type": "address"
        },
        {
          "internalType": "bool",
          "name": "canPropose",
          "type": "bool"
        },
        {
          "internalType": "bool",
          "name": "canAddData",
          "type": "bool"
        }
      ],
      "name": "createGroup",
      "outputs": [],
      "stateMutability": "nonpayable",
      "type": "function"
    },
    {
      "inputs": [
        {
          "internalType": "string",
          "name": "title",
          "type": "string"
        },
        {
          "internalType": "string",
          "name": "description",
          "type": "string"
        },
        {
          "internalType": "uint256",
          "name": "root",
          "type": "uint256"
        },
        {
          "internalType": "uint256",
          "name": "startDate",
          "type": "uint256"
        },
        {
          "internalType": "uint256",
          "name": "endDate",
          "type": "uint256"
        },
        {
          "internalType": "string",
          "name": "proposalURI",
          "type": "string"
        },
        {
          "internalType": "uint256",
          "name": "groupId",
          "type": "uint256"
        },
        {
          "internalType": "bytes32",
          "name": "signal",
          "type": "bytes32"
        },
        {
          "internalType": "uint256",
          "name": "nullifierHash",
          "type": "uint256"
        },
        {
          "internalType": "uint256",
          "name": "externalNullifier",
          "type": "uint256"
        },
        {
          "internalType": "uint256[8]",
          "name": "proof",
          "type": "uint256[8]"
        }
      ],
      "name": "createProposal",
      "outputs": [],
      "stateMutability": "nonpayable",
      "type": "function"
    },
    {
      "inputs": [],
      "name": "dataFileCounter",
      "outputs": [
        {
          "internalType": "uint256",
          "name": "",
          "type": "uint256"
        }
      ],
      "stateMutability": "view",
      "type": "function"
    },
    {
      "inputs": [
        {
          "internalType": "uint256",
          "name": "",
          "type": "uint256"
        }
      ],
      "name": "dataList",
      "outputs": [
        {
          "internalType": "string",
          "name": "title",
          "type": "string"
        },
        {
          "internalType": "address",
          "name": "dataOwner",
          "type": "address"
        },
        {
          "internalType": "uint256",
          "name": "addedDate",
          "type": "uint256"
        },
        {
          "internalType": "string",
          "name": "dataURI",
          "type": "string"
        },
        {
          "internalType": "string",
          "name": "fileURI",
          "type": "string"
        },
        {
          "internalType": "uint256",
          "name": "groupId",
          "type": "uint256"
        },
        {
          "internalType": "uint256",
          "name": "dataType",
          "type": "uint256"
        }
      ],
      "stateMutability": "view",
      "type": "function"
    },
    {
      "inputs": [
        {
          "internalType": "uint256",
          "name": "groupId",
          "type": "uint256"
        }
      ],
      "name": "getDepth",
      "outputs": [
        {
          "internalType": "uint8",
          "name": "",
          "type": "uint8"
        }
      ],
      "stateMutability": "view",
      "type": "function"
    },
    {
      "inputs": [
        {
          "internalType": "uint256",
          "name": "groupId",
          "type": "uint256"
        }
      ],
      "name": "getNumberOfLeaves",
      "outputs": [
        {
          "internalType": "uint256",
          "name": "",
          "type": "uint256"
        }
      ],
      "stateMutability": "view",
      "type": "function"
    },
    {
      "inputs": [
        {
          "internalType": "uint256",
          "name": "proposalId",
          "type": "uint256"
        }
      ],
      "name": "getProposalData",
      "outputs": [
        {
          "components": [
            {
              "internalType": "string",
              "name": "title",
              "type": "string"
            },
            {
              "internalType": "string",
              "name": "description",
              "type": "string"
            },
            {
              "internalType": "uint256",
              "name": "yesCount",
              "type": "uint256"
            },
            {
              "internalType": "uint256",
              "name": "noCount",
              "type": "uint256"
            },
            {
              "internalType": "uint256",
              "name": "StartDate",
              "type": "uint256"
            },
            {
              "internalType": "uint256",
              "name": "EndDate",
              "type": "uint256"
            },
            {
              "internalType": "string",
              "name": "IpfsURI",
              "type": "string"
            }
          ],
          "internalType": "struct OmContract.Proposal",
          "name": "ProposalData",
          "type": "tuple"
        }
      ],
      "stateMutability": "view",
      "type": "function"
    },
    {
      "inputs": [
        {
          "internalType": "uint256",
          "name": "groupId",
          "type": "uint256"
        }
      ],
      "name": "getRoot",
      "outputs": [
        {
          "internalType": "uint256",
          "name": "",
          "type": "uint256"
        }
      ],
      "stateMutability": "view",
      "type": "function"
    },
    {
      "inputs": [
        {
          "internalType": "uint256",
          "name": "",
          "type": "uint256"
        }
      ],
      "name": "groupAdmins",
      "outputs": [
        {
          "internalType": "address",
          "name": "",
          "type": "address"
        }
      ],
      "stateMutability": "view",
      "type": "function"
    },
    {
      "inputs": [],
      "name": "groupCounter",
      "outputs": [
        {
          "internalType": "uint256",
          "name": "",
          "type": "uint256"
        }
      ],
      "stateMutability": "view",
      "type": "function"
    },
    {
      "inputs": [
        {
          "internalType": "uint256",
          "name": "",
          "type": "uint256"
        },
        {
          "internalType": "uint256",
          "name": "",
          "type": "uint256"
        }
      ],
      "name": "groupMembership",
      "outputs": [
        {
          "internalType": "uint256",
          "name": "",
          "type": "uint256"
        }
      ],
      "stateMutability": "view",
      "type": "function"
    },
    {
      "inputs": [],
      "name": "owner",
      "outputs": [
        {
          "internalType": "address",
          "name": "",
          "type": "address"
        }
      ],
      "stateMutability": "view",
      "type": "function"
    },
    {
      "inputs": [],
      "name": "proposalCounter",
      "outputs": [
        {
          "internalType": "uint256",
          "name": "",
          "type": "uint256"
        }
      ],
      "stateMutability": "view",
      "type": "function"
    },
    {
      "inputs": [
        {
          "internalType": "uint256",
          "name": "groupId",
          "type": "uint256"
        },
        {
          "internalType": "uint256",
          "name": "identityCommitment",
          "type": "uint256"
        },
        {
          "internalType": "uint256[]",
          "name": "proofSiblings",
          "type": "uint256[]"
        },
        {
          "internalType": "uint8[]",
          "name": "proofPathIndices",
          "type": "uint8[]"
        }
      ],
      "name": "removeMember",
      "outputs": [],
      "stateMutability": "nonpayable",
      "type": "function"
    },
    {
      "inputs": [
        {
          "internalType": "uint8",
          "name": "",
          "type": "uint8"
        }
      ],
      "name": "verifiers",
      "outputs": [
        {
          "internalType": "contract IVerifier",
          "name": "",
          "type": "address"
        }
      ],
      "stateMutability": "view",
      "type": "function"
    },
    {
      "inputs": [
        {
          "internalType": "uint256",
          "name": "groupId",
          "type": "uint256"
        },
        {
          "internalType": "bytes32",
          "name": "signal",
          "type": "bytes32"
        },
        {
          "internalType": "uint256",
          "name": "root",
          "type": "uint256"
        },
        {
          "internalType": "uint256",
          "name": "nullifierHash",
          "type": "uint256"
        },
        {
          "internalType": "uint256",
          "name": "externalNullifier",
          "type": "uint256"
        },
        {
          "internalType": "uint256[8]",
          "name": "proof",
          "type": "uint256[8]"
        }
      ],
      "name": "verifyProof",
      "outputs": [],
      "stateMutability": "nonpayable",
      "type": "function"
    }
  ],
  "bytecode": "0x60806040523480156200001157600080fd5b506040516200468138038062004681833981810160405281019062000037919062000647565b60005b81518160ff1610156200014557818160ff168151811062000084577f4e487b7100000000000000000000000000000000000000000000000000000000600052603260045260246000fd5b60200260200101516000015160026000848460ff1681518110620000d1577f4e487b7100000000000000000000000000000000000000000000000000000000600052603260045260246000fd5b60200260200101516020015160ff1660ff16815260200190815260200160002060006101000a81548173ffffffffffffffffffffffffffffffffffffffff021916908373ffffffffffffffffffffffffffffffffffffffff16021790555080806200013c9062000992565b9150506200003a565b5033600960006101000a81548173ffffffffffffffffffffffffffffffffffffffff021916908373ffffffffffffffffffffffffffffffffffffffff1602179055506200019f6014600033600180620001a660201b60201c565b5062000b2b565b84600073ffffffffffffffffffffffffffffffffffffffff16600260008360ff1660ff16815260200190815260200160002060009054906101000a900473ffffffffffffffffffffffffffffffffffffffff1673ffffffffffffffffffffffffffffffffffffffff16141562000253576040517f08c379a00000000000000000000000000000000000000000000000000000000081526004016200024a906200077f565b60405180910390fd5b600a6000815480929190620002689062000944565b919050555062000282600a5487876200037560201b60201c565b8360036000600a54815260200190815260200160002060006101000a81548173ffffffffffffffffffffffffffffffffffffffff021916908373ffffffffffffffffffffffffffffffffffffffff1602179055508260046000600a54815260200190815260200160002060006101000a81548160ff0219169083151502179055508160056000600a54815260200190815260200160002060006101000a81548160ff0219169083151502179055507fcbe08648079192e9f7eeb443f35dd17cd3b02ee13d08a915e409228e8fb69729600a54856040516200036592919062000800565b60405180910390a1505050505050565b7f30644e72e131a029b85045b68181585d2833e84879b9709143e1f593f00000018310620003da576040517f08c379a0000000000000000000000000000000000000000000000000000000008152600401620003d190620007a1565b60405180910390fd5b6000620003ed84620004f760201b60201c565b60ff161462000433576040517f08c379a00000000000000000000000000000000000000000000000000000000081526004016200042a906200075d565b60405180910390fd5b6001600084815260200190815260200160002073__$0c6eb7207c37accf1552a1c47686411ac0$__63b4bdd117909184846040518463ffffffff1660e01b81526004016200048493929190620007c3565b60006040518083038186803b1580156200049d57600080fd5b505af4158015620004b2573d6000803e3d6000fd5b50505050827fc3082aa494e9088c2c9f0fb62a0b6bd46e6699acb94cfba35be29b95a93f68c88383604051620004ea9291906200082d565b60405180910390a2505050565b60006001600083815260200190815260200160002060000160009054906101000a900460ff169050919050565b60006200053b620005358462000883565b6200085a565b905080838252602082019050828560408602820111156200055b57600080fd5b60005b858110156200058f5781620005748882620005dd565b8452602084019350604083019250506001810190506200055e565b5050509392505050565b600081519050620005aa8162000af7565b92915050565b600082601f830112620005c257600080fd5b8151620005d484826020860162000524565b91505092915050565b600060408284031215620005f057600080fd5b620005fc60406200085a565b905060006200060e8482850162000599565b6000830152506020620006248482850162000630565b60208301525092915050565b600081519050620006418162000b11565b92915050565b6000602082840312156200065a57600080fd5b600082015167ffffffffffffffff8111156200067557600080fd5b6200068384828501620005b0565b91505092915050565b6200069781620008c3565b82525050565b6000620006ac602583620008b2565b9150620006b98262000a30565b604082019050919050565b6000620006d3601b83620008b2565b9150620006e08262000a7f565b602082019050919050565b6000620006fa603683620008b2565b9150620007078262000aa8565b604082019050919050565b8082525050565b6200072481620008f7565b82525050565b6200073581620008f7565b82525050565b620007468162000901565b82525050565b620007578162000901565b82525050565b6000602082019050818103600083015262000778816200069d565b9050919050565b600060208201905081810360008301526200079a81620006c4565b9050919050565b60006020820190508181036000830152620007bc81620006eb565b9050919050565b6000606082019050620007da600083018662000712565b620007e960208301856200074c565b620007f860408301846200072a565b949350505050565b600060408201905062000817600083018562000719565b6200082660208301846200068c565b9392505050565b60006040820190506200084460008301856200073b565b62000853602083018462000719565b9392505050565b60006200086662000879565b90506200087482826200090e565b919050565b6000604051905090565b600067ffffffffffffffff821115620008a157620008a0620009f0565b5b602082029050602081019050919050565b600082825260208201905092915050565b6000620008d082620008d7565b9050919050565b600073ffffffffffffffffffffffffffffffffffffffff82169050919050565b6000819050919050565b600060ff82169050919050565b620009198262000a1f565b810181811067ffffffffffffffff821117156200093b576200093a620009f0565b5b80604052505050565b60006200095182620008f7565b91507fffffffffffffffffffffffffffffffffffffffffffffffffffffffffffffffff821415620009875762000986620009c1565b5b600182019050919050565b60006200099f8262000901565b915060ff821415620009b657620009b5620009c1565b5b600182019050919050565b7f4e487b7100000000000000000000000000000000000000000000000000000000600052601160045260246000fd5b7f4e487b7100000000000000000000000000000000000000000000000000000000600052604160045260246000fd5b6000601f19601f8301169050919050565b7f53656d6170686f726547726f7570733a2067726f757020616c7265616479206560008201527f7869737473000000000000000000000000000000000000000000000000000000602082015250565b7f54726565206465707468206973206e6f7420737570706f727465640000000000600082015250565b7f53656d6170686f726547726f7570733a2067726f7570206964206d757374206260008201527f65203c20534e41524b5f5343414c41525f4649454c4400000000000000000000602082015250565b62000b0281620008c3565b811462000b0e57600080fd5b50565b62000b1c8162000901565b811462000b2857600080fd5b50565b613b468062000b3b6000396000f3fe608060405234801561001057600080fd5b506004361061014d5760003560e01c8063856dc14a116100c3578063d24924fe1161007c578063d24924fe1461041c578063db22151e1461043a578063e19880fd14610456578063e63ac69e14610472578063f82ac0571461048e578063fc0f9425146104aa5761014d565b8063856dc14a1461031c5780638da5cb5b146103385780639b24b3b014610356578063ac28eacd14610386578063af4a74cf146103b6578063b9c78c2b146103ec5761014d565b806337fce1981161011557806337fce198146102225780633fe29e2c1461025257806343989f85146102705780636e7685301461028c578063746ea5b9146102bc57806375e618c9146102ec5761014d565b806305874565146101525780630c0512e9146101885780630dc80cf5146101a65780631783efc3146101d65780632d69be98146101f2575b600080fd5b61016c60048036038101906101679190612431565b6104da565b60405161017f9796959493929190613096565b60405180910390f35b6101906106b4565b60405161019d9190613333565b60405180910390f35b6101c060048036038101906101bb9190612431565b6106ba565b6040516101cd9190612fc1565b60405180910390f35b6101f060048036038101906101eb91906124e4565b6106da565b005b61020c600480360381019061020791906126e4565b61075b565b6040516102199190612ff7565b60405180910390f35b61023c600480360381019061023791906124e4565b61078e565b6040516102499190613333565b60405180910390f35b61025a6107bf565b6040516102679190613333565b60405180910390f35b61028a60048036038101906102859190612520565b6107c5565b005b6102a660048036038101906102a19190612431565b610843565b6040516102b39190613311565b60405180910390f35b6102d660048036038101906102d1919061265a565b610a4e565b6040516102e39190612fc1565b60405180910390f35b61030660048036038101906103019190612431565b610b40565b6040516103139190613429565b60405180910390f35b610336600480360381019061033191906122f9565b610b6d565b005b610340610db9565b60405161034d9190612f5f565b60405180910390f35b610370600480360381019061036b9190612431565b610ddf565b60405161037d9190613333565b60405180910390f35b6103a0600480360381019061039b9190612431565b610dff565b6040516103ad9190612f5f565b60405180910390f35b6103d060048036038101906103cb9190612431565b610e32565b6040516103e39796959493929190613012565b60405180910390f35b61040660048036038101906104019190612431565b61102c565b6040516104139190613333565b60405180910390f35b61042461104c565b6040516104319190613333565b60405180910390f35b610454600480360381019061044f919061270d565b611052565b005b610470600480360381019061046b91906121d6565b611212565b005b61048c6004803603810190610487919061245a565b61154e565b005b6104a860048036038101906104a391906125bb565b611639565b005b6104c460048036038101906104bf9190612431565b6117eb565b6040516104d19190612fc1565b60405180910390f35b60076020528060005260406000206000915090508060000180546104fd906136d6565b80601f0160208091040260200160405190810160405280929190818152602001828054610529906136d6565b80156105765780601f1061054b57610100808354040283529160200191610576565b820191906000526020600020905b81548152906001019060200180831161055957829003601f168201915b50505050509080600101805461058b906136d6565b80601f01602080910402602001604051908101604052809291908181526020018280546105b7906136d6565b80156106045780601f106105d957610100808354040283529160200191610604565b820191906000526020600020905b8154815290600101906020018083116105e757829003601f168201915b505050505090806002015490806003015490806004015490806005015490806006018054610631906136d6565b80601f016020809104026020016040519081016040528092919081815260200182805461065d906136d6565b80156106aa5780601f1061067f576101008083540402835291602001916106aa565b820191906000526020600020905b81548152906001019060200180831161068d57829003601f168201915b5050505050905087565b600b5481565b60056020528060005260406000206000915054906101000a900460ff1681565b6106e4828261180b565b600c60008281526020019081526020016000208290806001815401808255809150506001900390600052602060002001600090919091909150557fa6261b03033da26c67d0314ecedbe543df22d5c1dded351f9cc7257432a342dc828260405161074f929190613400565b60405180910390a15050565b60026020528060005260406000206000915054906101000a900473ffffffffffffffffffffffffffffffffffffffff1681565b600c60205281600052604060002081815481106107aa57600080fd5b90600052602060002001600091509150505481565b60085481565b6107d3868686868686611923565b600c600086815260200190815260200160002086908060018154018082558091505060019003906000526020600020016000909190919091505584867fd6d227d0653303d5e4a8229d6fa7ee4f5690ea621c4f97677237f2a6a93cc3bd60405160405180910390a3505050505050565b61084b611f73565b600760008381526020019081526020016000206040518060e0016040529081600082018054610879906136d6565b80601f01602080910402602001604051908101604052809291908181526020018280546108a5906136d6565b80156108f25780601f106108c7576101008083540402835291602001916108f2565b820191906000526020600020905b8154815290600101906020018083116108d557829003601f168201915b5050505050815260200160018201805461090b906136d6565b80601f0160208091040260200160405190810160405280929190818152602001828054610937906136d6565b80156109845780601f1061095957610100808354040283529160200191610984565b820191906000526020600020905b81548152906001019060200180831161096757829003601f168201915b50505050508152602001600282015481526020016003820154815260200160048201548152602001600582015481526020016006820180546109c5906136d6565b80601f01602080910402602001604051908101604052809291908181526020018280546109f1906136d6565b8015610a3e5780601f10610a1357610100808354040283529160200191610a3e565b820191906000526020600020905b815481529060010190602001808311610a2157829003601f168201915b5050505050815250509050919050565b600080610a5a88610b40565b905060008160ff161415610aa3576040517f08c379a0000000000000000000000000000000000000000000000000000000008152600401610a9a9061317a565b60405180910390fd5b6000600260008360ff1660ff16815260200190815260200160002060009054906101000a900473ffffffffffffffffffffffffffffffffffffffff169050610aef878988888886611a47565b610af886611da0565b887f102229041138505f4cecdadc8e3ac1cd92c55870c17371050fc00bdb0888980188604051610b289190612fdc565b60405180910390a26001925050509695505050505050565b60006001600083815260200190815260200160002060000160009054906101000a900460ff169050919050565b6000610b7886610b40565b905060008160ff161415610bc1576040517f08c379a0000000000000000000000000000000000000000000000000000000008152600401610bb8906131fa565b60405180910390fd5b6004600087815260200190815260200160002060009054906101000a900460ff16610c21576040517f08c379a0000000000000000000000000000000000000000000000000000000008152600401610c18906131ba565b60405180910390fd5b6000600260008360ff1660ff16815260200190815260200160002060009054906101000a900473ffffffffffffffffffffffffffffffffffffffff169050610c6d868c87878786611a47565b610c7685611da0565b600b6000815480929190610c899061376d565b91905055506040518060e001604052808e81526020018d815260200160008152602001600081526020018b81526020018a81526020018981525060076000600b5481526020019081526020016000206000820151816000019080519060200190610cf4929190611fb0565b506020820151816001019080519060200190610d11929190611fb0565b5060408201518160020155606082015181600301556080820151816004015560a0820151816005015560c0820151816006019080519060200190610d56929190611fb0565b50905050867f0bb2e3e9f327122f1a97e4083193c8bffa75acd7a94a4f12400052fa0b2919c8600b5460076000600b548152602001908152602001600020604051610da29291906133a0565b60405180910390a250505050505050505050505050565b600960009054906101000a900473ffffffffffffffffffffffffffffffffffffffff1681565b600060016000838152602001908152602001600020600101549050919050565b60036020528060005260406000206000915054906101000a900473ffffffffffffffffffffffffffffffffffffffff1681565b6006602052806000526040600020600091509050806000018054610e55906136d6565b80601f0160208091040260200160405190810160405280929190818152602001828054610e81906136d6565b8015610ece5780601f10610ea357610100808354040283529160200191610ece565b820191906000526020600020905b815481529060010190602001808311610eb157829003601f168201915b5050505050908060010160009054906101000a900473ffffffffffffffffffffffffffffffffffffffff1690806002015490806003018054610f0f906136d6565b80601f0160208091040260200160405190810160405280929190818152602001828054610f3b906136d6565b8015610f885780601f10610f5d57610100808354040283529160200191610f88565b820191906000526020600020905b815481529060010190602001808311610f6b57829003601f168201915b505050505090806004018054610f9d906136d6565b80601f0160208091040260200160405190810160405280929190818152602001828054610fc9906136d6565b80156110165780601f10610feb57610100808354040283529160200191611016565b820191906000526020600020905b815481529060010190602001808311610ff957829003601f168201915b5050505050908060050154908060060154905087565b600060016000838152602001908152602001600020600201549050919050565b600a5481565b84600073ffffffffffffffffffffffffffffffffffffffff16600260008360ff1660ff16815260200190815260200160002060009054906101000a900473ffffffffffffffffffffffffffffffffffffffff1673ffffffffffffffffffffffffffffffffffffffff1614156110fc576040517f08c379a00000000000000000000000000000000000000000000000000000000081526004016110f39061315a565b60405180910390fd5b600a600081548092919061110f9061376d565b9190505550611121600a548787611dce565b8360036000600a54815260200190815260200160002060006101000a81548173ffffffffffffffffffffffffffffffffffffffff021916908373ffffffffffffffffffffffffffffffffffffffff1602179055508260046000600a54815260200190815260200160002060006101000a81548160ff0219169083151502179055508160056000600a54815260200190815260200160002060006101000a81548160ff0219169083151502179055507fcbe08648079192e9f7eeb443f35dd17cd3b02ee13d08a915e409228e8fb69729600a548560405161120292919061334e565b60405180910390a1505050505050565b600061121d87610b40565b905060008160ff161415611266576040517f08c379a000000000000000000000000000000000000000000000000000000000815260040161125d906131fa565b60405180910390fd5b6005600088815260200190815260200160002060009054906101000a900460ff166112c6576040517f08c379a00000000000000000000000000000000000000000000000000000000081526004016112bd9061321a565b60405180910390fd5b6000600260008360ff1660ff16815260200190815260200160002060009054906101000a900473ffffffffffffffffffffffffffffffffffffffff169050600073ffffffffffffffffffffffffffffffffffffffff16600260008460ff1660ff16815260200190815260200160002060009054906101000a900473ffffffffffffffffffffffffffffffffffffffff1673ffffffffffffffffffffffffffffffffffffffff1614156113ad576040517f08c379a00000000000000000000000000000000000000000000000000000000081526004016113a49061319a565b60405180910390fd5b6113bb868887878786611a47565b600860008154809291906113ce9061376d565b91905055506040518060e001604052808d81526020013373ffffffffffffffffffffffffffffffffffffffff1681526020014281526020018c81526020018b81526020018981526020018a815250600660006008548152602001908152602001600020600082015181600001908051906020019061144d929190611fb0565b5060208201518160010160006101000a81548173ffffffffffffffffffffffffffffffffffffffff021916908373ffffffffffffffffffffffffffffffffffffffff1602179055506040820151816002015560608201518160030190805190602001906114bb929190611fb0565b5060808201518160040190805190602001906114d8929190611fb0565b5060a0820151816005015560c08201518160060155905050877fe0f5566304dcb59c1470775b45d75456912dce06d826c465528dad7e48f1ff676008546006600060085481526020019081526020016000206040516115389291906133d0565b60405180910390a2505050505050505050505050565b600061155987610b40565b905060008160ff1614156115a2576040517f08c379a0000000000000000000000000000000000000000000000000000000008152600401611599906131fa565b60405180910390fd5b6000600260008360ff1660ff16815260200190815260200160002060009054906101000a900473ffffffffffffffffffffffffffffffffffffffff1690506115ee878787878786611a47565b6115f785611da0565b877f102229041138505f4cecdadc8e3ac1cd92c55870c17371050fc00bdb08889801886040516116279190612fdc565b60405180910390a25050505050505050565b600061164488610b40565b905060008160ff16141561168d576040517f08c379a0000000000000000000000000000000000000000000000000000000008152600401611684906131fa565b60405180910390fd5b6004600089815260200190815260200160002060009054906101000a900460ff166116ed576040517f08c379a00000000000000000000000000000000000000000000000000000000081526004016116e4906131ba565b60405180910390fd5b6000600260008360ff1660ff16815260200190815260200160002060009054906101000a900473ffffffffffffffffffffffffffffffffffffffff169050611739848988888786611a47565b61174286611da0565b86156117795760076000868152602001908152602001600020600201600081548092919061176f9061376d565b91905055506117a6565b6007600086815260200190815260200160002060030160008154809291906117a09061376d565b91905055505b887fa071403561971b5037de93aebd0f95690808372d2f63965534e2c1b5486f2c6a86896040516117d8929190613377565b60405180910390a2505050505050505050565b60046020528060005260406000206000915054906101000a900460ff1681565b600061181683610b40565b60ff16141561185a576040517f08c379a0000000000000000000000000000000000000000000000000000000008152600401611851906131da565b60405180910390fd5b6001600083815260200190815260200160002073__$0c6eb7207c37accf1552a1c47686411ac0$__63168703fa9091836040518363ffffffff1660e01b81526004016118a792919061325a565b60006040518083038186803b1580156118bf57600080fd5b505af41580156118d3573d6000803e3d6000fd5b5050505060006118e283610ddf565b9050827f03fd27265b7dd1f55558bedc22a58fa3b10afb1be776e614bd5a7ba7b94994068383604051611916929190613400565b60405180910390a2505050565b600061192e87610b40565b60ff161415611972576040517f08c379a0000000000000000000000000000000000000000000000000000000008152600401611969906131da565b60405180910390fd5b6001600087815260200190815260200160002073__$0c6eb7207c37accf1552a1c47686411ac0$__630629596f909187878787876040518763ffffffff1660e01b81526004016119c796959493929190613283565b60006040518083038186803b1580156119df57600080fd5b505af41580156119f3573d6000803e3d6000fd5b505050506000611a0287610ddf565b9050867fe270325ded177064d7bda473e6519ef40a291058c41286f71a6e4872f1e9ab5c8783604051611a36929190613400565b60405180910390a250505050505050565b60008085815260200190815260200160002060009054906101000a900460ff1615611aa7576040517f08c379a0000000000000000000000000000000000000000000000000000000008152600401611a9e9061311a565b60405180910390fd5b6000611ab287611f3c565b90508173ffffffffffffffffffffffffffffffffffffffff16635fe8c13b604051806040016040528086600060088110611b15577f4e487b7100000000000000000000000000000000000000000000000000000000600052603260045260246000fd5b6020020135815260200186600160088110611b59577f4e487b7100000000000000000000000000000000000000000000000000000000600052603260045260246000fd5b60200201358152506040518060400160405280604051806040016040528089600260088110611bb1577f4e487b7100000000000000000000000000000000000000000000000000000000600052603260045260246000fd5b6020020135815260200189600360088110611bf5577f4e487b7100000000000000000000000000000000000000000000000000000000600052603260045260246000fd5b60200201358152508152602001604051806040016040528089600460088110611c47577f4e487b7100000000000000000000000000000000000000000000000000000000600052603260045260246000fd5b6020020135815260200189600560088110611c8b577f4e487b7100000000000000000000000000000000000000000000000000000000600052603260045260246000fd5b6020020135815250815250604051806040016040528088600660088110611cdb577f4e487b7100000000000000000000000000000000000000000000000000000000600052603260045260246000fd5b6020020135815260200188600760088110611d1f577f4e487b7100000000000000000000000000000000000000000000000000000000600052603260045260246000fd5b602002013581525060405180608001604052808c81526020018b81526020018781526020018a8152506040518563ffffffff1660e01b8152600401611d679493929190612f7a565b60006040518083038186803b158015611d7f57600080fd5b505afa158015611d93573d6000803e3d6000fd5b5050505050505050505050565b600160008083815260200190815260200160002060006101000a81548160ff02191690831515021790555050565b7f30644e72e131a029b85045b68181585d2833e84879b9709143e1f593f00000018310611e30576040517f08c379a0000000000000000000000000000000000000000000000000000000008152600401611e279061323a565b60405180910390fd5b6000611e3b84610b40565b60ff1614611e7e576040517f08c379a0000000000000000000000000000000000000000000000000000000008152600401611e759061313a565b60405180910390fd5b6001600084815260200190815260200160002073__$0c6eb7207c37accf1552a1c47686411ac0$__63b4bdd117909184846040518463ffffffff1660e01b8152600401611ecd939291906132da565b60006040518083038186803b158015611ee557600080fd5b505af4158015611ef9573d6000803e3d6000fd5b50505050827fc3082aa494e9088c2c9f0fb62a0b6bd46e6699acb94cfba35be29b95a93f68c88383604051611f2f929190613444565b60405180910390a2505050565b6000600882604051602001611f519190612f44565b6040516020818303038152906040528051906020012060001c901c9050919050565b6040518060e00160405280606081526020016060815260200160008152602001600081526020016000815260200160008152602001606081525090565b828054611fbc906136d6565b90600052602060002090601f016020900481019282611fde5760008555612025565b82601f10611ff757805160ff1916838001178555612025565b82800160010185558215612025579182015b82811115612024578251825591602001919060010190612009565b5b5090506120329190612036565b5090565b5b8082111561204f576000816000905550600101612037565b5090565b600061206661206184613492565b61346d565b90508281526020810184848401111561207e57600080fd5b612089848285613694565b509392505050565b6000813590506120a081613a9d565b92915050565b6000819050826020600802820111156120be57600080fd5b92915050565b60008083601f8401126120d657600080fd5b8235905067ffffffffffffffff8111156120ef57600080fd5b60208301915083602082028301111561210757600080fd5b9250929050565b60008083601f84011261212057600080fd5b8235905067ffffffffffffffff81111561213957600080fd5b60208301915083602082028301111561215157600080fd5b9250929050565b60008135905061216781613ab4565b92915050565b60008135905061217c81613acb565b92915050565b600082601f83011261219357600080fd5b81356121a3848260208601612053565b91505092915050565b6000813590506121bb81613ae2565b92915050565b6000813590506121d081613af9565b92915050565b6000806000806000806000806000806102208b8d0312156121f657600080fd5b60008b013567ffffffffffffffff81111561221057600080fd5b61221c8d828e01612182565b9a505060208b013567ffffffffffffffff81111561223957600080fd5b6122458d828e01612182565b99505060408b013567ffffffffffffffff81111561226257600080fd5b61226e8d828e01612182565b985050606061227f8d828e016121ac565b97505060806122908d828e016121ac565b96505060a06122a18d828e016121ac565b95505060c06122b28d828e0161216d565b94505060e06122c38d828e016121ac565b9350506101006122d58d828e016121ac565b9250506101206122e78d828e016120a6565b9150509295989b9194979a5092959850565b60008060008060008060008060008060006102408c8e03121561231b57600080fd5b60008c013567ffffffffffffffff81111561233557600080fd5b6123418e828f01612182565b9b505060208c013567ffffffffffffffff81111561235e57600080fd5b61236a8e828f01612182565b9a5050604061237b8e828f016121ac565b995050606061238c8e828f016121ac565b985050608061239d8e828f016121ac565b97505060a08c013567ffffffffffffffff8111156123ba57600080fd5b6123c68e828f01612182565b96505060c06123d78e828f016121ac565b95505060e06123e88e828f0161216d565b9450506101006123fa8e828f016121ac565b93505061012061240c8e828f016121ac565b92505061014061241e8e828f016120a6565b9150509295989b509295989b9093969950565b60006020828403121561244357600080fd5b6000612451848285016121ac565b91505092915050565b6000806000806000806101a0878903121561247457600080fd5b600061248289828a016121ac565b965050602061249389828a0161216d565b95505060406124a489828a016121ac565b94505060606124b589828a016121ac565b93505060806124c689828a016121ac565b92505060a06124d789828a016120a6565b9150509295509295509295565b600080604083850312156124f757600080fd5b6000612505858286016121ac565b9250506020612516858286016121ac565b9150509250929050565b6000806000806000806080878903121561253957600080fd5b600061254789828a016121ac565b965050602061255889828a016121ac565b955050604087013567ffffffffffffffff81111561257557600080fd5b61258189828a016120c4565b9450945050606087013567ffffffffffffffff8111156125a057600080fd5b6125ac89828a0161210e565b92509250509295509295509295565b60008060008060008060006101c0888a0312156125d757600080fd5b60006125e58a828b016121ac565b97505060206125f68a828b016121ac565b96505060406126078a828b01612158565b95505060606126188a828b016121ac565b94505060806126298a828b016121ac565b93505060a061263a8a828b0161216d565b92505060c061264b8a828b016120a6565b91505092959891949750929550565b6000806000806000806101a0878903121561267457600080fd5b600061268289828a016121ac565b965050602061269389828a016121ac565b95505060406126a489828a0161216d565b94505060606126b589828a016121ac565b93505060806126c689828a016121ac565b92505060a06126d789828a016120a6565b9150509295509295509295565b6000602082840312156126f657600080fd5b6000612704848285016121c1565b91505092915050565b600080600080600060a0868803121561272557600080fd5b6000612733888289016121c1565b9550506020612744888289016121ac565b945050604061275588828901612091565b935050606061276688828901612158565b925050608061277788828901612158565b9150509295509295909350565b60006127908383612841565b60408301905092915050565b60006127a88383612eea565b60208301905092915050565b60006127c08383612f35565b60208301905092915050565b6127d581613611565b82525050565b6127e481613611565b82525050565b6127f381613500565b6127fd8184613560565b9250612808826134c3565b8060005b838110156128395781516128208782612784565b965061282b8361352c565b92505060018101905061280c565b505050505050565b61284a8161350b565b612854818461356b565b925061285f826134cd565b8060005b83811015612890578151612877878261279c565b965061288283613539565b925050600181019050612863565b505050505050565b6128a18161350b565b6128ab8184613576565b92506128b6826134cd565b8060005b838110156128e75781516128ce878261279c565b96506128d983613539565b9250506001810190506128ba565b505050505050565b6128f881613516565b6129028184613581565b925061290d826134d7565b8060005b8381101561293e578151612925878261279c565b965061293083613546565b925050600181019050612911565b505050505050565b6000612952838561358c565b93507f07ffffffffffffffffffffffffffffffffffffffffffffffffffffffffffffff83111561298157600080fd5b602083029250612992838584613694565b82840190509392505050565b60006129aa838561359d565b93506129b5826134e1565b8060005b858110156129ee576129cb82846135d0565b6129d588826127b4565b97506129e083613553565b9250506001810190506129b9565b5085925050509392505050565b612a0481613623565b82525050565b612a138161362f565b82525050565b612a2a612a258261362f565b6137b6565b82525050565b612a3981613670565b82525050565b6000612a4a82613521565b612a5481856135ae565b9350612a648185602086016136a3565b612a6d8161384d565b840191505092915050565b6000612a8382613521565b612a8d81856135bf565b9350612a9d8185602086016136a3565b612aa68161384d565b840191505092915050565b60008154612abe816136d6565b612ac881866135ae565b94506001821660008114612ae35760018114612af557612b28565b60ff1983168652602086019350612b28565b612afe856134eb565b60005b83811015612b2057815481890152600182019150602081019050612b01565b808801955050505b50505092915050565b6000612b3e6036836135bf565b9150612b498261386b565b604082019050919050565b6000612b616025836135bf565b9150612b6c826138ba565b604082019050919050565b6000612b84601b836135bf565b9150612b8f82613909565b602082019050919050565b6000612ba76020836135bf565b9150612bb282613932565b602082019050919050565b6000612bca601c836135bf565b9150612bd58261395b565b602082019050919050565b6000612bed6011836135bf565b9150612bf882613984565b602082019050919050565b6000612c106025836135bf565b9150612c1b826139ad565b604082019050919050565b6000612c336014836135bf565b9150612c3e826139fc565b602082019050919050565b6000612c566015836135bf565b9150612c6182613a25565b602082019050919050565b6000612c796036836135bf565b9150612c8482613a4e565b604082019050919050565b8082525050565b600060e0830160008301518482036000860152612cb38282612a3f565b91505060208301518482036020860152612ccd8282612a3f565b9150506040830151612ce26040860182612eea565b506060830151612cf56060860182612eea565b506080830151612d086080860182612eea565b5060a0830151612d1b60a0860182612eea565b5060c083015184820360c0860152612d338282612a3f565b9150508091505092915050565b600060e0830160008084018583036000870152612d5d8382612ab1565b925050600184018583036020870152612d768382612ab1565b92505060028401549050612d8981613722565b612d966040870182612eea565b5060038401549050612da781613722565b612db46060870182612eea565b5060048401549050612dc581613722565b612dd26080870182612eea565b5060058401549050612de381613722565b612df060a0870182612eea565b506006840185830360c0870152612e078382612ab1565b925050819250505092915050565b600060e0830160008084018583036000870152612e328382612ab1565b92505060018401549050612e4581613708565b612e5260208701826127cc565b5060028401549050612e6381613722565b612e706040870182612eea565b50600384018583036060870152612e878382612ab1565b925050600484018583036080870152612ea08382612ab1565b92505060058401549050612eb381613722565b612ec060a0870182612eea565b5060068401549050612ed181613722565b612ede60c0870182612eea565b50819250505092915050565b612ef381613659565b82525050565b612f0281613659565b82525050565b612f1181613659565b82525050565b612f2081613663565b82525050565b612f2f81613663565b82525050565b612f3e81613663565b82525050565b6000612f508284612a19565b60208201915081905092915050565b6000602082019050612f7460008301846127db565b92915050565b600061018082019050612f906000830187612898565b612f9d60408301866127ea565b612faa60c0830185612898565b612fb86101008301846128ef565b95945050505050565b6000602082019050612fd660008301846129fb565b92915050565b6000602082019050612ff16000830184612a0a565b92915050565b600060208201905061300c6000830184612a30565b92915050565b600060e082019050818103600083015261302c818a612a78565b905061303b60208301896127db565b6130486040830188612ef9565b818103606083015261305a8187612a78565b9050818103608083015261306e8186612a78565b905061307d60a0830185612ef9565b61308a60c0830184612ef9565b98975050505050505050565b600060e08201905081810360008301526130b0818a612a78565b905081810360208301526130c48189612a78565b90506130d36040830188612ef9565b6130e06060830187612ef9565b6130ed6080830186612ef9565b6130fa60a0830185612ef9565b81810360c083015261310c8184612a78565b905098975050505050505050565b6000602082019050818103600083015261313381612b31565b9050919050565b6000602082019050818103600083015261315381612b54565b9050919050565b6000602082019050818103600083015261317381612b77565b9050919050565b6000602082019050818103600083015261319381612b9a565b9050919050565b600060208201905081810360008301526131b381612bbd565b9050919050565b600060208201905081810360008301526131d381612be0565b9050919050565b600060208201905081810360008301526131f381612c03565b9050919050565b6000602082019050818103600083015261321381612c26565b9050919050565b6000602082019050818103600083015261323381612c49565b9050919050565b6000602082019050818103600083015261325381612c6c565b9050919050565b600060408201905061326f6000830185612c8f565b61327c6020830184612f08565b9392505050565b60006080820190506132986000830189612c8f565b6132a56020830188612f08565b81810360408301526132b8818688612946565b905081810360608301526132cd81848661299e565b9050979650505050505050565b60006060820190506132ef6000830186612c8f565b6132fc6020830185612f26565b6133096040830184612f08565b949350505050565b6000602082019050818103600083015261332b8184612c96565b905092915050565b60006020820190506133486000830184612ef9565b92915050565b60006040820190506133636000830185612ef9565b61337060208301846127db565b9392505050565b600060408201905061338c6000830185612ef9565b61339960208301846129fb565b9392505050565b60006040820190506133b56000830185612ef9565b81810360208301526133c78184612d40565b90509392505050565b60006040820190506133e56000830185612ef9565b81810360208301526133f78184612e15565b90509392505050565b60006040820190506134156000830185612ef9565b6134226020830184612ef9565b9392505050565b600060208201905061343e6000830184612f17565b92915050565b60006040820190506134596000830185612f17565b6134666020830184612ef9565b9392505050565b6000613477613488565b9050613483828261373c565b919050565b6000604051905090565b600067ffffffffffffffff8211156134ad576134ac61381e565b5b6134b68261384d565b9050602081019050919050565b6000819050919050565b6000819050919050565b6000819050919050565b6000819050919050565b60008190508160005260206000209050919050565b600060029050919050565b600060029050919050565b600060049050919050565b600081519050919050565b6000602082019050919050565b6000602082019050919050565b6000602082019050919050565b6000602082019050919050565b600081905092915050565b600081905092915050565b600081905092915050565b600081905092915050565b600082825260208201905092915050565b600082825260208201905092915050565b600082825260208201905092915050565b600082825260208201905092915050565b60006135df60208401846121c1565b905092915050565b600073ffffffffffffffffffffffffffffffffffffffff82169050919050565b6000819050919050565b600061361c82613639565b9050919050565b60008115159050919050565b6000819050919050565b600073ffffffffffffffffffffffffffffffffffffffff82169050919050565b6000819050919050565b600060ff82169050919050565b600061367b82613682565b9050919050565b600061368d82613639565b9050919050565b82818337600083830152505050565b60005b838110156136c15780820151818401526020810190506136a6565b838111156136d0576000848401525b50505050565b600060028204905060018216806136ee57607f821691505b60208210811415613702576137016137ef565b5b50919050565b600061371b6137168361385e565b6135e7565b9050919050565b60006137356137308361385e565b613607565b9050919050565b6137458261384d565b810181811067ffffffffffffffff821117156137645761376361381e565b5b80604052505050565b600061377882613659565b91507fffffffffffffffffffffffffffffffffffffffffffffffffffffffffffffffff8214156137ab576137aa6137c0565b5b600182019050919050565b6000819050919050565b7f4e487b7100000000000000000000000000000000000000000000000000000000600052601160045260246000fd5b7f4e487b7100000000000000000000000000000000000000000000000000000000600052602260045260246000fd5b7f4e487b7100000000000000000000000000000000000000000000000000000000600052604160045260246000fd5b6000601f19601f8301169050919050565b60008160001c9050919050565b7f53656d6170686f7265436f72653a20796f752063616e6e6f742075736520746860008201527f652073616d65206e756c6c696669657220747769636500000000000000000000602082015250565b7f53656d6170686f726547726f7570733a2067726f757020616c7265616479206560008201527f7869737473000000000000000000000000000000000000000000000000000000602082015250565b7f54726565206465707468206973206e6f7420737570706f727465640000000000600082015250565b7f4f6d436f6e74726163743a2067726f757020646f6573206e6f74206578697374600082015250565b7f44657074682076616c7565206973206e6f7420737570706f7274656400000000600082015250565b7f47726f75702063616e6e6f7420566f7465000000000000000000000000000000600082015250565b7f53656d6170686f726547726f7570733a2067726f757020646f6573206e6f742060008201527f6578697374000000000000000000000000000000000000000000000000000000602082015250565b7f47726f757020646f6573206e6f74206578697374000000000000000000000000600082015250565b7f47726f75702063616e6e6f742061646420446174610000000000000000000000600082015250565b7f53656d6170686f726547726f7570733a2067726f7570206964206d757374206260008201527f65203c20534e41524b5f5343414c41525f4649454c4400000000000000000000602082015250565b613aa681613611565b8114613ab157600080fd5b50565b613abd81613623565b8114613ac857600080fd5b50565b613ad48161362f565b8114613adf57600080fd5b50565b613aeb81613659565b8114613af657600080fd5b50565b613b0281613663565b8114613b0d57600080fd5b5056fea2646970667358221220eeaeea31abba6b3ed986c5df734f0573ef735ad8cd45be66bd6cde465a167fc164736f6c63430008040033",
  "linkReferences": {
    "@zk-kit/incremental-merkle-tree.sol/IncrementalBinaryTree.sol": {
      "IncrementalBinaryTree": [
        {
          "length": 20,
          "start": 1096
        },
        {
          "length": 20,
          "start": 9130
        },
        {
          "length": 20,
          "start": 9410
        },
        {
          "length": 20,
          "start": 10702
        }
      ]
    }
  },
  "deployedLinkReferences": {
    "@zk-kit/incremental-merkle-tree.sol/IncrementalBinaryTree.sol": {
      "IncrementalBinaryTree": [
        {
          "length": 20,
          "start": 6255
        },
        {
          "length": 20,
          "start": 6535
        },
        {
          "length": 20,
          "start": 7827
        }
      ]
    }
  }
}