{
  "_format": "hh-sol-artifact-1",
  "contractName": "OmContract",
  "sourceName": "contracts/Deleteme.sol",
  "abi": [
    {
      "inputs": [
        {
          "components": [
            {
              "internalType": "address",
              "name": "contractAddress",
              "type": "address"
            },
            {
              "internalType": "uint8",
              "name": "merkleTreeDepth",
              "type": "uint8"
            }
          ],
          "internalType": "struct OmContract.Verifier[]",
          "name": "_verifiers",
          "type": "tuple[]"
        }
      ],
      "stateMutability": "nonpayable",
      "type": "constructor"
    },
    {
      "anonymous": false,
      "inputs": [
        {
          "indexed": true,
          "internalType": "uint256",
          "name": "groupId",
          "type": "uint256"
        },
        {
          "indexed": false,
          "internalType": "uint8",
          "name": "depth",
          "type": "uint8"
        },
        {
          "indexed": false,
          "internalType": "uint256",
          "name": "zeroValue",
          "type": "uint256"
        }
      ],
      "name": "GroupCreated",
      "type": "event"
    },
    {
      "anonymous": false,
      "inputs": [
        {
          "indexed": true,
          "internalType": "uint256",
          "name": "groupId",
          "type": "uint256"
        },
        {
          "indexed": false,
          "internalType": "uint256",
          "name": "identityCommitment",
          "type": "uint256"
        },
        {
          "indexed": false,
          "internalType": "uint256",
          "name": "root",
          "type": "uint256"
        }
      ],
      "name": "MemberAdded",
      "type": "event"
    },
    {
      "anonymous": false,
      "inputs": [
        {
          "indexed": true,
          "internalType": "uint256",
          "name": "groupId",
          "type": "uint256"
        },
        {
          "indexed": false,
          "internalType": "uint256",
          "name": "identityCommitment",
          "type": "uint256"
        },
        {
          "indexed": false,
          "internalType": "uint256",
          "name": "root",
          "type": "uint256"
        }
      ],
      "name": "MemberRemoved",
      "type": "event"
    },
    {
      "anonymous": false,
      "inputs": [
        {
          "indexed": false,
          "internalType": "uint256",
          "name": "nullifierHash",
          "type": "uint256"
        }
      ],
      "name": "NullifierHashAdded",
      "type": "event"
    },
    {
      "inputs": [
        {
          "internalType": "uint256",
          "name": "",
          "type": "uint256"
        }
      ],
      "name": "ProposalList",
      "outputs": [
        {
          "internalType": "address",
          "name": "coordinator",
          "type": "address"
        },
        {
          "internalType": "uint256",
          "name": "yesCount",
          "type": "uint256"
        },
        {
          "internalType": "uint256",
          "name": "noCount",
          "type": "uint256"
        },
        {
          "internalType": "uint256",
          "name": "StartDate",
          "type": "uint256"
        },
        {
          "internalType": "uint256",
          "name": "EndDate",
          "type": "uint256"
        },
        {
          "internalType": "string",
          "name": "IpfsURI",
          "type": "string"
        }
      ],
      "stateMutability": "view",
      "type": "function"
    },
    {
      "inputs": [
        {
          "internalType": "uint256",
          "name": "groupId",
          "type": "uint256"
        },
        {
          "internalType": "uint256",
          "name": "identityCommitment",
          "type": "uint256"
        }
      ],
      "name": "addMember",
      "outputs": [],
      "stateMutability": "nonpayable",
      "type": "function"
    },
    {
      "inputs": [
        {
          "internalType": "uint256",
          "name": "",
          "type": "uint256"
        }
      ],
      "name": "canGroupAddData",
      "outputs": [
        {
          "internalType": "bool",
          "name": "",
          "type": "bool"
        }
      ],
      "stateMutability": "view",
      "type": "function"
    },
    {
      "inputs": [
        {
          "internalType": "uint256",
          "name": "",
          "type": "uint256"
        }
      ],
      "name": "canGroupPropose",
      "outputs": [
        {
          "internalType": "bool",
          "name": "",
          "type": "bool"
        }
      ],
      "stateMutability": "view",
      "type": "function"
    },
    {
      "inputs": [
        {
          "internalType": "bytes32",
          "name": "vote",
          "type": "bytes32"
        },
        {
          "internalType": "uint256",
          "name": "nullifierHash",
          "type": "uint256"
        },
        {
          "internalType": "uint256",
          "name": "pollId",
          "type": "uint256"
        },
        {
          "internalType": "uint256[8]",
          "name": "proof",
          "type": "uint256[8]"
        },
        {
          "internalType": "uint256",
          "name": "groupId",
          "type": "uint256"
        }
      ],
      "name": "castVote",
      "outputs": [],
      "stateMutability": "nonpayable",
      "type": "function"
    },
    {
      "inputs": [
        {
          "internalType": "uint8",
          "name": "depth",
          "type": "uint8"
        },
        {
          "internalType": "uint256",
          "name": "zeroValue",
          "type": "uint256"
        },
        {
          "internalType": "address",
          "name": "admin",
          "type": "address"
        },
        {
          "internalType": "bool",
          "name": "canPropose",
          "type": "bool"
        },
        {
          "internalType": "bool",
          "name": "canAddData",
          "type": "bool"
        }
      ],
      "name": "createGroup",
      "outputs": [],
      "stateMutability": "nonpayable",
      "type": "function"
    },
    {
      "inputs": [
        {
          "internalType": "address",
          "name": "coordinator",
          "type": "address"
        },
        {
          "internalType": "uint256",
          "name": "StartDate",
          "type": "uint256"
        },
        {
          "internalType": "uint256",
          "name": "EndDate",
          "type": "uint256"
        },
        {
          "internalType": "string",
          "name": "proposalURI",
          "type": "string"
        },
        {
          "internalType": "uint256",
          "name": "groupId",
          "type": "uint256"
        },
        {
          "internalType": "bytes32",
          "name": "signal",
          "type": "bytes32"
        },
        {
          "internalType": "uint256",
          "name": "nullifierHash",
          "type": "uint256"
        },
        {
          "internalType": "uint256",
          "name": "externalNullifier",
          "type": "uint256"
        },
        {
          "internalType": "uint256[8]",
          "name": "proof",
          "type": "uint256[8]"
        }
      ],
      "name": "createProposal",
      "outputs": [],
      "stateMutability": "nonpayable",
      "type": "function"
    },
    {
      "inputs": [],
      "name": "dataFileCounter",
      "outputs": [
        {
          "internalType": "uint256",
          "name": "",
          "type": "uint256"
        }
      ],
      "stateMutability": "view",
      "type": "function"
    },
    {
      "inputs": [
        {
          "internalType": "uint256",
          "name": "groupId",
          "type": "uint256"
        }
      ],
      "name": "getDepth",
      "outputs": [
        {
          "internalType": "uint8",
          "name": "",
          "type": "uint8"
        }
      ],
      "stateMutability": "view",
      "type": "function"
    },
    {
      "inputs": [
        {
          "internalType": "uint256",
          "name": "groupId",
          "type": "uint256"
        }
      ],
      "name": "getNumberOfLeaves",
      "outputs": [
        {
          "internalType": "uint256",
          "name": "",
          "type": "uint256"
        }
      ],
      "stateMutability": "view",
      "type": "function"
    },
    {
      "inputs": [
        {
          "internalType": "uint256",
          "name": "groupId",
          "type": "uint256"
        }
      ],
      "name": "getRoot",
      "outputs": [
        {
          "internalType": "uint256",
          "name": "",
          "type": "uint256"
        }
      ],
      "stateMutability": "view",
      "type": "function"
    },
    {
      "inputs": [
        {
          "internalType": "uint256",
          "name": "",
          "type": "uint256"
        }
      ],
      "name": "groupAdmins",
      "outputs": [
        {
          "internalType": "address",
          "name": "",
          "type": "address"
        }
      ],
      "stateMutability": "view",
      "type": "function"
    },
    {
      "inputs": [
        {
          "internalType": "uint256",
          "name": "",
          "type": "uint256"
        },
        {
          "internalType": "uint256",
          "name": "",
          "type": "uint256"
        }
      ],
      "name": "groupMembership",
      "outputs": [
        {
          "internalType": "uint256",
          "name": "",
          "type": "uint256"
        }
      ],
      "stateMutability": "view",
      "type": "function"
    },
    {
      "inputs": [],
      "name": "proposalCounter",
      "outputs": [
        {
          "internalType": "uint256",
          "name": "",
          "type": "uint256"
        }
      ],
      "stateMutability": "view",
      "type": "function"
    },
    {
      "inputs": [
        {
          "internalType": "uint256",
          "name": "groupId",
          "type": "uint256"
        },
        {
          "internalType": "uint256",
          "name": "identityCommitment",
          "type": "uint256"
        },
        {
          "internalType": "uint256[]",
          "name": "proofSiblings",
          "type": "uint256[]"
        },
        {
          "internalType": "uint8[]",
          "name": "proofPathIndices",
          "type": "uint8[]"
        }
      ],
      "name": "removeMember",
      "outputs": [],
      "stateMutability": "nonpayable",
      "type": "function"
    },
    {
      "inputs": [
        {
          "internalType": "uint8",
          "name": "",
          "type": "uint8"
        }
      ],
      "name": "verifiers",
      "outputs": [
        {
          "internalType": "contract IVerifier",
          "name": "",
          "type": "address"
        }
      ],
      "stateMutability": "view",
      "type": "function"
    }
  ],
  "bytecode": "0x60806040523480156200001157600080fd5b5060405162002b8038038062002b80833981810160405281019062000037919062000270565b60005b81518160ff1610156200014557818160ff168151811062000084577f4e487b7100000000000000000000000000000000000000000000000000000000600052603260045260246000fd5b60200260200101516000015160026000848460ff1681518110620000d1577f4e487b7100000000000000000000000000000000000000000000000000000000600052603260045260246000fd5b60200260200101516020015160ff1660ff16815260200190815260200160002060006101000a81548173ffffffffffffffffffffffffffffffffffffffff021916908373ffffffffffffffffffffffffffffffffffffffff16021790555080806200013c9062000384565b9150506200003a565b505062000456565b6000620001646200015e84620002de565b620002b5565b905080838252602082019050828560408602820111156200018457600080fd5b60005b85811015620001b857816200019d888262000206565b84526020840193506040830192505060018101905062000187565b5050509392505050565b600081519050620001d38162000422565b92915050565b600082601f830112620001eb57600080fd5b8151620001fd8482602086016200014d565b91505092915050565b6000604082840312156200021957600080fd5b620002256040620002b5565b905060006200023784828501620001c2565b60008301525060206200024d8482850162000259565b60208301525092915050565b6000815190506200026a816200043c565b92915050565b6000602082840312156200028357600080fd5b600082015167ffffffffffffffff8111156200029e57600080fd5b620002ac84828501620001d9565b91505092915050565b6000620002c1620002d4565b9050620002cf82826200034e565b919050565b6000604051905090565b600067ffffffffffffffff821115620002fc57620002fb620003e2565b5b602082029050602081019050919050565b60006200031a8262000321565b9050919050565b600073ffffffffffffffffffffffffffffffffffffffff82169050919050565b600060ff82169050919050565b620003598262000411565b810181811067ffffffffffffffff821117156200037b576200037a620003e2565b5b80604052505050565b6000620003918262000341565b915060ff821415620003a857620003a7620003b3565b5b600182019050919050565b7f4e487b7100000000000000000000000000000000000000000000000000000000600052601160045260246000fd5b7f4e487b7100000000000000000000000000000000000000000000000000000000600052604160045260246000fd5b6000601f19601f8301169050919050565b6200042d816200030d565b81146200043957600080fd5b50565b620004478162000341565b81146200045357600080fd5b50565b61271a80620004666000396000f3fe608060405234801561001057600080fd5b50600436106101005760003560e01c806341e7810011610097578063ac28eacd11610066578063ac28eacd146102d6578063b9c78c2b14610306578063db22151e14610336578063fc0f94251461035257610100565b806341e781001461023e57806343989f851461025a57806375e618c9146102765780639b24b3b0146102a657610100565b80631783efc3116100d35780631783efc3146101a45780632d69be98146101c057806337fce198146101f05780633fe29e2c1461022057610100565b806305874565146101055780630c0512e91461013a5780630dc80cf5146101585780631246373e14610188575b600080fd5b61011f600480360381019061011a91906117fb565b610382565b60405161013196959493929190611dfd565b60405180910390f35b610142610466565b60405161014f9190612079565b60405180910390f35b610172600480360381019061016d91906117fb565b61046c565b60405161017f9190611eac565b60405180910390f35b6101a2600480360381019061019d9190611782565b61048c565b005b6101be60048036038101906101b99190611824565b6106a8565b005b6101da60048036038101906101d591906118fb565b61079d565b6040516101e79190611ec7565b60405180910390f35b61020a60048036038101906102059190611824565b6107d0565b6040516102179190612079565b60405180910390f35b610228610801565b6040516102359190612079565b60405180910390f35b610258600480360381019061025391906116a4565b610807565b005b610274600480360381019061026f9190611860565b6109cc565b005b610290600480360381019061028b91906117fb565b610ac9565b60405161029d91906120bd565b60405180910390f35b6102c060048036038101906102bb91906117fb565b610af6565b6040516102cd9190612079565b60405180910390f35b6102f060048036038101906102eb91906117fb565b610b16565b6040516102fd9190611de2565b60405180910390f35b610320600480360381019061031b91906117fb565b610b49565b60405161032d9190612079565b60405180910390f35b610350600480360381019061034b9190611924565b610b69565b005b61036c600480360381019061036791906117fb565b610cee565b6040516103799190611eac565b60405180910390f35b60086020528060005260406000206000915090508060000160009054906101000a900473ffffffffffffffffffffffffffffffffffffffff16908060010154908060020154908060030154908060040154908060050180546103e39061231a565b80601f016020809104026020016040519081016040528092919081815260200182805461040f9061231a565b801561045c5780601f106104315761010080835404028352916020019161045c565b820191906000526020600020905b81548152906001019060200180831161043f57829003601f168201915b5050505050905086565b60095481565b60056020528060005260406000206000915054906101000a900460ff1681565b82610495610d0e565b73ffffffffffffffffffffffffffffffffffffffff166008600083815260200190815260200160002060000160009054906101000a900473ffffffffffffffffffffffffffffffffffffffff1673ffffffffffffffffffffffffffffffffffffffff1614610538576040517f08c379a000000000000000000000000000000000000000000000000000000000815260040161052f90611f82565b60405180910390fd5b600061054383610af6565b9050600061055084610ac9565b905060008160ff161415610599576040517f08c379a000000000000000000000000000000000000000000000000000000000815260040161059090611f22565b60405180910390fd5b6000600260008360ff1660ff16815260200190815260200160002060009054906101000a900473ffffffffffffffffffffffffffffffffffffffff1690506105e589848a8a8a86610d16565b6105ee8861106f565b7f79657300000000000000000000000000000000000000000000000000000000008914156106475760086000888152602001908152602001600020600101600081548092919061063d9061237d565b919050555061069d565b7f6e6f00000000000000000000000000000000000000000000000000000000000089141561069c576008600088815260200190815260200160002060020160008154809291906106969061237d565b91905055505b5b505050505050505050565b816106b1610d0e565b73ffffffffffffffffffffffffffffffffffffffff166008600083815260200190815260200160002060000160009054906101000a900473ffffffffffffffffffffffffffffffffffffffff1673ffffffffffffffffffffffffffffffffffffffff1614610754576040517f08c379a000000000000000000000000000000000000000000000000000000000815260040161074b90611f82565b60405180910390fd5b61075e838361109d565b60076000838152602001908152602001600020839080600181540180825580915050600190039060005260206000200160009091909190915055505050565b60026020528060005260406000206000915054906101000a900473ffffffffffffffffffffffffffffffffffffffff1681565b600760205281600052604060002081815481106107ec57600080fd5b90600052602060002001600091509150505481565b600a5481565b600061081286610af6565b9050600061081f87610ac9565b905060008160ff161415610868576040517f08c379a000000000000000000000000000000000000000000000000000000000815260040161085f90611f22565b60405180910390fd5b6000600260008360ff1660ff16815260200190815260200160002060009054906101000a900473ffffffffffffffffffffffffffffffffffffffff1690506108b4878488888886610d16565b6108bd8661106f565b600960008154809291906108d09061237d565b91905055506040518060c001604052808d73ffffffffffffffffffffffffffffffffffffffff16815260200160008152602001600081526020018c81526020018b81526020018a81525060086000600954815260200190815260200160002060008201518160000160006101000a81548173ffffffffffffffffffffffffffffffffffffffff021916908373ffffffffffffffffffffffffffffffffffffffff1602179055506020820151816001015560408201518160020155606082015181600301556080820151816004015560a08201518160050190805190602001906109ba92919061147e565b50905050505050505050505050505050565b856109d5610d0e565b73ffffffffffffffffffffffffffffffffffffffff166008600083815260200190815260200160002060000160009054906101000a900473ffffffffffffffffffffffffffffffffffffffff1673ffffffffffffffffffffffffffffffffffffffff1614610a78576040517f08c379a0000000000000000000000000000000000000000000000000000000008152600401610a6f90611f82565b60405180910390fd5b610a868787878787876111b5565b6007600087815260200190815260200160002087908060018154018082558091505060019003906000526020600020016000909190919091505550505050505050565b60006001600083815260200190815260200160002060000160009054906101000a900460ff169050919050565b600060016000838152602001908152602001600020600101549050919050565b60036020528060005260406000206000915054906101000a900473ffffffffffffffffffffffffffffffffffffffff1681565b600060016000838152602001908152602001600020600201549050919050565b84600073ffffffffffffffffffffffffffffffffffffffff16600260008360ff1660ff16815260200190815260200160002060009054906101000a900473ffffffffffffffffffffffffffffffffffffffff1673ffffffffffffffffffffffffffffffffffffffff161415610c13576040517f08c379a0000000000000000000000000000000000000000000000000000000008152600401610c0a90611f62565b60405180910390fd5b60066000815480929190610c269061237d565b9190505550610c3860065487876112d9565b8360036000600654815260200190815260200160002060006101000a81548173ffffffffffffffffffffffffffffffffffffffff021916908373ffffffffffffffffffffffffffffffffffffffff1602179055508260046000600654815260200190815260200160002060006101000a81548160ff0219169083151502179055508160056000600654815260200190815260200160002060006101000a81548160ff021916908315150217905550505050505050565b60046020528060005260406000206000915054906101000a900460ff1681565b600033905090565b60008085815260200190815260200160002060009054906101000a900460ff1615610d76576040517f08c379a0000000000000000000000000000000000000000000000000000000008152600401610d6d90611ee2565b60405180910390fd5b6000610d8187611447565b90508173ffffffffffffffffffffffffffffffffffffffff16635fe8c13b604051806040016040528086600060088110610de4577f4e487b7100000000000000000000000000000000000000000000000000000000600052603260045260246000fd5b6020020135815260200186600160088110610e28577f4e487b7100000000000000000000000000000000000000000000000000000000600052603260045260246000fd5b60200201358152506040518060400160405280604051806040016040528089600260088110610e80577f4e487b7100000000000000000000000000000000000000000000000000000000600052603260045260246000fd5b6020020135815260200189600360088110610ec4577f4e487b7100000000000000000000000000000000000000000000000000000000600052603260045260246000fd5b60200201358152508152602001604051806040016040528089600460088110610f16577f4e487b7100000000000000000000000000000000000000000000000000000000600052603260045260246000fd5b6020020135815260200189600560088110610f5a577f4e487b7100000000000000000000000000000000000000000000000000000000600052603260045260246000fd5b6020020135815250815250604051806040016040528088600660088110610faa577f4e487b7100000000000000000000000000000000000000000000000000000000600052603260045260246000fd5b6020020135815260200188600760088110610fee577f4e487b7100000000000000000000000000000000000000000000000000000000600052603260045260246000fd5b602002013581525060405180608001604052808c81526020018b81526020018781526020018a8152506040518563ffffffff1660e01b81526004016110369493929190611e65565b60006040518083038186803b15801561104e57600080fd5b505afa158015611062573d6000803e3d6000fd5b5050505050505050505050565b600160008083815260200190815260200160002060006101000a81548160ff02191690831515021790555050565b60006110a883610ac9565b60ff1614156110ec576040517f08c379a00000000000000000000000000000000000000000000000000000000081526004016110e390611f42565b60405180910390fd5b6001600083815260200190815260200160002073__$4c0484323457fe1a856f46a4759b553fe4$__63168703fa9091836040518363ffffffff1660e01b8152600401611139929190611fc2565b60006040518083038186803b15801561115157600080fd5b505af4158015611165573d6000803e3d6000fd5b50505050600061117483610af6565b9050827f03fd27265b7dd1f55558bedc22a58fa3b10afb1be776e614bd5a7ba7b949940683836040516111a8929190612094565b60405180910390a2505050565b60006111c087610ac9565b60ff161415611204576040517f08c379a00000000000000000000000000000000000000000000000000000000081526004016111fb90611f42565b60405180910390fd5b6001600087815260200190815260200160002073__$4c0484323457fe1a856f46a4759b553fe4$__630629596f909187878787876040518763ffffffff1660e01b815260040161125996959493929190611feb565b60006040518083038186803b15801561127157600080fd5b505af4158015611285573d6000803e3d6000fd5b50505050600061129487610af6565b9050867fe270325ded177064d7bda473e6519ef40a291058c41286f71a6e4872f1e9ab5c87836040516112c8929190612094565b60405180910390a250505050505050565b7f30644e72e131a029b85045b68181585d2833e84879b9709143e1f593f0000001831061133b576040517f08c379a000000000000000000000000000000000000000000000000000000000815260040161133290611fa2565b60405180910390fd5b600061134684610ac9565b60ff1614611389576040517f08c379a000000000000000000000000000000000000000000000000000000000815260040161138090611f02565b60405180910390fd5b6001600084815260200190815260200160002073__$4c0484323457fe1a856f46a4759b553fe4$__63b4bdd117909184846040518463ffffffff1660e01b81526004016113d893929190612042565b60006040518083038186803b1580156113f057600080fd5b505af4158015611404573d6000803e3d6000fd5b50505050827fc3082aa494e9088c2c9f0fb62a0b6bd46e6699acb94cfba35be29b95a93f68c8838360405161143a9291906120d8565b60405180910390a2505050565b600060088260405160200161145c9190611dc7565b6040516020818303038152906040528051906020012060001c901c9050919050565b82805461148a9061231a565b90600052602060002090601f0160209004810192826114ac57600085556114f3565b82601f106114c557805160ff19168380011785556114f3565b828001600101855582156114f3579182015b828111156114f25782518255916020019190600101906114d7565b5b5090506115009190611504565b5090565b5b8082111561151d576000816000905550600101611505565b5090565b600061153461152f84612126565b612101565b90508281526020810184848401111561154c57600080fd5b6115578482856122d8565b509392505050565b60008135905061156e81612671565b92915050565b60008190508260206008028201111561158c57600080fd5b92915050565b60008083601f8401126115a457600080fd5b8235905067ffffffffffffffff8111156115bd57600080fd5b6020830191508360208202830111156115d557600080fd5b9250929050565b60008083601f8401126115ee57600080fd5b8235905067ffffffffffffffff81111561160757600080fd5b60208301915083602082028301111561161f57600080fd5b9250929050565b60008135905061163581612688565b92915050565b60008135905061164a8161269f565b92915050565b600082601f83011261166157600080fd5b8135611671848260208601611521565b91505092915050565b600081359050611689816126b6565b92915050565b60008135905061169e816126cd565b92915050565b60008060008060008060008060006102008a8c0312156116c357600080fd5b60006116d18c828d0161155f565b99505060206116e28c828d0161167a565b98505060406116f38c828d0161167a565b97505060608a013567ffffffffffffffff81111561171057600080fd5b61171c8c828d01611650565b965050608061172d8c828d0161167a565b95505060a061173e8c828d0161163b565b94505060c061174f8c828d0161167a565b93505060e06117608c828d0161167a565b9250506101006117728c828d01611574565b9150509295985092959850929598565b6000806000806000610180868803121561179b57600080fd5b60006117a98882890161163b565b95505060206117ba8882890161167a565b94505060406117cb8882890161167a565b93505060606117dc88828901611574565b9250506101606117ee8882890161167a565b9150509295509295909350565b60006020828403121561180d57600080fd5b600061181b8482850161167a565b91505092915050565b6000806040838503121561183757600080fd5b60006118458582860161167a565b92505060206118568582860161167a565b9150509250929050565b6000806000806000806080878903121561187957600080fd5b600061188789828a0161167a565b965050602061189889828a0161167a565b955050604087013567ffffffffffffffff8111156118b557600080fd5b6118c189828a01611592565b9450945050606087013567ffffffffffffffff8111156118e057600080fd5b6118ec89828a016115dc565b92509250509295509295509295565b60006020828403121561190d57600080fd5b600061191b8482850161168f565b91505092915050565b600080600080600060a0868803121561193c57600080fd5b600061194a8882890161168f565b955050602061195b8882890161167a565b945050604061196c8882890161155f565b935050606061197d88828901611626565b925050608061198e88828901611626565b9150509295509295909350565b60006119a78383611a49565b60408301905092915050565b60006119bf8383611d6d565b60208301905092915050565b60006119d78383611db8565b60208301905092915050565b6119ec81612255565b82525050565b6119fb8161217f565b611a0581846121df565b9250611a1082612157565b8060005b83811015611a41578151611a28878261199b565b9650611a33836121ab565b925050600181019050611a14565b505050505050565b611a528161218a565b611a5c81846121ea565b9250611a6782612161565b8060005b83811015611a98578151611a7f87826119b3565b9650611a8a836121b8565b925050600181019050611a6b565b505050505050565b611aa98161218a565b611ab381846121f5565b9250611abe82612161565b8060005b83811015611aef578151611ad687826119b3565b9650611ae1836121b8565b925050600181019050611ac2565b505050505050565b611b0081612195565b611b0a8184612200565b9250611b158261216b565b8060005b83811015611b46578151611b2d87826119b3565b9650611b38836121c5565b925050600181019050611b19565b505050505050565b6000611b5a838561220b565b93507f07ffffffffffffffffffffffffffffffffffffffffffffffffffffffffffffff831115611b8957600080fd5b602083029250611b9a8385846122d8565b82840190509392505050565b6000611bb2838561221c565b9350611bbd82612175565b8060005b85811015611bf657611bd3828461223e565b611bdd88826119cb565b9750611be8836121d2565b925050600181019050611bc1565b5085925050509392505050565b611c0c81612267565b82525050565b611c23611c1e82612273565b6123c6565b82525050565b611c32816122b4565b82525050565b6000611c43826121a0565b611c4d818561222d565b9350611c5d8185602086016122e7565b611c668161245d565b840191505092915050565b6000611c7e60368361222d565b9150611c898261246e565b604082019050919050565b6000611ca160258361222d565b9150611cac826124bd565b604082019050919050565b6000611cc4601f8361222d565b9150611ccf8261250c565b602082019050919050565b6000611ce760258361222d565b9150611cf282612535565b604082019050919050565b6000611d0a60268361222d565b9150611d1582612584565b604082019050919050565b6000611d2d60338361222d565b9150611d38826125d3565b604082019050919050565b6000611d5060368361222d565b9150611d5b82612622565b604082019050919050565b8082525050565b611d768161229d565b82525050565b611d858161229d565b82525050565b611d948161229d565b82525050565b611da3816122a7565b82525050565b611db2816122a7565b82525050565b611dc1816122a7565b82525050565b6000611dd38284611c12565b60208201915081905092915050565b6000602082019050611df760008301846119e3565b92915050565b600060c082019050611e1260008301896119e3565b611e1f6020830188611d7c565b611e2c6040830187611d7c565b611e396060830186611d7c565b611e466080830185611d7c565b81810360a0830152611e588184611c38565b9050979650505050505050565b600061018082019050611e7b6000830187611aa0565b611e8860408301866119f2565b611e9560c0830185611aa0565b611ea3610100830184611af7565b95945050505050565b6000602082019050611ec16000830184611c03565b92915050565b6000602082019050611edc6000830184611c29565b92915050565b60006020820190508181036000830152611efb81611c71565b9050919050565b60006020820190508181036000830152611f1b81611c94565b9050919050565b60006020820190508181036000830152611f3b81611cb7565b9050919050565b60006020820190508181036000830152611f5b81611cda565b9050919050565b60006020820190508181036000830152611f7b81611cfd565b9050919050565b60006020820190508181036000830152611f9b81611d20565b9050919050565b60006020820190508181036000830152611fbb81611d43565b9050919050565b6000604082019050611fd76000830185611d66565b611fe46020830184611d8b565b9392505050565b60006080820190506120006000830189611d66565b61200d6020830188611d8b565b8181036040830152612020818688611b4e565b90508181036060830152612035818486611ba6565b9050979650505050505050565b60006060820190506120576000830186611d66565b6120646020830185611da9565b6120716040830184611d8b565b949350505050565b600060208201905061208e6000830184611d7c565b92915050565b60006040820190506120a96000830185611d7c565b6120b66020830184611d7c565b9392505050565b60006020820190506120d26000830184611d9a565b92915050565b60006040820190506120ed6000830185611d9a565b6120fa6020830184611d7c565b9392505050565b600061210b61211c565b9050612117828261234c565b919050565b6000604051905090565b600067ffffffffffffffff8211156121415761214061242e565b5b61214a8261245d565b9050602081019050919050565b6000819050919050565b6000819050919050565b6000819050919050565b6000819050919050565b600060029050919050565b600060029050919050565b600060049050919050565b600081519050919050565b6000602082019050919050565b6000602082019050919050565b6000602082019050919050565b6000602082019050919050565b600081905092915050565b600081905092915050565b600081905092915050565b600081905092915050565b600082825260208201905092915050565b600082825260208201905092915050565b600082825260208201905092915050565b600061224d602084018461168f565b905092915050565b60006122608261227d565b9050919050565b60008115159050919050565b6000819050919050565b600073ffffffffffffffffffffffffffffffffffffffff82169050919050565b6000819050919050565b600060ff82169050919050565b60006122bf826122c6565b9050919050565b60006122d18261227d565b9050919050565b82818337600083830152505050565b60005b838110156123055780820151818401526020810190506122ea565b83811115612314576000848401525b50505050565b6000600282049050600182168061233257607f821691505b60208210811415612346576123456123ff565b5b50919050565b6123558261245d565b810181811067ffffffffffffffff821117156123745761237361242e565b5b80604052505050565b60006123888261229d565b91507fffffffffffffffffffffffffffffffffffffffffffffffffffffffffffffffff8214156123bb576123ba6123d0565b5b600182019050919050565b6000819050919050565b7f4e487b7100000000000000000000000000000000000000000000000000000000600052601160045260246000fd5b7f4e487b7100000000000000000000000000000000000000000000000000000000600052602260045260246000fd5b7f4e487b7100000000000000000000000000000000000000000000000000000000600052604160045260246000fd5b6000601f19601f8301169050919050565b7f53656d6170686f7265436f72653a20796f752063616e6e6f742075736520746860008201527f652073616d65206e756c6c696669657220747769636500000000000000000000602082015250565b7f53656d6170686f726547726f7570733a2067726f757020616c7265616479206560008201527f7869737473000000000000000000000000000000000000000000000000000000602082015250565b7f53656d6170686f72653a2067726f757020646f6573206e6f7420657869737400600082015250565b7f53656d6170686f726547726f7570733a2067726f757020646f6573206e6f742060008201527f6578697374000000000000000000000000000000000000000000000000000000602082015250565b7f53656d6170686f72653a2074726565206465707468206973206e6f742073757060008201527f706f727465640000000000000000000000000000000000000000000000000000602082015250565b7f53656d6170686f7265566f74696e673a2063616c6c6572206973206e6f74207460008201527f686520706f6c6c20636f6f7264696e61746f7200000000000000000000000000602082015250565b7f53656d6170686f726547726f7570733a2067726f7570206964206d757374206260008201527f65203c20534e41524b5f5343414c41525f4649454c4400000000000000000000602082015250565b61267a81612255565b811461268557600080fd5b50565b61269181612267565b811461269c57600080fd5b50565b6126a881612273565b81146126b357600080fd5b50565b6126bf8161229d565b81146126ca57600080fd5b50565b6126d6816122a7565b81146126e157600080fd5b5056fea2646970667358221220cf815d040169d1cbc08fb2131b8475c56dd508f2e423b7acde6bc496b9156c8e64736f6c63430008040033",
  "linkReferences": {
    "@zk-kit/incremental-merkle-tree.sol/contracts/IncrementalBinaryTree.sol": {
      "IncrementalBinaryTree": [
        {
          "length": 20,
          "start": 5479
        },
        {
          "length": 20,
          "start": 5759
        },
        {
          "length": 20,
          "start": 6148
        }
      ]
    }
  },
  "deployedLinkReferences": {
    "@zk-kit/incremental-merkle-tree.sol/contracts/IncrementalBinaryTree.sol": {
      "IncrementalBinaryTree": [
        {
          "length": 20,
          "start": 4353
        },
        {
          "length": 20,
          "start": 4633
        },
        {
          "length": 20,
          "start": 5022
        }
      ]
    }
  }
}